:100000000C947F4B0C94A04B0C9450D10C94A04BAF
:100010000C94A04B0C94A04B0C94A04B0C94A04BB4
:100020000C94A04B0C94A04B0C94A04B0C947BD341
:100030000C94A04B0C94A04B0C94CBB50C94A04BFF
:100040000C94A04B0C94A04B0C94A04B0C94A04B84
:100050000C94A04B0C94A04B0C94A04B0C94A04B74
:100060000C94A04B0C946AD10C94F9D00C94A04B36
:100070000C94C3CA0C9465CA0C94A1CA0C94A04BEE
:100080000C941BD20C94A04B0C94A04B0C94A04B42
:100090000C94A04B0C94A04B0C94A04B0C94A04B34
:1000A0000C94A04B0C94A04B0C94A04B0C9448BD0A
:1000B0000C94ECBD0C94A04B0C94A04B0C94BCB7CE
:1000C0000C94A04B0C94A04B0C94A04B0C94A04B04
:1000D0000C94A04B0C94A04B0C94A04B0C94A04BF4
:1000E0000C9403A80C94A04B0C94A04B0C94A04B24
:1000F0000C94A04B0C94A04B0C94A04B0C94A04BD4
:100100000C941FBD0C94C3BD0C94F6BC0C949ABD0A
:100110000C94A04B0C94A04B0C94A04B0C94A04BB3
:100120000C94A04B0C94A04B0C94A04B0C94A04BA3
:100130000C94A04B0C9420B70C94A04B0C94A04BA7
:100140000C94A04B0C94A04B0C94A04B0C94A04B83
:100150000C94A04B0C94A04B0C94F9A70C94A04BBE
:100160000C94A04B0C94A04B0C94A04B0C94A04B63
:100170000C94A04B0C94A04B0C94A04B0C94A04B53
:100180000C94A04B0C94A04B0C94A04B0C94A04B43
:100190000C94A04B0C94A04B0C94A04B0C94A04B33
:1001A0000C9471BD0C9415BE0C94A04B0C94A04BF8
:1001B0000C946EB70C94A04B0C94A04B0C94A04BD9
:1001C0000C94A04B0C94A04B0C94A04B0C94A04B03
:1001D0000C94A04B0C94A04B0C94A04B0C94A04BF3
:1001E0000C94A04B0C94A04BD174DB74E574EF74A9
:1001F000FA74907A907A907A907A907A0075907AE0
:10020000907A907A907A907A907A02750C75167539
:1002100020752A75907A907A907A907A907A907A6E
:100220003475907A8A75907A907A907A907A907AEA
:10023000907A907AC975907A7F78907A907A907A4D
:10024000907A907A907A907A907A7F78907A907A71
:10025000907AF675FB7505760F7611761B76267605
:10026000907A3176907A907A6E76907A907A907AC7
:10027000907A907A907A907A907A907A907A907A2E
:10028000907A907A907A907A7876907A907A907A3A
:10029000907A907A907A907A907A907A82768C7628
:1002A0009676DF76E976027702770C7716772077F5
:1002B0002A773477397743774D77907A907A907AA6
:1002C000907A907A907A907A907A907A907A907ADE
:1002D000907A907A907A907A907A907A907A907ACE
:1002E000907A0C77907A907A907A907A907A907A45
:1002F000907A907A907A907A907A907A907A907AAE
:10030000907A907A907A577761776B777577907A51
:10031000907A907A907A907A907A907A907A02771E
:10032000217AE279E679EE79CA79CE79D679DA79E5
:10033000FA790D7A157A197A1D7A797AF279F07745
:1003400001781278907A907A8A77C274907A2378BA
:10035000347845787F78F3766778907A9B77907ACF
:100360005678AC777F77907A907A907ABD77CE770F
:10037000DF7799BCA1BCA9BCB1BCB9BCC1BCC9BC2C
:1003800017BF74BE7CBE84BE8CBE94BE9CBEA4BE91
:10039000ACBEB4BEBCBEC4BECCBED4BEDCBEFCBE15
:1003A000FCBEFCBEFCBEFCBEFCBEFCBEFCBEFCBE7D
:1003B000FCBEFCBEFCBEFCBEFCBEFCBEFCBEFCBE6D
:1003C000FCBEFCBEFCBEFCBEFCBEFCBEFCBEFCBE5D
:1003D000FCBEFCBEFCBEFCBEFCBEFCBEFCBEFCBE4D
:1003E000FCBEFCBEE4BEECBEFCBEFCBEFCBEFCBE65
:1003F000FCBEFCBEFCBEFCBEFCBEFCBEFCBEFCBE2D
:10040000FCBEFCBEFCBEFCBEFCBEFCBEFCBEFCBE1C
:10041000FCBEFCBEFCBEFCBEFCBEFCBEFCBEFCBE0C
:10042000FCBEFCBEFCBEFCBEFCBEFCBEFCBEFCBEFC
:10043000FCBEFCBEFCBEFCBEFCBEFCBEFCBEFCBEEC
:10044000FCBEFCBEFCBEF4BE084AD73B3BCE016EF0
:1004500084BCBFFDC12F3D6C74319ABD56833DDA1B
:100460003D00C77F11BED9E4BB4C3E916BAAAABE2A
:10047000000000803F05A84CCDB2D44EB93836A953
:10048000020C50B9918688083CA6AAAA2ABE000090
:1004900000803F07634236B79BD8A71A39685618C1
:1004A000AEBAAB558C1D3CB7CC5763BD6DEDFD7539
:1004B0003EF6177231BF000000803F08000000BE0A
:1004C000922449123EABAAAA2ABECDCCCC4C3E0007
:1004D000000080BEABAAAAAA3E00000000BF000038
:1004E00000803F0000000000084178D3BB4387D163
:1004F000133D190E3CC3BD4282AD2B3E68EC8276A3
:10050000BED98FE1A93E4C80EFFFBE01C4FF7F3F03
:100510000000000000000C94395A0C94DA790C9415
:10052000A65F0C942C600C944B5A0C94E26B0C94C8
:1005300094BE0C94A9BC0C9418830C940C750C9468
:100540006CCD0C94F3760C94DB740C94437C0C947B
:1005500017BF0C943A5D0C9468A90C9412780C9413
:1005600039640C947B6C0C94125D0C94515A0C946D
:10057000F6750C94165D0C9402770C943EBE0C94A8
:100580000AC30C9459AD0C941F5E0C9447BA0C949A
:10059000FA740C94095F0C94A2670C94B64B0C94FB
:1005A00080C90C949B660C944B7C0C94FDBB0C9402
:1005B00002750C9434750C94AC4B0C9482760C94AC
:1005C000675A0C94B4660C9458A90C94515C0C9422
:1005D00056780C94615D0C941B5B0C94197A0C9406
:1005E00062BE0C94A24B0C9406610C941B760C9486
:1005F000237D0C94F87C0C94CE790C94477C0C945D
:1006000099D00C940D7A0C942F610C948F6B0C94F0
:10061000F25C0C942A5D0C94EDC80C94365D0C943D
:10062000A1820C941B6B0C94DA670C9420750C94CB
:100630003F5E0C9423780C948CBE0C94157A0C9429
:1006400005760C943F5A0C94865A0C9404520C94E0
:10065000D4AE0C94EACE0C94CA5F0C94A1BC0C945A
:1006600028B00C940B5E0C943B5E0C945CA90C942B
:10067000C25D0C94585C0C949CBE0C941DAD0C9403
:10068000B55A0C940E4F0C9474BE0C9419AD0C9486
:10069000325D0C94B0660C94AE5B0C940F760C94A7
:1006A00031760C9460A90C94775C0C94335A0C94BA
:1006B000425D0C94375E0C941D5C0C94705A0C9443
:1006C00091BB0C94DF760C94455A0C94C9750C942C
:1006D000805D0C94CA790C94217A0C94D5C20C9448
:1006E000B1BC0C9439770C9425670C942B5E0C9458
:1006F00067780C9434770C9453AD0C94CC5A0C94CA
:1007000001780C94075E0C94915A0C94F54B0C9460
:10071000BD770C940A5D0C94D6790C9475770C9483
:10072000F4BE0C947E5B0C94DF6E0C94D8CD0C94CC
:10073000D0AE0C94825F0C94E2790C94ACBE0C9415
:10074000E9760C94D1740C94ECBE0C94D76E0C9496
:10075000A4BE0C94A8C80C94F8860C94E5BB0C9429
:10076000E6790C94CBC30C9443770C9454BA0C9454
:10077000E57A0C94D6C20C9414830C944F7C0C94A0
:10078000F1660C9496760C9489710C94F15B0C9440
:1007900020770C94EEC20C9457770C945EBE0C94A8
:1007A000FE5C0C943F670C9445780C9416770C947F
:1007B0002A770C94237C0C941E5D0C9400750C9489
:1007C00000CA0C94EABB0C94F65C0C9499BC0C9493
:1007D0009C930C94FCBE0C94C0660C9416750C94FF
:1007E000435E0C9488570C9438CE0C940B670C9491
:1007F00061770C941B5E0C94E4BE0C94FA5C0C9430
:1008000078760C947F780C94064C0C948C760C942F
:10081000907A0C94B8660C9401BC0C94CA600C9449
:1008200013C90C94225C0C94B4BB0C94FFAF0C94D1
:100830002A600C9457BB0C9412CA0C9427C30C94D6
:1008400044BE0C948F610C946E760C9450A90C9459
:10085000435C0C948A770C94FA790C944D770C9441
:100860004ECF0C94DDBB0C94E0610C94CE770C94CD
:10087000CB7B0C94265D0C94A1C90C941D7A0C942E
:10088000DF770C949E840C94537C0C946B770C94BF
:10089000B9BC0C948E7C0C94C4BE0C94025D0C9478
:1008A000116C0C9456610C947E5F0C94A5700C94A2
:1008B000CD7C0C94C1BC0C94E1BB0C9423720C94C1
:1008C000F9BB0C94C9BC0C94455B0C94065D0C946C
:1008D0008E600C947CBE0C9434780C94D57A0C9475
:1008E0001CAA0C94135E0C940E5D0C947BAE0C94BD
:1008F00048A90C941A5D0C9490AE0C9452600C9420
:100900009B770C94AC770C946C6B0C94D8CC0C94B7
:10091000DCBE0C942E5D0C94BC660C94BCBE0C9496
:10092000845D0C947B5A0C941BAD0C949C5A0C94D3
:10093000E5740C94EF740C9426760C947F770C94E9
:100940004D660C94F0770C94C8AE0C94475E0C94F2
:100950008A750C944CA90C943C5C0C940C770C9408
:100960006F6A0C946A670C945C5A0C9410830C9414
:1009700064A90C946FCE0C94A2710C943E5D0C94FF
:10098000EE790C946CA90C9455AD0C9465720C9492
:1009900006CC0C945E5E0C94275E0C94175E0C944F
:1009A000225D0C9454A90C944A5C0C94A35D0C94A5
:1009B000FB750C942F5E0C94535E0C940F5E0C949C
:1009C000CCBE0C9461BA0C942A750C94A86B0C9450
:1009D000E35A0C94B4BE0C94F15F0C94F2790C942D
:1009E000CCAE0C94265A0C94D4BE0C94235E0C947A
:1009F000335E0C94ACAE0C94C15B0C94797A0C947D
:100A0000965C0C9411760C941E7C0C94C2740C941D
:100A100022BB0C9484BE5B257325735D2025732057
:100A2000257320706F736974696F6E2531382E33AA
:100A30006625730A005B257325735D2025732025C9
:100A400073206F66667365742532302E33662573A6
:100A50000A005B257325735D202573207A65726F0C
:100A6000206261636B6F66662531392E33662573AC
:100A70000A005B257325735D202573206C61746308
:100A800068206261636B6F66662531382E33662598
:100A9000730A005B257325735D202573206C6174D8
:100AA00063682076656C6F636974792531332E3005
:100AB0006625732F6D696E0A005B257325735D20B3
:100AC0002573207365617263682076656C6F636956
:100AD00074792531322E306625732F6D696E0A00C8
:100AE0005B257325735D20257320737769746368B4
:100AF000206D617825313764205B303D6F66662C50
:100B0000313D686F6D696E672C323D6C696D69743B
:100B10002C333D6C696D69742B686F6D696E675D10
:100B20000A005B257325735D202573207377697434
:100B30006368206D696E25313764205B303D6F66D8
:100B4000662C313D686F6D696E672C323D6C696D46
:100B500069742C333D6C696D69742B686F6D696EB7
:100B6000675D0A005B257325735D20257320726124
:100B7000646975732076616C75652532302E346634
:100B800025730A005B257325735D202573206A7524
:100B90006E6374696F6E20646576696174696F6EE7
:100BA0002531342E3466257320286C617267657296
:100BB00020697320666173746572290A005B25736E
:100BC00025735D202573206A65726B20686F6D69DF
:100BD0006E672531362E306625732F6D696E5E3354
:100BE000202A2031206D696C6C696F6E0A005B25CC
:100BF0007325735D202573206A65726B206D6178A3
:100C0000696D756D2531352E306625732F6D696ED2
:100C10005E33202A2031206D696C6C696F6E0A008A
:100C20005B257325735D2025732074726176656C76
:100C3000206D696E696D756D2531372E33662573AC
:100C40000A005B257325735D20257320747261761D
:100C5000656C206D6178696D756D2531372E336651
:100C600025730A005B257325735D20257320766547
:100C70006C6F63697479206D6178696D756D25316C
:100C8000312E306625732F6D696E0A005B25732542
:100C9000735D202573206665656472617465206DDF
:100CA0006178696D756D2531312E306625732F6D34
:100CB000696E0A005B257325735D202573206178BA
:100CC0006973206D6F6465253138642025730A00CF
:100CD0005B6D615D20206D696E20617263207365BC
:100CE000676D656E742531382E336625730A005B97
:100CF0006D6C5D20206D696E206C696E652073657A
:100D0000676D656E742531372E336625730A005B77
:100D1000736C5D2020736F6674206C696D6974203C
:100D2000656E61626C65253132640A005B63745DD7
:100D3000202063686F7264616C20746F6C657261EF
:100D40006E63652531362E336625730A005B6A6152
:100D50005D20206A756E6374696F6E2061636365E0
:100D60006C65726174696F6E25382E306625730A62
:100D7000005B6764695D2064656661756C742067FB
:100D8000636F64652064697374616E6365206D6F61
:100D90006465253264205B303D4739302C313D4756
:100DA00039315D0A005B6770615D2064656661755D
:100DB0006C742067636F6465207061746820636F72
:100DC0006E74726F6C253364205B303D4736312C76
:100DD000313D4736312E312C323D4736345D0A00E5
:100DE0005B67636F5D2064656661756C7420676323
:100DF0006F646520636F6F72642073797374656DBF
:100E0000253364205B312D3620284735342D473576
:100E100039295D0A005B67756E5D206465666175E2
:100E20006C742067636F646520756E697473206DE0
:100E30006F6465253564205B303D4732302C313D91
:100E40004732315D0A005B67706C5D2064656661E6
:100E5000756C742067636F646520706C616E6525C6
:100E6000313064205B303D4731372C313D473138DC
:100E70002C323D4731395D0A00256320776F726B54
:100E8000206F66667365743A2531322E336625739A
:100E90000A002563206D616368696E6520706F7359
:100EA0006E3A2531312E336625730A002563207092
:100EB0006F736974696F6E3A2531352E3366257309
:100EC0000A00546F6F6C206E756D62657220202071
:100ED0002020202020202025640A0046656564200B
:100EE00072617465206D6F64653A20202020202097
:100EF00025730A0044697374616E6365206D6F64C5
:100F0000653A2020202020202025730A005061749B
:100F100068204D6F64653A2020202020202020206A
:100F2000202025730A00506C616E653A2020202035
:100F3000202020202020202020202025730A004D62
:100F40006F74696F6E206D6F64653A2020202020D9
:100F50002020202025730A00436F6F7264696E6140
:100F600074652073797374656D3A20202025730AA7
:100F700000556E6974733A20202020202020202004
:100F800020202020202025730A00486F6D696E679D
:100F90002073746174653A202020202020202025B1
:100FA000730A0046656564686F6C642073746174CD
:100FB000653A20202020202025730A004D6F746997
:100FC0006F6E2073746174653A20202020202020E9
:100FD0002025730A004379636C652073746174651E
:100FE0003A20202020202020202025730A00526152
:100FF00077206D616368696E652073746174653A0A
:1010000020202025730A004D616368696E65207396
:10101000746174653A2020202020202025730A0066
:101020004C696E65206E756D6265723A2531302EA1
:1010300030660A004665656420726174653A253140
:10104000362E336625732F6D696E0A0056656C6FF8
:10105000636974793A2531372E336625732F6D69AC
:101060006E0A00BA1089106910473935202D207595
:101070006E6974732D7065722D7265766F6C757400
:10108000696F6E206D6F646500473934202D2075BF
:101090006E6974732D7065722D6D696E757465203F
:1010A0006D6F64652028692E652E20666565647203
:1010B000617465206D6F64652900473933202D20E8
:1010C000696E76657273652074696D65206D6F64F5
:1010D0006500F610D610473931202D20696E6372F5
:1010E000656D656E74616C2064697374616E6365AF
:1010F000206D6F646500473930202D206162736F69
:101100006C7574652064697374616E6365206D6FBE
:1011100064650047112F111911473634202D2063C3
:101120006F6E74696E756F7573206D6F64650047BF
:1011300036312E31202D2065786163742073746FF1
:1011400070206D6F646500473631202D2065786111
:1011500063742070617468206D6F64650081117222
:10116000116311473139202D20595A20706C616E5E
:101170006500473138202D20585A20706C616E650B
:1011800000473137202D20585920706C616E650062
:101190000D12FB11E211C1119A11473830202D2098
:1011A00063616E63656C206D6F74696F6E206D6F27
:1011B000646520286E6F6E652061637469766529A9
:1011C00000473320202D20636F756E746572206395
:1011D0006C6F636B77697365206172632066656508
:1011E0006400473220202D20636C6F636B77697336
:1011F0006520617263206665656400473120202D9B
:10120000206C696E656172206665656400473020F8
:10121000202D206C696E6561722074726176657232
:10122000736520287365656B2900D412BA12A01269
:1012300086126C1252123812473539202D20636FF6
:101240006F7264696E6174652073797374656D2063
:101250003600473538202D20636F6F7264696E61E8
:1012600074652073797374656D20350047353720B8
:101270002D20636F6F7264696E617465207379737A
:1012800074656D203400473536202D20636F6F72F2
:1012900064696E6174652073797374656D203300C1
:1012A000473535202D20636F6F7264696E617465F8
:1012B0002073797374656D203200473534202D20FA
:1012C000636F6F7264696E6174652073797374659E
:1012D0006D203100473533202D206D616368696EC4
:1012E0006520636F6F7264696E61746520737973D2
:1012F00074656D0007130113FA12486F6D696E670C
:1013000000486F6D6564004E6F7420486F6D6564B2
:10131000003B13361331132B1326131D13456E6434
:1013200020486F6C6400486F6C6400446563656CB2
:1013300000506C616E0053796E63004F6666004E1C
:10134000134A134513486F6C640052756E00537452
:101350006F700078136E13681361135D134A6F6723
:1013600000486F6D696E670050726F6265004D6175
:101370006368696E696E67004F666600AE13A813F6
:10138000A2139D13991393138A1353687574646F92
:10139000776E004379636C6500456E640053746F2B
:1013A0007000416C61726D00526561647900496E34
:1013B000697469616C697A696E670011140B1405B0
:1013C000140014FC13F813F313ED13E713E013DC0C
:1013D00013D31353687574646F776E004A6F670098
:1013E000486F6D696E67004379636C650050726F7A
:1013F000626500486F6C640052756E00456E640053
:1014000053746F7000416C61726D00526561647954
:1014100000496E697469616C697A696E6700381495
:101420002214473231202D206D696C6C696D657412
:101430006572206D6F646500473230202D20696E23
:1014400063686573206D6F646500721467145B14C4
:1014500052145B7261646975735D005B696E6869E3
:1014600062697465645D005B7374616E646172646B
:101470005D005B64697361626C65645D008C1488F7
:101480001483142064656700206D6D0020696E0070
:101490002A2A2A204E4F54494345202A2A2A2052DC
:1014A0006573657474696E6720626175642072612A
:1014B000746520746F202573005B6E65745D202059
:1014C0006E6574776F726B206D6F6465253136645D
:1014D000205B303D6D61737465725D0A005B626113
:1014E00075645D2055534220626175642072617499
:1014F0006525313564205B313D393630302C323D45
:1015000031393230302C333D33383430302C343DA7
:1015100035373630302C353D3131353230302C36A0
:101520003D3233303430305D0A005B65785D202019
:10153000656E61626C6520666C6F7720636F6E7498
:10154000726F6C25313064205B303D6F66662C31E4
:101550003D584F4E2F584F46462C20323D52545343
:101560002F4354535D0A005B65655D2020656E6105
:10157000626C65206563686F25313864205B303D9F
:101580006F66662C313D6F6E5D0A005B65635D20A2
:1015900020657870616E64204C4620746F20435241
:1015A0004C46206F6E205458253664205B303D6FCA
:1015B00066662C313D6F6E5D0A00ED15E815E2158B
:1015C000DC15D615CF15C815323330343030003124
:1015D0003135323030003537363030003338343042
:1015E000300031393230300039363030003000735D
:1015F0007973006662000000000702437CF15F2AF5
:10160000602E34AE87D9437379730066760000008C
:10161000000703477CF15F2A603234EC51783F7356
:1016200079730068700000000007004B7CF15F5682
:101630006136340000803F737973006876000000E3
:101640000007004F7CF15F237C3A340000004173B7
:101650007973006964000000000400537CCB7B2A8E
:10166000602A3400000000000000006E000000004E
:10167000000100F25CB55A06611E2C00000000005B
:101680000000006C696E6500000100F25CCC5A0637
:10169000611E2C000000000000000076656C000058
:1016A000000002585CE35A2A602A3400000000005F
:1016B0000000006665656400000002775CF15F2A47
:1016C000605B2C0000000000000000737461740077
:1016D000000000F65C265A2A602A34000000000050
:1016E0000000006D61637300000000FA5C335A2A49
:1016F000602A34000000000000000063796373007A
:10170000000000FE5C395A2A602A34000000000004
:101710000000006D6F747300000000025D3F5A2AE4
:10172000602A340000000000000000686F6C640054
:10173000000000065D455A2A602A340000000000BF
:10174000000000756E6974000000000E5D515A2A99
:10175000602A340000000000000000636F6F720018
:10176000000000125D5C5A2A602A3400000000006C
:101770000000006D6F6D6F00000000165D675A2A53
:10178000602A340000000000000000706C616E00F0
:101790000000001A5D705A2A602A34000000000020
:1017A00000000070617468000000001E5D7B5A2A12
:1017B000602A3400000000000000006469737400B7
:1017C000000000225D865A2A602A340000000000D2
:1017D00000000066726D6F00000000265D915A2ABD
:1017E000602A340000000000000000746F6F6C007D
:1017F0000000002A5D9C5A2A602A34000000006D17
:10180000706F006D706F7800000003535E455B2AB7
:10181000602A34000000006D706F006D706F7900F9
:10182000000003535E455B2A602A34000000006D0F
:10183000706F006D706F7A00000003535E455B2A85
:10184000602A34000000006D706F006D706F6100E1
:10185000000003535E455B2A602A34000000006DDF
:10186000706F006D706F6200000003535E455B2A6D
:10187000602A34000000006D706F006D706F6300AF
:10188000000003535E455B2A602A340000000070AC
:101890006F7300706F737800000003475E1B5B2A54
:1018A000602A3400000000706F7300706F7379005D
:1018B000000003475E1B5B2A602A340000000070B2
:1018C0006F7300706F737A00000003475E1B5B2A22
:1018D000602A3400000000706F7300706F73610045
:1018E000000003475E1B5B2A602A34000000007082
:1018F0006F7300706F736200000003475E1B5B2A0A
:10190000602A3400000000706F7300706F73630012
:10191000000003475E1B5B2A602A34000000006F52
:101920006673006F667378000000035E5E7E5B2A5C
:10193000602A34000000006F6673006F66737900E0
:101940000000035E5E7E5B2A602A34000000006FA8
:101950006673006F66737A000000035E5E7E5B2A2A
:10196000602A34000000006F6673006F66736100C8
:101970000000035E5E7E5B2A602A34000000006F78
:101980006673006F667362000000035E5E7E5B2A12
:10199000602A34000000006F6673006F6673630096
:1019A0000000035E5E7E5B2A602A3400000000684F
:1019B0006F6D00686F6D65000000000A5D4B5A2274
:1019C0005C2A3400000000686F6D00686F6D78005D
:1019D000000000475E825F2A60F32B000000006871
:1019E0006F6D00686F6D7900000000475E825F2AAE
:1019F00060F42B00000000686F6D00686F6D7A0066
:101A0000000000475E825F2A60F52B00000000683E
:101A10006F6D00686F6D6100000000475E825F2A95
:101A200060F62B00000000686F6D00686F6D62004B
:101A3000000000475E825F2A60F72B00000000680C
:101A40006F6D00686F6D6300000000475E825F2A63
:101A500060F82B0000000070726200707262650016
:101A6000000000D5C2825F2A60F92B0000000070E0
:101A70007262007072627800000003D5C2F15F2AC2
:101A800060FA2B00000000707262007072627900D0
:101A9000000003D5C2F15F2A60FE2B000000007039
:101AA0007262007072627A00000003D5C2F15F2A90
:101AB00060022C00000000707262007072626100AF
:101AC000000003D5C2F15F2A60062C000000007000
:101AD0007262007072626200000003D5C2F15F2A78
:101AE000600A2C0000000070726200707262630075
:101AF000000003D5C2F15F2A600E2C000000006ACE
:101B00006F67006A6F677800000000D5C27E5F3C97
:101B10005C182C000000006A6F67006A6F6779002C
:101B2000000000D5C27E5F435C182C000000006AF4
:101B30006F67006A6F677A00000000D5C27E5F4A57
:101B40005C182C000000006A6F67006A6F67610014
:101B5000000000D5C27E5F515C182C000000000020
:101B6000000000737200000000000053AD19AD1BAF
:101B7000AD2A340000000000000000717200000077
:101B8000000000C8AE7BAE2A602A340000000000CE
:101B90000000007169000000000000CCAE90AE2A89
:101BA000602A340000000000000000716F00000097
:101BB000000000D0AEACAE2A602A34000000000065
:101BC0000000006572000000000000D5C21CAA2AB7
:101BD000602A340000000000000000716600000070
:101BE000000000D5C27E5F1D5C2A340000000000AA
:101BF00000000072780000000000000AC39B662A03
:101C0000602A3400000000000000006D73670000CF
:101C1000000000D6C27E5F2A602A34000000000067
:101C2000000000636C656172000000D5C2045204BC
:101C3000522A340000000000000000746573740034
:101C4000000000D5C2CD7C62BE2A34000000000036
:101C50000000006465666100000000D5C2F87C09E0
:101C60005F2A340000000000000000626F6F740003
:101C7000000000D5C2237D1E7C2A34000000000035
:101C800000000068656C7000000000D5C28E7C2AE0
:101C9000602A34000000000000000068000000001E
:101CA000000000D5C28E7C2A602A3400000000317A
:101CB000000000316D610000000300E1BB825F2C79
:101CC00060475000000000310000003173610000E7
:101CD000000303E5BBF15F47BA4F506666E63F314C
:101CE0000000003174720000000B04EABBF15F5485
:101CF000BA53500000A03F31000000316D69000070
:101D0000000300F9BB825F61BA4850000000413116
:101D100000000031706F0000000300FDBB825F52C5
:101D2000604950000000003100000031706D00007B
:101D300000030001BC825F22BB4A50000000403219
:101D4000000000326D610000000300E1BB825F2CE7
:101D50006063500000803F32000000327361000079
:101D6000000303E5BBF15F47BA6B506666E63F329E
:101D70000000003274720000000B04EABBF15F54F3
:101D8000BA6F500000A03F32000000326D690000C1
:101D9000000300F9BB825F61BA6450000000413269
:101DA00000000032706F0000000300FDBB825F5234
:101DB000606550000000003200000032706D0000CD
:101DC00000030001BC825F22BB665000000040336C
:101DD000000000336D610000000300E1BB825F2C56
:101DE000607F50000000403300000033736100004A
:101DF000000303E5BBF15F47BA87506666E63F33F1
:101E00000000003374720000000B04EABBF15F5461
:101E1000BA8B500000A03F33000000336D69000012
:101E2000000300F9BB825F61BA80500000004133BB
:101E300000000033706F0000000300FDBB825F52A2
:101E4000608150000000003300000033706D00001E
:101E500000030001BC825F22BB82500000004034BE
:101E6000000000346D610000000300E1BB825F2CC4
:101E7000609B50000040403400000034736100005B
:101E8000000303E5BBF15F47BAA3506666E63F3443
:101E90000000003474720000000B04EABBF15F54D0
:101EA000BAA7500000B44334000000346D6900004C
:101EB000000300F9BB825F61BA9C5000000041340E
:101EC00000000034706F0000000300FDBB825F5211
:101ED000609D50000000003400000034706D000070
:101EE00000030001BC825F22BB9E500000004078CE
:101EF00000000078616D0000000300C25DAE5BC1B0
:101F00005BC72A0000803F7800000078766D0000F3
:101F1000000B000B5EF15F8F61CC2A000048447813
:101F20000000007866720000000B00075EF15F8F12
:101F300061C82A000048447800000078746E0000F0
:101F4000000B03135EF15F8F61D42A00000000785C
:101F500000000078746D0000000B030F5EF15F8FCE
:101F600061D02A0000164378000000786A6D0000F6
:101F7000000B00175EF15FF15BD82A0000A04178EA
:101F8000000000786A680000000B001B5EF15FF142
:101F90005BDC2A0000A04178000000786A64000041
:101FA000000B041F5EF15F8F61E02ACDCC4C3D78C1
:101FB00000000078736E0000000300275E825F441B
:101FC000BEEB290000803F780000007873780000A5
:101FD0000003002B5E825F44BEEC29000000007805
:101FE0000000007873760000000B002F5EF15F8F19
:101FF00061E82A0000FA4378000000786C7600005F
:10200000000B00335EF15F8F61EC2A0000C842785C
:10201000000000786C620000000B03375EF15F8FF8
:1020200061F02A0000A04078000000787A62000089
:10203000000B033B5EF15F8F61F42A0000803F7963
:1020400000000079616D0000000300C25DAE5BC15D
:102050005BF82A0000803F7900000079766D00006F
:10206000000B000B5EF15F8F61FD2A000048447990
:102070000000007966720000000B00075EF15F8FC0
:1020800061F92A000048447900000079746E00006C
:10209000000B03135EF15F8F61052B0000000079D8
:1020A00000000079746D0000000B030F5EF15F8F7C
:1020B00061012B0000164379000000796A6D000071
:1020C000000B00175EF15FF15B092B0000A0417966
:1020D000000000796A680000000B001B5EF15FF1F0
:1020E0005B0D2B0000A04179000000796A640000BC
:1020F000000B041F5EF15F8F61112BCDCC4C3D793D
:1021000000000079736E0000000300275E825F44C8
:10211000BEED290000803F7900000079737800004F
:102120000003002B5E825F44BEEE290000000079B0
:102130000000007973760000000B002F5EF15F8FC6
:1021400061192B0000FA4379000000796C760000D9
:10215000000B00335EF15F8F611D2B0000C84279D8
:10216000000000796C620000000B03375EF15F8FA6
:1021700061212B0000A04079000000797A62000004
:10218000000B033B5EF15F8F61252B0000803F7ADF
:102190000000007A616D0000000300C25DAE5BC10B
:1021A0005B292B0000803F7A0000007A766D0000EA
:1021B000000B000B5EF15F8F612E2B000048447A0C
:1021C0000000007A66720000000B00075EF15F8F6E
:1021D000612A2B000048447A0000007A746E0000E7
:1021E000000B03135EF15F8F61362B000000007A55
:1021F0000000007A746D0000000B030F5EF15F8F2A
:1022000061322B000096427A0000007A6A6D00006D
:10221000000B00175EF15FF15B3A2B0000A0417AE2
:102220000000007A6A680000000B001B5EF15FF19D
:102230005B3E2B0000A0417A0000007A6A64000037
:10224000000B041F5EF15F8F61422BCDCC4C3D7AB9
:102250000000007A736E0000000300275E825F4476
:10226000BEEF29000000007A0000007A73780000B9
:102270000003002B5E825F44BEF0290000803F7A9D
:102280000000007A73760000000B002F5EF15F8F74
:10229000614A2B0000C8437A0000007A6C76000087
:1022A000000B00335EF15F8F614E2B0000C8427A55
:1022B0000000007A6C620000000B03375EF15F8F54
:1022C00061522B0000A0407A0000007A7A62000080
:1022D000000B033B5EF15F8F61562B0000803F6176
:1022E00000000061616D0000000300C25DAE5BC1D3
:1022F0005B5A2B000040406100000061766D0000D9
:102300000003000B5EF15F56615F2B0000614861C6
:102310000000006166720000000300075EF15F5676
:10232000615B2B000061486100000061746E000079
:10233000000303135EF15F8F61672B000080BF61B4
:1023400000000061746D00000003030F5EF15F5632
:1023500061632B000080BF61000000616A6D0000B6
:10236000000300175EF15FF15B6B2B0000B4456169
:10237000000000616A6800000003001B5EF15FF16D
:102380005B6F2B0000B44561000000616A640000CF
:102390000003041F5EF15F5661732BCDCC4C3D6191
:1023A0000000006172610000000B03235EF15F56C4
:1023B00061772BD5B74B3E6100000061736E000062
:1023C000000300275E825F44BEF1290000803F6168
:1023D00000000061737800000003002B5E825F4400
:1023E000BEF2290000000061000000617376000069
:1023F0000003002F5EF15F56617B2B0000164461E5
:10240000000000616C760000000300335EF15F564F
:10241000617F2B0000C84261000000616C62000017
:10242000000303375EF15F5661832B0000A040611B
:10243000000000617A6200000003033B5EF15F561A
:1024400061872B000000406200000062616D0000A7
:10245000000300C25DAE5BC15B8B2B00000000621D
:1024600000000062766D00000003000B5EF15F5615
:1024700061902B00006145620000006266720000FE
:10248000000300075EF15F56618C2B00006145621E
:1024900000000062746E0000000303135EF15F8FA2
:1024A00061982B000080BF6200000062746D000024
:1024B0000003030F5EF15F5661942B000080BF6242
:1024C000000000626A6D0000000300175EF15FF11A
:1024D0005B9C2B0000A04162000000626A64000067
:1024E0000003001F5EF15F5661A42BCDCC4C3D6212
:1024F0000000006272610000000B03235EF15F5672
:1025000061A82B0000803F6300000063616D000044
:10251000000300C25DAE5BC15BBC2B00000000632A
:1025200000000063766D00000003000B5EF15F5653
:1025300061C12B000061456300000063667200000A
:10254000000300075EF15F5661BD2B00006145632B
:1025500000000063746E0000000303135EF15F8FE0
:1025600061C92B000080BF6300000063746D000030
:102570000003030F5EF15F5661C52B000080BF634F
:10258000000000636A6D0000000300175EF15FF158
:102590005BCD2B0000A04163000000636A64000073
:1025A0000003001F5EF15F5661D52BCDCC4C3D631F
:1025B0000000006372610000000B03235EF15F56B0
:1025C00061D92B0000803F7031000070316672715C
:1025D00000030048A9F15F5661264F0000C8427011
:1025E000310000703163736C0003004CA9F15F5639
:1025F000612A4F00007A44703100007031637368C3
:1026000000030050A9F15F56612E4F0000FA44709C
:10261000310000703163706C00030354A9F15F5600
:1026200061324F0000003E7031000070316370680D
:1026300000030358A9F15F5661364FCDCC4C3E7074
:10264000310000703177736C0003005CA9F15F56B4
:10265000613A4F00007A447031000070317773683E
:1026600000030060A9F15F56613E4F0000FA44701C
:10267000310000703177706C00030364A9F15F567C
:1026800061424F0000003E70310000703177706889
:1026900000030368A9F15F5661464FCDCC4C3E70F4
:1026A0003100007031706F660003036CA9F15F5652
:1026B000614A4FCDCCCC3D67353400673534780066
:1026C000000B033F5EF15F8F61372A000000006757
:1026D0003534006735347900000B033F5EF15F8FBE
:1026E000613B2A00000000673534006735347A000A
:1026F000000B033F5EF15F8F613F2A00000000671F
:102700003534006735346100000B033F5EF15F8FA5
:1027100061432A00000000673534006735346200E9
:10272000000B033F5EF15F8F61472A0000000067E6
:102730003534006735346300000B033F5EF15F8F73
:10274000614B2A0000000067353500673535780099
:10275000000B033F5EF15F8F614F2A0000964267D6
:102760003535006735357900000B033F5EF15F8F2B
:1027700061532A00009642673535006735357A0087
:10278000000B033F5EF15F8F61572A000000006776
:102790003535006735356100000B033F5EF15F8F13
:1027A000615B2A000000006735350067353562003F
:1027B000000B033F5EF15F8F615F2A00000000673E
:1027C0003535006735356300000B033F5EF15F8FE1
:1027D00061632A00000000673536006735367800EF
:1027E000000B033F5EF15F8F61672A000000006706
:1027F0003536006735367900000B033F5EF15F8F99
:10280000616B2A00000000673536006735367A00B4
:10281000000B033F5EF15F8F616F2A0000000067CD
:102820003536006735366100000B033F5EF15F8F80
:1028300061732A0000000067353600673536620094
:10284000000B033F5EF15F8F61772A000000006795
:102850003536006735366300000B033F5EF15F8F4E
:10286000617B2A0000000067353700673537780044
:10287000000B033F5EF15F8F617F2A00000000675D
:102880003537006735377900000B033F5EF15F8F06
:1028900061832A00000000673537006735377A000A
:1028A000000B033F5EF15F8F61872A000000006725
:1028B0003537006735376100000B033F5EF15F8FEE
:1028C000618B2A00000000673537006735376200EA
:1028D000000B033F5EF15F8F618F2A0000000067ED
:1028E0003537006735376300000B033F5EF15F8FBC
:1028F00061932A000000006735380067353878009A
:10290000000B033F5EF15F8F61972A0000000067B4
:102910003538006735387900000B033F5EF15F8F73
:10292000619B2A00000000673538006735387A005F
:10293000000B033F5EF15F8F619F2A00000000677C
:102940003538006735386100000B033F5EF15F8F5B
:1029500061A32A000000006735380067353862003F
:10296000000B033F5EF15F8F61A72A000000006744
:102970003538006735386300000B033F5EF15F8F29
:1029800061AB2A00000000673539006735397800EF
:10299000000B033F5EF15F8F61AF2A00000000670C
:1029A0003539006735397900000B033F5EF15F8FE1
:1029B00061B32A00000000673539006735397A00B5
:1029C000000B033F5EF15F8F61B72A0000000067D4
:1029D0003539006735396100000B033F5EF15F8FC9
:1029E00061BB2A0000000067353900673539620095
:1029F000000B033F5EF15F8F61BF2A00000000679C
:102A00003539006735396300000B033F5EF15F8F96
:102A100061C32A000000006739320067393278004C
:102A20000001033F5EF15F2A608F2C000000006709
:102A300039320067393279000001033F5EF15F2AC5
:102A400060932C00000000673932006739327A0049
:102A50000001033F5EF15F2A60972C0000000067D1
:102A600039320067393261000001033F5EF15F2AAD
:102A7000609B2C0000000067393200673932620029
:102A80000001033F5EF15F2A609F2C000000006799
:102A900039320067393263000001033F5EF15F2A7B
:102AA00060A32C00000000673238006732387800DD
:102AB000000103435EF15F2A60A72C00000000675D
:102AC0003238006732387900000103435EF15F2A33
:102AD00060AB2C00000000673238006732387A00A3
:102AE000000103435EF15F2A60AF2C000000006725
:102AF0003238006732386100000103435EF15F2A1B
:102B000060B32C0000000067323800673238620082
:102B1000000103435EF15F2A60B72C0000000067EC
:102B20003238006732386300000103435EF15F2AE8
:102B300060BB2C0000000067333000673330780042
:102B4000000103435EF15F2A60BF2C0000000067B4
:102B50003330006733307900000103435EF15F2AB0
:102B600060C32C00000000673330006733307A0008
:102B7000000103435EF15F2A60C72C00000000677C
:102B80003330006733306100000103435EF15F2A98
:102B900060CB2C00000000673330006733306200E8
:102BA000000103435EF15F2A60CF2C000000006744
:102BB0003330006733306300000103435EF15F2A66
:102BC00060D32C000000006A6964006A69646100D7
:102BD000000000D5C2CA5F2F615234000000006AB5
:102BE0006964006A69646200000000D5C2CA5F2F90
:102BF000615634000000006A6964006A6964630019
:102C0000000000D5C2CA5F2F615A34000000006A7C
:102C10006964006A69646400000000D5C2CA5F2F5D
:102C2000615E3400000000737973006A6100000087
:102C3000000700425DF15F8F61052A0050C34773B2
:102C40007973006374000000000704615DF15F8F19
:102C500061092A0AD7233C73797300736C00000062
:102C6000000700805D825F2C600D2A000000007369
:102C700079730073740000000007005EBE825F3E3F
:102C8000BEE02900000000737973006D740000003D
:102C9000000702DDBBF15F57BB435000000040005E
:102CA0000000006D65000000000000D6C2B4BBB497
:102CB000BB2A3400000000000000006D640000002A
:102CC000000000D6C291BB91BB2A34000000007303
:102CD000797300656A0000000007001083825F526C
:102CE00060DF330000803F737973006A7600000074
:102CF0000007001483825FA182F93700000040734F
:102D00007973006A730000000007001883825F5225
:102D100060FB370000803F73797300747600000019
:102D2000000700CBC3825F5260AA510000803F734E
:102D30007973007176000000000700D4AE825FCA8C
:102D4000607C4F0000000073797300737600000010
:102D500000070059AD825F8E60894F0000803F738D
:102D6000797300736900000000070055ADA65F1D70
:102D7000AD8A4F00007A43737973006563000000E9
:102D8000000700B066825F6A67E0330000000073EE
:102D90007973006565000000000700B466825FDAA1
:102DA00067E133000000007379730065780000006C
:102DB000000700B866825FA267E2330000803F73BD
:102DC0007973006261756400000400BC66825F4D27
:102DD00066E3330000A040737973006E65740000F1
:102DE000000700C066825F2C604134000000007361
:102DF00079730067706C00000007002E5D825F8EA3
:102E0000601B2A000000007379730067756E000074
:102E1000000700325D825F52601C2A0000803F7311
:102E200079730067636F0000000700365D825F2CD6
:102E3000601A2A0000803F73797300677061000098
:102E40000007003A5D825F8E601D2A00000040731B
:102E500079730067646900000007003E5D825F527D
:102E6000601E2A00000000000000006763000000F0
:102E7000000000D5C2D57AE57A2A340000000000AF
:102E80000000006D6C000000000B04845DF15F8F9A
:102E9000610E2A0AD7A33D000000006D610000000A
:102EA000000B04A35DF15F8F61122ACDCCCC3D00F5
:102EB0000000006664000000000300EEC2825F5262
:102EC00060FA3700000000756461007564613000CD
:102ED0000003000AC3CA5F2F61E5330000000075DC
:102EE00064610075646131000003000AC3CA5F2F8A
:102EF00061E93300000000756461007564613200AF
:102F00000003000AC3CA5F2F61ED330000000075A3
:102F100064610075646133000003000AC3CA5F2F57
:102F200061F1330000000075646200756462300076
:102F30000003000AC3CA5F2F61F53300000000756B
:102F400064620075646231000003000AC3CA5F2F27
:102F500061F933000000007564620075646232003C
:102F60000003000AC3CA5F2F61FD33000000007533
:102F700064620075646233000003000AC3CA5F2FF5
:102F80006101340000000075646300756463300003
:102F90000003000AC3CA5F2F6105340000000075FA
:102FA00064630075646331000003000AC3CA5F2FC5
:102FB00061093400000000756463007564633200C9
:102FC0000003000AC3CA5F2F610D340000000075C2
:102FD00064630075646333000003000AC3CA5F2F93
:102FE0006111340000000075646400756464300091
:102FF0000003000AC3CA5F2F61153400000000758A
:1030000064640075646431000003000AC3CA5F2F62
:103010006119340000000075646400756464320056
:103020000003000AC3CA5F2F611D34000000007551
:1030300064640075646433000003000AC3CA5F2F30
:10304000612134000000005F7465005F74657800E2
:1030500000000227C3F15F2A60FE4C000000005F01
:103060007465005F7465790000000227C3F15F2A70
:1030700060024D000000005F7465005F74657A00B7
:1030800000000227C3F15F2A60064D000000005FC8
:103090007465005F7465610000000227C3F15F2A58
:1030A000600A4D000000005F7465005F7465620097
:1030B00000000227C3F15F2A600E4D000000005F90
:1030C0007465005F7465630000000227C3F15F2A26
:1030D00060124D000000005F7472005F747278002F
:1030E00000000227C3F15F2A60234E000000005F4A
:1030F0007472005F7472790000000227C3F15F2AC6
:1031000060274E000000005F7472005F74727A00E6
:1031100000000227C3F15F2A602B4E000000005F11
:103120007472005F7472610000000227C3F15F2AAD
:10313000602F4E000000005F7472005F74726200C6
:1031400000000227C3F15F2A60334E000000005FD9
:103150007472005F7472630000000227C3F15F2A7B
:1031600060374E000000005F7473005F74733100BD
:1031700000000227C3F15F2A608E4D000000005F4F
:103180007073005F7073310000000227C3F15F2A83
:10319000609E4D000000005F6373005F6373310049
:1031A00000000227C3F15F2A60AE4D000000005FFF
:1031B0006573005F6573310000000227C3F15F2A69
:1031C00060BE4D000000005F7873005F78733100CF
:1031D00000000227C3F15F2A60D250000000005FA8
:1031E0006665005F6665310000000227C3F15F2A53
:1031F00060CE4D000000005F7473005F7473320096
:1032000000000227C3F15F2A60924D000000005FBA
:103210007073005F7073320000000227C3F15F2AF1
:1032200060A24D000000005F6373005F63733200B3
:1032300000000227C3F15F2A60B24D000000005F6A
:103240006573005F6573320000000227C3F15F2AD7
:1032500060C24D000000005F7873005F7873320039
:1032600000000227C3F15F2A60EA50000000005FFF
:103270006665005F6665320000000227C3F15F2AC1
:1032800060D24D000000005F7473005F7473330000
:1032900000000227C3F15F2A60964D000000005F26
:1032A0007073005F7073330000000227C3F15F2A60
:1032B00060A64D000000005F6373005F637333001E
:1032C00000000227C3F15F2A60B64D000000005FD6
:1032D0006573005F6573330000000227C3F15F2A46
:1032E00060C64D000000005F7873005F78733300A4
:1032F00000000227C3F15F2A600251000000005F56
:103300006665005F6665330000000227C3F15F2A2F
:1033100060D64D000000005F7473005F747334006A
:1033200000000227C3F15F2A609A4D000000005F91
:103330007073005F7073340000000227C3F15F2ACE
:1033400060AA4D000000005F6373005F6373340088
:1033500000000227C3F15F2A60BA4D000000005F41
:103360006573005F6573340000000227C3F15F2AB4
:1033700060CA4D000000005F7873005F787334000E
:1033800000000227C3F15F2A601A51000000005FAD
:103390006665005F6665340000000227C3F15F2A9E
:1033A00060DA4D00000000000000005F64616D0005
:1033B000000000D5C2965C965C2A34000000000034
:1033C0000000007365303000000200D5C2A65F0621
:1033D00061954F000000000000000073653031006F
:1033E000000200D5C2A65F0661974F0000000000F2
:1033F0000000007365303200000200D5C2A65F06EF
:1034000061994F0000000000000000736530330038
:10341000000200D5C2A65F06619B4F0000000000BD
:103420000000007365303400000200D5C2A65F06BC
:10343000619D4F0000000000000000736530350002
:10344000000200D5C2A65F06619F4F000000000089
:103450000000007365303600000200D5C2A65F068A
:1034600061A14F00000000000000007365303700CC
:10347000000200D5C2A65F0661A34F000000000055
:103480000000007365303800000200D5C2A65F0658
:1034900061A54F0000000000000000736530390096
:1034A000000200D5C2A65F0661A74F000000000021
:1034B0000000007365313000000200D5C2A65F062F
:1034C00061A94F0000000000000000736531310069
:1034D000000200D5C2A65F0661AB4F0000000000ED
:1034E0000000007365313200000200D5C2A65F06FD
:1034F00061AD4F0000000000000000736531330033
:10350000000200D5C2A65F0661AF4F0000000000B8
:103510000000007365313400000200D5C2A65F06CA
:1035200061B14F00000000000000007365313500FC
:10353000000200D5C2A65F0661B34F000000000084
:103540000000007365313600000200D5C2A65F0698
:1035500061B54F00000000000000007365313700C6
:10356000000200D5C2A65F0661B74F000000000050
:103570000000007365313800000200D5C2A65F0666
:1035800061B94F0000000000000000736531390090
:10359000000200D5C2A65F0661BB4F00000000001C
:1035A0000000007365323000000200D5C2A65F063D
:1035B00061BD4F0000000000000000736532310063
:1035C000000200D5C2A65F0661BF4F0000000000E8
:1035D0000000007365323200000200D5C2A65F060B
:1035E00061C14F000000000000000073653233002D
:1035F000000200D5C2A65F0661C34F0000000000B4
:103600000000007365323400000200D5C2A65F06D8
:1036100061C54F00000000000000007365323500F6
:10362000000200D5C2A65F0661C74F00000000007F
:103630000000007365323600000200D5C2A65F06A6
:1036400061C94F00000000000000007365323700C0
:10365000000200D5C2A65F0661CB4F00000000004B
:103660000000007365323800000200D5C2A65F0674
:1036700061CD4F000000000000000073653239008A
:10368000000200D5C2A65F0661CF4F000000000017
:103690000000007379730000000000D5C23964E0B7
:1036A000612A3400000000000000007031000000BA
:1036B000000000D5C23964E0612A34000000000037
:1036C0000000003100000000000000D5C23964E0B5
:1036D000612A3400000000000000003200000000F9
:1036E000000000D5C23964E0612A34000000000007
:1036F0000000003300000000000000D5C23964E083
:10370000612A3400000000000000003400000000C6
:10371000000000D5C23964E0612A340000000000D6
:103720000000007800000000000000D5C23964E00D
:10373000612A340000000000000000790000000051
:10374000000000D5C23964E0612A340000000000A6
:103750000000007A00000000000000D5C23964E0DB
:10376000612A340000000000000000610000000039
:10377000000000D5C23964E0612A34000000000076
:103780000000006200000000000000D5C23964E0C3
:10379000612A340000000000000000630000000007
:1037A000000000D5C23964E0612A34000000000046
:1037B0000000006735340000000000D5C23964E025
:1037C000612A340000000000000000673535000069
:1037D000000000D5C23964E0612A34000000000016
:1037E0000000006735360000000000D5C23964E0F3
:1037F000612A340000000000000000673537000037
:10380000000000D5C23964E0612A340000000000E5
:103810000000006735380000000000D5C23964E0C0
:10382000612A340000000000000000673539000004
:10383000000000D5C23964E0612A340000000000B5
:103840000000006739320000000000D5C23964E092
:10385000612A3400000000000000006732380000D8
:10386000000000D5C23964E0612A34000000000085
:103870000000006733300000000000D5C23964E06A
:10388000612A3400000000000000006D706F00002D
:10389000000000D5C23964E0612A34000000000055
:1038A000000000706F730000000000D5C23964E0B2
:1038B000612A3400000000000000006F6673000001
:1038C000000000D5C23964E0612A34000000000025
:1038D000000000686F6D0000000000D5C23964E090
:1038E000612A3400000000000000007072620000D5
:1038F000000000D5C23964E0612A340000000000F5
:103900000000006A6F670000000000D5C23964E063
:10391000612A3400000000000000006A69640000B1
:10392000000000D5C23964E0612A340000000000C4
:103930000000007564610000000000D5C23964E039
:10394000612A34000000000000000075646200007D
:10395000000000D5C23964E0612A34000000000094
:103960000000007564630000000000D5C23964E007
:10397000612A34000000000000000075646400004B
:10398000000000D5C23964E0612A34000000000064
:103990000000005F74650000000000D5C23964E0DB
:1039A000612A3400000000000000005F7472000013
:1039B000000000D5C23964E0612A34000000000034
:1039C0000000005F74730000000000D5C23964E09D
:1039D000612A3400000000000000005F70730000E6
:1039E000000000D5C23964E0612A34000000000004
:1039F0000000005F63730000000000D5C23964E07E
:103A0000612A3400000000000000005F65730000C0
:103A1000000000D5C23964E0612A340000000000D3
:103A20000000005F78730000000000D5C23964E038
:103A3000612A3400000000000000005F666500009D
:103A4000000000D5C23964E0612A340000000000A3
:103A50000000006D00000000000000D5C225672AAC
:103A6000602A340000000000000000710000000027
:103A7000000000D5C20B672A602A34000000000055
:103A80000000006F00000000000000D5C2F1662AAF
:103A9000602A340000000000000000240000000044
:103AA000000000D5C23F672A602A340000000045AC
:103AB0006E64206F6620636F6D6D616E6420666951
:103AC0006C650A00486F6D696E67206572726F726F
:103AD000202D2025632061786973207365747469D3
:103AE0006E6773206D6973636F6E66696775726563
:103AF000640050726F62696E67206572726F722027
:103B00002D20256320617869732063616E6E6F7468
:103B1000206D6F766520647572696E672070726FB4
:103B200062696E670028636D2E6379636C655F73ED
:103B300074617465202569290A005B69645D202031
:103B400054696E7947204944253330730A005B6815
:103B5000765D202068617264776172652076657297
:103B600073696F6E2531362E32660A005B68705DB0
:103B70002020686172647761726520706C61746680
:103B80006F726D2531352E32660A005B66765D20D8
:103B9000206669726D776172652076657273696FF0
:103BA0006E2531362E32660A005B66625D20206625
:103BB00069726D77617265206275696C6425313850
:103BC0002E32660A00456E7465722024626F6F742F
:103BD0003D3120746F20656E7465722074686520B5
:103BE000626F6F74206C6F616465722E0A000A0A3E
:103BF0000A2323232054696E794720424F4F5420D3
:103C00004C4F414445522048656C70202323230AC1
:103C100000456E7465722024646566613D312074D0
:103C20006F2072657365742074686520737973748E
:103C3000656D20746F2074686520666163746F72AF
:103C4000792064656661756C742076616C75657346
:103C50002E0A546869732077696C6C206F766572E0
:103C6000777269746520616E79206368616E67653B
:103C70007320796F752068617665206D6164652EAB
:103C80000A000A0A0A2323232054696E7947205226
:103C90004553544F52452044454641554C545320BA
:103CA00048656C70202323230A00496E766F6B658C
:103CB0002073656C66207465737420627920656E6C
:103CC000746572696E672024746573743D4E207745
:103CD00068657265204E206973206F6E65206F667F
:103CE0003A0A202024746573743D312020736D6F6F
:103CF0006B6520746573740A202024746573743DA9
:103D0000322020686F6D696E67207465737420209F
:103D10002028796F75206D75737420747269702016
:103D2000686F6D696E67207377697463686573295E
:103D30000A202024746573743D33202073717561EB
:103D40007265207465737420202028612073657269
:103D5000696573206F662073717561726573290AD6
:103D6000202024746573743D3420206172632074B4
:103D700065737420202020202028736F6D65206CCF
:103D80006172676520636972636C6573290A20201C
:103D900024746573743D3520206477656C6C2074E1
:103DA00065737420202020286D6F766573207370F2
:103DB000616365642062792031207365636F6E648E
:103DC000206477656C6C73290A20202474657374F1
:103DD0003D36202066656564686F6C642074657389
:103DE000742028656E746572202120616E64207EC7
:103DF00020746F20686F6C6420616E64207265733C
:103E0000746172742C207265737065637469766571
:103E10006C79290A202024746573743D3720204D65
:103E200020636F64657320746573742020284D20AF
:103E3000636F64657320696E7465726D696E676C1B
:103E400065642077697468206D6F766573290A2030
:103E50002024746573743D3820204A534F4E2074DB
:103E60006573742020202020286D6F74696F6E2088
:103E7000746573742072756E207573696E67204A5D
:103E8000534F4E20636F6D6D616E6473290A20205D
:103E900024746573743D392020696E76657273658C
:103EA0002074696D6520746573740A20202474651C
:103EB00073743D313020726F74617279206D6F744C
:103EC000696F6E20746573740A202024746573749E
:103ED0003D313120736D616C6C206D6F76657320A0
:103EE000746573740A202024746573743D31322024
:103EF000736C6F77206D6F76657320746573740AC9
:103F0000202024746573743D313320636F6F7264B5
:103F1000696E6174652073797374656D206F666670
:103F2000736574207465737420284739322C2047D8
:103F300035342D473539290A0A5465737473206165
:103F40007373756D6520612063656E746572656459
:103F5000205859206F726967696E20616E64206114
:103F600074206C656173742038306D6D20636C65EE
:103F70006172616E636520696E20616C6C2064699A
:103F800072656374696F6E730A546573747320612C
:103F90007373756D65205A20686173206174206C9D
:103FA000656173742034306D6D20706F736969744E
:103FB00069766520636C656172616E63650A54653C
:103FC00073747320737461727420776974682061EC
:103FD000204730205830205930205A30206D6F76DD
:103FE000650A486F6D696E67206973207468652083
:103FF000657863657074696F6E2E204E6F20696EF0
:10400000697469616C20706F736974696F6E206F79
:104010007220636C656172616E63652069732061F3
:104020007373756D65640A000A0A0A2323232054FA
:10403000696E79472053454C4620544553542048D7
:10404000656C70202323230A0045616368202420C7
:10405000636F6D6D616E642061626F766520616C67
:10406000736F20646973706C617973207468652064
:10407000746F6B656E20666F722065616368207374
:10408000657474696E6720696E205B205D206272C2
:1040900061636B6574730A546F207669657720736A
:1040A000657474696E677320656E74657220612033
:1040B000746F6B656E3A0A0A2020243C746F6B653E
:1040C0006E3E0A0A466F72206578616D706C6520DD
:1040D0002479667220746F20646973706C61792032
:1040E0007468652059206D6178206665656420726A
:1040F0006174650A0A546F20757064617465207379
:10410000657474696E677320656E74657220746F70
:104110006B656E20657175616C732076616C756579
:104120003A0A0A2020243C746F6B656E3E3D3C7653
:10413000616C75653E0A0A466F72206578616D7024
:104140006C6520247966723D38303020746F20739E
:104150006574207468652059206D617820666565F6
:1041600064207261746520746F20383030206D6D6A
:104170002F6D696E7574650A466F7220636F6E6687
:10418000696775726174696F6E2064657461696CCA
:1041900073207365653A2068747470733A2F2F67C3
:1041A00069746875622E636F6D2F73796E746865BC
:1041B000746F732F54696E79472F77696B692F5429
:1041C000696E79472D436F6E6669677572617469B0
:1041D0006F6E0A00546865736520636F6D6D616E64
:1041E0006473206172652061637469766520666F0F
:1041F0007220636F6E66696775726174696F6E3A7B
:104200000A2020247379732053686F7720737973A1
:1042100074656D202867656E6572616C2920736511
:104220007474696E67730A2020243120202053683B
:104230006F77206D6F746F722031207365747469AD
:104240006E677320286F7220776861746576657277
:10425000206D6F746F7220796F752077616E742096
:10426000312C322C332C34290A2020247820202091
:1042700053686F7720582061786973207365747470
:10428000696E677320286F72207768617465766540
:1042900072206178697320796F752077616E742060
:1042A000782C792C7A2C612C622C63290A2020240A
:1042B0006D20202053686F7720616C6C206D6F74C7
:1042C0006F722073657474696E67730A202024719D
:1042D00020202053686F7720616C6C2061786973AF
:1042E0002073657474696E67730A2020246F202020
:1042F0002053686F7720616C6C206F6666736574FD
:104300002073657474696E67730A2020242420204A
:104310002053686F7720616C6C2073657474696ECC
:1043200067730A2020246820202053686F77207448
:104330006869732068656C702073637265656E0AC6
:104340000A000A0A0A2323232054696E794720436E
:104350004F4E46494755524154494F4E2048656C8F
:1043600070202323230A000A466F7220646574615B
:10437000696C65642054696E794720696E666F20A8
:104380007365653A2068747470733A2F2F67697487
:104390006875622E636F6D2F73796E746865746FC4
:1043A000732F54696E79472F77696B692F0A466FAF
:1043B0007220746865206C6174657374206669721C
:1043C0006D77617265207365653A206874747073E7
:1043D0003A2F2F6769746875622E636F6D2F73793A
:1043E0006E746865746F732F54696E79470A506CE8
:1043F00065617365206C6F6720616E7920697373E6
:1044000075657320617420687474703A2F2F777704
:10441000772E73796E746865746F732E636F6D2F6A
:10442000666F72756D730A486176652066756E0AEF
:10443000000A4E6F74653A2054696E7947206765AB
:104440006E657261746573206175746F6D617469F6
:104450006320737461747573207265706F72747306
:104460002062792064656661756C740A54686973AA
:104470002063616E2062652064697361626C6564AB
:1044800020627920656E746572696E672024737688
:104490003D300A536565207468652077696B692033
:1044A00062656C6F7720666F72206D6F7265206435
:1044B000657461696C732E0A0054686573652063C6
:1044C0006F6D6D616E6473206172652061637469E4
:1044D00076652066726F6D2074686520636F6D6D00
:1044E000616E64206C696E653A0A205E7820202037
:1044F0002020202020202020202052657365742059
:1045000028636F6E74726F6C207829202D20736F72
:104510006674776172652072657365740A20203F46
:10452000202020202020202020202020204D6163DA
:1045300068696E6520706F736974696F6E20616E53
:10454000642067636F6465206D6F64656C207374AD
:104550006174650A20202420202020202020202093
:104560002020202053686F7720616E64207365746B
:1045700020636F6E66696775726174696F6E207310
:10458000657474696E67730A202021202020202022
:10459000202020202020202046656564686F6C6400
:1045A000202D2073746F70206D6F74696F6E20778B
:1045B0006974686F7574206C6F73696E6720706FB3
:1045C000736974696F6E0A20207E202020202020CD
:1045D000202020202020204379636C6520537461C3
:1045E0007274202D20726573746172742066726F0C
:1045F0006D2066656564686F6C640A202068202001
:10460000202020202020202020202053686F772089
:10461000746869732068656C702073637265656E79
:104620000A20202468202020202020202020202054
:104630002053686F7720636F6E6669677572617467
:10464000696F6E2068656C702073637265656E0AB1
:104650002020247465737420202020202020202016
:104660004C6973742073656C662D74657374730A7A
:10467000202024746573743D4E20202020202020AB
:1046800052756E2073656C662D74657374204E0AC6
:10469000202024686F6D653D3120202020202020BF
:1046A00052756E206120686F6D696E672063796353
:1046B0006C650A202024646566613D31202020203D
:1046C000202020526573746F726520616C6C2073BA
:1046D000657474696E677320746F202266616374F9
:1046E0006F7279222064656661756C74730A000AC2
:1046F0000A0A2323232054696E79472048656C7089
:10470000202323230A005B6A735D20206A736F6E87
:104710002073657269616C697A65207374796C6560
:10472000253964205B303D72656C617865642C319D
:104730003D7374726963745D0A005B6A765D202064
:104740006A736F6E20766572626F73697479253152
:104750003564205B303D73696C656E742C313D6649
:104760006F6F7465722C323D6D657373616765732D
:104770002C333D636F6E666967732C343D6C696ED4
:10478000656E756D2C353D766572626F73655D0A79
:10479000005B656A5D2020656E61626C65206A73EE
:1047A0006F6E206D6F646525313364205B303D741E
:1047B0006578742C313D4A534F4E5D0A0050584A7B
:1047C0005843583E5835582A581F5813580758F917
:1047D00057E257D357C657BA57A6579957845770B9
:1047E000576D576A575B5746573157225712570034
:1047F00057E956CC56AF569656715651564E564BB3
:10480000564856455642563F563C5639563656330C
:104810005630562D562A562756245621561E561BBC
:10482000561856155612560F560C5609560656036C
:10483000560056FD55FA55F755F455F155EE55EB22
:1048400055E855E555E255DF55DC55D955D655D3D4
:1048500055D055CD55CA55C755C455C155BE55BB84
:1048600055B855B555B255AF55AC55A955A655A334
:1048700055A055805566554C5532550E55F154D9B5
:1048800054C354A954945482547054575441542BD3
:10489000541354FB53E953CB53B6538E53695365AA
:1048A0005361535D535953555351534D53495345D8
:1048B0005341533D533953355331532D53295325C8
:1048C000530B53F152DE52C252B052995278526792
:1048D00052475227520D52F351DC51A9517C515C81
:1048E000513A511451ED50D150B25098507E505918
:1048F0005030501850ED4FC14F8B4F564F444F32F0
:104900004F234F104FF74ED54EC34EB14E9F4E8D95
:104910004E7B4E694E574E454E334E214E0F4EFD47
:104920004DEB4DD94DD54DD14DCD4DC94DC54DC199
:104930004DBD4DB94DB54DB14DAD4DA94DA54DA197
:104940004D9D4D994D954D914D8D4D894D754D57C1
:104950004D3B4D104DEB4CC64CC24CBE4CBA4CB608
:104960004CB24CAE4CAA4CA64CA24C9E4C9A4C96C7
:104970004C924C8E4C7A4C5E4C424C264C0A4CEE7F
:104980004BD24BB64B9A4B7E4B624B464B2A4B2637
:104990004B224B1E4B1A4B164B124B0E4BFA4AD264
:1049A0004AAB4A854A5F4A394A0C4A084A044A00D7
:1049B0004AED49CC49B7494A6F6767696E6720631A
:1049C00079636C65206661696C65640050726F6222
:1049D0006520656E64706F696E74206973207374EE
:1049E000617274696E6720706F696E740050726FC7
:1049F0006265206379636C65206661696C6564003B
:104A0000323439003234390032343900486F6D693C
:104A10006E67204572726F72202D20486F6D696E2F
:104A200067207377697463686573206D6973636F5A
:104A30006E6669677572656400486F6D696E6720A0
:104A40004572726F72202D204E65676174697665BC
:104A5000206C61746368206261636B6F66660048F6
:104A60006F6D696E67204572726F72202D205472CF
:104A70006176656C206D696E2F6D61782069732099
:104A80007A65726F00486F6D696E67204572726F4C
:104A900072202D204C617463682076656C6F6369A9
:104AA0007479206973207A65726F00486F6D696E42
:104AB00067204572726F72202D20536561726368A2
:104AC0002076656C6F63697479206973207A6572EA
:104AD0006F00486F6D696E67204572726F72202D8E
:104AE00020426164206F72206E6F206178697320AC
:104AF00073706563696669656400486F6D696E67A8
:104B0000206379636C65206661696C65640032338B
:104B10003900323338003233370032333600323323
:104B200035003233340032333300536F6674206CF7
:104B3000696D6974206578636565646564202D20FE
:104B400043206D617800536F6674206C696D6974E1
:104B5000206578636565646564202D2043206D6958
:104B60006E00536F6674206C696D6974206578639C
:104B70006565646564202D2042206D617800536F67
:104B80006674206C696D6974206578636565646519
:104B900064202D2042206D696E00536F6674206C76
:104BA000696D6974206578636565646564202D208E
:104BB00041206D617800536F6674206C696D697473
:104BC000206578636565646564202D2041206D69EA
:104BD0006E00536F6674206C696D6974206578632C
:104BE0006565646564202D205A206D617800536FDF
:104BF0006674206C696D69742065786365656465A9
:104C000064202D205A206D696E00536F6674206CED
:104C1000696D6974206578636565646564202D201D
:104C200059206D617800536F6674206C696D6974EA
:104C3000206578636565646564202D2059206D6961
:104C40006E00536F6674206C696D697420657863BB
:104C50006565646564202D2058206D617800536F70
:104C60006674206C696D6974206578636565646538
:104C700064202D2058206D696E00536F6674206C7F
:104C8000696D6974206578636565646564003231B7
:104C900039003231380032313700323136003231AA
:104CA00035003231340032313300323132003231AA
:104CB0003100323130003230390032303800323099
:104CC00037003230360054726170657A6F69642043
:104CD000706C616E6E6572206661696C65642074CB
:104CE0006F20636F6E7665726765004C696D6974DD
:104CF0002073776974636820686974202D20536875
:104D00007574646F776E206F63637572726564008B
:104D10004D616368696E6520697320616C61726DB5
:104D20006564202D20436F6D6D616E64206E6F741D
:104D30002070726F636573736564004D6F766520D4
:104D40006C657373207468616E206D696E696D7532
:104D50006D2074696D65004D6F7665206C657373A9
:104D6000207468616E206D696E696D756D206C656B
:104D70006E6774680047656E657269632054696E7A
:104D80007947206572726F720031393900313938D4
:104D90000031393700313936003139350031393495
:104DA0000031393300313932003139310031393095
:104DB0000031383900313838003138370031383671
:104DC0000031383500313834003138330031383271
:104DD0000031383100313830005420776F72642050
:104DE000697320696E76616C6964005420776F7214
:104DF00064206973206D697373696E670052207750
:104E00006F726420697320696E76616C6964005208
:104E100020776F7264206973206D697373696E67A0
:104E2000005120776F726420697320696E76616C1F
:104E30006964005120776F7264206973206D697313
:104E400073696E67004C20776F7264206973206904
:104E50006E76616C6964004C20776F7264206973B0
:104E6000206D697373696E67004820776F726420E4
:104E7000697320696E76616C6964004820776F728F
:104E800064206973206D697373696E6700452077CC
:104E90006F726420697320696E76616C6964004585
:104EA00020776F7264206973206D697373696E6710
:104EB000004420776F726420697320696E76616C9C
:104EC0006964004420776F7264206973206D697390
:104ED00073696E67005020776F7264206973206E6B
:104EE0006F7420612076616C696420746F6F6C2030
:104EF0006E756D626572005020776F726420697301
:104F0000206E6F7420616E20696E74656765720033
:104F10005020776F7264206973206E6567617469D1
:104F20007665005020776F7264206973207A65720D
:104F30006F005020776F726420697320696E76610C
:104F40006C6964005020776F7264206973206D690A
:104F50007373696E6700417263207370656369667D
:104F600069636174696F6E206572726F72202D20A3
:104F7000656E64706F696E742069732073746172FA
:104F800074696E6720706F696E740041726320737C
:104F9000706563696669636174696F6E20657272BA
:104FA0006F72202D207261646975732061726320B5
:104FB0006F7574206F6620746F6C6572616E6365C7
:104FC0000041726320737065636966696361746927
:104FD0006F6E206572726F72202D206D6973736918
:104FE0006E67206F6666736574287329004172636B
:104FF0002073706563696669636174696F6E2065AB
:1050000072726F72202D206D697373696E672061F3
:105010007869732865732900417263207370656332
:10502000696669636174696F6E206572726F720080
:105030005370696E646C65206D75737420626520B1
:105040007475726E696E6720666F7220746869731A
:1050500020636F6D6D616E64005370696E646C6582
:10506000206D757374206265206F666620666F72AE
:10507000207468697320636F6D6D616E6400537096
:10508000696E646C65205320776F726420697320A9
:10509000696E76616C6964005370696E646C65203A
:1050A0005320776F7264206973206D697373696E22
:1050B00067005370696E646C652073706565642069
:1050C0006578636565646564206D6178696D756D8B
:1050D000005370696E646C6520737065656420624E
:1050E000656C6F77206D696E696D756D0050726FBC
:1050F0006772616D6D656420706F696E7420736195
:105100006D652061732063757272656E7420706FB7
:10511000696E740043757474657220636F6D706599
:105120006E736174696F6E2063616E6E6F7420625E
:105130006520656E61626C656400526571756573AA
:105140007465642076656C6F636974792065786333
:1051500065656473206C696D697473004730206FF6
:1051600072204731206D757374206265206163740D
:1051700069766520666F722047353300526F74611F
:10518000727920617865732063616E6E6F7420623E
:105190006520757365642077697468207468697325
:1051A00020636F6D6D616E6400496E766572736524
:1051B0002074696D65206D6F64652063616E6E6F2C
:1051C0007420626520757365642077697468207443
:1051D00068697320636F6D6D616E64004665656418
:1051E00072617465206E6F7420737065636966699F
:1051F00065640053656C656374656420706C616EF2
:105200006520697320696E76616C69640053656C12
:10521000656374656420706C616E65206973206DD0
:10522000697373696E67004178697320746172678E
:10523000657420706F736974696F6E20697320697B
:105240006E76616C6964004178697320746172677D
:10525000657420706F736974696F6E206973206D57
:10526000697373696E67004178697320697320649C
:10527000697361626C6564004178697320697320A9
:10528000696E76616C696420666F722074686973F8
:1052900020636F6D6D616E64004178697320636196
:1052A0006E6E6F742062652070726573656E740037
:1052B0004178697320776F7264206D697373696ECA
:1052C000670047636F6465206D6F64616C2067726F
:1052D0006F75702076696F6C6174696F6E004D2018
:1052E000636F646520756E737570706F727465643A
:1052F0000047636F646520636F6D6D616E64207538
:105300006E737570706F727465640047656E657258
:1053100069632047636F646520696E7075742065EA
:1053200072726F72003132390031323800313237E7
:10533000003132360031323500313234003132330F
:105340000031323200313231003132300031313906
:1053500000313138003131370031313600313135EB
:10536000003131340031313300436F6D6D616E6453
:105370002063616E6E6F742062652074616B656E70
:1053800020617420746869732074696D6500436FCF
:105390006E666967206E6F742074616B656E206441
:1053A0007572696E67206D616368696E696E6720EA
:1053B0006379636C65004A534F4E206F7574707546
:1053C0007420746F6F206C6F6E67004A534F4E20CD
:1053D000696E7075742068617320746F6F206D61E1
:1053E0006E79207061697273004A534F4E20737951
:1053F0006E746178206572726F7200496E70757498
:105400002076616C756520756E737570706F72743F
:10541000656400496E7075742076616C75652072E4
:10542000616E6765206572726F7200496E70757487
:105430002076616C756520746F6F206C6172676592
:1054400000496E7075742076616C756520746F6F9D
:1054500020736D616C6C00496E70757420657863A3
:1054600065656473206D6178206C656E6774680093
:10547000426164206E756D62657220666F726D6147
:1054800074004D616C666F726D656420636F6D6D45
:10549000616E6400556E7265636F676E697A6564EC
:1054A00020636F6D6D616E640047656E6572696340
:1054B00020617373657274696F6E206661696C75C3
:1054C0007265004D656D6F7279206661756C742030
:1054D000646574656374656400537461636B206F05
:1054E000766572666C6F7720646574656374656455
:1054F00000436F6E74726F6C6C65722061737365BC
:105500007274696F6E206661696C757265004361C3
:105510006E6F6E6963616C206D616368696E652092
:10552000617373657274696F6E206661696C757200
:105530006500506C616E6E65722061737365727484
:10554000696F6E206661696C757265005374657071
:1055500070657220617373657274696F6E20666125
:10556000696C75726500456E636F64657220617366
:1055700073657274696F6E206661696C757265001F
:10558000494F207375622D73797374656D20617353
:1055900073657274696F6E206661696C75726500FF
:1055A000393000383900383800383700383600389C
:1055B00035003834003833003832003831003830A4
:1055C00000373900373800373700373600373500B5
:1055D0003734003733003732003731003730003688
:1055E0003900363800363700363600363500363466
:1055F000003633003632003631003630003539009F
:10560000353800353700353600353500353400354E
:10561000330035320035310035300034390034384C
:10562000003437003436003435003434003433006D
:105630003432003431003430003339003338003331
:105640003700333600333500333400333300333220
:105650000073745F707265705F6C696E65282920D5
:105660006D6F76652074696D65206973204E414EBB
:105670000073745F707265705F6C696E65282920B5
:105680006D6F76652074696D6520697320696E663B
:10569000696E6974650047656E6572696320657837
:1056A00063657074696F6E207265706F7274004606
:1056B00061696C656420746F2067657420706C612B
:1056C0006E6E6572206275666665720053797374DA
:1056D000656D20616C61726D202D20736875747426
:1056E000696E6720646F776E00496E697469616CDA
:1056F000697A6174696F6E206661696C75726500A4
:10570000526561642D6F6E6C79206164647265739B
:105710007300496E76616C696420416464726573DC
:105720007300446976696465206279207A65726FD6
:1057300000466C6F6174696E6720706F696E7420CB
:105740006572726F7200496E7465726E616C207260
:10575000616E6765206572726F7200496E74657262
:105760006E616C206572726F7200313900313800E1
:1057700046756E6374696F6E206973207374756209
:1057800062656400456E746572696E6720626F6F52
:1057900074206C6F6164657200496E697469616C34
:1057A000697A696E67004275666665722066756C17
:1057B0006C202D20666174616C00427566666572AE
:1057C0002066756C6C0042756666657220656D704A
:1057D0007479004E6F207375636820646576696321
:1057E00065004D61782066696C652073697A652073
:1057F00065786365656465640046696C65206E6FF5
:1058000074206F70656E00456E64206F6620666957
:105810006C6500456E64206F66206C696E6500489B
:10582000617264207265736574005465726D696E8F
:105830006174656400436F6D706C657465004E6FD4
:105840006F700045616761696E004572726F72002A
:105850004F4B005B7031706F665D2070776D20700C
:1058600068617365206F66662020202531352E33F0
:1058700066205B302E2E315D0A005B7031777068D8
:105880005D2070776D206363772070686173652099
:1058900068692531352E3366205B302E2E315D0A46
:1058A000005B703177706C5D2070776D206363777B
:1058B000207068617365206C6F2531352E3366204A
:1058C0005B302E2E315D0A005B70317773685D208E
:1058D00070776D20636377207370656564206869F5
:1058E0002531352E30662052504D0A005B703177DD
:1058F000736C5D2070776D206363772073706565CE
:1059000064206C6F2531352E30662052504D0A00D0
:105910005B70316370685D2070776D2063772070F5
:1059200068617365206869202531352E3366205BF8
:10593000302E2E315D0A005B703163706C5D20701B
:10594000776D206377207068617365206C6F202508
:1059500031352E3366205B302E2E315D0A005B70B0
:10596000316373685D2070776D2063772073706595
:105970006564206869202531352E30662052504DEF
:105980000A005B703163736C5D2070776D20637704
:10599000207370656564206C6F202531352E30666C
:1059A0002052504D0A005B70316672715D20707735
:1059B0006D206672657175656E63792020202531D2
:1059C000352E306620487A0A0053595354454D20ED
:1059D0005245414459004C6F6164696E6720636FA2
:1059E0006E666967732066726F6D20454550524F31
:1059F0004D00496E697469616C697A696E672063EC
:105A00006F6E6669677320746F2064656661756C7C
:105A1000742073657474696E6773007B22657222EB
:105A20003A7B226662223A25302E32662C2273742B
:105A3000223A25642C226D7367223A222573227D37
:105A40007D0A007B65723A7B66623A25302E3266AB
:105A50002C73743A25642C6D73673A222573227D6A
:105A60007D0A005B71765D20207175657565207219
:105A700065706F727420766572626F7369747925D0
:105A80003764205B303D6F66662C313D73696E670D
:105A90006C652C323D747269706C655D0A00716FC3
:105AA0003A25640A0071693A25640A0071723A2540
:105AB000640A005B73765D202073746174757320D3
:105AC0007265706F727420766572626F7369747933
:105AD000253664205B303D6F66662C313D66696C0F
