:100000000C94C24B0C94E34B0C9440D20C94E34BF5
:100010000C94E34B0C94E34B0C94E34B0C94E34BA8
:100020000C94E34B0C94E34B0C94E34B0C946BD487
:100030000C94E34B0C94E34B0C9431B70C94E34BCE
:100040000C94E34B0C94E34B0C94E34B0C94E34B78
:100050000C94E34B0C94E34B0C94E34B0C94E34B68
:100060000C94E34B0C945AD20C94E9D10C94E34BCE
:100070000C94B3CB0C9455CB0C9491CB0C94E34BD8
:100080000C940BD30C94E34B0C94E34B0C94E34B88
:100090000C94E34B0C94E34B0C94E34B0C94E34B28
:1000A0000C94E34B0C94E34B0C94E34B0C940CBE7C
:1000B0000C94B0BE0C94E34B0C94E34B0C9422B91B
:1000C0000C94E34B0C94E34B0C94E34B0C94E34BF8
:1000D0000C94E34B0C94E34B0C94E34B0C94E34BE8
:1000E0000C946DA90C94E34B0C94E34B0C94E34BF0
:1000F0000C94E34B0C94E34B0C94E34B0C94E34BC8
:100100000C94E3BD0C9487BE0C94BABD0C945EBEF7
:100110000C94E34B0C94E34B0C94E34B0C94E34BA7
:100120000C94E34B0C94E34B0C94E34B0C94E34B97
:100130000C94E34B0C9486B80C94E34B0C94E34B77
:100140000C94E34B0C94E34B0C94E34B0C94E34B77
:100150000C94E34B0C94E34B0C9463A90C94E34B89
:100160000C94E34B0C94E34B0C94E34B0C94E34B57
:100170000C94E34B0C94E34B0C94E34B0C94E34B47
:100180000C94E34B0C94E34B0C94E34B0C94E34B37
:100190000C94E34B0C94E34B0C94E34B0C94E34B27
:1001A0000C9435BE0C94D9BE0C94E34B0C94E34BE9
:1001B0000C94D4B80C94E34B0C94E34B0C94E34BA9
:1001C0000C94E34B0C94E34B0C94E34B0C94E34BF7
:1001D0000C94E34B0C94E34B0C94E34B0C94E34BE7
:1001E0000C94E34B0C94E34BAB74B274B974C074CD
:1001F000C8746B7A6B7A6B7A6B7A6B7ACE746B7A23
:100200006B7A6B7A6B7A6B7A6B7AD674DD74E47482
:10021000EB74F2746B7A6B7A6B7A6B7A6B7A6B7ABB
:10022000F9746B7A46756B7A6B7A6B7A6B7A6B7A48
:100230006B7A6B7A7B756B7A37786B7A6B7A6B7AC1
:100240006B7A6B7A6B7A6B7A6B7A37786B7A6B7ABC
:100250006B7AA475A975B075B775BF75C775CF757D
:100260006B7AD7756B7A6B7A0A766B7A6B7A6B7A64
:100270006B7A6B7A6B7A6B7A6B7A6B7A6B7A6B7A56
:100280006B7A6B7A6B7A6B7A11766B7A6B7A6B7AA4
:100290006B7A6B7A6B7A6B7A6B7A6B7A19764C76AF
:1002A0007F76C176C876DE76DE76E576EC76F37616
:1002B000FA76017706770D771477697A697A697A21
:1002C000697A697A697A697A697A697A697A697A16
:1002D000697A697A697A697A697A697A697A697A06
:1002E000697AE576697A697A697A697A697A697A7E
:1002F000697A697A697A697A697A697A697A697AE6
:10030000697A697A697A1B77227729773077697AEF
:10031000697A697A697A697A697A697A697ADE7654
:10032000DB799C79A079A879847988799079947916
:10033000B479C779CF79D379D7794E7AAC79A87760
:10034000B977CA776B7A6B7A42779C746B7ADB7772
:10035000EC77FD773778CF761F786B7A53776B7AA7
:100360000E78647737776B7A6B7A6B7A75778677E6
:10037000977753BD5BBD63BD6BBD73BD7BBD83BD57
:100380008BBD7EC0DBBFE3BFEBBFF3BFFBBF03C0D2
:100390000BC013C01BC023C02BC033C03BC043C025
:1003A00063C063C063C063C063C063C063C063C035
:1003B00063C063C063C063C063C063C063C063C025
:1003C00063C063C063C063C063C063C063C063C015
:1003D00063C063C063C063C063C063C063C063C005
:1003E00063C063C063C04BC053C063C063C063C01D
:1003F00063C063C063C063C063C063C063C063C0E5
:1004000063C063C063C063C063C063C063C063C0D4
:1004100063C063C063C063C063C063C063C063C0C4
:1004200063C063C063C063C063C063C063C063C0B4
:1004300063C063C063C063C063C063C063C063C0A4
:1004400063C063C063C063C05BC0084AD73B3BCE98
:10045000016E84BCBFFDC12F3D6C74319ABD5683C3
:100460003DDA3D00C77F11BED9E4BB4C3E916BAA7B
:10047000AABE000000803F05A84CCDB2D44EB938CA
:1004800036A9020C50B9918688083CA6AAAA2ABEB1
:10049000000000803F07634236B79BD8A71A39682F
:1004A0005618AEBAAB558C1D3CB7CC5763BD6DED3D
:1004B000FD753EF6177231BF000000803F08000056
:1004C00000BE922449123EABAAAA2ABECDCCCC4C87
:1004D0003E00000080BEABAAAAAA3E00000000BFFA
:1004E000000000803F0000000000084178D3BB43BB
:1004F00087D1133D190E3CC3BD4282AD2B3E68EC43
:100500008276BED98FE1A93E4C80EFFFBE01C4FFC9
:100510007F3F0000000000000C9455B00C94EC7676
:100520000C94C9BF0C94B9AE0C9406770C94EF5A96
:100530000C944C670C94BAAA0C94DD740C94A15ED4
:100540000C94D6620C947C5F0C942E6B0C94016816
:100550000C94795E0C9475770C94F55A0C9491CAAE
:100560000C947D5E0C949D700C94A9750C9426BD22
:100570000C94B9770C9428CF0C94075F0C94EE6B15
:100580000C94B6610C942ABD0C9403CA0C94E766D3
:100590000C94F94B0C9462640C94B0750C94ABBF42
:1005A0000C94C5BB0C9455C40C94C1760C94EF4BC1
:1005B0000C94015B0C94745D0C949D620C94AD5E84
:1005C0000C946B5B0C948EC40C94E54B0C9461B052
:1005D0000C9486770C9403C00C940A610C94C6AA00
:1005E0000C941F780C94CF760C94B4790C94697A9F
:1005F0000C94CA770C94DBBF0C9479820C94C3845E
:100600000C946BBD0C940E610C9418670C94BF5D38
:100610000C945DB00C94915E0C9446750C94746CC3
:100620000C9484790C9466670C949D5E0C947BBD4D
:100630000C94685F0C9433580C9490790C94DC5AA9
:100640000C941D5B0C94C8CE0C94C16E0C940ABD26
:100650000C94C7790C94FBBF0C94DACF0C94E45E35
:100660000C9488790C94645F0C94C15E0C94A05D2A
:100670000C9424870C943C5B0C949C740C94995EB1
:100680000C94C5BF0C94D15B0C94CF790C94A55DF0
:100690000C940D770C94A95E0C94605F0C94B97463
:1006A0000C946B5C0C9408B00C94D6740C94075B9F
:1006B0000C9453770C944D620C94C9950C94647708
:1006C0000C94E95A0C9401770C94B7750C94CF757F
:1006D0000C94B15E0C94D7750C94DB660C94545F4B
:1006E0000C941EBD0C94C9670C94C96E0C941F7CAD
:1006F0000C94475B0C94564F0C94C55E0C94265B8F
:100700000C9449720C94BD5E0C946B7A0C94E88244
:100710000C94A0790C94384C0C94195E0C94F67BD4
:100720000C94995B0C94B2AA0C9422770C94E3BFBE
:100730000C943ED00C945BBD0C940BC00C94A36B3A
:100740000C94F3BF0C94B3AE0C94EC770C94ADBB4B
:100750000C9459B00C94F3760C9470CA0C947DAE42
:100760000C945BC00C9483BD0C9419760C94C876E1
:100770000C94D3BC0C9486660C949C790C94325CDB
:100780000C9406BD0C94CAAA0C94036C0C9471C40E
:100790000C947BAE0C94A35F0C94D45D0C94DF6638
:1007A0000C9463C00C94EBBF0C94B5AE0C94855EB6
:1007B0000C94B9BB0C94C65D0C944C760C9457BC4D
:1007C0000C94C2AA0C94F2740C946C5F0C94B5B1A6
:1007D0000C94C8CD0C94D07C0C94D7660C9498C91A
:1007E0000C9433C00C94CD5D0C94494C0C944BC0CC
:1007F0000C9443BC0C9422BD0C9413C00C949B5CD1
:100800000C94B2740C9414770C9463BD0C9489D13D
:100810000C94277C0C9429770C949B710C94566152
:100820000C94EC820C94845F0C9428620C94A57C4C
:100830000C94EB740C9476620C945FCF0C94805FF4
:100840000C947D610C948D5E0C944E7A0C94746BB8
:100850000C9453C00C9437770C94D2AA0C94DDC935
:100860000C94C7750C94D7790C941B7C0C94FA7675
:100870000C947F760C941DB00C94DB5D0C94BF75CA
:100880000C9432610C9402CB0C9403620C94AD7AFC
:100890000C9494790C94A37B0C94B8610C94825BB7
:1008A0000C9439B00C94FA5D0C94E5760C9423C04A
:1008B0000C9423660C9471BC0C9473BD0C94755EFF
:1008C0000C94A8790C94885F0C94AE5C0C94AB6A81
:1008D0000C94815E0C948C5F0C94B4600C94955EC7
:1008E0000C943DC40C94ABBC0C9471660C943077A2
:1008F0000C94DE610C94B55E0C94125B0C94315B2D
:100900000C94DE760C9407720C94A5BF0C9489AB02
:100910000C94D6AA0C948CB10C940A760C941B7788
:100920000C94705F0C94E3660C94FB7B0C942B7C12
:100930000C94FB5A0C945CCE0C94FB7C0C94AB7422
:100940000C94A55E0C943BC00C940FBD0C94D37911
:100950000C94DB790C94F0820C94A8770C94BEAACA
:100960000C94FD770C9402BD0C94A4750C948BBD73
:100970000C9491670C94F9740C941BC00C943CC4B7
:100980000C9480710C94785F0C94505F0C94895E89
:100990000C94C5520C941C5D0C94B95E0C94585F79
:1009A0000C9411760C9432C50C94745F0C94035F14
:1009B0000C947EC00C94CE740C9443C00C9432679B
:1009C0000C94525B0C94C0740C9453BD0C94B6AA56
:1009D0000C947B750C94C16B0C9437780C949777BE
:1009E0000C945C5F0C944C5F0C942BC00C94237C97
:1009F0000C940E780C9479AE0C94985F0C94085C6F
:100A00000C94F6CC0C94BD7A0C94667C0C944277D2
:100A10000C94C8740C94F0CA0C94E4740C94DB77B6
:100A20000C94CEAA0C94AC795B257325735D2025BC
:100A30007320257320706F736974696F6E25313868
:100A40002E336625730A005B257325735D2025739D
:100A5000202573206F66667365742532302E3366E9
:100A600025730A005B257325735D202573207A6545
:100A7000726F206261636B6F66662531392E336653
:100A800025730A005B257325735D202573206C6137
:100A9000746368206261636B6F66662531382E333C
:100AA0006625730A005B257325735D202573206C12
:100AB000617463682076656C6F636974792531337E
:100AC0002E306625732F6D696E0A005B25732573C2
:100AD0005D202573207365617263682076656C6F95
:100AE000636974792531322E306625732F6D696EF6
:100AF0000A005B257325735D202573207377697465
:100B00006368206D617825313764205B303D6F6606
:100B1000662C313D686F6D696E672C323D6C696D76
:100B200069742C333D6C696D69742B686F6D696EE7
:100B3000675D0A005B257325735D2025732073773D
:100B400069746368206D696E25313764205B303DC0
:100B50006F66662C313D686F6D696E672C323D6C37
:100B6000696D69742C333D6C696D69742B686F6DA8
:100B7000696E675D0A005B257325735D2025732010
:100B80007261646975732076616C75652532302EEB
:100B9000346625730A005B257325735D2025732059
:100BA0006A756E6374696F6E2064657669617469D5
:100BB0006F6E2531342E3466257320286C61726780
:100BC000657220697320666173746572290A005B1F
:100BD000257325735D202573206A65726B20686F0D
:100BE0006D696E672531362E306625732F6D696EFF
:100BF0005E33202A2031206D696C6C696F6E0A00AB
:100C00005B257325735D202573206A65726B206DEB
:100C10006178696D756D2531352E306625732F6DC0
:100C2000696E5E33202A2031206D696C6C696F6EAD
:100C30000A005B257325735D20257320747261762D
:100C4000656C206D696E696D756D2531372E336663
:100C500025730A005B257325735D2025732074724C
:100C60006176656C206D6178696D756D2531372E03
:100C7000336625730A005B257325735D2025732079
:100C800076656C6F63697479206D6178696D756DD7
:100C90002531312E306625732F6D696E0A005B2574
:100CA0007325735D202573206665656472617465C4
:100CB000206D6178696D756D2531312E3066257333
:100CC0002F6D696E0A005B257325735D20257320E7
:100CD00061786973206D6F646525313864202573F0
:100CE0000A005B736C5D2020736F6674206C696D05
:100CF000697420656E61626C65253132640A005B3F
:100D000063745D202063686F7264616C20746F6C23
:100D10006572616E63652531372E346625730A006E
:100D20005B6A615D20206A756E6374696F6E206115
:100D30006363656C65726174696F6E25382E306609
:100D400025730A005B6764695D2064656661756C84
:100D5000742067636F64652064697374616E636592
:100D6000206D6F6465253264205B303D4739302C3F
:100D7000313D4739315D0A005B6770615D20646514
:100D80006661756C742067636F6465207061746858
:100D900020636F6E74726F6C253364205B303D4747
:100DA00036312C313D4736312E312C323D473634E9
:100DB0005D0A005B67636F5D2064656661756C74D6
:100DC0002067636F646520636F6F7264207379734B
:100DD00074656D253364205B312D3620284735340A
:100DE0002D473539295D0A005B67756E5D206465A6
:100DF0006661756C742067636F646520756E6974D5
:100E000073206D6F6465253564205B303D4732305B
:100E10002C313D4732315D0A005B67706C5D2064A8
:100E2000656661756C742067636F646520706C61C2
:100E30006E6525313064205B303D4731372C313DC4
:100E40004731382C323D4731395D0A002563207720
:100E50006F726B206F66667365743A2531322E337C
:100E60006625730A002563206D616368696E6520DD
:100E7000706F736E3A2531312E336625730A002563
:100E80006320706F736974696F6E3A2531352E3344
:100E90006625730A00546F6F6C206E756D62657203
:100EA0002020202020202020202025640A004665C4
:100EB00065642072617465206D6F64653A2020203E
:100EC00020202025730A0044697374616E636520D5
:100ED0006D6F64653A2020202020202025730A00B1
:100EE00050617468204D6F64653A202020202020D6
:100EF000202020202025730A00506C616E653A2066
:100F00002020202020202020202020202020257389
:100F10000A004D6F74696F6E206D6F64653A202012
:100F20002020202020202025730A00436F6F726448
:100F3000696E6174652073797374656D3A20202041
:100F400025730A00556E6974733A202020202020F2
:100F500020202020202020202025730A00486F6DAB
:100F6000696E672073746174653A20202020202008
:100F7000202025730A0046656564686F6C642073E1
:100F8000746174653A20202020202025730A004DCA
:100F90006F74696F6E2073746174653A202020202D
:100FA0002020202025730A004379636C6520737428
:100FB0006174653A20202020202020202025730AFB
:100FC00000526177206D616368696E65207374619A
:100FD00074653A20202025730A004D616368696EAC
:100FE000652073746174653A20202020202020251C
:100FF000730A004C696E65206E756D6265723A25E4
:1010000031302E30660A0046656564207261746571
:101010003A2531362E336625732F6D696E0A0056D8
:10102000656C6F636974793A2531372E33662573A1
:101030002F6D696E0A008D105C103C104739352009
:101040002D20756E6974732D7065722D7265766FC3
:101050006C7574696F6E206D6F646500473934205C
:101060002D20756E6974732D7065722D6D696E75A6
:101070007465206D6F64652028692E652E20666575
:10108000656472617465206D6F646529004739334A
:10109000202D20696E76657273652074696D6520F8
:1010A0006D6F646500C910A910473931202D206982
:1010B0006E6372656D656E74616C206469737461D2
:1010C0006E6365206D6F646500473930202D2061A7
:1010D00062736F6C7574652064697374616E6365A7
:1010E000206D6F6465001A110211EC104736342030
:1010F0002D20636F6E74696E756F7573206D6F64EC
:1011000065004736312E31202D20657861637420CB
:1011100073746F70206D6F646500473631202D2029
:1011200065786163742070617468206D6F64650018
:10113000541145113611473139202D20595A20704C
:101140006C616E6500473138202D20585A20706C34
:10115000616E6500473137202D20585920706C6131
:101160006E6500E011CE11B51194116D1147383044
:10117000202D2063616E63656C206D6F74696F6EE6
:10118000206D6F646520286E6F6E652061637469E1
:1011900076652900473320202D20636F756E7465B6
:1011A0007220636C6F636B77697365206172632073
:1011B0006665656400473220202D20636C6F636B89
:1011C00077697365206172632066656564004731E5
:1011D00020202D206C696E65617220666565640053
:1011E000473020202D206C696E6561722074726119
:1011F000766572736520287365656B2900A7128D6B
:1012000012731259123F1225120B12473539202D35
:1012100020636F6F7264696E617465207379737493
:10122000656D203600473538202D20636F6F72645E
:10123000696E6174652073797374656D203500473C
:101240003537202D20636F6F7264696E617465207D
:1012500073797374656D203400473536202D206313
:101260006F6F7264696E6174652073797374656DF4
:10127000203300473535202D20636F6F7264696E0F
:101280006174652073797374656D2032004735345D
:10129000202D20636F6F7264696E617465207379AD
:1012A0007374656D203100473533202D206D6163E7
:1012B00068696E6520636F6F7264696E6174652022
:1012C00073797374656D00DA12D412CD12486F6DA4
:1012D000696E6700486F6D6564004E6F7420486FDB
:1012E0006D6564000E1309130413FE12F912F01257
:1012F000456E6420486F6C6400486F6C6400446500
:1013000063656C00506C616E0053796E63004F66CC
:10131000660021131D131813486F6C640052756E1C
:101320000053746F70004B1341133B13341330138D
:101330004A6F6700486F6D696E670050726F626533
:10134000004D616368696E696E67004F6666008173
:10135000137B13751370136C1366135D1353687549
:1013600074646F776E004379636C6500456E64004A
:1013700053746F7000416C61726D005265616479E5
:1013800000496E697469616C697A696E6700E4137B
:10139000DE13D813D313CF13CB13C613C013BA1352
:1013A000B313AF13A61353687574646F776E004A56
:1013B0006F6700486F6D696E67004379636C650005
:1013C00050726F626500486F6C640052756E004524
:1013D0006E640053746F7000416C61726D005265F1
:1013E00061647900496E697469616C697A696E67D4
:1013F000000B14F513473231202D206D696C6C6998
:101400006D65746572206D6F646500473230202D04
:1014100020696E63686573206D6F64650045143ADA
:10142000142E1425145B7261646975735D005B6929
:101430006E686962697465645D005B7374616E6493
:101440006172645D005B64697361626C65645D0018
:101450005F145B1456142064656700206D6D0020D6
:10146000696E002A2A2A204E4F54494345202A2AD1
:101470002A20526573657474696E672062617564B1
:10148000207261746520746F202573005B6E657433
:101490005D206E6574776F726B206D6F64652531AA
:1014A0003764205B303D6D61737465725D0A005B6B
:1014B000626175645D2055534220626175642072DB
:1014C00061746525313564205B313D393630302C0F
:1014D000323D31393230302C333D33383430302CDA
:1014E000343D35373630302C353D313135323030C2
:1014F0002C363D3233303430305D0A005B65785D28
:101500002020656E61626C6520666C6F7720636F6A
:101510006E74726F6C25313064205B303D6F66668F
:101520002C313D584F4E2F584F46462C20323D52BD
:1015300054532F4354535D0A005B65655D2020655D
:101540006E61626C65206563686F25313864205B6D
:10155000303D6F66662C313D6F6E5D0A005B6563E2
:101560005D2020657870616E64204C4620746F2089
:1015700043524C46206F6E205458253664205B3011
:101580003D6F66662C313D6F6E5D0A00BF15BA1562
:10159000B415AE15A815A1159A1532333034303074
:1015A00000313135323030003537363030003338A5
:1015B000343030003139323030003936303000309C
:1015C000007379730066620000000007021B7C7DD7
:1015D00061B66148344881DC4373797300667600F4
:1015E00000000007031F7C7D61B6614C34EC51782C
:1015F0003F737973006870000000000700237C7D52
:10160000619D6250340000803F73797300687600FA
:101610000000000700277C7D61FB7B543400000044
:10162000417379730069640000000004002B7CA3FF
:101630007BB661443400000000000000006E000032
:101640000000000100755E6B5B4D62112C00000014
:1016500000000000006C696E6500000100755E828C
:101660005B4D62112C000000000000000076656CEC
:101670000000000002DB5D995BB6614434000000AD
:1016800000000000006665656400000002FA5DD19C
:101690005BB6614434000000000000000073746118
:1016A0007400000000795EDC5AB66144340000002A
:1016B00000000000006D616373000000007D5EE9C2
:1016C0005AB66144340000000000000000637963F2
:1016D0007300000000815EEF5AB6614434000000E0
:1016E00000000000006D6F747300000000855EF55F
:1016F0005AB66144340000000000000000686F6CBE
:101700006400000000895EFB5AB6614434000000AA
:101710000000000000756E697400000000915E0713
:101720005BB66144340000000000000000636F6F8E
:101730007200000000955E125BB661443400000048
:1017400000000000006D6F6D6F00000000995E1DCD
:101750005BB66144340000000000000000706C6162
:101760006E000000009D5E265BB661443400000000
:1017700000000000007061746800000000A15E318C
:101780005BB661443400000000000000006469732F
:101790007400000000A55E3C5BB6614434000000AC
:1017A000000000000066726D6F00000000A95E4737
:1017B0005BB66144340000000000000000746F6FED
:1017C0006C00000000AD5E525BB661443400000066
:1017D000006D706F006D706F7800000003985F32CD
:1017E0005CB6614434000000006D706F006D706F76
:1017F0007900000003985F325CB661443400000059
:10180000006D706F006D706F7A00000003985F329A
:101810005CB6614434000000006D706F006D706F45
:101820006100000003985F325CB661443400000040
:10183000006D706F006D706F6200000003985F3282
:101840005CB6614434000000006D706F006D706F15
:101850006300000003985F325CB66144340000000E
:1018600000706F7300706F7378000000038C5F0866
:101870005CB661443400000000706F7300706F73D9
:1018800079000000038C5F085CB6614434000000FE
:1018900000706F7300706F737A000000038C5F0834
:1018A0005CB661443400000000706F7300706F73A9
:1018B00061000000038C5F085CB6614434000000E6
:1018C00000706F7300706F7362000000038C5F081C
:1018D0005CB661443400000000706F7300706F7379
:1018E00063000000038C5F085CB6614434000000B4
:1018F000006F6673006F66737800000003A35F6B70
:101900005CB6614434000000006F6673006F66735C
:101910007900000003A35F6B5CB6614434000000F3
:10192000006F6673006F66737A00000003A35F6B3D
:101930005CB6614434000000006F6673006F66732C
:101940006100000003A35F6B5CB6614434000000DB
:10195000006F6673006F66736200000003A35F6B25
:101960005CB6614434000000006F6673006F6673FC
:101970006300000003A35F6B5CB6614434000000A9
:1019800000686F6D00686F6D65000000008D5E017E
:101990005BA55D443400000000686F6D00686F6DEA
:1019A00078000000008C5F0E61B661E62B0000003D
:1019B00000686F6D00686F6D79000000008C5F0E2D
:1019C00061B661E72B00000000686F6D00686F6D05
:1019D0007A000000008C5F0E61B661E82B00000009
:1019E00000686F6D00686F6D61000000008C5F0E15
:1019F00061B661E92B00000000686F6D00686F6DD3
:101A000062000000008C5F0E61B661EA2B000000EE
:101A100000686F6D00686F6D63000000008C5F0EE2
:101A200061B661EB2B0000000070726200707262A0
:101A300065000000003CC40E61B661EC2B000000A4
:101A4000007072620070726278000000033CC47D16
:101A500061B661ED2B00000000707262007072626E
:101A600079000000033CC47D61B661F12B000000E9
:101A700000707262007072627A000000033CC47DE4
:101A800061B661F52B000000007072620070726236
:101A900061000000033CC47D61B661F92B000000C9
:101AA000007072620070726262000000033CC47DCC
:101AB00061B661FD2B0000000070726200707262FE
:101AC00063000000033CC47D61B661012C0000008E
:101AD000006A6F67006A6F6778000000003CC40A04
:101AE00061BF5D0B2C000000006A6F67006A6F67C2
:101AF00079000000003CC40A61C65D0B2C000000A8
:101B0000006A6F67006A6F677A000000003CC40AD1
:101B100061CD5D0B2C000000006A6F67006A6F6783
:101B200061000000003CC40A61D45D0B2C00000081
:101B3000007077720070777231000000002ABD5784
:101B4000BCB6614434000000007077720070777298
:101B500032000000002ABD57BCB6614434000000CA
:101B6000007077720070777233000000002ABD5752
:101B7000BCB6614434000000007077720070777268
:101B800034000000002ABD57BCB661443400000098
:101B900000000000007372000000000000B3AE7986
:101BA000AE7BAE4434000000000000000071720003
:101BB000000000000055B008B0B6614434000000D9
:101BC0000000000000716900000000000059B01D15
:101BD000B0B66144340000000000000000716F00E6
:101BE00000000000005DB039B0B661443400000070
:101BF000000000000065720000000000003CC48985
:101C0000ABB66144340000000000000000716600C3
:101C100000000000003CC40A61A05D4434000000E4
:101C20000000000000727800000000000071C47124
:101C300066B661443400000000000000006D736768
:101C400000000000003DC40A61B661443400000099
:101C50000000000000636C6561720000003CC4C5B8
:101C600052C5524434000000000000000074657347
:101C700074000000003CC4A57CC9BF4434000000CF
:101C8000000000000064656661000000003CC4D0F4
:101C90007CB46044340000000000000000626F6FFC
:101CA00074000000003CC4FB7CF67B443400000060
:101CB000000000000068656C70000000003CC46615
:101CC0007CB66144340000000000000000680000A1
:101CD00000000000003CC4667CB661443400000093
:101CE0000031000000316D61000000030006BD0EF0
:101CF00061B8619D53000000003100000031736144
:101D000000000003030ABD7D61ADBBA8536666E613
:101D10003F310000003174720000000B040FBD7DE4
:101D200061B9BBAC530000A03F31000000316D69C8
:101D300000000003001EBD0E61C5BB9E53000000E5
:101D4000413100000031706F000000030022BD0E21
:101D500061DE61A253000000003100000031706DAF
:101D6000000000030026BD0E6143BCA35300000029
:101D70004032000000326D61000000030006BD0E1D
:101D800061B861BC530000803F32000000327361D3
:101D900000000003030ABD7D61ADBBC7536666E664
:101DA0003F320000003274720000000B040FBD7D52
:101DB00061B9BBCB530000A03F32000000326D6917
:101DC00000000003001EBD0E61C5BBBD5300000036
:101DD000413200000032706F000000030022BD0E8F
:101DE00061DE61C153000000003200000032706DFE
:101DF000000000030026BD0E6143BCC2530000007A
:101E00004033000000336D61000000030006BD0E8A
:101E100061B861DB530000004033000000337361A0
:101E200000000003030ABD7D61ADBBE6536666E6B4
:101E30003F330000003374720000000B040FBD7DBF
:101E400061B9BBEA530000A03F33000000336D6965
:101E500000000003001EBD0E61C5BBDC5300000086
:101E6000413300000033706F000000030022BD0EFC
:101E700061DE61E053000000003300000033706D4C
:101E8000000000030026BD0E6143BCE153000000CA
:101E90004034000000346D61000000030006BD0EF8
:101EA00061B861FA530000404034000000347361AF
:101EB00000000003030ABD7D61ADBB05546666E604
:101EC0003F340000003474720000000B040FBD7D2D
:101ED00061B9BB09540000B44334000000346D699B
:101EE00000000003001EBD0E61C5BBFB53000000D7
:101EF000413400000034706F000000030022BD0E6A
:101F000061DE61FF53000000003400000034706D9A
:101F1000000000030026BD0E6143BC005400000019
:101F2000407800000078616D0000000300075F9BAF
:101F30005CAE5CA22A0000803F7800000078766DDD
:101F40000000000B00505F7D618666A72A000048F4
:101F500044780000007866720000000B004C5F7D42
:101F6000618666A32A000048447800000078746EF9
:101F70000000000B03585F7D618666AF2A000000F9
:101F8000007800000078746D0000000B03545F7D42
:101F9000618666AB2A0000164378000000786A6DFF
:101FA0000000000B005C5F7D611C5DB32A0000A097
:101FB0004178000000786A680000000B00605F7DD7
:101FC00061745DB72A0000204278000000786A64DE
:101FD0000000000B04645F7D618666BF2ACDCC4C97
:101FE0003D7800000078736E00000003006C5F0E07
:101FF00061ABBFC6290000803F780000007873788D
:102000000000000300705F0E61ABBFC72900000035
:1020100000780000007873760000000B00745F7D8C
:10202000618666C72A0000FA4378000000786C7663
:102030000000000B00785F7D618666CB2A0000C837
:102040004278000000786C620000000B037C5F7D2A
:10205000618666CF2A0000A04078000000787A628E
:102060000000000B03805F7D618666D32A0000803C
:102070003F7900000079616D0000000300075F9B5D
:102080005CAE5CD72A0000803F7900000079766D55
:102090000000000B00505F7D618666DC2A0000486E
:1020A00044790000007966720000000B004C5F7DEF
:1020B000618666D82A000048447900000079746E71
:1020C0000000000B03585F7D618666E42A00000073
:1020D000007900000079746D0000000B03545F7DEF
:1020E000618666E02A0000164379000000796A6D77
:1020F0000000000B005C5F7D611C5DE82A0000A011
:102100004179000000796A680000000B00605F7D83
:1021100061745DEC2A0000204279000000796A6455
:102120000000000B04645F7D618666F42ACDCC4C10
:102130003D7900000079736E00000003006C5F0EB3
:1021400061ABBFC8290000803F7900000079737837
:102150000000000300705F0E61ABBFC929000000E2
:1021600000790000007973760000000B00745F7D39
:10217000618666FC2A0000FA4379000000796C76DB
:102180000000000B00785F7D618666002B0000C8B0
:102190004279000000796C620000000B037C5F7DD7
:1021A000618666042B0000A04079000000797A6205
:1021B0000000000B03805F7D618666082B000080B5
:1021C0003F7A0000007A616D0000000300075F9B0A
:1021D0005CAE5C0C2B0000803F7A0000007A766DCC
:1021E0000000000B00505F7D618666112B000048E7
:1021F000447A0000007A66720000000B004C5F7D9C
:102200006186660D2B000048447A0000007A746EE7
:102210000000000B03585F7D618666192B000000EB
:10222000007A0000007A746D0000000B03545F7D9B
:10223000618666152B000096427A0000007A6A6D6E
:102240000000000B005C5F7D611C5D1D2B0000A089
:10225000417A0000007A6A680000000B00605F7D30
:1022600061745D212B000020427A0000007A6A64CC
:102270000000000B04645F7D618666292BCDCC4C89
:102280003D7A0000007A736E00000003006C5F0E60
:1022900061ABBFCA29000000007A0000007A7378A1
:1022A0000000000300705F0E61ABBFCB290000800F
:1022B0003F7A0000007A73760000000B00745F7DA7
:1022C000618666312B0000C8437A0000007A6C7684
:1022D0000000000B00785F7D618666352B0000C82A
:1022E000427A0000007A6C620000000B037C5F7D84
:1022F000618666392B0000A0407A0000007A7A627D
:102300000000000B03805F7D6186663D2B0000802E
:102310003F6100000061616D0000000300075F9BEA
:102320005CAE5C412B000040406100000061766DB6
:102330000000000300505F7D619D62462B0000613C
:10234000486100000061667200000003004C5F7D80
:10235000619D62422B000061486100000061746E63
:102360000000000303585F7D6186664E2B000080ED
:10237000BF6100000061746D0000000303545F7DC5
:10238000619D624A2B000080BF61000000616A6DA0
:1023900000000003005C5F7D611C5D522B0000B4F7
:1023A0004561000000616A680000000300605F7D15
:1023B00061745D562B0000344661000000616A6460
:1023C0000000000304645F7D619D625E2BCDCC4CF8
:1023D0003D610000006172610000000B03685F7DD9
:1023E000619D62622BD5B74B3E6100000061736E48
:1023F00000000003006C5F0E61ABBFCC29000080C1
:102400003F610000006173780000000300705F0E00
:1024100061ABBFCD29000000006100000061737650
:102420000000000300745F7D619D62662B00001652
:102430004461000000616C760000000300785F7D5D
:10244000619D626A2B0000C84261000000616C62FD
:1024500000000003037C5F7D619D626E2B0000A085
:102460004061000000617A620000000303805F7D2C
:10247000619D62722B000000406200000062616D8D
:102480000000000300075F9B5CAE5C762B00000041
:10249000006200000062766D0000000300505F7D66
:1024A000619D627B2B0000614562000000626672E4
:1024B00000000003004C5F7D619D62772B0000618E
:1024C000456200000062746E0000000303585F7DE7
:1024D000618666832B000080BF6200000062746D1D
:1024E0000000000303545F7D619D627F2B0000802C
:1024F000BF62000000626A6D00000003005C5F7D47
:10250000611C5D872B0000A04162000000626A64CC
:102510000000000300645F7D619D62932BCDCC4C75
:102520003D620000006272610000000B03685F7D85
:10253000619D62972B0000803F6300000063616D26
:102540000000000300075F9B5CAE5CAB2B0000004B
:10255000006300000063766D0000000300505F7DA3
:10256000619D62B02B0000614563000000636672EC
:1025700000000003004C5F7D619D62AC2B00006198
:10258000456300000063746E0000000303585F7D24
:10259000618666B82B000080BF6300000063746D25
:1025A0000000000303545F7D619D62B42B00008036
:1025B000BF63000000636A6D00000003005C5F7D84
:1025C000611C5DBC2B0000A04163000000636A64D5
:1025D0000000000300645F7D619D62C82BCDCC4C80
:1025E0003D630000006372610000000B03685F7DC3
:1025F000619D62CC2B0000803F703100007031661D
:102600007271000300B2AA7D619D6279520000C818
:102610004270310000703163736C000300B6AA7D14
:10262000619D627D5200007A447031000070316318
:102630007368000300BAAA7D619D6281520000FAAE
:102640004470310000703163706C000303BEAA7DDA
:10265000619D6285520000003E7031000070316360
:102660007068000303C2AA7D619D628952CDCC4C83
:102670003E70310000703177736C000300C6AA7D94
:10268000619D628D5200007A447031000070317794
:102690007368000300CAAA7D619D6291520000FA2E
:1026A0004470310000703177706C000303CEAA7D56
:1026B000619D6295520000003E70310000703177DC
:1026C0007068000303D2AA7D619D629952CDCC4C03
:1026D0003E703100007031706F66000303D6AA7D32
:1026E000619D629D52CDCCCC3D6735340067353459
:1026F0007800000B03845F7D618666122A0000006B
:1027000000673534006735347900000B03845F7D42
:10271000618666162A00000000673534006735348C
:102720007A00000B03845F7D6186661A2A00000030
:1027300000673534006735346100000B03845F7D2A
:102740006186661E2A000000006735340067353454
:102750006200000B03845F7D618666222A00000010
:1027600000673534006735346300000B03845F7DF8
:10277000618666262A00000000673535006735351A
:102780007800000B03845F7D6186662A2A0000962C
:1027900042673535006735357900000B03845F7D6E
:1027A0006186662E2A00009642673535006735350A
:1027B0007A00000B03845F7D618666322A00000088
:1027C00000673535006735356100000B03845F7D98
:1027D000618666362A0000000067353500673535AA
:1027E0006200000B03845F7D6186663A2A00000068
:1027F00000673535006735356300000B03845F7D66
:102800006186663E2A00000000673536006735366F
:102810007800000B03845F7D618666422A00000019
:1028200000673536006735367900000B03845F7D1D
:10283000618666462A000000006735360067353637
:102840007A00000B03845F7D6186664A2A000000DF
:1028500000673536006735366100000B03845F7D05
:102860006186664E2A0000000067353600673536FF
:102870006200000B03845F7D618666522A000000BF
:1028800000673536006735366300000B03845F7DD3
:10289000618666562A0000000067353700673537C5
:1028A0007800000B03845F7D6186665A2A00000071
:1028B00000673537006735377900000B03845F7D8B
:1028C0006186665E2A00000000673537006735378D
:1028D0007A00000B03845F7D618666622A00000037
:1028E00000673537006735376100000B03845F7D73
:1028F000618666662A000000006735370067353755
:102900006200000B03845F7D6186666A2A00000016
:1029100000673537006735376300000B03845F7D40
:102920006186666E2A00000000673538006735381A
:102930007800000B03845F7D618666722A000000C8
:1029400000673538006735387900000B03845F7DF8
:10295000618666762A0000000067353800673538E2
:102960007A00000B03845F7D6186667A2A0000008E
:1029700000673538006735386100000B03845F7DE0
:102980006186667E2A0000000067353800673538AA
:102990006200000B03845F7D618666822A0000006E
:1029A00000673538006735386300000B03845F7DAE
:1029B000618666862A000000006735390067353970
:1029C0007800000B03845F7D6186668A2A00000020
:1029D00000673539006735397900000B03845F7D66
:1029E0006186668E2A000000006735390067353938
:1029F0007A00000B03845F7D618666922A000000E6
:102A000000673539006735396100000B03845F7D4D
:102A1000618666962A0000000067353900673539FF
:102A20006200000B03845F7D6186669A2A000000C5
:102A300000673539006735396300000B03845F7D1B
:102A40006186669E2A0000000067393200673932CD
:102A50007800000103845F7D61B661832C00000073
:102A600000673932006739327900000103845F7DE5
:102A700061B661872C000000006739320067393287
:102A80007A00000103845F7D61B6618B2C00000039
:102A900000673932006739326100000103845F7DCD
:102AA00061B6618F2C00000000673932006739324F
:102AB0006200000103845F7D61B661932C00000019
:102AC00000673932006739326300000103845F7D9B
:102AD00061B661972C000000006732380067323819
:102AE0007800000103885F7D61B6619B2C000000C7
:102AF00000673238006732387900000103885F7D53
:102B000061B6619F2C0000000067323800673238E0
:102B10007A00000103885F7D61B661A32C0000008C
:102B200000673238006732386100000103885F7D3A
:102B300061B661A72C0000000067323800673238A8
:102B40006200000103885F7D61B661AB2C0000006C
:102B500000673238006732386300000103885F7D08
:102B600061B661AF2C00000000673330006733307E
:102B70007800000103885F7D61B661B32C0000001E
:102B800000673330006733307900000103885F7DD0
:102B900061B661B72C000000006733300067333046
:102BA0007A00000103885F7D61B661BB2C000000E4
:102BB00000673330006733306100000103885F7DB8
:102BC00061B661BF2C00000000673330006733300E
:102BD0006200000103885F7D61B661C32C000000C4
:102BE00000673330006733306300000103885F7D86
:102BF00061B661C72C000000006A6964006A6964FC
:102C000061000000003CC4566176626C3400000034
:102C1000006A6964006A696462000000003CC4568E
:102C20006176627034000000006A6964006A696459
:102C300063000000003CC4566176627434000000FA
:102C4000006A6964006A696464000000003CC4565C
:102C5000617662783400000000737973006A610065
:102C60000000000F00C55E7D618666E0290050C34C
:102C700047737973006374000000000F04E45E7D05
:102C8000618666E4290AD7233C73797300736C006C
:102C90000000000700035F0E61B861E82900000032
:102CA00000737973007374000000000700C5BF0E45
:102CB00061A5BFBB2900000000737973006D74002B
:102CC000000000070202BD7D6171BC995300000045
:102CD00040000000006D650000000000003DC4D30E
:102CE000BCD3BC443400000000000000006D640050
:102CF00000000000003DC4ABBCABBC44340000008D
:102D00000073797300656A000000000700E8820E16
:102D100061DE61F9330000803F737973006A7600E9
:102D20000000000700EC820E617982133800000079
:102D300040737973006A73000000000700F0820E90
:102D400061DE6115380000803F737973007476008E
:102D5000000000070032C50E61DE610C55000080E6
:102D60003F73797300717600000000070061B00EB8
:102D7000612862D2520000000073797300737600FC
:102D80000000000700B9AE0E610362DF5200008050
:102D90003F737973007369000000000700B5AE321D
:102DA000617DAEE05200007A437379730065630081
:102DB0000000000700D7660E619167FA330000003B
:102DC00000737973006565000000000700DB660E84
:102DD000610168FB330000000073797300657800BF
:102DE0000000000700DF660E61C967FC3300008049
:102DF0003F737973006261756400000400E3660E3E
:102E0000612366FD330000A040737973006E657422
:102E10000000000700E7660E61B8615B3400000047
:102E2000007379730067706C0000000700B15E0EDC
:102E3000610362F629000000007379730067756E04
:102E40000000000700B55E0E61DE61F7290000801A
:102E50003F7379730067636F0000000700B95E0E6F
:102E600061B861F5290000803F7379730067706174
:102E70000000000700BD5E0E610362F8290000003B
:102E800040737973006764690000000700C15E0E3B
:102E900061DE61F9290000000000000000676300A6
:102EA00000000000003CC4AD7ABD7A44340000004C
:102EB0000000000000666400000000030055C40E1E
:102EC00061DE6114380000000075646100756461A2
:102ED000300000030071C456617662FF33000000C9
:102EE0000075646100756461310000030071C456AF
:102EF00061766203340000000075646100756461EE
:102F0000320000030071C45661766207340000008D
:102F10000075646100756461330000030071C4567C
:102F20006176620B340000000075646200756462B3
:102F3000300000030071C4566176620F3400000057
:102F40000075646200756462310000030071C4564C
:102F5000617662133400000000756462007564627B
:102F6000320000030071C45661766217340000001D
:102F70000075646200756462330000030071C4561A
:102F80006176621B34000000007564630075646341
:102F9000300000030071C4566176621F34000000E7
:102FA0000075646300756463310000030071C456EA
:102FB0006176622334000000007564630075646309
:102FC000320000030071C4566176622734000000AD
:102FD0000075646300756463330000030071C456B8
:102FE0006176622B340000000075646400756464CF
:102FF000300000030071C4566176622F3400000077
:103000000075646400756464310000030071C45687
:103010006176623334000000007564640075646496
:10302000320000030071C45661766237340000003C
:103030000075646400756464330000030071C45655
:103040006176623B34000000005F7465005F746568
:1030500078000000028EC47D61B6614A5000000015
:10306000005F7465005F746579000000028EC47DA6
:1030700061B6614E50000000005F7465005F7465CA
:103080007A000000028EC47D61B6615250000000DB
:10309000005F7465005F746561000000028EC47D8E
:1030A00061B6615650000000005F7465005F746592
:1030B00062000000028EC47D61B6615A50000000BB
:1030C000005F7465005F746563000000028EC47D5C
:1030D00061B6615E50000000005F7472005F747240
:1030E00078000000028EC47D61B6616F510000005F
:1030F000005F7472005F747279000000028EC47DFC
:1031000061B6617351000000005F7472005F7472F9
:103110007A000000028EC47D61B661775100000024
:10312000005F7472005F747261000000028EC47DE3
:1031300061B6617B51000000005F7472005F7472C1
:1031400062000000028EC47D61B6617F5100000004
:10315000005F7472005F747263000000028EC47DB1
:1031600061B6618351000000005F7473005F747387
:1031700031000000028EC47D61B661DA50000000AB
:10318000005F7073005F707331000000028EC47DB9
:1031900061B661EA50000000005F6373005F637313
:1031A00031000000028EC47D61B661FA500000005B
:1031B000005F6573005F657331000000028EC47D9F
:1031C00061B6610A51000000005F7873005F787398
:1031D00031000000028EC47D61B6613454000000ED
:1031E000005F6665005F666531000000028EC47D89
:1031F00061B6611A51000000005F7473005F747360
:1032000032000000028EC47D61B661DE5000000015
:10321000005F7073005F707332000000028EC47D27
:1032200061B661EE50000000005F6373005F63737E
:1032300032000000028EC47D61B661FE50000000C5
:10324000005F6573005F657332000000028EC47D0D
:1032500061B6610E51000000005F7873005F787303
:1032600032000000028EC47D61B6614C5400000043
:10327000005F6665005F666532000000028EC47DF7
:1032800061B6611E51000000005F7473005F7473CB
:1032900033000000028EC47D61B661E25000000080
:1032A000005F7073005F707333000000028EC47D96
:1032B00061B661F250000000005F6373005F6373EA
:1032C00033000000028EC47D61B66102510000002F
:1032D000005F6573005F657333000000028EC47D7C
:1032E00061B6611251000000005F7873005F78736F
:1032F00033000000028EC47D61B66164540000009A
:10330000005F6665005F666533000000028EC47D65
:1033100061B6612251000000005F7473005F747336
:1033200034000000028EC47D61B661E650000000EA
:10333000005F7073005F707334000000028EC47D04
:1033400061B661F650000000005F6373005F637355
:1033500034000000028EC47D61B661065100000099
:10336000005F6573005F657334000000028EC47DEA
:1033700061B6611651000000005F7873005F7873DA
:1033800034000000028EC47D61B6617C54000000F0
:10339000005F6665005F666534000000028EC47DD4
:1033A00061B661265100000000000000005F64610A
:1033B0006D000000003CC4195E195E44340000003A
:1033C000000000000073653030000002003CC43291
:1033D000614D62EB52000000000000000073653098
:1033E00031000002003CC432614D62ED5200000029
:1033F000000000000073653032000002003CC4325F
:10340000614D62EF52000000000000000073653063
:1034100033000002003CC432614D62F152000000F2
:10342000000000000073653034000002003CC4322C
:10343000614D62F35200000000000000007365302F
:1034400035000002003CC432614D62F552000000BC
:10345000000000000073653036000002003CC432FA
:10346000614D62F7520000000000000000736530FB
:1034700037000002003CC432614D62F95200000086
:10348000000000000073653038000002003CC432C8
:10349000614D62FB520000000000000000736530C7
:1034A00039000002003CC432614D62FD5200000050
:1034B000000000000073653130000002003CC4329F
:1034C000614D62FF52000000000000000073653192
:1034D00031000002003CC432614D62015300000023
:1034E000000000000073653132000002003CC4326D
:1034F000614D62035300000000000000007365315D
:1035000033000002003CC432614D620553000000EC
:10351000000000000073653134000002003CC4323A
:10352000614D620753000000000000000073653128
:1035300035000002003CC432614D620953000000B6
:10354000000000000073653136000002003CC43208
:10355000614D620B530000000000000000736531F4
:1035600037000002003CC432614D620D5300000080
:10357000000000000073653138000002003CC432D6
:10358000614D620F530000000000000000736531C0
:1035900039000002003CC432614D6211530000004A
:1035A000000000000073653230000002003CC432AD
:1035B000614D62135300000000000000007365328B
:1035C00031000002003CC432614D6215530000001E
:1035D000000000000073653232000002003CC4327B
:1035E000614D621753000000000000000073653257
:1035F00033000002003CC432614D621953000000E8
:10360000000000000073653234000002003CC43248
:10361000614D621B53000000000000000073653222
:1036200035000002003CC432614D621D53000000B1
:10363000000000000073653236000002003CC43216
:10364000614D621F530000000000000000736532EE
:1036500037000002003CC432614D6221530000007B
:10366000000000000073653238000002003CC432E4
:10367000614D6223530000000000000000736532BA
:1036800039000002003CC432614D62255300000045
:10369000000000000073797300000000003CC46269
:1036A00064D6624434000000000000000070310065
:1036B00000000000003CC46264D662443400000094
:1036C000000000000031000000000000003CC46267
:1036D00064D66244340000000000000000320000A4
:1036E00000000000003CC46264D662443400000064
:1036F000000000000033000000000000003CC46235
:1037000064D6624434000000000000000034000071
:1037100000000000003CC46264D662443400000033
:10372000000000000078000000000000003CC462BF
:1037300064D66244340000000000000000790000FC
:1037400000000000003CC46264D662443400000003
:1037500000000000007A000000000000003CC4628D
:1037600064D66244340000000000000000610000E4
:1037700000000000003CC46264D6624434000000D3
:10378000000000000062000000000000003CC46275
:1037900064D66244340000000000000000630000B2
:1037A00000000000003CC46264D6624434000000A3
:1037B000000000000067353400000000003CC462D7
:1037C00064D6624434000000000000000067353514
:1037D00000000000003CC46264D662443400000073
:1037E000000000000067353600000000003CC462A5
:1037F00064D66244340000000000000000673537E2
:1038000000000000003CC46264D662443400000042
:10381000000000000067353800000000003CC46272
:1038200064D66244340000000000000000673539AF
:1038300000000000003CC46264D662443400000012
:10384000000000000067393200000000003CC46244
:1038500064D6624434000000000000000067323883
:1038600000000000003CC46264D6624434000000E2
:10387000000000000067333000000000003CC4621C
:1038800064D662443400000000000000006D706FD8
:1038900000000000003CC46264D6624434000000B2
:1038A0000000000000706F7300000000003CC46264
:1038B00064D662443400000000000000006F6673AC
:1038C00000000000003CC46264D662443400000082
:1038D0000000000000686F6D00000000003CC46242
:1038E00064D6624434000000000000000070726280
:1038F00000000000003CC46264D662443400000052
:10390000000000000070777200000000003CC462FC
:1039100064D662443400000000000000006A6F6753
:1039200000000000003CC46264D662443400000021
:1039300000000000006A696400000000003CC462EE
:1039400064D6624434000000000000000075646129
:1039500000000000003CC46264D6624434000000F1
:10396000000000000075646200000000003CC462BA
:1039700064D66244340000000000000000756463F7
:1039800000000000003CC46264D6624434000000C1
:10399000000000000075646400000000003CC46288
:1039A00064D662443400000000000000005F7465CB
:1039B00000000000003CC46264D662443400000091
:1039C00000000000005F747200000000003CC46250
:1039D00064D662443400000000000000005F74738D
:1039E00000000000003CC46264D662443400000061
:1039F00000000000005F707300000000003CC46223
:103A000064D662443400000000000000005F63736D
:103A100000000000003CC46264D662443400000030
:103A200000000000005F657300000000003CC462FD
:103A300064D662443400000000000000005F787328
:103A400000000000003CC46264D662443400000000
:103A500000000000005F666500000000003CC462DA
:103A600064D662443400000000000000006D0000D5
:103A700000000000003CC44C67B661443400000004
:103A8000000000000071000000000000003CC43293
:103A900067B661443400000000000000006F0000C1
:103AA00000000000003CC41867B661443400000008
:103AB000000000000024000000000000003CC4667C
:103AC00067B661443400000000456E64206F6620D4
:103AD000636F6D6D616E642066696C650A00486F86
:103AE0006D696E67206572726F72202D20256320CC
:103AF000617869732073657474696E6773206D698A
:103B000073636F6E666967757265640050726F6289
:103B1000696E67206572726F72202D2025632061A7
:103B20007869732063616E6E6F74206D6F766520A7
:103B3000647572696E672070726F62696E67005B90
:103B400069645D202054696E7947204944253330EB
:103B5000730A005B68765D20206861726477617229
:103B6000652076657273696F6E2531362E32660A6E
:103B7000005B68705D202068617264776172652007
:103B8000706C6174666F726D2531352E32660A0075
:103B90005B66765D20206669726D7761726520765E
:103BA000657273696F6E2531362E32660A005B6668
:103BB000625D20206669726D776172652062756949
:103BC0006C642531382E32660A00456E74657220A9
:103BD00024626F6F743D3120746F20656E7465725E
:103BE0002074686520626F6F74206C6F6164657209
:103BF0002E0A000A0A0A2323232054696E794720DB
:103C0000424F4F54204C4F414445522048656C7000
:103C1000202323230A00456E7465722024646566A0
:103C2000613D3120746F207265736574207468651E
:103C30002073797374656D20746F207468652066D5
:103C40006163746F72792064656661756C74207647
:103C5000616C7565732E0A546869732077696C6CA2
:103C6000206F766572777269746520616E79206362
:103C700068616E67657320796F752068617665206D
:103C80006D6164652E0A000A0A0A23232320546901
:103C90006E794720524553544F5245204445464182
:103CA000554C54532048656C70202323230A004947
:103CB0006E766F6B652073656C6620746573742017
:103CC000627920656E746572696E6720247465730D
:103CD000743D4E207768657265204E206973206FB1
:103CE0006E65206F663A0A202024746573743D3136
:103CF0002020736D6F6B6520746573740A20202417
:103D0000746573743D322020686F6D696E6720742E
:103D100065737420202028796F75206D7573742069
:103D20007472697020686F6D696E6720737769744B
:103D300063686573290A202024746573743D3320F9
:103D4000207371756172652074657374202020285A
:103D50006120736572696573206F66207371756188
:103D6000726573290A202024746573743D34202001
:103D700061726320746573742020202020202873D2
:103D80006F6D65206C6172676520636972636C6535
:103D900073290A202024746573743D3520206477CC
:103DA000656C6C207465737420202020286D6F76FC
:103DB00065732073706163656420627920312073BC
:103DC00065636F6E64206477656C6C73290A2020CC
:103DD00024746573743D36202066656564686F6C75
:103DE0006420746573742028656E746572202120C8
:103DF000616E64207E20746F20686F6C6420616E39
:103E00006420726573746172742C207265737065BE
:103E100063746976656C79290A202024746573744B
:103E20003D3720204D20636F646573207465737483
:103E30002020284D20636F64657320696E7465725D
:103E40006D696E676C65642077697468206D6F7644
:103E50006573290A202024746573743D3820204A34
:103E6000534F4E20746573742020202020286D6FDE
:103E700074696F6E20746573742072756E2075732B
:103E8000696E67204A534F4E20636F6D6D616E649B
:103E900073290A202024746573743D392020696ECB
:103EA00076657273652074696D6520746573740A34
:103EB000202024746573743D313020726F746172F8
:103EC00079206D6F74696F6E20746573740A202099
:103ED00024746573743D313120736D616C6C206D99
:103EE0006F76657320746573740A2020247465737B
:103EF000743D313220736C6F77206D6F766573205F
:103F0000746573740A202024746573743D31332002
:103F1000636F6F7264696E61746520737973746521
:103F20006D206F666673657420746573742028470E
:103F300039322C204735342D473539290A0A546542
:103F400073747320617373756D6520612063656E92
:103F50007465726564205859206F726967696E20B4
:103F6000616E64206174206C656173742038306DFB
:103F70006D20636C656172616E636520696E20619E
:103F80006C6C20646972656374696F6E730A546542
:103F900073747320617373756D65205A2068617343
:103FA000206174206C656173742034306D6D2070F5
:103FB0006F7369697469766520636C656172616E9F
:103FC00063650A5465737473207374617274207727
:103FD0006974682061204730205830205930205AB9
:103FE00030206D6F76650A486F6D696E6720697362
:103FF0002074686520657863657074696F6E2E2023
:104000004E6F20696E697469616C20706F7369749A
:10401000696F6E206F7220636C656172616E63659B
:1040200020697320617373756D65640A000A0A0A5A
:104030002323232054696E79472053454C4620544E
:104040004553542048656C70202323230A004561A2
:104050006368202420636F6D6D616E642061626F00
:10406000766520616C736F20646973706C6179731D
:104070002074686520746F6B656E20666F722065B2
:104080006163682073657474696E6720696E205B74
:10409000205D20627261636B6574730A546F2076D1
:1040A0006965772073657474696E677320656E74D3
:1040B0006572206120746F6B656E3A0A0A202024B5
:1040C0003C746F6B656E3E0A0A466F7220657861BC
:1040D0006D706C65202479667220746F206469733A
:1040E000706C6179207468652059206D6178206654
:1040F00065656420726174650A0A546F2075706486
:104100006174652073657474696E677320656E747D
:10411000657220746F6B656E20657175616C7320BC
:1041200076616C75653A0A0A2020243C746F6B65D1
:104130006E3E3D3C76616C75653E0A0A466F7220A4
:104140006578616D706C6520247966723D38303019
:1041500020746F20736574207468652059206D6128
:10416000782066656564207261746520746F2038FC
:104170003030206D6D2F6D696E7574650A466F72F3
:1041800020636F6E66696775726174696F6E206413
:10419000657461696C73207365653A206874747026
:1041A000733A2F2F6769746875622E636F6D2F7372
:1041B000796E746865746F732F54696E79472F77C1
:1041C000696B692F54696E79472D436F6E66696715
:1041D00075726174696F6E0A005468657365206357
:1041E0006F6D6D616E6473206172652061637469C7
:1041F000766520666F7220636F6E6669677572619F
:1042000074696F6E3A0A2020247379732053686FA3
:10421000772073797374656D202867656E657261A8
:104220006C292073657474696E67730A20202431C9
:1042300020202053686F77206D6F746F72203120BB
:1042400073657474696E677320286F722077686174
:104250007465766572206D6F746F7220796F75204A
:1042600077616E7420312C322C332C34290A2020B3
:10427000247820202053686F772058206178697354
:104280002073657474696E677320286F7220776875
:10429000617465766572206178697320796F752025
:1042A00077616E7420782C792C7A2C612C622C63C7
:1042B000290A2020246D20202053686F7720616C0C
:1042C0006C206D6F746F722073657474696E6773A0
:1042D0000A2020247120202053686F7720616C6CA5
:1042E00020617869732073657474696E67730A203E
:1042F00020246F20202053686F7720616C6C206F22
:1043000066667365742073657474696E67730A20DA
:1043100020242420202053686F7720616C6C207348
:10432000657474696E67730A202024682020205306
:10433000686F7720746869732068656C7020736398
:104340007265656E0A0A000A0A0A2323232054694B
:104350006E794720434F4E46494755524154494F85
:104360004E2048656C70202323230A000A466F7292
:104370002064657461696C65642054696E794720B6
:10438000696E666F207365653A2068747470733A5D
:104390002F2F6769746875622E636F6D2F73796E46
:1043A000746865746F732F54696E79472F77696BE2
:1043B000692F0A466F7220746865206C617465739A
:1043C00074206669726D77617265207365653A2045
:1043D00068747470733A2F2F6769746875622E63FE
:1043E0006F6D2F73796E746865746F732F54696E77
:1043F00079470A506C65617365206C6F6720616E48
:1044000079206973737565732061742068747470A2
:104410003A2F2F7777772E73796E746865746F7380
:104420002E636F6D2F666F72756D730A48617665C6
:104430002066756E0A000A4E6F74653A2054696EE4
:1044400079472067656E6572617465732061757464
:104450006F6D617469632073746174757320726524
:10446000706F7274732062792064656661756C7414
:104470000A546869732063616E2062652064697301
:1044800061626C656420627920656E746572696E24
:1044900067202473763D300A536565207468652073
:1044A00077696B692062656C6F7720666F72206D2B
:1044B0006F72652064657461696C732E0A005468BC
:1044C00065736520636F6D6D616E647320617265E5
:1044D000206163746976652066726F6D207468650B
:1044E00020636F6D6D616E64206C696E653A0A20A1
:1044F0005E782020202020202020202020202052F4
:10450000657365742028636F6E74726F6C207829F0
:10451000202D20736F6674776172652072657365F4
:10452000740A20203F20202020202020202020202E
:1045300020204D616368696E6520706F73697469CE
:104540006F6E20616E642067636F6465206D6F64B9
:10455000656C2073746174650A202024202020205B
:1045600020202020202020202053686F7720616E9B
:10457000642073657420636F6E6669677572617419
:10458000696F6E2073657474696E67730A202021E9
:10459000202020202020202020202020204665656B
:1045A00064686F6C64202D2073746F70206D6F745D
:1045B000696F6E20776974686F7574206C6F7369AA
:1045C0006E6720706F736974696F6E0A20207E2099
:1045D0002020202020202020202020204379636CD0
:1045E00065205374617274202D207265737461723A
:1045F000742066726F6D2066656564686F6C640A0E
:104600002020682020202020202020202020202062
:1046100053686F7720746869732068656C702073C5
:10462000637265656E0A20202468202020202020E7
:1046300020202020202053686F7720636F6E6669EA
:104640006775726174696F6E2068656C7020736342
:104650007265656E0A202024746573742020202002
:1046600020202020204C6973742073656C662D74A3
:10467000657374730A202024746573743D4E202082
:10468000202020202052756E2073656C662D746585
:104690007374204E0A202024686F6D653D31202000
:1046A000202020202052756E206120686F6D696E79
:1046B00067206379636C650A202024646566613D28
:1046C0003120202020202020526573746F726520D5
:1046D000616C6C2073657474696E677320746F20ED
:1046E00022666163746F7279222064656661756CFD
:1046F00074730A000A0A0A2323232054696E794737
:104700002048656C70202323230A005B6A735D20B8
:10471000206A736F6E2073657269616C697A6520B7
:104720007374796C65253964205B303D72656C610A
:104730007865642C313D7374726963745D0A005B43
:104740006A765D20206A736F6E20766572626F7381
:1047500069747925313564205B303D73696C656E11
:10476000742C313D666F6F7465722C323D6D6573CC
:1047700073616765732C333D636F6E666967732C75
:10478000343D6C696E656E756D2C353D7665726273
:104790006F73655D0A005B656A5D2020656E61620E
:1047A0006C65206A736F6E206D6F646525313364AC
:1047B000205B303D746578742C313D4A534F4E5D1B
:1047C0000A00D158CB58C458BF58B658AB58A05857
:1047D000945888587A586358545847583B58275823
:1047E0001A580558F157EE57EB57DC57C757B257D1
:1047F000A357935781576A574D573057175701574B
:10480000F056DE56D156BF56A556A2569F569C5618
:1048100099569656935690568D568A568756845674
:1048200081567E567B567856755672566F566C5624
:1048300069566656635660565D565A5657565456D4
:1048400051564E564B564856455642563F563C5684
:1048500039563656335630562D562A562756245634
:1048600021561E561B561856155612560F560C56E4
:10487000095606560356DF55BF55A5558B5571553C
:104880004D55305518550255E854C454A754955405
:1048900075545E54455423540A54EC53D053B853C2
:1048A000A653885373536F536B53675363535F53CC
:1048B0005B53575353534F534B53475343533F53F8
:1048C0003B53375333531953FF52EC52D052BE521D
:1048D000A75286527552555235521B520152EA5117
:1048E000B7518A516A5148512251FB50DF50C05094
:1048F0009B5072506E503C502450F94FCD4F974F03
:10490000624F504F3E4F2F4F1C4F034FE14ECF4E43
:10491000BD4EAB4E994E874E754E634E514E3F4E37
:104920002D4E1B4E094EF74DE54DE14DDD4DD94D58
:10493000D54DD14DCD4DC94DC54DC14DBD4DB94DD7
:10494000B54DB14DAD4DA94DA54DA14D9D4D994DC7
:10495000954D814D634D474D1C4DF74CD24CCE4C7F
:10496000CA4CC64CC24CBE4CBA4CB64CB24CAE4C07
:10497000AA4CA64CA24C9E4C9A4C864C6A4C4E4C6F
:10498000324C164CFA4BDE4BC24BA64B8A4B6E4B4D
:10499000524B364B324B2E4B2A4B264B224B1E4B47
:1049A0001A4B064BDE4AB74A914A644A3E4A114ABC
:1049B0000D4A094A054AF249D149BC494A6F67671D
:1049C000696E67206379636C65206661696C6564F4
:1049D0000050726F626520656E64706F696E74203E
:1049E0006973207374617274696E6720706F696E89
:1049F000740050726F6265206379636C6520666134
:104A0000696C65640032343900323438003234372E
:104A100000486F6D696E67204572726F72202D209D
:104A2000486F6D696E67207377697463686573207A
:104A30006D6973636F6E6669677572656400486F50
:104A40006D696E67204572726F72202D204E65670A
:104A50006174697665206C61746368206261636B60
:104A60006F666600486F6D696E67204572726F727F
:104A7000202D2054726176656C206D696E20262091
:104A80006D617820617265207468652073616D6561
:104A900000486F6D696E67204572726F72202D201D
:104AA0004C617463682076656C6F63697479206902
:104AB00073207A65726F00486F6D696E672045726A
:104AC000726F72202D205365617263682076656C69
:104AD0006F63697479206973207A65726F00486F1B
:104AE0006D696E67204572726F72202D204261647D
:104AF000206F72206E6F2061786973207370656318
:104B0000696669656400486F6D696E6720637963E3
:104B10006C65206661696C6564003233390032333C
:104B20003800323337003233360032333500323317
:104B3000340032333300536F6674206C696D6974CE
:104B4000206578636565646564202D2043206D6170
:104B50007800536F6674206C696D697420657863A2
:104B60006565646564202D2043206D696E00536F78
:104B70006674206C696D6974206578636565646529
:104B800064202D2042206D617800536F6674206C84
:104B9000696D6974206578636565646564202D209E
:104BA00042206D696E00536F6674206C696D697484
:104BB000206578636565646564202D2041206D6102
:104BC0007800536F6674206C696D69742065786332
:104BD0006565646564202D2041206D696E00536F0A
:104BE0006674206C696D69742065786365656465B9
:104BF00064202D205A206D617800536F6674206CFC
:104C0000696D6974206578636565646564202D202D
:104C10005A206D696E00536F6674206C696D6974FB
:104C2000206578636565646564202D2059206D6179
:104C30007800536F6674206C696D697420657863C1
:104C40006565646564202D2059206D696E00536F81
:104C50006674206C696D6974206578636565646548
:104C600064202D2058206D617800536F6674206C8D
:104C7000696D6974206578636565646564202D20BD
:104C800058206D696E00536F6674206C696D69748D
:104C900020657863656564656400323139003231BE
:104CA000380032313700323136003231350032319E
:104CB000340032313300323132003231310032319E
:104CC0003000323039003230380032303700323084
:104CD000360054726170657A6F696420706C616E21
:104CE0006E6572206661696C656420746F20636F05
:104CF0006E7665726765004C696D697420737769BB
:104D000074636820686974202D2053687574646F1B
:104D1000776E206F63637572726564004D616368BE
:104D2000696E6520697320616C61726D6564202D08
:104D300020436F6D6D616E64206E6F742070726FB2
:104D4000636573736564004D6F7665206C6573737E
:104D5000207468616E206D696E696D756D2074696F
:104D60006D65004D6F7665206C65737320746861A6
:104D70006E206D696E696D756D206C656E67746807
:104D80000047656E657269632054696E79472065D6
:104D900072726F7200313939003139380031393768
:104DA0000031393600313935003139340031393389
:104DB0000031393200313931003139300031383980
:104DC0000031383800313837003138360031383565
:104DD0000031383400313833003138320031383165
:104DE00000313830005420776F7264206973206975
:104DF0006E76616C6964005420776F726420697309
:104E0000206D697373696E67005220776F7264203A
:104E1000697320696E76616C6964005220776F72E5
:104E200064206973206D697373696E670051207720
:104E30006F726420697320696E76616C69640051D9
:104E400020776F7264206973206D697373696E6770
:104E5000004C20776F726420697320696E76616CF4
:104E60006964004C20776F7264206973206D6973E8
:104E700073696E67004820776F72642069732069D8
:104E80006E76616C6964004820776F726420697384
:104E9000206D697373696E67004520776F726420B7
:104EA000697320696E76616C6964004520776F7262
:104EB00064206973206D697373696E67004420779D
:104EC0006F726420697320696E76616C6964004456
:104ED00020776F7264206973206D697373696E67E0
:104EE000005020776F7264206973206E6F742061A8
:104EF0002076616C696420746F6F6C206E756D62D2
:104F00006572005020776F7264206973206E6F7431
:104F100020616E20696E7465676572005020776F3E
:104F20007264206973206E656761746976650050EC
:104F300020776F7264206973207A65726F00502049
:104F4000776F726420697320696E76616C696400A2
:104F50005020776F7264206973206D697373696E76
:104F60006700417263207370656369666963617489
:104F7000696F6E206572726F72202D20656E64708D
:104F80006F696E74206973207374617274696E67DF
:104F900020706F696E74004172632073706563697D
:104FA0006669636174696F6E206572726F72202D1D
:104FB0002072616469757320617263206F7574205B
:104FC0006F6620746F6C6572616E63650041726319
:104FD0002073706563696669636174696F6E2065CB
:104FE00072726F72202D206D697373696E67206F06
:104FF0006666736574287329004172632073706557
:1050000063696669636174696F6E206572726F723D
:10501000202D206D697373696E672061786973282C
:105020006573290041726320737065636966696303
:105030006174696F6E206572726F720041726320D5
:1050400073706563696669636174696F6E20657208
:10505000726F72202D20696D706F737369626C6559
:105060002063656E74657220706F696E74003135EF
:1050700033005370696E646C65206D7573742062C3
:1050800065207475726E696E6720666F7220746831
:10509000697320636F6D6D616E64005370696E6437
:1050A0006C65206D757374206265206F666620667E
:1050B0006F72207468697320636F6D6D616E640038
:1050C0005370696E646C65207370656564206578E3
:1050D000636565646564206D6178696D756D005305
:1050E00070696E646C652073706565642062656CC0
:1050F0006F77206D696E696D756D0050726F6772A4
:10510000616D6D656420706F696E742073616D658B
:105110002061732063757272656E7420706F696EA2
:10512000740043757474657220636F6D70656E737F
:105130006174696F6E2063616E6E6F7420626520AA
:10514000656E61626C656400526571756573746546
:10515000642076656C6F6369747920657863656532
:105160006473206C696D697473004730206F72201E
:105170004731206D757374206265206163746976B0
:105180006520666F722047353300526F7461727903
:1051900020617865732063616E6E6F742062652094
:1051A0007573656420776974682074686973206317
:1051B0006F6D6D616E6400496E7665727365207403
:1051C000696D65206D6F64652063616E6E6F74201C
:1051D00062652075736564207769746820746869F6
:1051E0007320636F6D6D616E640046656564726106
:1051F0007465206E6F742073706563696669656499
:105200000053656C656374656420706C616E652025
:10521000697320696E76616C69640053656C6563BF
:1052200074656420706C616E65206973206D6973AC
:1052300073696E6700417869732074617267657481
:1052400020706F736974696F6E20697320696E7660
:10525000616C696400417869732074617267657478
:1052600020706F736974696F6E206973206D697344
:1052700073696E670041786973206973206469738C
:1052800061626C6564004178697320697320696E9E
:1052900076616C696420666F72207468697320633C
:1052A0006F6D6D616E6400417869732063616E6E2D
:1052B0006F742062652070726573656E740041784A
:1052C000697320776F7264206D697373696E67000C
:1052D00047636F6465206D6F64616C2067726F75E2
:1052E000702076696F6C6174696F6E004D20636F1A
:1052F000646520756E737570706F727465640047B5
:10530000636F646520636F6D6D616E6420756E738D
:105310007570706F727465640047656E657269635D
:105320002047636F646520696E70757420657272C2
:105330006F7200313239003132380031323700318A
:1053400032360031323500313234003132330031FF
:1053500032320031323100313230003131390031F6
:1053600031380031313700313136003131350031DB
:105370003134004A534F4E20737472696E67207443
:105380006F6F206C6F6E67004A534F4E20696E70CE
:1053900075742068617320746F6F206D616E792061
:1053A0007061697273004A534F4E2073796E746155
:1053B00078206572726F7200496E70757420766124
:1053C0006C75652072616E6765206572726F720020
:1053D000496E7075742065786365656473206D61CE
:1053E00078696D756D2076616C756500496E7075B4
:1053F00074206C657373207468616E206D696E69CA
:105400006D756D2076616C756500496E70757420E0
:1054100065786365656473206D6178206C656E677F
:10542000746800436F6D6D616E64206E6F742061EF
:1054300063636570746564206174207468697320A7
:1054400074696D6500506172616D65746572206389
:10545000616E6E6F742062652072656164005061D8
:1054600072616D6574657220697320726561642D67
:105470006F6E6C7900556E737570706F72746564C1
:10548000206E756D626572206F72204A534F4E20F8
:105490007479706500426164206E756D626572207A
:1054A000666F726D617400496E76616C6964206F1D
:1054B00072206D616C666F726D656420636F6D6DD7
:1054C000616E6400556E7265636F676E697A6564BC
:1054D00020636F6D6D616E64206F7220636F6E6606
:1054E0006967206E616D650047656E65726963204E
:1054F000617373657274696F6E206661696C757231
:1055000065004D656D6F7279206661756C742064FD
:105510006574656374656400537461636B206F76B2
:105520006572666C6F77206465746563746564008A
:10553000436F6E74726F6C6C657220617373657209
:1055400074696F6E206661696C7572650043616E87
:105550006F6E6963616C206D616368696E6520615F
:105560007373657274696F6E206661696C757265BC
:1055700000506C616E6E6572206173736572746940
:105580006F6E206661696C7572650053746570702A
:10559000657220617373657274696F6E20666169EC
:1055A0006C75726500456E636F646572206173731C
:1055B000657274696F6E206661696C757265004909
:1055C0004F207375622D73797374656D20617373E9
:1055D000657274696F6E206661696C7572650043EF
:1055E0006F6E666967207375622D73797374656D6C
:1055F00020617373657274696F6E206661696C7582
:1056000072650038390038380038370038360038CD
:105610003500383400383300383200383100383043
:105620000037390037380037370037360037350054
:105630003734003733003732003731003730003627
:105640003900363800363700363600363500363405
:10565000003633003632003631003630003539003E
:1056600035380035370035360035350035340035EE
:1056700033003532003531003530003439003438EC
:10568000003437003436003435003434003433000D
:1056900034320034310034300033390033380033D1
:1056A000370033360042616420737461747573206F
:1056B0007265706F72742073657474696E670050E0
:1056C000657273697374656E6365206572726F725B
:1056D00000466C6F6174206973204E414E00466C29
:1056E0006F617420697320696E66696E6974650004
:1056F0004D6F76652074696D65206973204E414E4B
:10570000004D6F76652074696D6520697320696E40
:1057100066696E6974650047656E657269632065C8
:105720007863657074696F6E207265706F72740053
:105730004661696C656420746F2067657420706CC5
:10574000616E6E657220627566666572005379736C
:1057500074656D20616C61726D202D2073687574A5
:1057600074696E6720646F776E00496E6974696151
:105770006C697A6174696F6E206661696C757265B7
:1057800000526561642D6F6E6C792061646472658E
:10579000737300496E76616C69642041646472655C
:1057A000737300446976696465206279207A657252
:1057B0006F00466C6F6174696E6720706F696E74FC
:1057C000206572726F7200496E7465726E616C2032
:1057D00072616E6765206572726F7200496E7465E2
:1057E000726E616C206572726F72003139003138EF
:1057F0000046756E6374696F6E20697320737475EB
:105800006262656400456E746572696E6720626FDE
:105810006F74206C6F6164657200496E69746961B0
:105820006C697A696E670042756666657220667596
:105830006C6C202D20666174616C00427566666533
:10584000722066756C6C0042756666657220656DC7
:10585000707479004E6F2073756368206465766993
:105860006365004D61782066696C652073697A65AF
:105870002065786365656465640046696C65206EC3
:105880006F74206F70656E00456E64206F662066D1
:10589000696C6500456E64206F66206C696E6500FA
:1058A00048617264207265736574005465726D6935
:1058B0006E6174656400436F6D706C657465004E55
:1058C0006F6F700045616761696E004572726F723B
:1058D000004F4B005B7031706F665D2070776D20FC
:1058E0007068617365206F66662020202531352E33
:1058F0003366205B302E2E315D0A005B703177708D
:10590000685D2070776D20636377207068617365D0
:105910002068692531352E3366205B302E2E315DAF
:105920000A005B703177706C5D2070776D20636367
:1059300077207068617365206C6F2531352E336672
:10594000205B302E2E315D0A005B70317773685D0D
:105950002070776D206363772073706565642068BD
:10596000692531352E30662052504D0A005B70316A
:1059700077736C5D2070776D20636377207370653B
:105980006564206C6F2531352E30662052504D0AEB
:10599000005B70316370685D2070776D20637720E5
:1059A0007068617365206869202531352E33662063
:1059B0005B302E2E315D0A005B703163706C5D20B0
:1059C00070776D206377207068617365206C6F203D
:1059D0002531352E3366205B302E2E315D0A005B7B
:1059E00070316373685D2070776D2063772073700A
:1059F000656564206869202531352E306620525057
:105A00004D0A005B703163736C5D2070776D2063AD
:105A100077207370656564206C6F202531352E30DA
:105A2000662052504D0A005B70316672715D2070C5
:105A3000776D206672657175656E6379202020250B
:105A400031352E306620487A0A0053595354454D5B
:105A5000205245414459004C6F6164696E67206370
:105A60006F6E666967732066726F6D204545505290
:105A70004F4D00496E697469616C697A696E67207F
:105A8000636F6E6669677320746F20646566617505
:105A90006C742073657474696E6773007B22657221
:105AA000223A7B226662223A25302E32662C2273FD
:105AB00074223A25642C226D7367223A22257322C0
:105AC0007D7D0A007B65723A7B66623A25302E3214
:105AD000662C73743A25642C6D73673A2225732201
