:100000000C94DF4B0C94004C0C94C5D30C94004C16
:100010000C94004C0C94004C0C94004C0C94004C30
:100020000C94004C0C94004C0C94004C0C94FAD59D
:100030000C94004C0C94004C0C9447B80C94004C5D
:100040000C94004C0C94004C0C94004C0C94004C00
:100050000C94004C0C94004C0C94004C0C94004CF0
:100060000C94004C0C94DFD30C946ED30C94004C85
:100070000C9408CD0C94A9CC0C94E6CC0C94004CB8
:100080000C9499D40C94004C0C94004C0C94004C9F
:100090000C94004C0C94004C0C94004C0C94004CB0
:1000A0000C94004C0C94004C0C94004C0C9444BFE9
:1000B0000C94E8BF0C94004C0C94004C0C9438BA8F
:1000C0000C94004C0C94004C0C94004C0C94004C80
:1000D0000C94004C0C94004C0C94004C0C94004C70
:1000E0000C9453AA0C94004C0C94004C0C94004CAF
:1000F0000C94004C0C94004C0C94004C0C94004C50
:100100000C941BBF0C94BFBF0C94F2BE0C9496BF12
:100110000C94004C0C94004C0C94004C0C94004C2F
:100120000C94004C0C94004C0C94004C0C94004C1F
:100130000C94004C0C949CB90C94004C0C94004C06
:100140000C94004C0C94004C0C94004C0C94004CFF
:100150000C94004C0C94004C0C9449AA0C94004C48
:100160000C94004C0C94004C0C94004C0C94004CDF
:100170000C94004C0C94004C0C94004C0C94004CCF
:100180000C94004C0C94004C0C94004C0C94004CBF
:100190000C94004C0C94004C0C94004C0C94004CAF
:1001A0000C946DBF0C9411C00C94004C0C94004C3A
:1001B0000C94EBB90C94004C0C94004C0C94004C37
:1001C0000C94004C0C94004C0C94004C0C94004C7F
:1001D0000C94004C0C94004C0C94004C0C94004C6F
:1001E0000C94004C0C94004C19766B7863785F7813
:1001F0005B7853784F78477834782C78287824784F
:100200002078337618787E776D775C7769766976B3
:100210004B773C7769762B771A7709774B75F976A8
:10022000E0766976CF766976BE76AD76A276697627
:1002300069766976917680766F760E780E78047896
:10024000FA77F077E677E177D777CD77C3770277DC
:1002500002770277027702770277027702770277D6
:1002600002770277027702770277027702770277C6
:1002700002770277027704780277027702770277B3
:1002800002770277027702770277027702770277A6
:1002900002770277027702770277B977AF77A5778F
:1002A0009B770277027702770277027702770277ED
:1002B00002770E7879786F788179767970796976B6
:1002C0006976697669766976657969766976697637
:1002D000697669766976517947798B793D795B7969
:1002E0006976697669766976697669760879697674
:1002F000D37869766976697669766976697669769A
:10030000A67869764B7569766976697669766976D5
:100310006976697669764B756976697669769778D4
:100320008D788378457A3B7A477A307A6976FC799A
:1003300069766976F2796976697669766976697639
:1003400069766976697669766976697669766976B5
:1003500069766976E8796976697669766976697623
:100360006976697669766976DE79D4799F79957947
:100370009C78AFBEB7BEBFBEC7BECFBED7BE9FBE06
:10038000A7BE2EC130C13CC144C14CC154C15CC1E7
:1003900064C16CC174C17CC184C18CC194C19CC155
:1003A00013C113C113C113C113C113C113C113C1AD
:1003B00013C113C113C113C113C113C113C113C19D
:1003C00013C113C113C113C113C113C113C113C18D
:1003D00013C113C113C113C113C113C113C113C17D
:1003E00013C113C113C1A4C1ACC113C113C113C143
:1003F00013C113C113C113C113C113C113C113C15D
:1004000013C113C113C113C113C113C113C113C14C
:1004100013C113C113C113C113C113C113C113C13C
:1004200013C113C113C113C113C113C113C113C12C
:1004300013C113C113C113C113C113C113C113C11C
:1004400013C113C113C113C1B4C1084AD73B3BCE7A
:10045000016E84BCBFFDC12F3D6C74319ABD5683C3
:100460003DDA3D00C77F11BED9E4BB4C3E916BAA7B
:10047000AABE000000803F05A84CCDB2D44EB938CA
:1004800036A9020C50B9918688083CA6AAAA2ABEB1
:10049000000000803F07634236B79BD8A71A39682F
:1004A0005618AEBAAB558C1D3CB7CC5763BD6DED3D
:1004B000FD753EF6177231BF000000803F08000056
:1004C00000BE922449123EABAAAA2ABECDCCCC4C87
:1004D0003E00000080BEABAAAAAA3E00000000BFFA
:1004E000000000803F0000000000084178D3BB43BB
:1004F00087D1133D190E3CC3BD4282AD2B3E68EC43
:100500008276BED98FE1A93E4C80EFFFBE01C4FFC9
:100510007F3F0000000000000C947D670C946F7812
:100520000C94405B0C945DBE0C94A9610C942F62FA
:100530000C947F6F0C94AD760C94525B0C94A28358
:100540000C941A7D0C94FE5E0C949CC10C944FB1DB
:100550000C9489670C94E1C00C94F85F0C94D65EFF
:100560000C94585B0C94E6770C94DA5E0C948567D7
:100570000C942B610C94C45F0C94C3AB0C942C783A
:100580000C94164C0C9480760C94776F0C94F07746
:100590000C948B790C94F3670C94227D0C94BACF55
:1005A0000C943B7A0C940C4C0C94695B0C9438685A
:1005B0000C94FA5D0C940A5F0C94F05B0C94BF678A
:1005C0000C94024C0C943CC10C949F790C941D84A7
:1005D0000C94F37C0C94CA620C9407C10C94307A8E
:1005E0000C9418780C941E7D0C94477A0C94F3624A
:1005F0000C94225E0C94EE5E0C9413C10C945C7708
:100600000C94BECB0C94D7BE0C9484C10C94FA5EAF
:100610000C94C6BC0C943C770C94E45F0C94637807
:100620000C94A46C0C947E770C9495790C94465B96
:100630000C9484B20C94885B0C944F780C9453D136
:100640000C94B9770C94A2BD0C94CD610C94E05F2E
:100650000C9439BE0C94395F0C948EC50C94A95B34
:100660000C94814F0C94E1770C94A3AB0C946D77B0
:100670000C9475C50C94AF770C94F65E0C940D68D1
:100680000C94895C0C94145E0C94335B0C94065FA0
:100690000C94DC5F0C94D7770C94055D0C94697610
:1006A0000C94745B0C94FA640C9405BE0C94725810
:1006B0000C944C5B0C94B7AB0C9424780C940E5FA8
:1006C0000C9435BE0C9419840C9451BE0C94A7BEA6
:1006D0000C94D05F0C9409770C9454C10C9494D072
:1006E0000C94FA770C9488BD0C945B780C945BB1F5
:1006F0000C94AAC50C94C25B0C94585F0C94ADB2D8
:100700000C94935B0C946B780C943DBE0C941A5F24
:100710000C94CF760C94CFBE0C94A2760C945D4CC6
:100720000C94CE5E0C94ACC10C945F5C0C94C7BE70
:100730000C94AFBE0C9433760C94C3770C94856103
:100740000C942B770C94BFAB0C948CC10C9402B11D
:100750000C944FCE0C94596C0C946F760C94477893
:100760000C94E0760C94A07C0C94267D0C94ADAF98
:100770000C94606B0C94F25C0C94AFAB0C94CDD0E9
:100780000C9481670C94D2BC0C949C780C944F5EB2
:100790000C945B790C9477AF0C94B96C0C944B75FA
:1007A0000C94F87C0C94E25E0C94CD770C9421842C
:1007B0000C9403C10C94295E0C9494C10C94E85FD2
:1007C0000C94DBBD0C94A97B0C9479780C949176F5
:1007D0000C94C05F0C940E780C94305E0C94DE790F
:1007E0000C9428780C942BCB0C94714C0C94FC79C1
:1007F0000C94B7BE0C9436D00C9470680C940B8695
:100800000C94A3620C9459BE0C9417B10C9451CB68
:100810000C9430C10C942EC10C942D620C94E87988
:100820000C9417670C9453630C9400600C94C95D8E
:100830000C9474C10C949FAB0C94F2790C94FC5FF3
:100840000C9434780C94BBAB0C94EA5E0C94037358
:100850000C9476AC0C9457B10C94DEBC0C942A7DAD
:100860000C94A5770C942D6D0C94D4790C9481790B
:100870000C9420780C94AFAF0C94A6780C94BE76B0
:100880000C946E5E0C9455720C940FD30C941A63F6
:100890000C9481610C94FA7D0C94B4C10C94657D28
:1008A0000C9483780C9426CF0C941A770C94285CC3
:1008B0000C945CC10C94CA5E0C947C620C94B3AB37
:1008C0000C946CC10C94D25E0C9404780C946788E0
:1008D0000C94E6CA0C940C600C947CC10C94DE5E03
:1008E0000C9433B10C944CC10C9417600C94B3AFBE
:1008F0000C9455620C94A7AB0C943D790C94F25E69
:100900000C942A6C0C94AC680C94125F0C949B773A
:100910000C947D5B0C9476C50C949E5B0C94D9670B
:100920000C9472BD0C94457A0C94EC5F0C94715D40
:100930000C9402770C945E5B0C949FBE0C94C17275
:100940000C94B97B0C94025F0C94E7C00C949778DC
:100950000C94C2D10C94A47D0C9465790C94D3783A
:100960000C9408790C94C7C50C94E36B0C94F9763D
:100970000C944B770C9476790C94CF7D0C945F7823
:100980000C94F5520C9453780C94F45F0C9442BE82
:100990000C94CC5F0C947B5F0C94E65E0C9444C189
:1009A0000C94F55D0C94165F0C94D45F0C9464C1A8
:1009B0000C9453B10C94F05F0C9455BE0C945C5F96
:1009C0000C94776C0C94BFBE0C943A720C94D95B67
:1009D0000C948D780C94C9660C9457710C94F46146
:1009E0000C9473AF0C9419760C94D85F0C94C85F78
:1009F0000C94ABAB0C9475AF0C946BC60C94C25CAE
:100A00000C9470790C94DFCB0C94A4C10C944779AE
:100A10000C949A960C941B5E0C9451790C948D67EF
:100A20000C9446CC0C9458CC0C942C675B25732505
:100A3000735D20257320257320706F736974696F4F
:100A40006E2531382E336625730A005B25732573B6
:100A50005D202573202573206F66667365742532CB
:100A6000302E336625730A005B257325735D2025C0
:100A700073207A65726F206261636B6F66662531E1
:100A8000392E336625730A005B257325735D202597
:100A900073206C61746368206261636B6F666625A6
:100AA00031382E336625730A005B257325735D206C
:100AB0002573206C617463682076656C6F6369745C
:100AC000792531332E306625732F6D696E0A005BF0
:100AD000257325735D20257320736561726368201B
:100AE00076656C6F636974792531322E30662573B3
:100AF0002F6D696E0A005B257325735D20257320B9
:100B0000737769746368206D617825313764205B81
:100B1000303D6F66662C313D686F6D696E672C32B3
:100B20003D6C696D69742C333D6C696D69742B681B
:100B30006F6D696E675D0A005B257325735D202507
:100B40007320737769746368206D696E253137642B
:100B5000205B303D6F66662C313D686F6D696E6756
:100B60002C323D6C696D69742C333D6C696D697410
:100B70002B686F6D696E675D0A005B257325735D79
:100B8000202573207261646975732076616C7565C8
:100B90002532302E346625730A005B257325735D7C
:100BA000202573206A756E6374696F6E20646576A4
:100BB000696174696F6E2531342E3466257320287F
:100BC0006C61726765722069732066617374657207
:100BD000290A005B257325735D202573206A6572E1
:100BE0006B20686F6D696E672531362E3066257310
:100BF0002F6D696E5E33202A2031206D696C6C691F
:100C00006F6E0A005B257325735D202573206A656E
:100C1000726B206D6178696D756D2531352E30668A
:100C200025732F6D696E5E33202A2031206D696C2B
:100C30006C696F6E0A005B257325735D2025732038
:100C400074726176656C206D696E696D756D2531A4
:100C5000372E336625730A005B257325735D2025C7
:100C6000732074726176656C206D6178696D756D45
:100C70002531372E336625730A005B257325735D96
:100C80002025732076656C6F63697479206D6178B7
:100C9000696D756D2531312E306625732F6D696E46
:100CA0000A005B257325735D2025732066656564E6
:100CB00072617465206D6178696D756D2531312EB5
:100CC000306625732F6D696E0A005B257325735D91
:100CD0002025732061786973206D6F646525313834
:100CE000642025730A005B6D615D20206D696E20B4
:100CF000617263207365676D656E742531382E33BC
:100D00006625730A005B736C5D2020736F66742028
:100D10006C696D697420656E61626C652531326441
:100D20000A005B63745D202063686F7264616C20ED
:100D3000746F6C6572616E63652531372E3466257C
:100D4000730A005B6A615D20206A756E6374696F67
:100D50006E20616363656C65726174696F6E2538BE
:100D60002E306625730A005B6764695D20646566E2
:100D700061756C742067636F646520646973746166
:100D80006E6365206D6F6465253264205B303D477E
:100D900039302C313D4739315D0A005B6770615D48
:100DA0002064656661756C742067636F646520708C
:100DB00061746820636F6E74726F6C253364205B9E
:100DC000303D4736312C313D4736312E312C323DC6
:100DD0004736345D0A005B67636F5D20646566615A
:100DE000756C742067636F646520636F6F72642035
:100DF00073797374656D253364205B312D3620283B
:100E00004735342D473539295D0A005B67756E5DBE
:100E10002064656661756C742067636F6465207516
:100E20006E697473206D6F6465253564205B303D99
:100E30004732302C313D4732315D0A005B67706CC0
:100E40005D2064656661756C742067636F646520FE
:100E5000706C616E6525313064205B303D47313701
:100E60002C313D4731382C323D4731395D0A002560
:100E70006320776F726B206F66667365743A2531F5
:100E8000322E336625730A002563206D616368691D
:100E90006E6520706F736E3A2531312E336625737F
:100EA0000A00256320706F736974696F6E3A25318B
:100EB000352E336625730A00546F6F6C206E756D86
:100EC0006265722020202020202020202025640A16
:100ED00000466565642072617465206D6F64653AD3
:100EE00020202020202025730A0044697374616E3D
:100EF0006365206D6F64653A202020202020202526
:100F0000730A0050617468204D6F64653A20202098
:100F1000202020202020202025730A00506C616EA4
:100F2000653A202020202020202020202020202062
:100F30002025730A004D6F74696F6E206D6F6465B4
:100F40003A20202020202020202025730A00436FF3
:100F50006F7264696E6174652073797374656D3A3C
:100F600020202025730A00556E6974733A202020D2
:100F700020202020202020202020202025730A004F
:100F8000486F6D696E672073746174653A20202024
:100F9000202020202025730A0046656564686F6C58
:100FA000642073746174653A20202020202025730A
:100FB0000A004D6F74696F6E2073746174653A2016
:100FC0002020202020202025730A004379636C65AF
:100FD0002073746174653A20202020202020202076
:100FE00025730A00526177206D616368696E652020
:100FF00073746174653A20202025730A004D616383
:1010000068696E652073746174653A202020202021
:10101000202025730A004C696E65206E756D62652F
:10102000723A2531302E30660A00466565642072BA
:101030006174653A2531362E336625732F6D696EDE
:101040000A0056656C6F636974793A2531372E331F
:101050006625732F6D696E0A00B0107F105F104710
:101060003935202D20756E6974732D7065722D725F
:1010700065766F6C7574696F6E206D6F646500477F
:101080003934202D20756E6974732D7065722D6D45
:10109000696E757465206D6F64652028692E652EF4
:1010A000206665656472617465206D6F64652900F2
:1010B000473933202D20696E766572736520746917
:1010C0006D65206D6F646500EC10CC1047393120E0
:1010D0002D20696E6372656D656E74616C20646944
:1010E0007374616E6365206D6F64650047393020ED
:1010F0002D206162736F6C7574652064697374610F
:101100006E6365206D6F6465003D1125110F1147F9
:101110003634202D20636F6E74696E756F75732081
:101120006D6F6465004736312E31202D2065786162
:1011300063742073746F70206D6F6465004736317F
:10114000202D2065786163742070617468206D6F54
:10115000646500771168115911473139202D2059E4
:101160005A20706C616E6500473138202D20585A26
:1011700020706C616E6500473137202D2058592052
:10118000706C616E65000312F111D811B7119011E6
:10119000473830202D2063616E63656C206D6F745D
:1011A000696F6E206D6F646520286E6F6E652061BB
:1011B00063746976652900473320202D20636F759D
:1011C0006E74657220636C6F636B77697365206101
:1011D0007263206665656400473220202D20636CB1
:1011E0006F636B7769736520617263206665656400
:1011F00000473120202D206C696E65617220666584
:10120000656400473020202D206C696E6561722076
:10121000747261766572736520287365656B290049
:10122000CA12B01296127C12621248122E12473560
:1012300039202D20636F6F7264696E61746520734D
:10124000797374656D203600473538202D20636F23
:101250006F7264696E6174652073797374656D2053
:101260003500473537202D20636F6F7264696E61DA
:1012700074652073797374656D20340047353620AA
:101280002D20636F6F7264696E617465207379736A
:1012900074656D203300473535202D20636F6F72E4
:1012A00064696E6174652073797374656D203200B2
:1012B000473534202D20636F6F7264696E617465E9
:1012C0002073797374656D203100473533202D20EC
:1012D0006D616368696E6520636F6F7264696E61CA
:1012E00074652073797374656D00FD12F712F01246
:1012F000486F6D696E6700486F6D6564004E6F746E
:1013000020486F6D65640031132C13271321131CC3
:10131000131313456E6420486F6C6400486F6C644F
:1013200000446563656C00506C616E0053796E63B8
:10133000004F666600441340133B13486F6C640013
:1013400052756E0053746F70006E1364135E135702
:101350001353134A6F6700486F6D696E67005072D0
:101360006F6265004D616368696E696E67004F6604
:101370006600A4139E13981393138F13891380137D
:1013800053687574646F776E004379636C650045CC
:101390006E640053746F7000416C61726D00526531
:1013A00061647900496E697469616C697A696E6714
:1013B0000007140114FB13F613F213EE13E913E301
:1013C00013DD13D613D213C91353687574646F7782
:1013D0006E004A6F6700486F6D696E6700437963FE
:1013E0006C650050726F626500486F6C64005275E6
:1013F0006E00456E640053746F7000416C61726DD5
:1014000000526561647900496E697469616C697A3A
:10141000696E67002E141814473231202D206D6933
:101420006C6C696D65746572206D6F646500473220
:1014300030202D20696E63686573206D6F646500D0
:1014400068145D14511448145B7261646975735DAE
:10145000005B696E686962697465645D005B7374E2
:10146000616E646172645D005B64697361626C6586
:10147000645D0082147E1479142064656700206D19
:101480006D0020696E002A2A2A204E4F5449434598
:10149000202A2A2A20526573657474696E67206257
:1014A000617564207261746520746F202573005B20
:1014B0006E65745D206E6574776F726B206D6F64FE
:1014C0006525313764205B303D6D61737465725DF5
:1014D0000A005B626175645D20555342206261754C
:1014E00064207261746525313564205B313D393685
:1014F00030302C323D31393230302C333D333834BA
:1015000030302C343D35373630302C353D313135A7
:101510003230302C363D3233303430305D0A005BAF
:1015200065785D2020656E61626C6520666C6F7702
:1015300020636F6E74726F6C25313064205B303DB8
:101540006F66662C313D584F4E2F584F46462C2023
:10155000323D5254532F4354535D0A005B65655D21
:101560002020656E61626C65206563686F25313887
:1015700064205B303D6F66662C313D6F6E5D0A0006
:101580005B65635D2020657870616E64204C462049
:10159000746F2043524C46206F6E20545825366499
:1015A000205B303D6F66662C313D6F6E5D0A00E258
:1015B00015DD15D715D115CB15C415BD1532333032
:1015C000343030003131353230300035373630305C
:1015D0000033383430300031393230300039363071
:1015E000300030007379730066620000000007026B
:1015F0001A7DF4612D622534C315DC4373797300C1
:1016000066760000000007031E7DF4612D62293418
:10161000EC51783F73797300687000000000070098
:10162000227DF4611A632D340000803F73797300CA
:101630006876000000000700267DF461F87C3134F4
:101640000000004173797300696400000000040029
:101650002A7DA07C2D6221340000000000000000E3
:101660006E00000000000100CA5EC25BCA62112C5D
:1016700000000000000000006C696E6500000100C1
:10168000CA5ED95BCA62112C000000000000000095
:1016900076656C0000000002305EF05B2D62213444
:1016A00000000000000000006665656400000002A4
:1016B0004F5E285C2D622134000000000000000015
:1016C0007374617400000000CE5E335B2D622134C0
:1016D00000000000000000006D6163730000000066
:1016E000D25E405B2D62213400000000000000004B
:1016F0006379637300000000D65E465B2D6221347F
:1017000000000000000000006D6F74730000000016
:10171000DA5E4C5B2D622134000000000000000006
:10172000686F6C6400000000DE5E525B2D62213445
:101730000000000000000000756E697400000000E9
:10174000E65E5E5B2D6221340000000000000000B8
:10175000636F6F7200000000EA5E695B2D622134E6
:1017600000000000000000006D6F6D6F00000000C1
:10177000EE5E745B2D62213400000000000000006A
:10178000706C616E00000000F25E7D5B2D622134A2
:10179000000000000000000070617468000000009C
:1017A000F65E885B2D62213400000000000000001E
:1017B0006469737400000000FA5E935B2D6221344B
:1017C000000000000000000066726D6F0000000065
:1017D000FE5E9E5B2D6221340000000000000000D0
:1017E000746F6F6C00000000025FA95B2D622134F2
:1017F000000000006D706F006D706F7800000003D6
:101800000C60895C2D622134000000006D706F0057
:101810006D706F79000000030C60895C2D622134CB
:10182000000000006D706F006D706F7A00000003A3
:101830000C60895C2D622134000000006D706F0027
:101840006D706F61000000030C60895C2D622134B3
:10185000000000006D706F006D706F62000000038B
:101860000C60895C2D622134000000006D706F00F7
:101870006D706F63000000030C60895C2D62213481
:1018800000000000706F7300706F73780000000339
:1018900000605F5C2D62213400000000706F7300F7
:1018A000706F73790000000300605F5C2D6221346B
:1018B00000000000706F7300706F737A0000000307
:1018C00000605F5C2D62213400000000706F7300C7
:1018D000706F73610000000300605F5C2D62213453
:1018E00000000000706F7300706F736200000003EF
:1018F00000605F5C2D62213400000000706F730097
:10190000706F73630000000300605F5C2D62213420
:10191000000000006F6673006F66737800000003BC
:101920001760C25C2D622134000000006F667300F6
:101930006F667379000000031760C25C2D6221346A
:10194000000000006F6673006F66737A000000038A
:101950001760C25C2D622134000000006F667300C6
:101960006F667361000000031760C25C2D62213452
:10197000000000006F6673006F6673620000000372
:101980001760C25C2D622134000000006F66730096
:101990006F667363000000031760C25C2D62213420
:1019A00000000000686F6D00686F6D65000000004A
:1019B000E25E585BFA5D213400000000686F6D0044
:1019C000686F6D7800000000006085612D62E62B75
:1019D00000000000686F6D00686F6D790000000006
:1019E000006085612D62E72B00000000686F6D00CC
:1019F000686F6D7A00000000006085612D62E82B41
:101A000000000000686F6D00686F6D6100000000ED
:101A1000006085612D62E92B00000000686F6D0099
:101A2000686F6D6200000000006085612D62EA2B26
:101A300000000000686F6D00686F6D6300000000BB
:101A4000006085612D62EB2B000000007072620067
:101A5000707262650000000075C585612D62EC2B17
:101A60000000000070726200707262780000000373
:101A700075C5F4612D62ED2B0000000070726200EC
:101A8000707262790000000375C5F4612D62F12B5C
:101A900000000000707262007072627A0000000341
:101AA00075C5F4612D62F52B0000000070726200B4
:101AB000707262610000000375C5F4612D62F92B3C
:101AC0000000000070726200707262620000000329
:101AD00075C5F4612D62FD2B00000000707262007C
:101AE000707262630000000375C5F4612D62012C01
:101AF000000000006A6F67006A6F677800000000EE
:101B000075C58161145E0B2C000000006A6F6700D0
:101B10006A6F67790000000075C581611B5E0B2C40
:101B2000000000006A6F67006A6F677A00000000BB
:101B300075C58161225E0B2C000000006A6F670092
:101B40006A6F67610000000075C58161295E0B2C1A
:101B500000000000707772007077723100000000A2
:101B60005DBE88BD2D6221340000000070777200D8
:101B700070777232000000005DBE88BD2D62213496
:101B80000000000070777200707772330000000070
:101B90005DBE88BD2D6221340000000070777200A8
:101BA00070777234000000005DBE88BD2D62213464
:101BB0000000000000000000737200000000000040
:101BC000ADAF73AF75AF213400000000000000001E
:101BD00071720000000000004FB102B12D6221348B
:101BE000000000000000000071690000000000001B
:101BF00053B117B12D622134000000000000000035
:101C0000716F00000000000057B133B12D62213424
:101C100000000000000000006572000000000000ED
:101C200075C576AC2D622134000000000000000074
:101C3000716600000000000075C58161F55D21340A
:101C400000000000000000007278000000000000AA
:101C5000AAC517672D6221340000000000000000B3
:101C60006D7367000000000076C581612D6221342C
:101C70000000000000000000636C6561720000005D
:101C800075C5F552F5522134000000000000000037
:101C9000746573740000000075C5A47D07C121340C
:101CA00000000000000000006465666100000000A4
:101CB00075C5CF7D2B6121340000000000000000BD
:101CC000626F6F740000000075C5FA7DF37C2134EB
:101CD000000000000000000068656C70000000005B
:101CE00075C5657D2D6221340000000000000000F4
:101CF000680000000000000075C5657D2D6221347C
:101D00000000000031000000316D610000000300A0
:101D100039BE85612F626053000000003100000071
:101D200031736100000003033DBEF461C6BC6B5318
:101D30006666E63F310000003174720000000B045B
:101D400042BEF461D2BC6F530000A03F31000000DE
:101D5000316D69000000030051BE8561DEBC615336
:101D6000000000413100000031706F0000000300EE
:101D700055BE8561556265530000000031000000CA
:101D800031706D000000030059BE856172BD66535D
:101D90000000004032000000326D610000000300CE
:101DA00039BE85612F627F530000803F3200000002
:101DB00032736100000003033DBEF461C6BC8A5368
:101DC0006666E63F320000003274720000000B04C9
:101DD00042BEF461D2BC8E530000A03F320000002E
:101DE000326D69000000030051BE8561DEBC805386
:101DF000000000413200000032706F00000003005C
:101E000055BE856155628453000000003200000019
:101E100032706D000000030059BE856172BD8553AC
:101E20000000004033000000336D6100000003003B
:101E300039BE85612F629E530000004033000000D0
:101E400033736100000003033DBEF461C6BCA953B7
:101E50006666E63F330000003374720000000B0436
:101E600042BEF461D2BCAD530000A03F330000007D
:101E7000336D69000000030051BE8561DEBC9F53D5
:101E8000000000413300000033706F0000000300C9
:101E900055BE85615562A353000000003300000069
:101EA00033706D000000030059BE856172BDA453FC
:101EB0000000004034000000346D610000000300A9
:101EC00039BE85612F62BD530000404034000000E0
:101ED00034736100000003033DBEF461C6BCC85307
:101EE0006666E63F340000003474720000000B04A4
:101EF00042BEF461D2BCCC530000B44334000000B5
:101F0000346D69000000030051BE8561DEBCBE5324
:101F1000000000413400000034706F000000030036
:101F200055BE85615562C2530000000034000000B8
:101F300034706D000000030059BE856172BDC3534B
:101F4000000000407800000078616D000000030090
:101F50007B5FF25C055DA22A0000803F78000000F4
:101F600078766D0000000B00C45FF4612C67A72A2F
:101F700000004844780000007866720000000B0002
:101F8000C05FF4612C67A32A000048447800000079
:101F900078746E0000000B03CC5FF4612C67AF2AED
:101FA000000000007800000078746D0000000B0352
:101FB000C85FF4612C67AB2A00001643780000006C
:101FC000786A6D0000000B00D05FF461715DB32A88
:101FD0000000A04178000000786A680000000B0053
:101FE000D45FF461C95DB72A000020427800000088
:101FF000786A640000000B04D85FF4612C67BF2A84
:10200000CDCC4C3D7800000078736E0000000300DA
:10201000E05F8561E7C0C6290000803F78000000CE
:102020007873780000000300E45F8561E7C0C7298A
:1020300000000000780000007873760000000B00BC
:10204000E85FF4612C67C72A0000FA4378000000BB
:10205000786C760000000B00EC5FF4612C67CB2AF3
:102060000000C84278000000786C620000000B039A
:10207000F05FF4612C67CF2A0000A04078000000D8
:10208000787A620000000B03F45FF4612C67D32AB6
:102090000000803F7900000079616D0000000300BE
:1020A0007B5FF25C055DD72A0000803F790000006D
:1020B00079766D0000000B00C45FF4612C67DC2AA8
:1020C00000004844790000007966720000000B00AF
:1020D000C05FF4612C67D82A0000484479000000F2
:1020E00079746E0000000B03CC5FF4612C67E42A66
:1020F000000000007900000079746D0000000B03FF
:10210000C85FF4612C67E02A0000164379000000E4
:10211000796A6D0000000B00D05FF461715DE82A00
:102120000000A04179000000796A680000000B00FF
:10213000D45FF461C95DEC2A000020427900000000
:10214000796A640000000B04D85FF4612C67F42AFC
:10215000CDCC4C3D7900000079736E000000030087
:10216000E05F8561E7C0C8290000803F790000007A
:102170007973780000000300E45F8561E7C0C92936
:1021800000000000790000007973760000000B0069
:10219000E85FF4612C67FC2A0000FA437900000034
:1021A000796C760000000B00EC5FF4612C67002B6B
:1021B0000000C84279000000796C620000000B0347
:1021C000F05FF4612C67042B0000A0407900000050
:1021D000797A620000000B03F45FF4612C67082B2E
:1021E0000000803F7A0000007A616D00000003006B
:1021F0007B5FF25C055D0C2B0000803F7A000000E5
:102200007A766D0000000B00C45FF4612C67112B1F
:10221000000048447A0000007A66720000000B005B
:10222000C05FF4612C670D2B000048447A00000069
:102230007A746E0000000B03CC5FF4612C67192BDD
:10224000000000007A0000007A746D0000000B03AB
:10225000C85FF4612C67152B000096427A000000DD
:102260007A6A6D0000000B00D05FF461715D1D2B78
:102270000000A0417A0000007A6A680000000B00AC
:10228000D45FF461C95D212B000020427A00000078
:102290007A6A640000000B04D85FF4612C67292B74
:1022A000CDCC4C3D7A0000007A736E000000030034
:1022B000E05F8561E7C0CA29000000007A000000E5
:1022C0007A73780000000300E45F8561E7C0CB29E2
:1022D0000000803F7A0000007A73760000000B0057
:1022E000E85FF4612C67312B0000C8437A000000DE
:1022F0007A6C760000000B00EC5FF4612C67352BE4
:102300000000C8427A0000007A6C620000000B03F3
:10231000F05FF4612C67392B0000A0407A000000C8
:102320007A7A620000000B03F45FF4612C673D2BA6
:102330000000803F6100000061616D00000003004B
:102340007B5FF25C055D412B0000404061000000B6
:1023500061766D0000000300C45FF4611A63462BD0
:102360000000614861000000616672000000030027
:10237000C05FF4611A63422B0000614861000000F5
:1023800061746E0000000303CC5FF4612C674E2B78
:10239000000080BF6100000061746D000000030355
:1023A000C85FF4611A634A2B000080BF610000001F
:1023B000616A6D0000000300D05FF461715D522B13
:1023C0000000B44561000000616A6800000003007D
:1023D000D45FF461C95D562B0000344661000000F3
:1023E000616A640000000304D85FF4611A635E2B25
:1023F000CDCC4C3D610000006172610000000B0318
:10240000DC5FF4611A63622BD5B74B3E61000000BC
:1024100061736E0000000300E05F8561E7C0CC29B6
:102420000000803F6100000061737800000003003D
:10243000E45F8561E7C0CD29000000006100000075
:102440006173760000000300E85FF4611A63662B95
:102450000000164461000000616C7600000003007B
:10246000EC5FF4611A636A2B0000C842610000004F
:10247000616C620000000303F05FF4611A636E2B6D
:102480000000A04061000000617A620000000303C8
:10249000F45FF4611A63722B0000004062000000D8
:1024A00062616D00000003007B5FF25C055D762BCE
:1024B000000000006200000062766D000000030072
:1024C000C45FF4611A637B2B000061456200000069
:1024D0006266720000000300C05FF4611A63772B2C
:1024E000000061456200000062746E00000003039A
:1024F000CC5FF4612C67832B000080BF620000007A
:1025000062746D0000000303C85FF4611A637F2BDF
:10251000000080BF62000000626A6D0000000300DE
:10252000D05FF461715D872B0000A0416200000064
:10253000626A640000000300D85FF4611A63932BA1
:10254000CDCC4C3D620000006272610000000B03C4
:10255000DC5FF4611A63972B0000803F630000008A
:1025600063616D00000003007B5FF25C055DAB2BD7
:10257000000000006300000063766D0000000300AF
:10258000C45FF4611A63B02B000061456300000072
:102590006366720000000300C05FF4611A63AC2B35
:1025A000000061456300000063746E0000000303D7
:1025B000CC5FF4612C67B82B000080BF6300000083
:1025C00063746D0000000303C85FF4611A63B42BE9
:1025D000000080BF63000000636A6D00000003001C
:1025E000D05FF461715DBC2B0000A041630000006E
:1025F000636A640000000300D85FF4611A63C82BAB
:10260000CDCC4C3D630000006372610000000B0301
:10261000DC5FF4611A63CC2B0000803F7031000056
:1026200070316672710003009FABF4611A633C5213
:102630000000C84270310000703163736C00030009
:10264000A3ABF4611A63405200007A447031000079
:102650007031637368000300A7ABF4611A634452DE
:102660000000FA4470310000703163706C000303A5
:10267000ABABF4611A6348520000003E70310000B9
:102680007031637068000303AFABF4611A634C529E
:10269000CDCC4C3E70310000703177736C0003007C
:1026A000B3ABF4611A63505200007A4470310000F9
:1026B0007031777368000300B7ABF4611A6354524A
:1026C0000000FA4470310000703177706C00030331
:1026D000BBABF4611A6358520000003E7031000039
:1026E0007031777068000303BFABF4611A635C520A
:1026F000CDCC4C3E703100007031706F660003032A
:10270000C3ABF4611A636052CDCCCC3D6735340065
:102710006735347800000B03F85FF4612C67122AE8
:1027200000000000673534006735347900000B0382
:10273000F85FF4612C67162A00000000673534004A
:102740006735347A00000B03F85FF4612C671A2AAE
:1027500000000000673534006735346100000B036A
:10276000F85FF4612C671E2A000000006735340012
:102770006735346200000B03F85FF4612C67222A8E
:1027800000000000673534006735346300000B0338
:10279000F85FF4612C67262A0000000067353500D9
:1027A0006735357800000B03F85FF4612C672A2A3F
:1027B00000009642673535006735357900000B0318
:1027C000F85FF4612C672E2A0000964267353500C9
:1027D0006735357A00000B03F85FF4612C67322A05
:1027E00000000000673535006735356100000B03D8
:1027F000F85FF4612C67362A000000006735350069
:102800006735356200000B03F85FF4612C673A2AE4
:1028100000000000673535006735356300000B03A5
:10282000F85FF4612C673E2A00000000673536002F
:102830006735367800000B03F85FF4612C67422A95
:1028400000000000673536006735367900000B035D
:10285000F85FF4612C67462A0000000067353600F7
:102860006735367A00000B03F85FF4612C674A2A5B
:1028700000000000673536006735366100000B0345
:10288000F85FF4612C674E2A0000000067353600BF
:102890006735366200000B03F85FF4612C67522A3B
:1028A00000000000673536006735366300000B0313
:1028B000F85FF4612C67562A000000006735370086
:1028C0006735377800000B03F85FF4612C675A2AEC
:1028D00000000000673537006735377900000B03CB
:1028E000F85FF4612C675E2A00000000673537004E
:1028F0006735377A00000B03F85FF4612C67622AB2
:1029000000000000673537006735376100000B03B2
:10291000F85FF4612C67662A000000006735370015
:102920006735376200000B03F85FF4612C676A2A91
:1029300000000000673537006735376300000B0380
:10294000F85FF4612C676E2A0000000067353800DC
:102950006735387800000B03F85FF4612C67722A42
:1029600000000000673538006735387900000B0338
:10297000F85FF4612C67762A0000000067353800A4
:102980006735387A00000B03F85FF4612C677A2A08
:1029900000000000673538006735386100000B0320
:1029A000F85FF4612C677E2A00000000673538006C
:1029B0006735386200000B03F85FF4612C67822AE8
:1029C00000000000673538006735386300000B03EE
:1029D000F85FF4612C67862A000000006735390033
:1029E0006735397800000B03F85FF4612C678A2A99
:1029F00000000000673539006735397900000B03A6
:102A0000F85FF4612C678E2A0000000067353900FA
:102A10006735397A00000B03F85FF4612C67922A5E
:102A200000000000673539006735396100000B038D
:102A3000F85FF4612C67962A0000000067353900C2
:102A40006735396200000B03F85FF4612C679A2A3E
:102A500000000000673539006735396300000B035B
:102A6000F85FF4612C679E2A00000000673932008D
:102A70006739327800000103F85FF4612D62822C1F
:102A80000000000067393200673932790000010325
:102A9000F85FF4612D62862C000000006739320077
:102AA0006739327A00000103F85FF4612D628A2CE5
:102AB000000000006739320067393261000001030D
:102AC000F85FF4612D628E2C00000000673932003F
:102AD0006739326200000103F85FF4612D62922CC5
:102AE00000000000673932006739326300000103DB
:102AF000F85FF4612D62962C000000006732380008
:102B00006732387800000103FC5FF4612D629A2C73
:102B10000000000067323800673238790000010396
:102B2000FC5FF4612D629E2C0000000067323800CB
:102B30006732387A00000103FC5FF4612D62A22C39
:102B4000000000006732380067323861000001037E
:102B5000FC5FF4612D62A62C000000006732380093
:102B60006732386200000103FC5FF4612D62AA2C19
:102B7000000000006732380067323863000001034C
:102B8000FC5FF4612D62AE2C000000006733300062
:102B90006733307800000103FC5FF4612D62B22CD2
:102BA0000000000067333000673330790000010314
:102BB000FC5FF4612D62B62C00000000673330002A
:102BC0006733307A00000103FC5FF4612D62BA2C98
:102BD00000000000673330006733306100000103FC
:102BE000FC5FF4612D62BE2C0000000067333000F2
:102BF0006733306200000103FC5FF4612D62C22C78
:102C000000000000673330006733306300000103C9
:102C1000FC5FF4612D62C62C000000006A6964004C
:102C20006A6964610000000075C5CD61F3624934D2
:102C3000000000006A6964006A69646200000000C4
:102C400075C5CD61F3624D34000000006A6964000F
:102C50006A6964630000000075C5CD61F362513498
:102C6000000000006A6964006A6964640000000092
:102C700075C5CD61F36255340000000073797300AF
:102C80006A61000000000F001A5FF4612C67E02900
:102C90000050C347737973006374000000000F0491
:102CA000395FF4612C67E4290AD7233C73797300F8
:102CB000736C000000000700585F85612F62E829EF
:102CC00000000000737973007374000000000700B7
:102CD00003C18561E1C0BB29000000007379730066
:102CE0006D7400000000070235BEF461A2BD5C53A4
:102CF00000000040000000006D65000000000000C2
:102D000076C505BE05BE21340000000000000000AD
:102D10006D6400000000000076C5DBBDDBBD213422
:102D20000000000073797300656A0000000007006E
:102D3000198485615562D6330000803F7379730032
:102D40006A760000000007001D848561A283F037C9
:102D500000000040737973006A73000000000700F0
:102D6000218485615562F2370000803F73797300DA
:102D700074760000000007006BC685615562CF5471
:102D80000000803F73797300717600000000070037
:102D90005BB18561A36295520000000073797300F6
:102DA0007376000000000700B3AF85617C62A25219
:102DB0000000803F73797300736900000000070012
:102DC000AFAFA96177AFA35200007A437379730064
:102DD00065630000000007007D6785613868D733B0
:102DE00000000000737973006565000000000700B3
:102DF00081678561AC68D833000000007379730087
:102E00006578000000000700856785617068D93328
:102E10000000803F737973006261756400000400F4
:102E200089678561C966DA330000A0407379730051
:102E30006E657400000007008D6785612F6238346D
:102E4000000000007379730067706C0000000700D9
:102E5000065F85617C62F6290000000073797300CB
:102E600067756E00000007000A5F85615562F729EB
:102E70000000803F7379730067636F0000000700F4
:102E80000E5F85612F62F5290000803F7379730022
:102E90006770610000000700125F85617C62F8299D
:102EA0000000004073797300676469000000070048
:102EB000165F85615562F9290000000000000000DE
:102EC000676300000000000075C5A97BB97B213451
:102ED00000000000000000006D61000000000B0415
:102EE0005C5FF4612C67ED29CDCCCC3D0000000087
:102EF00066640000000003008EC585615562F137ED
:102F0000000000007564610075646130000003001A
:102F1000AAC5CD61F362DC33000000007564610076
:102F20007564613100000300AAC5CD61F362E0332E
:102F300000000000756461007564613200000300E8
:102F4000AAC5CD61F362E43300000000756461003E
:102F50007564613300000300AAC5CD61F362E833F4
:102F600000000000756462007564623000000300B8
:102F7000AAC5CD61F362EC33000000007564620005
:102F80007564623100000300AAC5CD61F362F033BD
:102F90000000000075646200756462320000030086
:102FA000AAC5CD61F362F4330000000075646200CD
:102FB0007564623300000300AAC5CD61F362F83383
:102FC0000000000075646300756463300000030056
:102FD000AAC5CD61F362FC33000000007564630094
:102FE0007564633100000300AAC5CD61F36200344B
:102FF0000000000075646300756463320000030024
:10300000AAC5CD61F362043400000000756463005A
:103010007564633300000300AAC5CD61F362083410
:1030200000000000756464007564643000000300F3
:10303000AAC5CD61F3620C34000000007564640021
:103040007564643100000300AAC5CD61F3621034D9
:1030500000000000756464007564643200000300C1
:10306000AAC5CD61F36214340000000075646400E9
:103070007564643300000300AAC5CD61F36218349F
:10308000000000005F7465005F7465780000000256
:10309000C7C5F4612D620750000000005F74650031
:1030A0005F74657900000002C7C5F4612D620B50A2
:1030B000000000005F7465005F74657A0000000224
:1030C000C7C5F4612D620F50000000005F746500F9
:1030D0005F74656100000002C7C5F4612D62135082
:1030E000000000005F7465005F746562000000020C
:1030F000C7C5F4612D621750000000005F746500C1
:103100005F74656300000002C7C5F4612D621B5047
:10311000000000005F7472005F74727800000002AB
:10312000C7C5F4612D622C51000000005F7472006D
:103130005F74727900000002C7C5F4612D623051DE
:10314000000000005F7472005F74727A0000000279
:10315000C7C5F4612D623451000000005F74720035
:103160005F74726100000002C7C5F4612D623851BE
:10317000000000005F7472005F7472620000000261
:10318000C7C5F4612D623C51000000005F747200FD
:103190005F74726300000002C7C5F4612D62405184
:1031A000000000005F7473005F7473310000000260
:1031B000C7C5F4612D629750000000005F70730076
:1031C0005F70733100000002C7C5F4612D62A75023
:1031D000000000005F6373005F6373310000000252
:1031E000C7C5F4612D62B750000000005F65730031
:1031F0005F65733100000002C7C5F4612D62C750DE
:10320000000000005F7873005F78733100000002F7
:10321000C7C5F4612D62F753000000005F666500CA
:103220005F66653100000002C7C5F4612D62D750AA
:10323000000000005F7473005F74733200000002CE
:10324000C7C5F4612D629B50000000005F707300E1
:103250005F70733200000002C7C5F4612D62AB508D
:10326000000000005F6373005F63733200000002C0
:10327000C7C5F4612D62BB50000000005F6573009C
:103280005F65733200000002C7C5F4612D62CB5048
:10329000000000005F7873005F7873320000000266
:1032A000C7C5F4612D620F54000000005F66650021
:1032B0005F66653200000002C7C5F4612D62DB5015
:1032C000000000005F7473005F747333000000023D
:1032D000C7C5F4612D629F50000000005F7073004D
:1032E0005F70733300000002C7C5F4612D62AF50F8
:1032F000000000005F6373005F637333000000022F
:10330000C7C5F4612D62BF50000000005F65730007
:103310005F65733300000002C7C5F4612D62CF50B2
:10332000000000005F7873005F78733300000002D4
:10333000C7C5F4612D622754000000005F66650078
:103340005F66653300000002C7C5F4612D62DF507F
:10335000000000005F7473005F74733400000002AB
:10336000C7C5F4612D62A350000000005F707300B8
:103370005F70733400000002C7C5F4612D62B35062
:10338000000000005F6373005F637334000000029D
:10339000C7C5F4612D62C350000000005F65730073
:1033A0005F65733400000002C7C5F4612D62D3501D
:1033B000000000005F7873005F7873340000000243
:1033C000C7C5F4612D623F54000000005F666500D0
:1033D0005F66653400000002C7C5F4612D62E350EA
:1033E00000000000000000005F64616D000000004C
:1033F00075C56E5E6E5E21340000000000000000A6
:10340000736530300000020075C5A961CA62AE5212
:103410000000000000000000736530310000020071
:1034200075C5A961CA62B05200000000000000002A
:10343000736530320000020075C5A961CA62B252DC
:10344000000000000000000073653033000002003F
:1034500075C5A961CA62B4520000000000000000F6
:10346000736530340000020075C5A961CA62B652A6
:10347000000000000000000073653035000002000D
:1034800075C5A961CA62B8520000000000000000C2
:10349000736530360000020075C5A961CA62BA5270
:1034A00000000000000000007365303700000200DB
:1034B00075C5A961CA62BC5200000000000000008E
:1034C000736530380000020075C5A961CA62BE523A
:1034D00000000000000000007365303900000200A9
:1034E00075C5A961CA62C05200000000000000005A
:1034F000736531300000020075C5A961CA62C2520D
:10350000000000000000000073653131000002007F
:1035100075C5A961CA62C452000000000000000025
:10352000736531320000020075C5A961CA62C652D6
:10353000000000000000000073653133000002004D
:1035400075C5A961CA62C8520000000000000000F1
:10355000736531340000020075C5A961CA62CA52A0
:10356000000000000000000073653135000002001B
:1035700075C5A961CA62CC520000000000000000BD
:10358000736531360000020075C5A961CA62CE526A
:1035900000000000000000007365313700000200E9
:1035A00075C5A961CA62D052000000000000000089
:1035B000736531380000020075C5A961CA62D25234
:1035C00000000000000000007365313900000200B7
:1035D00075C5A961CA62D452000000000000000055
:1035E000736532300000020075C5A961CA62D65207
:1035F000000000000000000073653231000002008E
:1036000075C5A961CA62D852000000000000000020
:10361000736532320000020075C5A961CA62DA52D0
:10362000000000000000000073653233000002005B
:1036300075C5A961CA62DC520000000000000000EC
:10364000736532340000020075C5A961CA62DE529A
:103650000000000000000000736532350000020029
:1036600075C5A961CA62E0520000000000000000B8
:10367000736532360000020075C5A961CA62E25264
:1036800000000000000000007365323700000200F7
:1036900075C5A961CA62E452000000000000000084
:1036A000736532380000020075C5A961CA62E6522E
:1036B00000000000000000007365323900000200C5
:1036C00075C5A961CA62E852000000000000000050
:1036D000737973000000000075C5FA6453632134E8
:1036E0000000000000000000703100000000000039
:1036F00075C5FA6453632134000000000000000027
:10370000310000000000000075C5FA6453632134E5
:103710000000000000000000320000000000000077
:1037200075C5FA64536321340000000000000000F6
:10373000330000000000000075C5FA6453632134B3
:103740000000000000000000340000000000000045
:1037500075C5FA64536321340000000000000000C6
:10376000780000000000000075C5FA64536321343E
:1037700000000000000000007900000000000000D0
:1037800075C5FA6453632134000000000000000096
:103790007A0000000000000075C5FA64536321340C
:1037A00000000000000000006100000000000000B8
:1037B00075C5FA6453632134000000000000000066
:1037C000620000000000000075C5FA6453632134F4
:1037D0000000000000000000630000000000000086
:1037E00075C5FA6453632134000000000000000036
:1037F000673534000000000075C5FA645363213456
:1038000000000000000000006735350000000000E7
:1038100075C5FA6453632134000000000000000005
:10382000673536000000000075C5FA645363213423
:1038300000000000000000006735370000000000B5
:1038400075C5FA64536321340000000000000000D5
:10385000673538000000000075C5FA6453632134F1
:103860000000000000000000673539000000000083
:1038700075C5FA64536321340000000000000000A5
:10388000673932000000000075C5FA6453632134C3
:103890000000000000000000673238000000000057
:1038A00075C5FA6453632134000000000000000075
:1038B000673330000000000075C5FA64536321349B
:1038C00000000000000000006D706F0000000000AC
:1038D00075C5FA6453632134000000000000000045
:1038E000706F73000000000075C5FA6453632134E3
:1038F00000000000000000006F6673000000000080
:1039000075C5FA6453632134000000000000000014
:10391000686F6D000000000075C5FA6453632134C0
:103920000000000000000000707262000000000053
:1039300075C5FA64536321340000000000000000E4
:10394000707772000000000075C5FA64536321347B
:1039500000000000000000006A6F67000000000027
:1039600075C5FA64536321340000000000000000B4
:103970006A6964000000000075C5FA64536321346D
:1039800000000000000000007564610000000000FD
:1039900075C5FA6453632134000000000000000084
:1039A000756462000000000075C5FA645363213439
:1039B00000000000000000007564630000000000CB
:1039C00075C5FA6453632134000000000000000054
:1039D000756464000000000075C5FA645363213407
:1039E00000000000000000005F746500000000009F
:1039F00075C5FA6453632134000000000000000024
:103A00005F7472000000000075C5FA6453632134CE
:103A100000000000000000005F7473000000000060
:103A200075C5FA64536321340000000000000000F3
:103A30005F7073000000000075C5FA6453632134A1
:103A400000000000000000005F6373000000000041
:103A500075C5FA64536321340000000000000000C3
:103A60005F6573000000000075C5FA64536321347C
:103A700000000000000000005F78730000000000FC
:103A800075C5FA6453632134000000000000000093
:103A90005F6665000000000075C5FA645363213459
:103AA00000000000000000006D00000000000000A9
:103AB00075C5F3672D62213400000000000000008E
:103AC000710000000000000075C5D9672D62213427
:103AD00000000000000000006F0000000000000077
:103AE00075C5BF672D622134000000000000000092
:103AF000240000000000000075C50D682D6221340F
:103B000000000000456E64206F6620636F6D6D617C
:103B10006E642066696C650A00486F6D696E672087
:103B20006572726F72202D20256320617869732081
:103B300073657474696E6773206D6973636F6E6605
:103B40006967757265640050726F62696E6720659F
:103B500072726F72202D2025632061786973206353
:103B6000616E6E6F74206D6F766520647572696E1C
:103B7000672070726F62696E67005B69645D202008
:103B800054696E7947204944253330730A005B68D5
:103B9000765D202068617264776172652076657257
:103BA00073696F6E2531362E32660A005B68705D70
:103BB0002020686172647761726520706C61746640
:103BC0006F726D2531352E32660A005B66765D2098
:103BD000206669726D776172652076657273696FB0
:103BE0006E2531362E32660A005B66625D202066E5
:103BF00069726D77617265206275696C6425313810
:103C00002E32660A00456E7465722024626F6F74EE
:103C10003D3120746F20656E746572207468652074
:103C2000626F6F74206C6F616465722E0A000A0AFD
:103C30000A2323232054696E794720424F4F542092
:103C40004C4F414445522048656C70202323230A81
:103C500000456E7465722024646566613D31207490
:103C60006F2072657365742074686520737973744E
:103C7000656D20746F2074686520666163746F726F
:103C8000792064656661756C742076616C75657306
:103C90002E0A546869732077696C6C206F766572A0
:103CA000777269746520616E79206368616E6765FB
:103CB0007320796F752068617665206D6164652E6B
:103CC0000A000A0A0A2323232054696E79472052E6
:103CD0004553544F52452044454641554C5453207A
:103CE00048656C70202323230A00496E766F6B654C
:103CF0002073656C66207465737420627920656E2C
:103D0000746572696E672024746573743D4E207704
:103D100068657265204E206973206F6E65206F663E
:103D20003A0A202024746573743D312020736D6F2E
:103D30006B6520746573740A202024746573743D68
:103D4000322020686F6D696E67207465737420205F
:103D50002028796F75206D757374207472697020D6
:103D6000686F6D696E67207377697463686573291E
:103D70000A202024746573743D33202073717561AB
:103D80007265207465737420202028612073657229
:103D9000696573206F662073717561726573290A96
:103DA000202024746573743D342020617263207474
:103DB00065737420202020202028736F6D65206C8F
:103DC0006172676520636972636C6573290A2020DC
:103DD00024746573743D3520206477656C6C2074A1
:103DE00065737420202020286D6F766573207370B2
:103DF000616365642062792031207365636F6E644E
:103E0000206477656C6C73290A20202474657374B0
:103E10003D36202066656564686F6C642074657348
:103E2000742028656E746572202120616E64207E86
:103E300020746F20686F6C6420616E6420726573FB
:103E4000746172742C207265737065637469766531
:103E50006C79290A202024746573743D3720204D25
:103E600020636F64657320746573742020284D206F
:103E7000636F64657320696E7465726D696E676CDB
:103E800065642077697468206D6F766573290A20F0
:103E90002024746573743D3820204A534F4E20749B
:103EA0006573742020202020286D6F74696F6E2048
:103EB000746573742072756E207573696E67204A1D
:103EC000534F4E20636F6D6D616E6473290A20201D
:103ED00024746573743D392020696E76657273654C
:103EE0002074696D6520746573740A2020247465DC
:103EF00073743D313020726F74617279206D6F740C
:103F0000696F6E20746573740A202024746573745D
:103F10003D313120736D616C6C206D6F766573205F
:103F2000746573740A202024746573743D313220E3
:103F3000736C6F77206D6F76657320746573740A88
:103F4000202024746573743D313320636F6F726475
:103F5000696E6174652073797374656D206F666630
:103F6000736574207465737420284739322C204798
:103F700035342D473539290A0A5465737473206125
:103F80007373756D6520612063656E746572656419
:103F9000205859206F726967696E20616E642061D4
:103FA00074206C656173742038306D6D20636C65AE
:103FB0006172616E636520696E20616C6C2064695A
:103FC00072656374696F6E730A54657374732061EC
:103FD0007373756D65205A20686173206174206C5D
:103FE000656173742034306D6D20706F736969740E
:103FF00069766520636C656172616E63650A5465FC
:1040000073747320737461727420776974682061AB
:10401000204730205830205930205A30206D6F769C
:10402000650A486F6D696E67206973207468652042
:10403000657863657074696F6E2E204E6F20696EAF
:10404000697469616C20706F736974696F6E206F39
:104050007220636C656172616E63652069732061B3
:104060007373756D65640A000A0A0A2323232054BA
:10407000696E79472053454C462054455354204897
:10408000656C70202323230A004561636820242087
:10409000636F6D6D616E642061626F766520616C27
:1040A000736F20646973706C617973207468652024
:1040B000746F6B656E20666F722065616368207334
:1040C000657474696E6720696E205B205D20627282
:1040D00061636B6574730A546F207669657720732A
:1040E000657474696E677320656E746572206120F3
:1040F000746F6B656E3A0A0A2020243C746F6B65FE
:104100006E3E0A0A466F72206578616D706C65209C
:104110002479667220746F20646973706C617920F1
:104120007468652059206D61782066656564207229
:104130006174650A0A546F20757064617465207338
:10414000657474696E677320656E74657220746F30
:104150006B656E20657175616C732076616C756539
:104160003A0A0A2020243C746F6B656E3E3D3C7613
:10417000616C75653E0A0A466F72206578616D70E4
:104180006C6520247966723D38303020746F20735E
:104190006574207468652059206D617820666565B6
:1041A00064207261746520746F20383030206D6D2A
:1041B0002F6D696E7574650A466F7220636F6E6647
:1041C000696775726174696F6E2064657461696C8A
:1041D00073207365653A2068747470733A2F2F6783
:1041E00069746875622E636F6D2F73796E7468657C
:1041F000746F732F54696E79472F77696B692F54E9
:10420000696E79472D436F6E66696775726174696F
:104210006F6E0A00546865736520636F6D6D616E23
:104220006473206172652061637469766520666FCE
:104230007220636F6E66696775726174696F6E3A3A
:104240000A2020247379732053686F772073797361
:1042500074656D202867656E6572616C29207365D1
:104260007474696E67730A202024312020205368FB
:104270006F77206D6F746F7220312073657474696D
:104280006E677320286F7220776861746576657237
:10429000206D6F746F7220796F752077616E742056
:1042A000312C322C332C34290A2020247820202051
:1042B00053686F7720582061786973207365747430
:1042C000696E677320286F72207768617465766500
:1042D00072206178697320796F752077616E742020
:1042E000782C792C7A2C612C622C63290A202024CA
:1042F0006D20202053686F7720616C6C206D6F7487
:104300006F722073657474696E67730A202024715C
:1043100020202053686F7720616C6C20617869736E
:104320002073657474696E67730A2020246F2020DF
:104330002053686F7720616C6C206F6666736574BC
:104340002073657474696E67730A2020242420200A
:104350002053686F7720616C6C2073657474696E8C
:1043600067730A2020246820202053686F77207408
:104370006869732068656C702073637265656E0A86
:104380000A000A0A0A2323232054696E794720432E
:104390004F4E46494755524154494F4E2048656C4F
:1043A00070202323230A000A466F7220646574611B
:1043B000696C65642054696E794720696E666F2068
:1043C0007365653A2068747470733A2F2F67697447
:1043D0006875622E636F6D2F73796E746865746F84
:1043E000732F54696E79472F77696B692F0A466F6F
:1043F0007220746865206C617465737420666972DC
:104400006D77617265207365653A206874747073A6
:104410003A2F2F6769746875622E636F6D2F7379F9
:104420006E746865746F732F54696E79470A506CA7
:1044300065617365206C6F6720616E7920697373A5
:1044400075657320617420687474703A2F2F7777C4
:10445000772E73796E746865746F732E636F6D2F2A
:10446000666F72756D730A486176652066756E0AAF
:10447000000A4E6F74653A2054696E79472067656B
:104480006E657261746573206175746F6D617469B6
:104490006320737461747573207265706F727473C6
:1044A0002062792064656661756C740A546869736A
:1044B0002063616E2062652064697361626C65646B
:1044C00020627920656E746572696E672024737648
:1044D0003D300A536565207468652077696B6920F3
:1044E00062656C6F7720666F72206D6F72652064F5
:1044F000657461696C732E0A005468657365206386
:104500006F6D6D616E6473206172652061637469A3
:1045100076652066726F6D2074686520636F6D6DBF
:10452000616E64206C696E653A0A205E78202020F6
:104530002020202020202020202052657365742018
:1045400028636F6E74726F6C207829202D20736F32
:104550006674776172652072657365740A20203F06
:10456000202020202020202020202020204D61639A
:1045700068696E6520706F736974696F6E20616E13
:10458000642067636F6465206D6F64656C2073746D
:104590006174650A20202420202020202020202053
:1045A0002020202053686F7720616E64207365742B
:1045B00020636F6E66696775726174696F6E2073D0
:1045C000657474696E67730A2020212020202020E2
:1045D000202020202020202046656564686F6C64C0
:1045E000202D2073746F70206D6F74696F6E20774B
:1045F0006974686F7574206C6F73696E6720706F73
:10460000736974696F6E0A20207E2020202020208C
:10461000202020202020204379636C652053746182
:104620007274202D20726573746172742066726FCB
:104630006D2066656564686F6C640A2020682020C0
:10464000202020202020202020202053686F772049
:10465000746869732068656C702073637265656E39
:104660000A20202468202020202020202020202014
:104670002053686F7720636F6E6669677572617427
:10468000696F6E2068656C702073637265656E0A71
:1046900020202474657374202020202020202020D6
:1046A0004C6973742073656C662D74657374730A3A
:1046B000202024746573743D4E202020202020206B
:1046C00052756E2073656C662D74657374204E0A86
:1046D000202024686F6D653D31202020202020207F
:1046E00052756E206120686F6D696E672063796313
:1046F0006C650A202024646566613D3120202020FD
:10470000202020526573746F726520616C6C207379
:10471000657474696E677320746F202266616374B8
:104720006F7279222064656661756C74730A000A81
:104730000A0A2323232054696E79472048656C7048
:10474000202323230A005B6A735D20206A736F6E47
:104750002073657269616C697A65207374796C6520
:10476000253964205B303D72656C617865642C315D
:104770003D7374726963745D0A005B6A765D202024
:104780006A736F6E20766572626F73697479253112
:104790003564205B303D73696C656E742C313D6609
:1047A0006F6F7465722C323D6D65737361676573ED
:1047B0002C333D636F6E666967732C343D6C696E94
:1047C000656E756D2C353D766572626F73655D0A39
:1047D000005B656A5D2020656E61626C65206A73AE
:1047E0006F6E206D6F646525313364205B303D74DE
:1047F0006578742C313D4A534F4E5D0A000A5904C6
:1048000059FD58F858EF58E458D958CD58C158B305
:10481000589C588D5880587458605853583E582AA0
:10482000582758245815580058EB57DC57CC57BA1E
:1048300057A3578657695750573A57295717570A5A
:1048400057F856DE56DB56D856D556D256CF56CCEC
:1048500056C956C656C356C056BD56BA56B756B4B4
:1048600056B156AE56AB56A856A556A2569F569C64
:104870005699569656935690568D568A5687568414
:104880005681567E567B567856755672566F566CC4
:104890005669566656635660565D565A5657565474
:1048A0005651564E564B564856455642563F563C24
:1048B000561856F855DE55C455AA558655695551B2
:1048C000553B552155FD54E054CE54AE5497547E7B
:1048D000545C54435425540954F153DF53C153AC31
:1048E00053A853A453A0539C539853945390538C60
:1048F000538853845380537C537853745370536C50
:10490000535253385325530953F752E052BF52AE16
:10491000528E526E5254523A522352F051C351A306
:104920005181515B5134511851F950DF50C550A09D
:104930005077505F5034500850D24F9D4F8B4F7975
:104940004F6A4F574F3E4F1C4F0A4FF84EE64ED41A
:104950004EC24EB04E9E4E8C4E7A4E684E564E44CF
:104960004E324E204E1C4E184E144E104E0C4E0819
:104970004E044E004EFC4DF84DF44DF04DEC4DE81C
:104980004DE44DE04DDC4DD84DD44DD04DBC4D9E49
:104990004D824D574D324D0D4D094D054D014DFD8B
:1049A0004CF94CF54CF14CED4CE94CE54CE14CDD4F
:1049B0004CD94CD54CC14CA54C894C6D4C514C3507
:1049C0004C194CFD4BE14BC54BA94B8D4B714B6DBD
:1049D0004B694B654B614B5D4B594B554B414B19EB
:1049E0004BF24ACC4A9F4A794A4C4A484A444A4088
:1049F0004A2D4A0C4AF7494A6F6767696E67206318
:104A000079636C65206661696C65640050726F62E1
:104A10006520656E64706F696E74206973207374AD
:104A2000617274696E6720706F696E740050726F86
:104A30006265206379636C65206661696C656400FA
:104A4000323439003234380032343700486F6D69FF
:104A50006E67204572726F72202D20486F6D696EEF
:104A600067207377697463686573206D6973636F1A
:104A70006E6669677572656400486F6D696E672060
:104A80004572726F72202D204E656761746976657C
:104A9000206C61746368206261636B6F66660048B6
:104AA0006F6D696E67204572726F72202D2054728F
:104AB0006176656C206D696E2026206D61782061BD
:104AC0007265207468652073616D6500486F6D695B
:104AD0006E67204572726F72202D204C617463687E
:104AE0002076656C6F63697479206973207A6572CA
:104AF0006F00486F6D696E67204572726F72202D6E
:104B0000205365617263682076656C6F63697479A0
:104B1000206973207A65726F00486F6D696E672037
:104B20004572726F72202D20426164206F72206E78
:104B30006F20617869732073706563696669656465
:104B400000486F6D696E67206379636C65206661EC
:104B5000696C6564003233390032333800323337E0
:104B600000323336003233350032333400323333DF
:104B700000536F6674206C696D6974206578636595
:104B800065646564202D2043206D617800536F6655
:104B900074206C696D69742065786365656465640B
:104BA000202D2043206D696E00536F6674206C6960
:104BB0006D6974206578636565646564202D2042A5
:104BC000206D617800536F6674206C696D69742084
:104BD0006578636565646564202D2042206D696E8B
:104BE00000536F6674206C696D6974206578636525
:104BF00065646564202D2041206D617800536F66E7
:104C000074206C696D69742065786365656465649A
:104C1000202D2041206D696E00536F6674206C69F1
:104C20006D6974206578636565646564202D205A1C
:104C3000206D617800536F6674206C696D69742013
:104C40006578636565646564202D205A206D696E02
:104C500000536F6674206C696D69742065786365B4
:104C600065646564202D2059206D617800536F665E
:104C700074206C696D69742065786365656465642A
:104C8000202D2059206D696E00536F6674206C6969
:104C90006D6974206578636565646564202D2058AE
:104CA000206D617800536F6674206C696D697420A3
:104CB0006578636565646564202D2058206D696E94
:104CC00000536F6674206C696D6974206578636544
:104CD0006564656400323139003231380032313771
:104CE0000032313600323135003231340032313366
:104CF000003231320032313100323130003230395D
:104D000000323038003230370032303600547261B1
:104D100070657A6F696420706C616E6E6572206672
:104D200061696C656420746F20636F6E766572676D
:104D300065004C696D6974207377697463682068D5
:104D40006974202D2053687574646F776E206F63CB
:104D5000637572726564004D616368696E65206990
:104D60007320616C61726D6564202D20436F6D6DE1
:104D7000616E64206E6F742070726F63657373650B
:104D800064004D6F7665206C657373207468616E86
:104D9000206D696E696D756D2074696D65004D6F6C
:104DA0007665206C657373207468616E206D696E22
:104DB000696D756D206C656E6774680047656E651A
:104DC0007269632054696E7947206572726F720050
:104DD000313939003139380031393700313936004D
:104DE000313935003139340031393300313932004D
:104DF000313931003139300031383900313838003B
:104E00003138370031383600313835003138340028
:104E10003138330031383200313831003138300028
:104E20005420776F726420697320696E76616C69B3
:104E300064005420776F7264206973206D69737306
:104E4000696E67005220776F726420697320696E03
:104E500076616C6964005220776F726420697320F8
:104E60006D697373696E67005120776F7264206992
:104E70007320696E76616C6964005120776F72648B
:104E8000206973206D697373696E67004C20776FBA
:104E9000726420697320696E76616C6964004C20CD
:104EA000776F7264206973206D697373696E670030
:104EB0004820776F726420697320696E76616C692F
:104EC00064004820776F7264206973206D69737382
:104ED000696E67004520776F726420697320696E80
:104EE00076616C6964004520776F72642069732075
:104EF0006D697373696E67004420776F726420690F
:104F00007320696E76616C6964004420776F726407
:104F1000206973206D697373696E67005020776F25
:104F20007264206973206E6F7420612076616C69F1
:104F30006420746F6F6C206E756D62657200502016
:104F4000776F7264206973206E6F7420616E2069C0
:104F50006E7465676572005020776F7264206973A4
:104F6000206E65676174697665005020776F7264A2
:104F7000206973207A65726F005020776F72642009
:104F8000697320696E76616C6964005020776F7276
:104F900064206973206D697373696E670041726381
:104FA0002073706563696669636174696F6E2065FB
:104FB00072726F72202D20656E64706F696E74203E
:104FC0006973207374617274696E6720706F696EA3
:104FD000740041726320737065636966696361740C
:104FE000696F6E206572726F72202D207261646924
:104FF000757320617263206F7574206F6620746F03
:105000006C6572616E6365004172632073706563E5
:10501000696669636174696F6E206572726F722070
:105020002D206D697373696E67206F666673657492
:105030002873290041726320737065636966696330
:105040006174696F6E206572726F72202D206D69B8
:105050007373696E672061786973286573290041ED
:1050600072632073706563696669636174696F6EEA
:10507000206572726F72005370696E646C65206D8A
:10508000757374206265207475726E696E67206630
:105090006F72207468697320636F6D6D616E640058
:1050A0005370696E646C65206D7573742062652041
:1050B0006F666620666F72207468697320636F6D17
:1050C0006D616E64005370696E646C652053207767
:1050D0006F726420697320696E76616C6964005335
:1050E00070696E646C65205320776F7264206973F9
:1050F000206D697373696E67005370696E646C65C7
:1051000020737065656420657863656564656420F7
:105110006D6178696D756D005370696E646C6520A2
:1051200073706565642062656C6F77206D696E6968
:105130006D756D0050726F6772616D6D6564207082
:105140006F696E742073616D652061732063757281
:1051500072656E7420706F696E7400437574746547
:105160007220636F6D70656E736174696F6E20631A
:10517000616E6E6F7420626520656E61626C65643D
:10518000005265717565737465642076656C6F6334
:105190006974792065786365656473206C696D69ED
:1051A0007473004730206F72204731206D7573741F
:1051B0002062652061637469766520666F7220479E
:1051C000353300526F7461727920617865732063A2
:1051D000616E6E6F742062652075736564207769F7
:1051E0007468207468697320636F6D6D616E64000C
:1051F000496E76657273652074696D65206D6F64A4
:10520000652063616E6E6F742062652075736564DE
:105210002077697468207468697320636F6D6D61AD
:105220006E64004665656472617465206E6F7420FB
:105230007370656369666965640053656C65637462
:10524000656420706C616E6520697320696E76619B
:105250006C69640053656C656374656420706C618F
:105260006E65206973206D697373696E670041789C
:1052700069732074617267657420706F73697469F3
:105280006F6E20697320696E76616C696400417885
:1052900069732074617267657420706F73697469D3
:1052A0006F6E206973206D697373696E6700417852
:1052B00069732069732064697361626C656400417D
:1052C00078697320697320696E76616C6964206601
:1052D0006F72207468697320636F6D6D616E640016
:1052E000417869732063616E6E6F7420626520700F
:1052F000726573656E74004178697320776F7264AC
:10530000206D697373696E670047636F6465206D14
:105310006F64616C2067726F75702076696F6C6165
:1053200074696F6E004D20636F646520756E7375D0
:1053300070706F727465640047636F646520636F9B
:105340006D6D616E6420756E737570706F727465CB
:10535000640047656E657269632047636F6465200A
:10536000696E707574206572726F72003132390027
:1053700031323800313237003132360031323500C7
:1053800031323400313233003132320031323100C7
:1053900031323000313139003131380031313700AC
:1053A0003131360031313500313134004A534F4EFE
:1053B00020737472696E6720746F6F206C6F6E67F4
:1053C000004A534F4E20696E7075742068617320D7
:1053D000746F6F206D616E79207061697273004A1D
:1053E000534F4E2073796E746178206572726F72BC
:1053F00000496E7075742076616C75652072616EFF
:105400006765206572726F7200496E7075742065F1
:10541000786365656473206D6178696D756D20765C
:10542000616C756500496E707574206C65737320CE
:105430007468616E206D696E696D756D2076616C42
:10544000756500496E707574206578636565647371
:10545000206D6178206C656E67746800436F6D6DB8
:10546000616E64206E6F742061636365707465643F
:1054700020617420746869732074696D65005061DF
:1054800072616D657465722063616E6E6F74206207
:1054900065207265616400506172616D657465724A
:1054A00020697320726561642D6F6E6C7900556E92
:1054B000737570706F72746564206E756D6265725D
:1054C000206F72204A534F4E2074797065004261FC
:1054D00064206E756D62657220666F726D61740016
:1054E000496E76616C6964206F72206D616C666FC5
:1054F000726D656420636F6D6D616E6400556E72D0
:1055000065636F676E697A656420636F6D6D616E48
:1055100064206F7220636F6E666967206E616D65CF
:105520000047656E657269632061737365727469A3
:105530006F6E206661696C757265004D656D6F7286
:1055400079206661756C7420646574656374656444
:1055500000537461636B206F766572666C6F7720A1
:10556000646574656374656400436F6E74726F6C18
:105570006C657220617373657274696F6E20666109
:10558000696C7572650043616E6F6E6963616C2052
:105590006D616368696E6520617373657274696FAC
:1055A0006E206661696C75726500506C616E6E6527
:1055B0007220617373657274696F6E206661696CC5
:1055C00075726500537465707065722061737365E0
:1055D0007274696F6E206661696C75726500456EE4
:1055E000636F64657220617373657274696F6E2096
:1055F0006661696C75726500494F207375622D7321
:10560000797374656D20617373657274696F6E2050
:105610006661696C75726500436F6E6669672073B9
:1056200075622D73797374656D206173736572741F
:10563000696F6E206661696C757265003839003873
:105640003800383700383600383500383400383301
:105650000038320038310038300037390037380030
:1056600037370037360037350037340037330037E7
:1056700032003731003730003639003638003637DF
:105680000036360036350036340036330036320008
:1056900036310036300035390035380035370035C1
:1056A00036003535003534003533003532003531BC
:1056B00000353000343900343800343700343600D7
:1056C00034350034340034330034320034310034A3
:1056D000300033390033380033370033360042614D
:1056E0006420737461747573207265706F727420B6
:1056F00073657474696E670050657273697374655D
:105700006E6365206572726F7200466C6F61742003
:105710006973204E414E00466C6F6174206973209E
:10572000696E66696E697465004D6F76652074698F
:105730006D65206973204E414E004D6F7665207473
:10574000696D6520697320696E66696E69746500AC
:1057500047656E6572696320657863657074696F0B
:105760006E207265706F7274004661696C656420AA
:10577000746F2067657420706C616E6E6572206254
:1057800075666665720053797374656D20616C612E
:10579000726D202D207368757474696E6720646F54
:1057A000776E00496E697469616C697A6174696FBA
:1057B0006E206661696C75726500526561642D6F5B
:1057C0006E6C79206164647265737300496E7661F2
:1057D0006C6964204164647265737300446976691E
:1057E0006465206279207A65726F00466C6F61741F
:1057F000696E6720706F696E74206572726F7200D7
:10580000496E7465726E616C2072616E67652065A9
:1058100072726F7200496E7465726E616C2065728F
:10582000726F720031390031380046756E637469E9
:105830006F6E206973207374756262656400456ED3
:10584000746572696E6720626F6F74206C6F61643B
:10585000657200496E697469616C697A696E670086
:105860004275666665722066756C6C202D206661D7
:1058700074616C004275666665722066756C6C00BA
:1058800042756666657220656D707479004E6F2092
:105890007375636820646576696365004D6178207F
:1058A00066696C652073697A6520657863656564EF
:1058B00065640046696C65206E6F74206F70656E5C
:1058C00000456E64206F662066696C6500456E64F5
:1058D000206F66206C696E65004861726420726595
:1058E000736574005465726D696E6174656400431C
:1058F0006F6D706C657465004E6F6F700045616709
:1059000061696E004572726F72004F4B005B7031BF
:10591000706F665D2070776D207068617365206FB1
:1059200066662020202531352E3366205B302E2EF2
:10593000315D0A005B70317770685D2070776D2093
:105940006363772070686173652068692531352E3F
:105950003366205B302E2E315D0A005B703177702C
:105960006C5D2070776D206363772070686173656C
:10597000206C6F2531352E3366205B302E2E315D45
:105980000A005B70317773685D2070776D20636308
:10599000772073706565642068692531352E30661F
:1059A0002052504D0A005B703177736C5D20707728
:1059B0006D20636377207370656564206C6F25319B
:1059C000352E30662052504D0A005B70316370688E
:1059D0005D2070776D206377207068617365206843
:1059E00069202531352E3366205B302E2E315D0A3D
:1059F000005B703163706C5D2070776D2063772081
:105A00007068617365206C6F202531352E336620F8
:105A10005B302E2E315D0A005B70316373685D2050
:105A200070776D20637720737065656420686920E6
:105A30002531352E30662052504D0A005B7031639F
:105A4000736C5D2070776D2063772073706565647B
:105A5000206C6F202531352E30662052504D0A00C3
:105A60005B70316672715D2070776D206672657152
:105A700075656E63792020202531352E30662048EB
:105A80007A0A0053595354454D2052454144590018
:105A90004C6F6164696E6720636F6E66696773201F
:105AA00066726F6D20454550524F4D00496E6974C6
:105AB00069616C697A696E6720636F6E6669677386
:105AC00020746F2064656661756C742073657474EE
:105AD000696E6773007B226572223A7B22666222BE
