:100000000C94504B0C94714B0C9458D90C94714B2C
:100010000C94714B0C94714B0C94714B0C94714B70
:100020000C94714B0C94714B0C94714B0C9493DBAE
:100030000C94714B0C94714B0C94C9BB0C94714B88
:100040000C94714B0C94714B0C94714B0C94714B40
:100050000C94714B0C94714B0C94714B0C94714B30
:100060000C94714B0C9472D90C9401D90C94714B73
:100070000C94B5D20C9457D20C9493D20C94714B2F
:100080000C941BDA0C94714B0C94714B0C94714BC7
:100090000C94714B0C94714B0C94714B0C94714BF0
:1000A0000C94714B0C94714B0C94714B0C9468C371
:1000B0000C940CC40C94714B0C94714B0C94BABD01
:1000C0000C94714B0C94714B0C94714B0C94714BC0
:1000D0000C94714B0C94714B0C94714B0C94714BB0
:1000E0000C94F0AC0C94714B0C94714B0C94714BC0
:1000F0000C94714B0C94714B0C94714B0C94714B90
:100100000C943FC30C94E3C30C9416C30C94BAC371
:100110000C94714B0C94714B0C94714B0C94714B6F
:100120000C94714B0C94714B0C94714B0C94714B5F
:100130000C94714B0C941EBD0C94714B0C94714B30
:100140000C94714B0C94714B0C94714B0C94714B3F
:100150000C94714B0C94714B0C94E6AC0C94714B59
:100160000C94714B0C94714B0C94714B0C94714B1F
:100170000C94714B0C94714B0C94714B0C94714B0F
:100180000C94714B0C94714B0C94714B0C94714BFF
:100190000C94714B0C94714B0C94714B0C94714BEF
:1001A0000C9491C30C9435C40C94714B0C94714B0A
:1001B0000C946CBD0C94714B0C94714B0C94714B62
:1001C0000C94714B0C94714B0C94714B0C94714BBF
:1001D0000C94714B0C94714B0C94714B0C94714BAF
:1001E0000C94714B0C94714B517858785F78667809
:1001F0006D780E7E0E7E0E7E0E7E0E7E73780E7EE7
:100200000E7E0E7E0E7E0E7E0E7E7B788278897844
:10021000907897780E7E0E7E0E7E0E7E0E7E0E7E7F
:100220009E780E7EE9780E7E0E7E0E7E0E7E0E7E0F
:100230000E7E0E7E1E790E7EE37B0E7E0E7E47794D
:100240000E7E0E7E0E7E0E7E0E7E6D790E7E0E7EF4
:100250000E7E707975797C7983798A79917999792B
:100260000E7EA1790E7E0E7ED4790E7E0E7E0E7EDF
:100270000E7E0E7E0E7E0E7E0E7E0E7E0E7E0E7E1E
:100280000E7E0E7E0E7E0E7EDB790E7E0E7E0E7E46
:100290000E7E0E7E0E7E0E7E0E7E0E7EE279157A2C
:1002A000487A8A7A917AA97AA97AB07AB77ABE7AA4
:1002B000C57ACC7AD17AD87ADF7A0C7E0C7E0C7E25
:1002C0000C7E0C7E0C7E0C7E0C7E0C7E0C7E0C7EDE
:1002D0000C7E0C7E0C7E0C7E0C7E0C7E0C7E0C7ECE
:1002E0000C7EB07A0C7E0C7E0C7E0C7E0C7E0C7E1E
:1002F0000C7E0C7E0C7E0C7E0C7E0C7E0C7E0C7EAE
:100300000C7E0C7E0C7EE67AED7AF47AFB7A0C7E1B
:100310000C7E0C7E0C7E0C7E0C7E0C7E0C7EA97AF4
:10032000647B727B807B0E7E0E7E107B51780E7E0E
:100330008E7B9C7BAA7BB87BA97AD27B0E7E1E7BB0
:100340000E7EC47B2C7B027B0E7E0E7E0E7E3A7B65
:10035000487B567B807D3F7D437D4B7D277D2B7D7C
:10036000337D377D577D6C7D747D787D7C7DCC7D44
:100370004F7D677B757B837B0E7E0E7E137B407883
:100380000E7E917B9F7BAD7BBB7B987AD57B0E7E6F
:10039000217B0E7EC77B2F7B057B0E7E0E7E0E7E25
:1003A0003D7B4B7B597B5B856285798585859C850B
:1003B000C785D1852F86F1850786A5C1ACC1B3C19C
:1003C000BAC1C1C1C8C1CFC1D6C174C5DDC4E5C4FD
:1003D000EDC4F5C4FDC405C50DC515C51DC525C5B0
:1003E0002DC535C53DC545C55DC55DC55DC55DC58D
:1003F0005DC55DC55DC55DC55DC55DC55DC55DC5ED
:100400005DC55DC55DC55DC55DC55DC55DC55DC5DC
:100410005DC55DC55DC55DC55DC55DC55DC55DC5CC
:100420005DC55DC55DC55DC55DC55DC55DC54DC5CC
:1004300055C5084AD73B3BCE016E84BCBFFDC12FDA
:100440003D6C74319ABD56833DDA3D00C77F11BEC5
:10045000D9E4BB4C3E916BAAAABE000000803F05C8
:10046000A84CCDB2D44EB93836A9020C50B99186F9
:1004700088083CA6AAAA2ABE000000803F07634263
:1004800036B79BD8A71A39685618AEBAAB558C1D2B
:100490003CB7CC5763BD6DEDFD753EF6177231BFAD
:1004A000000000803F08000000BE922449123EABCD
:1004B000AAAA2ABECDCCCC4C3E00000080BEABAA7E
:1004C000AAAA3E00000000BF000000803F0000001C
:1004D0000000084178D3BB4387D1133D190E3CC3BC
:1004E000BD4282AD2B3E68EC8276BED98FE1A93E3B
:1004F0004C80EFFFBE01C4FF7F3F00000000000002
:100500000C942F7B0C9403610C94A1D80C94A179CA
:100510000C94757B0C94FEB50C943AB20C94646FF9
:100520000C9463B30C94C7600C94EE6A0C949167BE
:100530000C9462750C9447790C94CDC40C94C95EEC
:100540000C9452740C946C7D0C9416600C94426B59
:100550000C94F3600C94FC5C0C9437AE0C94F47A1D
:100560000C94105D0C944B7B0C94D27B0C94E37B2D
:100570000C9466780C94E25F0C94C8C10C947C7D5A
:100580000C94B1680C94836B0C94B1C40C94B4B407
:100590000C943A7B0C94E4B10C9455C50C94456AC8
:1005A0000C94CD640C94734B0C941EC10C941C637E
:1005B0000C9499C40C9472C70C94997F0C94D4C079
:1005C0000C9491790C94157A0C944F7D0C946FC116
:1005D0000C9472630C94715C0C94545F0C941663CD
:1005E0000C948E7B0C946AB40C94ACC10C949E78E1
:1005F0000C9405D60C94137B0C940C7E0C94BC7557
:100600000C94FF600C94E9D70C947EB40C94C6C78C
:100610000C9458650C94E66A0C94A15C0C941E79B9
:100620000C94555E0C9423610C9405C50C94A97A26
:100630000C946D790C94ED640C948E6A0C940260A9
:100640000C94F2870C94337D0C94E45A0C94DB6088
:100650000C94F7600C94987A0C9427B60C943FB3E2
:100660000C9444530C94AE5F0C949B720C94FE5FFC
:100670000C947F5F0C94775C0C944B7D0C946D789C
:100680000C949D7F0C945DC50C9447630C9441C100
:100690000C9497780C947D5C0C94D17A0C949F7B8D
:1006A0000C944D5F0C94FA5F0C94677B0C94DF60A4
:1006B0000C94CB600C94A4D10C9458780C94107BBF
:1006C0000C9435C50C9453AE0C944FAE0C94717FC2
:1006D0000C9473780C940E7F0C943D7B0C94A17F4A
:1006E0000C941DC50C94364D0C94C47B0C94FDC425
:1006F0000C94CC7A0C946D640C94EE5F0C94917A0B
:100700000C94A05B0C94865F0C94785F0C948D4BDA
:100710000C94FB600C94EB600C94E65C0C94437DB1
:100720000C94F88B0C94F1850C94BE7A0C94D36ED7
:100730000C94D7600C9436B20C94D6C10C94FB7A0E
:100740000C9420800C9440780C94AA7B0C944C6BF5
:100750000C9482D10C9483790C94049A0C947E604E
:100760000C94917F0C9451780C94AB6F0C9418619D
:100770000C94FD7F0C94917B0C9462850C94858580
:100780000C94807B0C947A600C941A700C94487BC7
:100790000C94027B0C9445C50C9425C50C9401D295
:1007A0000C948FC10C9484D60C948BC10C94396436
:1007B0000C9482780C94E2790C94A76B0C945260A0
:1007C0000C94C25C0C948D640C943DC50C945F78C1
:1007D0000C94C3600C94C7850C9449750C949F5D70
:1007E0000C946C7F0C94CB6B0C94AB5C0C94CFC1D1
:1007F0000C94DDC40C94F5630C9406600C9446D5FF
:100800000C9452640C94AD7B0C94CC7D0C94DE5F04
:100810000C94A2700C94CAD40C94B75C0C94897894
:100820000C9474C50C94D57B0C949E4B0C94AE87A1
:100830000C94A5C10C949D630C949C7B0C944BAEC2
:100840000C9407860C94297E0C9447AE0C94E9789E
:100850000C945FB30C94277D0C94BAC10C94567B16
:100860000C94ACB40C941E600C94597B0C94C6523E
:100870000C94655C0C94F5C40C943F7D0C9493C16E
:100880000C94957F0C942C7B0C94D56F0C941A606F
:100890000C94B0B40C9493720C941A5E0C94727B0A
:1008A0000C948A790C942F860C94476B0C944AC054
:1008B0000C94807D0C94B3C10C94787D0C943BAE69
:1008C0000C94C77B0C9457AE0C94B3D50C945B85F9
:1008D0000C94D1850C94EE870C9443800C94217B6E
:1008E0000C94E3600C94CE5C0C94F26A0C9495B476
:1008F0000C94E8B10C9422C80C94B77A0C947579D6
:100900000C94314F0C94B8B40C941E7B0C940DC510
:100910000C94E7600C94D95C0C94EF6F0C942DC58B
:100920000C9477C10C9435640C949ACE0C94D65FD9
:100930000C94577D0C94EF600C94377D0C94D47913
:100940000C9422600C94525C0C9470790C945A5D57
:100950000C9426600C94C57A0C94E26A0C94186589
:100960000C94625E0C94C8630C9462C00C940E7E6E
:100970000C9437640C947CC10C94BB7B0C946A5F20
:100980000C9479890C94E4C00C94837B0C94997931
:100990000C943FAE0C94CF600C940A600C945F5C96
:1009A0000C94236A0C94AD640C94057B0C9491C850
:1009B0000C94B87B0C94215F0C94C1C10C94AFAF24
:1009C0000C94F4C70C94647B0C94DB790C94F6873C
:1009D0000C94E5C40C94B07A0C94EFD60C94798501
:1009E0000C94EDC40C947B780C94CF7F0C9443AEA4
:1009F0000C9404D20C940FD10C9456C00C94E67A4B
:100A00000C9412600C94EA5F0C94DA5F0C94D55D40
:100A10000C946B5C0C94B5C40C949C850C94715F25
:100A20000C94F25F0C94747D0C947C790C94487A4D
:100A30000C9473C10C940E600C94D87A0C945BAE39
:100A40000C94F8D30C94DFCE0C948A7A0C945A65EB
:100A50000C94EA6A0C945BB30C94D3600C94516BC5
:100A60000C9490780C94DF7A0C94F65F0C94E65F0B
:100A70000C944DC50C942A600C949FC40C942B7D4F
:100A80000C94ED7A0C948E5C0C9420750C942F7061
:100A90000C9404560C94D14B0C9415C573656E746C
:100AA00020627920686F73740073656E74206279B8
:100AB00020686F73740073656E7420627920686FAC
:100AC00073740063616E6F6E6963616C5F6D616307
:100AD00068696E655F746573745F61737365727462
:100AE000696F6E73282900636D5F6765745F636F5C
:100AF0006D62696E65645F73746174652829206D29
:100B00006163732062616400636D5F6765745F6336
:100B10006F6D62696E65645F737461746528292006
:100B2000637963732062616400636D5F6765745FFE
:100B3000636F6D62696E65645F73746174652829A3
:100B4000206D6F747320626164005B257325735D93
:100B500020257320257320706F736974696F6E256B
:100B600031382E336625730A005B257325735D20AB
:100B70002573202573206F66667365742532302EC9
:100B8000336625730A005B257325735D202573206A
:100B90007A65726F206261636B6F66662531392EEC
:100BA000336625730A005B257325735D202573204A
:100BB0006C61746368206261636B6F6666253138AF
:100BC0002E336625730A005B257325735D2025731C
:100BD000206C617463682076656C6F636974792535
:100BE00031332E306625732F6D696E0A005B2573D5
:100BF00025735D20257320736561726368207665B7
:100C00006C6F636974792531322E306625732F6DD0
:100C1000696E0A005B257325735D20257320737749
:100C200069746368206D617825313764205B303DDD
:100C30006F66662C313D686F6D696E672C323D6C56
:100C4000696D69742C333D6C696D69742B686F6DC7
:100C5000696E672C343D70726F62655D0A005B25BA
:100C60007325735D20257320737769746368206D25
:100C7000696E25313764205B303D6F66662C313DEF
:100C8000686F6D696E672C323D6C696D69742C33C9
:100C90003D6C696D69742B686F6D696E672C343DAE
:100CA00070726F62655D0A005B257325735D202598
:100CB00073207261646975732076616C7565253285
:100CC000302E346625730A005B257325735D20255D
:100CD00073206A756E6374696F6E206465766961EE
:100CE00074696F6E2531342E3466257320286C614B
:100CF0007267657220697320666173746572290A70
:100D0000005B257325735D202573206A65726B2057
:100D1000686F6D696E672531362E306625732F6DCD
:100D2000696E5E33202A2031206D696C6C696F6EAC
:100D30000A005B257325735D202573206A65726B3D
:100D4000206D6178696D756D2531352E306625739E
:100D50002F6D696E5E33202A2031206D696C6C69BD
:100D60006F6E0A005B257325735D202573207472F6
:100D70006176656C206D696E696D756D2531372EF4
:100D8000336625730A005B257325735D2025732068
:100D900074726176656C206D6178696D756D253151
:100DA000372E336625730A005B257325735D202576
:100DB000732076656C6F63697479206D6178696DF5
:100DC000756D2531312E306625732F6D696E0A00E1
:100DD0005B257325735D20257320666565647261EC
:100DE0007465206D6178696D756D2531312E3066C1
:100DF00025732F6D696E0A005B257325735D2025B1
:100E0000732061786973206D6F64652531386420C3
:100E100025730A005B736C5D2020736F6674206C11
:100E2000696D697420656E61626C65253132640A92
:100E3000005B63745D202063686F7264616C207472
:100E40006F6C6572616E63652531372E346625736C
:100E50000A005B6A615D20206A756E6374696F6E5B
:100E600020616363656C65726174696F6E25382EED
:100E7000306625730A005B6764695D20646566619E
:100E8000756C742067636F64652064697374616E48
:100E90006365206D6F6465253264205B303D4739A2
:100EA000302C313D4739315D0A005B6770615D2050
:100EB00064656661756C742067636F64652070613A
:100EC000746820636F6E74726F6C253364205B30BE
:100ED0003D4736312C313D4736312E312C323D479E
:100EE00036345D0A005B67636F5D2064656661751B
:100EF0006C742067636F646520636F6F7264207326
:100F0000797374656D253364205B312D3620284755
:100F100035342D473539295D0A005B67756E5D20D4
:100F200064656661756C742067636F646520756EB7
:100F3000697473206D6F6465253564205B303D47AF
:100F400032302C313D4732315D0A005B67706C5D99
:100F50002064656661756C742067636F64652070DA
:100F60006C616E6525313064205B303D4731372C34
:100F7000313D4731382C323D4731395D0A00256318
:100F800020776F726B206F66667365743A25313215
:100F90002E336625730A002563206D616368696ED0
:100FA0006520706F736E3A2531312E336625730AD2
:100FB00000256320706F736974696F6E3A2531354F
:100FC0002E336625730A00546F6F6C206E756D6248
:100FD00065722020202020202020202025640A0067
:100FE000466565642072617465206D6F64653A20A2
:100FF000202020202025730A004172632044697359
:1010000074616E6365206D6F64653A2020202573DE
:101010000A0044697374616E6365206D6F64653A9C
:101020002020202020202025730A00506174682091
:101030004D6F64653A202020202020202020202091
:1010400025730A00506C616E653A20202020202014
:1010500020202020202020202025730A004D6F749E
:10106000696F6E206D6F64653A202020202020205B
:10107000202025730A00436F6F7264696E61746586
:101080002073797374656D3A20202025730A00550A
:101090006E6974733A2020202020202020202020F8
:1010A0002020202025730A00486F6D696E67207329
:1010B000746174653A202020202020202025730AA6
:1010C0000046656564686F6C642073746174653A8A
:1010D00020202020202025730A004D6F74696F6E38
:1010E0002073746174653A20202020202020202560
:1010F000730A004379636C652073746174653A20E8
:10110000202020202020202025730A0052617720F3
:101110006D616368696E652073746174653A20203F
:101120002025730A004D616368696E6520737461E0
:1011300074653A2020202020202025730A004C6965
:101140006E65206E756D6265723A2531306C750A78
:10115000004665656420726174653A2531362E3328
:101160006625732F6D696E0A0056656C6F6369742E
:10117000793A2531372E336625732F6D696E0A0053
:10118000D711A6118611473935202D20756E697447
:10119000732D7065722D7265766F6C7574696F6EE4
:1011A000206D6F646500473934202D20756E697499
:1011B000732D7065722D6D696E757465206D6F6429
:1011C000652028692E652E206665656472617465E8
:1011D000206D6F64652900473933202D20696E76B4
:1011E000657273652074696D65206D6F6465002498
:1011F00012F3114739312E31202D20696E6372654B
:101200006D656E74616C2064697374616E636520D2
:101210006D6F6465202864656661756C74206D6F00
:10122000646529004739302E31202D206162736FAB
:101230006C7574652064697374616E6365206D6F8D
:1012400064650067124712473931202D20696E63AB
:1012500072656D656E74616C2064697374616E6330
:1012600065206D6F646500473930202D2061627301
:101270006F6C7574652064697374616E6365206D4D
:101280006F646500B812A0128A12473634202D20F0
:10129000636F6E74696E756F7573206D6F64650032
:1012A0004736312E31202D206578616374207374A8
:1012B0006F70206D6F646500473631202D20657892
:1012C0006163742070617468206D6F646500F21250
:1012D000E312D412473139202D20595A20706C6105
:1012E0006E6500473138202D20585A20706C616E91
:1012F0006500473137202D20585920706C616E658C
:10130000007E136C13531332130B13473830202D08
:101310002063616E63656C206D6F74696F6E206D04
:101320006F646520286E6F6E6520616374697665F1
:101330002900473320202D20636F756E746572205D
:10134000636C6F636B776973652061726320666598
:10135000656400473220202D20636C6F636B7769D2
:1013600073652061726320666565640047312020E3
:101370002D206C696E65617220666565640047307A
:1013800020202D206C696E65617220747261766513
:10139000727365003E1424140A14F013D613BC13A0
:1013A000A213473539202D20636F6F7264696E6117
:1013B00074652073797374656D2036004735382065
:1013C0002D20636F6F7264696E6174652073797329
:1013D00074656D203500473537202D20636F6F729F
:1013E00064696E6174652073797374656D2034006F
:1013F000473536202D20636F6F7264696E617465A6
:101400002073797374656D203300473535202D20A6
:10141000636F6F7264696E6174652073797374654C
:101420006D203200473534202D20636F6F72646960
:101430006E6174652073797374656D203100473572
:1014400033202D206D616368696E6520636F6F7254
:1014500064696E6174652073797374656D007114CD
:101460006B146414486F6D696E6700486F6D656436
:10147000004E6F7420486F6D656400C214B814B3D9
:1014800014A41496148E148914486F6C640050656B
:101490006E64696E6700446563656C2D546F2D5AE8
:1014A00065726F00446563656C2D436F6E74696E81
:1014B00075650053796E6300526571756573746567
:1014C00064004F666600D514D114CC14486F6C6468
:1014D0000052756E0053746F7000FF14F514EE1413
:1014E000E814E4144A6F670050726F626500486F39
:1014F0006D696E67004D616368696E696E67004F64
:10150000666600491543153D15381534152E15240A
:10151000151B15151550414E494300534855544469
:101520004F574E00496E7465726C6F636B00437960
:10153000636C6500456E640053746F7000416C61AC
:10154000726D00526561647900496E697469616CFD
:10155000697A696E6700C015BA15B415AF15AB1579
:10156000A715A2159C1596158F158B158115781545
:10157000721550616E69630053687574646F776E9D
:1015800000496E7465726C6F636B004A6F67004848
:101590006F6D696E67004379636C650050726F62AE
:1015A0006500486F6C640052756E00456E640053B0
:1015B000746F7000416C61726D00526561647900F6
:1015C000496E697469616C697A696E6700E715D163
:1015D00015473231202D206D696C6C696D6574651D
:1015E00072206D6F646500473230202D20696E6374
:1015F000686573206D6F646500211616160A160162
:10160000165B7261646975735D005B696E6869621F
:10161000697465645D005B7374616E646172645DBE
:10162000005B64697361626C65645D003B1637162C
:1016300032162064656700206D6D0020696E0065BC
:101640007272006D7367006E0071720065720073D4
:1016500072006763007372007365740073720073C5
:101660007273007365740073797300636F6E6669DB
:10167000675F746573745F617373657274696F6EAD
:101680007328290043616E6E6F74207265736574F0
:1016900020746F2064656661756C7473207768656B
:1016A0006E206D6F76696E6700006C696E652C70D8
:1016B0006F73782C706F73792C706F737A2C706FD6
:1016C00073612C666565642C76656C2C756E697427
:1016D0002C636F6F722C646973742C61646D6F2C52
:1016E00066726D6F2C6D6F6D6F2C73746174002A50
:1016F0002A2A204E4F54494345202A2A2A2052653F
:1017000073657474696E67206261756420726174B8
:101710006520746F202573002A2A2A205741524ED3
:10172000494E47202A2A2A20556E737570706F72B1
:1017300074656420626175642072617465207370E1
:101740006563696669656400312C322C332C342C56
:10175000352C3600782C792C7A2C612C622C630085
:101760006735342C6735352C6735362C6735372C83
:101770006735382C6735392C6739322C6732382C6D
:10178000673330005B626175645D205553422062AF
:10179000617564207261746525313564205B313D6B
:1017A000393630302C323D31393230302C333D3304
:1017B000383430302C343D35373630302C353D31EF
:1017C00031353230302C363D3233303430305D0AF2
:1017D000005B72786D5D2073657269616C20525890
:1017E000206D6F646525313564205B303D63686131
:1017F000725F6D6F64652C313D6C696E655F6D6FF6
:1018000064655D0A005B65785D2020656E61626CD1
:101810006520666C6F7720636F6E74726F6C253114
:101820003064205B303D6F66662C313D584F4E2F43
:10183000584F46462C323D5254532F4354535D0A61
:10184000005B65655D2020656E61626C6520656387
:10185000686F25313864205B303D6F66662C313D02
:101860006F6E5D0A005B65635D2020657870616E58
:1018700064204C4620746F2043524C46206F6E20EB
:101880005458253664205B303D6F66662C313D6FC1
:101890006E5D0A00C718C218BC18B618B018A9188F
:1018A000A21832333034303000313135323030002C
:1018B000353736303000333834303000313932305B
:1018C00030003936303000300073797300666200C2
:1018D0000000007402917FF563356455344881E05F
:1018E00043737973006676000000007403957FF5FA
:1018F0006335645934EC51783F7379730068700034
:101900000000007200997F726339645D34000080CA
:101910003F7379730068760000000074009D7FF5C6
:1019200063717F5E34000000417379730069640065
:101930000000004300A17F0E7F3564513400000099
:1019400000000000006E00000000000200D65F7280
:10195000636D643B2D00000000000000006C696EA8
:101960006500000200D65FFC5C6D643B2D0000004A
:10197000000000000076656C0000000402865F1025
:101980005D356451340000000000000000666565AC
:101990006400000402AE5F5A5D35645134000000FB
:1019A00000000000007374617400000200DA5F52EE
:1019B0005C3564513400000000000000006D61637C
:1019C0007300000200DE5F5F5C356451340000008C
:1019D00000000000006379637300000200E25F65AD
:1019E0005C3564513400000000000000006D6F742D
:1019F0007300000200E65F6B5C3564513400000048
:101A00000000000000686F6C6400000200EA5F7173
:101A10005C356451340000000000000000756E6900
:101A20007400000200F25F7D5C35645134000000F8
:101A30000000000000636F6F7200000200F65F8E0E
:101A40005C3564513400000000000000006D6F6DD3
:101A50006F00000200FA5FA15C35645134000000A1
:101A60000000000000706C616E00000200FE5FABC1
:101A70005C356451340000000000000000706174A7
:101A800068000002000260B75C3564513400000059
:101A9000000000000064697374000002000660C268
:101AA0005C35645134000000000000000061646D8A
:101AB0006F000002000A60CE5C3564513400000003
:101AC000000000000066726D6F000002000E60D919
:101AD0005C356451340000000000000000746F6F3A
:101AE0006C000002001260E65C35645134000000B6
:101AF000006D706F006D706F78000004031861D581
:101B00005D35645134000000006D706F006D706FC2
:101B100079000004031861D55D356451340000007C
:101B2000006D706F006D706F7A000004031861D54E
:101B30005D35645134000000006D706F006D706F92
:101B400061000004031861D55D3564513400000064
:101B5000006D706F006D706F62000004031861D536
:101B60005D35645134000000006D706F006D706F62
:101B700063000004031861D55D3564513400000032
:101B800000706F7300706F73780000040303619F2F
:101B90005D3564513400000000706F7300706F7326
:101BA000790000040303619F5D3564513400000037
:101BB00000706F7300706F737A0000040303619FFD
:101BC0005D3564513400000000706F7300706F73F6
:101BD000610000040303619F5D356451340000001F
:101BE00000706F7300706F73620000040303619FE5
:101BF0005D3564513400000000706F7300706F73C6
:101C0000630000040303619F5D35645134000000EC
:101C1000006F6673006F6673780000040323611A17
:101C20005E35645134000000006F6673006F6673A8
:101C3000790000040323611A5E356451340000000A
:101C4000006F6673006F66737A0000040323611AE5
:101C50005E35645134000000006F6673006F667378
:101C6000610000040323611A5E35645134000000F2
:101C7000006F6673006F6673620000040323611ACD
:101C80005E35645134000000006F6673006F667348
:101C9000630000040323611A5E35645134000000C0
:101CA00000686F6D00686F6D6500000200EE5F7781
:101CB0005C545F513400000000686F6D00686F6D08
:101CC000780000020003611C633564102D000000E1
:101CD00000686F6D00686F6D790000020003611C81
:101CE000633564112D00000000686F6D00686F6D32
:101CF0007A0000020003611C633564122D000000AD
:101D000000686F6D00686F6D610000020003611C68
:101D1000633564132D00000000686F6D00686F6DFF
:101D2000620000020003611C633564142D00000092
:101D300000686F6D00686F6D630000020003611C36
:101D4000633564152D0000000070726200707262CD
:101D5000650000020072C71C633564162D00000088
:101D60000070726200707262780000040372C7F53E
:101D7000633564172D00000000707262007072629B
:101D8000790000040372C7F56335641B2D00000061
:101D900000707262007072627A0000040372C7F50C
:101DA0006335641F2D000000007072620070726263
:101DB000610000040372C7F5633564232D00000041
:101DC0000070726200707262620000040372C7F5F4
:101DD000633564272D00000000707262007072622B
:101DE000630000040372C7F56335642B2D00000007
:101DF000006A6F67006A6F67780000040072C71698
:101E0000636A5F2F2D000000006A6F67006A6F67CA
:101E1000790000040072C71663715F2F2D00000067
:101E2000006A6F67006A6F677A0000040072C71665
:101E300063785F2F2D000000006A6F67006A6F678C
:101E4000610000040072C716637F5F2F2D00000041
:101E50000031000000316D61000000320073C11CD0
:101E60006339648D5100000000310000003173615E
:101E7000000000340377C1F5634AC098516666E6F6
:101E80003F31000000317472000000B4047CC1F5E1
:101E90006356C09C510000A03F31000000316D69C5
:101EA00000000032008BC11C6362C08E5100000034
:101EB000413100000031706F00000031008FC11C03
:101EC000638D649251000000003100000031706D9C
:101ED000000000320093C11C63D4C0935100000085
:101EE0004032000000326D61000000320073C11CFE
:101EF000633964AC510000803F32000000327361EE
:101F0000000000340377C1F5634AC0B7516666E646
:101F10003F32000000327472000000B4047CC1F54E
:101F20006356C0BB510000A03F32000000326D6913
:101F300000000032008BC11C6362C0AD5100000084
:101F4000413200000032706F00000031008FC11C70
:101F5000638D64B151000000003200000032706DEA
:101F6000000000320093C11C63D4C0B251000000D5
:101F70004033000000336D61000000320073C11C6B
:101F8000633964CB510000004033000000337361BB
:101F9000000000340377C1F5634AC0D6516666E697
:101FA0003F33000000337472000000B4047CC1F5BC
:101FB0006356C0DA510000A03F33000000336D6962
:101FC00000000032008BC11C6362C0CC51000000D5
:101FD000413300000033706F00000031008FC11CDE
:101FE000638D64D051000000003300000033706D39
:101FF000000000320093C11C63D4C0D15100000026
:102000004034000000346D61000000320073C11CD8
:10201000633964EA510000404034000000347361C9
:10202000000000340377C1F5634AC0F5516666E6E7
:102030003F34000000347472000000B4047CC1F529
:102040006356C0F9510000B44334000000346D6998
:1020500000000032008BC11C6362C0EB5100000025
:10206000413400000034706F00000031008FC11C4B
:10207000638D64EF51000000003400000034706D87
:10208000000000320093C11C63D4C0F05100000076
:10209000407800000078616D00000032007E6055DD
:1020A0005E625E942B0000803F7800000078766DC1
:1020B000000000B400C760F5638E6A952B000048ED
:1020C0004478000000786672000000B400C360F538
:1020D000638E6A9D2B000048447800000078746E7F
:1020E000000000B403CF60F5638E6AA92B000000E6
:1020F000007800000078746D000000B403CB60F538
:10210000638E6AA52B0000164378000000786A6D84
:10211000000000B400D360F563C95EAD2B0000A0E1
:102120004178000000786A68000000B400D760F5CC
:1021300063215FB12B0000204278000000786A64C0
:10214000000000B404DB60F5638E6AB92BCDCC4C83
:102150003D7800000078736E0000003200E3601CE0
:10216000639FC4642A0000803F7800000078737881
:102170000000003200E7601C639FC4712A00000069
:102180000078000000787376000000B400EB60F582
:10219000638E6AC12B0000FA4378000000786C76E9
:1021A000000000B400EF60F5638E6AC52B0000C824
:1021B0004278000000786C62000000B403F360F520
:1021C000638E6AC92B0000A04078000000787A6214
:1021D000000000B403F760F5638E6ACD2B00008029
:1021E0003F7900000079616D00000032007E60558B
:1021F0005E625ED12B0000803F7900000079766D31
:10220000000000B400C760F5638E6AD22B0000485E
:102210004479000000796672000000B400C360F5E4
:10222000638E6ADA2B000048447900000079746EEE
:10223000000000B403CF60F5638E6AE62B00000057
:10224000007900000079746D000000B403CB60F5E4
:10225000638E6AE22B0000164379000000796A6DF4
:10226000000000B400D360F563C95EEA2B0000A053
:102270004179000000796A68000000B400D760F579
:1022800063215FEE2B0000204279000000796A6430
:10229000000000B404DB60F5638E6AF62BCDCC4CF5
:1022A0003D7900000079736E0000003200E3601C8D
:1022B000639FC47E2A0000803F7900000079737814
:1022C0000000003200E7601C639FC48B2A000000FE
:1022D0000079000000797376000000B400EB60F52F
:1022E000638E6AFE2B0000FA4379000000796C7659
:1022F000000000B400EF60F5638E6A022C0000C895
:102300004279000000796C62000000B403F360F5CC
:10231000638E6A062C0000A04079000000797A6282
:10232000000000B403F760F5638E6A0A2C00008099
:102330003F7A0000007A616D00000032007E605537
:102340005E625E0E2C0000803F7A0000007A766D9F
:10235000000000B400C760F5638E6A0F2C000048CF
:10236000447A0000007A6672000000B400C360F591
:10237000638E6A172C000048447A0000007A746E5D
:10238000000000B403CF60F5638E6A232C000000C8
:10239000007A0000007A746D000000B403CB60F591
:1023A000638E6A1F2C000096427A0000007A6A6DE4
:1023B000000000B400D360F563C95E272C0000A0C4
:1023C000417A0000007A6A68000000B400D760F526
:1023D00063215F2B2C000020427A0000007A6A649F
:1023E000000000B404DB60F5638E6A332CCDCC4C66
:1023F0003D7A0000007A736E0000003200E3601C3A
:10240000639FC4982A000080407A0000007A7378A5
:102410000000003200E7601C639FC4A52A00008012
:102420003F7A0000007A7376000000B400EB60F59C
:10243000638E6A3B2C0000C8437A0000007A6C76F9
:10244000000000B400EF60F5638E6A3F2C0000C806
:10245000427A0000007A6C62000000B403F360F579
:10246000638E6A432C0000A0407A0000007A7A62F2
:10247000000000B403F760F5638E6A472C0000800B
:102480003F6100000061616D00000032007E605518
:102490005E625E4B2C000040406100000061766D82
:1024A0000000003400C760F56318654C2C00006123
:1024B00048610000006166720000003400C360F5EE
:1024C000631865542C000061486100000061746E5F
:1024D0000000003403CF60F5638E6A602C0000803A
:1024E000BF6100000061746D0000003403CB60F533
:1024F0006318655C2C000080BF61000000616A6D9C
:102500000000003400D360F563C95E642C0000B4A1
:102510004561000000616A680000003400D760F582
:1025200063215F682C0000344661000000616A642A
:102530000000003404DB60F5631865702CCDCC4CD2
:102540003D61000000617261000000B403DF60F5CE
:10255000631865742CE4B74B3E6100000061736E34
:102560000000003200E3601C639FC4B22A000080B8
:102570003F610000006173780000003200E7601CDA
:10258000639FC4BF2A0000000061000000617376F1
:102590000000003400EB60F5631865782C0000162D
:1025A0004461000000616C760000003400EF60F5CB
:1025B0006318657C2C0000C84261000000616C62F9
:1025C0000000003403F360F5631865802C0000A060
:1025D0004061000000617A620000003403F760F59A
:1025E000631865842C000000406200000062616D89
:1025F00000000032007E60555E625E882C000000A4
:10260000006200000062766D0000003400C760F5D3
:10261000631865892C0000614562000000626672E3
:102620000000003400C360F5631865912C00006160
:10263000456200000062746E0000003403CF60F554
:10264000638E6A9D2C000080BF6200000062746D82
:102650000000003403CB60F5631865992C000080FE
:10266000BF62000000626A6D0000003400D360F5B4
:1026700063C95EA12C0000A04162000000626A6490
:102680000000003400DB60F5631865AD2CCDCC4C48
:102690003D62000000627261000000B403DF60F57B
:1026A000631865B12C0000803F6300000063616D1A
:1026B00000000032007E60555E625EC52C000000A6
:1026C000006300000063766D0000003400C760F511
:1026D000631865C62C0000614563000000636672E4
:1026E0000000003400C360F5631865CE2C00006163
:1026F000456300000063746E0000003403CF60F592
:10270000638E6ADA2C000080BF6300000063746D82
:102710000000003403CB60F5631865D62C00008000
:10272000BF63000000636A6D0000003400D360F5F1
:1027300063C95EDE2C0000A04163000000636A6490
:102740000000003400DB60F5631865EA2CCDCC4C4A
:102750003D63000000637261000000B403DF60F5B8
:10276000631865EE2C0000803F7031000070316608
:10277000727100340037AEF563186563500000C80D
:102780004270310000703163736C0034003BAEF571
:10279000631865675000007A44703100007031633F
:1027A00073680034003FAEF56318656B500000FAA3
:1027B0004470310000703163706C00340343AEF537
:1027C0006318656F500000003E7031000070316387
:1027D000706800340347AEF56318657350CDCC4C78
:1027E0003E70310000703177736C0034004BAEF5F1
:1027F000631865775000007A4470310000703177BB
:1028000073680034004FAEF56318657B500000FA22
:102810004470310000703177706C00340353AEF5B2
:102820006318657F500000003E7031000070317702
:10283000706800340357AEF56318658350CDCC4CF7
:102840003E703100007031706F660034035BAEF58E
:102850006318658750CDCCCC3D673534006735347F
:10286000780000B403FB60F5638E6A042B0000005F
:102870000067353400673534790000B403FB60F538
:10288000638E6A082B00000000673534006735341A
:102890007A0000B403FB60F5638E6A0C2B00000025
:1028A00000673534006735346100003403FB60F5A0
:1028B000631865102B00000000673534006735345D
:1028C0006200003403FB60F5631865142B00000000
:1028D00000673534006735346300003403FB60F56E
:1028E000631865182B000000006735350067353523
:1028F000780000B403FB60F5638E6A1C2B00009621
:102900004267353500673535790000B403FB60F563
:10291000638E6A202B000096426735350067353597
:102920007A0000B403FB60F5638E6A242B0000007C
:1029300000673535006735356100003403FB60F50D
:10294000631865282B0000000067353500673535B2
:102950006200003403FB60F56318652C2B00000057
:1029600000673535006735356300003403FB60F5DB
:10297000631865302B000000006735360067353678
:10298000780000B403FB60F5638E6A342B0000000E
:102990000067353600673536790000B403FB60F513
:1029A000638E6A382B0000000067353600673536C5
:1029B0007A0000B403FB60F5638E6A3C2B000000D4
:1029C00000673536006735366100003403FB60F57B
:1029D000631865402B000000006735360067353608
:1029E0006200003403FB60F5631865442B000000AF
:1029F00000673536006735366300003403FB60F549
:102A0000631865482B0000000067353700673537CD
:102A1000780000B403FB60F5638E6A4C2B00000065
:102A20000067353700673537790000B403FB60F580
:102A3000638E6A502B00000000673537006735371A
:102A40007A0000B403FB60F5638E6A542B0000002B
:102A500000673537006735376100003403FB60F5E8
:102A6000631865582B00000000673537006735375D
:102A70006200003403FB60F56318655C2B00000006
:102A800000673537006735376300003403FB60F5B6
:102A9000631865602B000000006735380067353823
:102AA000780000B403FB60F5638E6A642B000000BD
:102AB0000067353800673538790000B403FB60F5EE
:102AC000638E6A682B000000006735380067353870
:102AD0007A0000B403FB60F5638E6A6C2B00000083
:102AE00000673538006735386100003403FB60F556
:102AF000631865702B0000000067353800673538B3
:102B00006200003403FB60F5631865742B0000005D
:102B100000673538006735386300003403FB60F523
:102B2000631865782B000000006735390067353978
:102B3000780000B403FB60F5638E6A7C2B00000014
:102B40000067353900673539790000B403FB60F55B
:102B5000638E6A802B0000000067353900673539C5
:102B60007A0000B403FB60F5638E6A842B000000DA
:102B700000673539006735396100003403FB60F5C3
:102B8000631865882B000000006735390067353908
:102B90006200003403FB60F56318658C2B000000B5
:102BA00000673539006735396300003403FB60F591
:102BB000631865902B0000000067393200673932D6
:102BC0007800009403FB60F5633564A42D000000D9
:102BD00000673932006739327900009403FB60F5F1
:102BE000633564A82D000000006739320067393270
:102BF0007A00009403FB60F5633564AC2D0000009F
:102C000000673932006739326100001403FB60F558
:102C1000633564B02D000000006739320067393237
:102C20006200001403FB60F5633564B42D000000FE
:102C300000673932006739326300001403FB60F526
:102C4000633564B82D000000006732380067323801
:102C50007800009403FF60F5633564D42D00000014
:102C600000673238006732387900009403FF60F55E
:102C7000633564D82D0000000067323800673238B1
:102C80007A00009403FF60F5633564DC2D000000DA
:102C900000673238006732386100001403FF60F5C6
:102CA000633564E02D000000006732380067323879
:102CB0006200001403FF60F5633564E42D0000003A
:102CC00000673238006732386300001403FF60F594
:102CD000633564E82D00000000673330006733304F
:102CE0007800009403FF60F5633564EC2D0000006C
:102CF00000673330006733307900009403FF60F5DC
:102D0000633564F02D000000006733300067333016
:102D10007A00009403FF60F5633564F42D00000031
:102D200000673330006733306100001403FF60F543
:102D3000633564F82D0000000067333000673330DE
:102D40006200001403FF60F5633564FC2D00000091
:102D500000673330006733306300001403FF60F511
:102D6000633564002E000000006A6964006A6964CB
:102D7000610000060072C79D63ED647034000000BE
:102D8000006A6964006A6964620000060072C79D97
:102D900063ED647434000000006A6964006A696469
:102DA000630000060072C79D63ED64783400000084
:102DB000006A6964006A6964640000060072C79D65
:102DC00063ED647C3400000000737973006A610075
:102DD000000000F4002A60F5638E6ACC2A0050C31C
:102DE0004773797300637400000000F4045260F5C7
:102DF000638E6AD42A0AD7233C73797300736C00FC
:102E000000000072007A601C633964D82A00000058
:102E100000737973007374000000007200B1C41C69
:102E20006399C4612A0000803F737973006D740058
:102E300000000074026FC1F563E4C0895100000016
:102E400040000000006D65000000000200C6C741A0
:102E5000C141C1513400000000000000006D640059
:102E60000000000200C6C71EC11EC1513400000090
:102E70000073797300656A000000007200EE871C21
:102E8000638D6462340000803F737973006A76005A
:102E90000000007200F2871C63AE873637000040E6
:102EA00040737973006A73000000007200F6871C9B
:102EB000638D6437370000803F7379730074760048
:102EC000000000720091C81C638D64FC52000080F9
:102ED0003F737973007176000000007200B8B41C73
:102EE00063CD64BC500000000073797300737600FA
:102EF000000000720063B31C63AD64C95000008021
:102F00003F7379730073690000000072005FB37251
:102F1000633FB3CA5000007A43737973006563005E
:102F20000000007200E26A1C63CB6B3E2A000000C6
:102F300000737973006565000000007200E66A1C8A
:102F400063A76B3F2A000000007379730065780067
:102F50000000007200EA6A1C63836B402A00008054
:102F60003F7379730072786D0000007200EE6A1C86
:102F7000638D64412A0000803F737973006261753C
:102F80006400004200F26A1C63456A3C2A0000A00B
:102F900040000000007172000000000000ACB46A44
:102FA000B435645134000000000000000071690075
:102FB0000000000000B0B47EB4356451340000005D
:102FC0000000000000716F000000000000B4B49524
:102FD000B435645134000000000000000065720048
:102FE000000000000072C7AFAF356451340000002C
:102FF0000000000000716600000000000072C716AB
:10300000634D5F5134000000000000000072780042
:103010000000000000F4C7236A356451340000004A
:1030200000000000006D73670000000300C6C716B3
:1030300063586551340000000000000000616C61BD
:10304000726D00000072C7445344535134000000B5
:10305000000000000070616E696300000072C7A08C
:103060005BA05B5134000000000000000073687535
:10307000746400000072C7E45AE45A51340000003E
:103080000000000000636C65617200000072C7C63A
:1030900052C65251340000000000000000636C7200
:1030A000000000000072C7C652C652513400000032
:1030B0000000000000736574000000400072C71635
:1030C0006337645134000000000000000073727325
:1030D00000000000005BB336B23AB2513400000089
:1030E000000000000073720000000001005BB3E408
:1030F000B1E8B151340000000000000000747874A1
:10310000000000070072C7166337645134000000E6
:1031100000000000007469640000001400F4C71689
:1031200063376451340000000000000000746573D0
:10313000740000010072C7FD7FCDC451340000004F
:103140000000000000646566610000010072C72095
:1031500080916751340000000000000000626F6F32
:10316000740000010072C743806C7F51340000007E
:10317000000000000068656C700000000072C7CF9E
:103180007FCF7F5134000000000000000068000085
:10319000000000000072C7CF7FCF7F5134000000D5
:1031A00000696E0000696E310000000400B5C4C8FB
:1031B000633564632A00000000696E0000696E32A6
:1031C0000000000400B5C4C8633564702A00000024
:1031D00000696E0000696E330000000400B5C4C8C9
:1031E0006335647D2A00000000696E0000696E345A
:1031F0000000000400B5C4C86335648A2A000000DA
:1032000000696E0000696E350000000400B5C4C896
:10321000633564972A00000000696E0000696E360D
:103220000000000400B5C4C8633564A42A0000008F
:1032300000696E0000696E370000000400B5C4C864
:10324000633564B12A00000000696E0000696E38C1
:103250000000000400B5C4C8633564BE2A00000045
:10326000007379730067706C000000720016601CB8
:1032700063AD64E82A000000007379730067756E1F
:1032800000000072001A601C638D64E92A0000804F
:103290003F7379730067636F00000072001E601C4B
:1032A000633964E72A0000803F73797300677061B7
:1032B000000000720022601C63AD64EA2A00000076
:1032C0004073797300676469000000720026601C17
:1032D000638D64EB2A0000000000000000676300BB
:1032E000000000000072C71663297E513400000000
:1032F00000756461007564613000003600F4C79D9C
:1033000063ED640D34000000007564610075646154
:103310003100003600F4C79D63ED641134000000F5
:1033200000756461007564613200003600F4C79D69
:1033300063ED64153400000000756461007564611C
:103340003300003600F4C79D63ED641934000000BB
:1033500000756462007564623000003600F4C79D39
:1033600063ED641D340000000075646200756462E2
:103370003100003600F4C79D63ED64213400000085
:1033800000756462007564623200003600F4C79D07
:1033900063ED6425340000000075646200756462AA
:1033A0003300003600F4C79D63ED6429340000004B
:1033B00000756463007564633000003600F4C79DD7
:1033C00063ED642D34000000007564630075646370
:1033D0003100003600F4C79D63ED64313400000015
:1033E00000756463007564633200003600F4C79DA5
:1033F00063ED643534000000007564630075646338
:103400003300003600F4C79D63ED643934000000DA
:1034100000756464007564643000003600F4C79D74
:1034200063ED643D340000000075646400756464FD
:103430003100003600F4C79D63ED644134000000A4
:1034400000756464007564643200003600F4C79D42
:1034500063ED6445340000000075646400756464C5
:103460003300003600F4C79D63ED6449340000006A
:10347000005F7465005F7465780000040222C8F57F
:10348000633564644E000000005F7465005F74651E
:10349000790000040222C8F5633564684E0000001C
:1034A000005F7465005F74657A0000040222C8F54D
:1034B0006335646C4E000000005F7465005F7465E6
:1034C000610000040222C8F5633564704E000000FC
:1034D000005F7465005F7465620000040222C8F535
:1034E000633564744E000000005F7465005F7465AE
:1034F000630000040222C8F5633564784E000000C2
:10350000005F7472005F7472780000040222C8F5D4
:103510006335646C4F000000005F7472005F74726A
:10352000790000040222C8F5633564704F00000082
:10353000005F7472005F74727A0000040222C8F5A2
:10354000633564744F000000005F7472005F747232
:10355000610000040222C8F5633564784F00000062
:10356000005F7472005F7472620000040222C8F58A
:103570006335647C4F000000005F7472005F7472FA
:10358000630000040222C8F5633564804F00000028
:10359000005F7473005F7473310000040222C8F589
:1035A000633564DC4E000000005F7073005F707371
:1035B000310000040222C8F5633564EC4E000000BF
:1035C000005F6373005F6373310000040222C8F57B
:1035D000633564FC4E000000005F6573005F657337
:1035E000310000040222C8F56335640C4F0000006E
:1035F000005F7873005F7873310000040222C8F521
:103600006335642452000000005F6665005F6665F4
:10361000310000040222C8F56335641C4F0000002D
:10362000005F7473005F7473320000040222C8F5F7
:10363000633564E04E000000005F7073005F7073DC
:10364000320000040222C8F5633564F04E00000029
:10365000005F6373005F6373320000040222C8F5E9
:10366000633564004F000000005F6573005F6573A1
:10367000320000040222C8F5633564104F000000D8
:10368000005F7873005F7873320000040222C8F58F
:103690006335643C52000000005F6665005F66654C
:1036A000320000040222C8F5633564204F00000098
:1036B000005F7473005F7473330000040222C8F566
:1036C000633564E44E000000005F7073005F707348
:1036D000330000040222C8F5633564F44E00000094
:1036E000005F6373005F6373330000040222C8F558
:1036F000633564044F000000005F6573005F65730D
:10370000330000040222C8F5633564144F00000042
:10371000005F7873005F7873330000040222C8F5FD
:103720006335645452000000005F6665005F6665A3
:10373000330000040222C8F5633564244F00000002
:10374000005F7473005F7473340000040222C8F5D4
:10375000633564E84E000000005F7073005F7073B3
:10376000340000040222C8F5633564F84E000000FE
:10377000005F6373005F6373340000040222C8F5C6
:10378000633564084F000000005F6573005F657378
:10379000340000040222C8F5633564184F000000AD
:1037A000005F7873005F7873340000040222C8F56C
:1037B0006335646C52000000005F6665005F6665FB
:1037C000340000040222C8F5633564284F0000006D
:1037D0000000000000736530300000240072C7470D
:1037E000635264D550000000000000000073653093
:1037F000310000240072C747635264D750000000B4
:103800000000000000736530320000240072C747DA
:10381000635264D95000000000000000007365305E
:10382000330000240072C747635264DB500000007D
:103830000000000000736530340000240072C747A8
:10384000635264DD5000000000000000007365302A
:10385000350000240072C747635264DF5000000047
:103860000000000000736530360000240072C74776
:10387000635264E1500000000000000000736530F6
:10388000370000240072C747635264E35000000011
:103890000000000000736530380000240072C74744
:1038A000635264E5500000000000000000736530C2
:1038B000390000240072C747635264E750000000DB
:1038C0000000000000736531300000240072C7471B
:1038D000635264E95000000000000000007365318D
:1038E000310000240072C747635264EB50000000AF
:1038F0000000000000736531320000240072C747E9
:10390000635264ED50000000000000000073653158
:10391000330000240072C747635264EF5000000078
:103920000000000000736531340000240072C747B6
:10393000635264F150000000000000000073653124
:10394000350000240072C747635264F35000000042
:103950000000000000736531360000240072C74784
:10396000635264F5500000000000000000736531F0
:10397000370000240072C747635264F7500000000C
:103980000000000000736531380000240072C74752
:10399000635264F9500000000000000000736531BC
:1039A000390000240072C747635264FB50000000D6
:1039B0000000000000736532300000240072C74729
:1039C000635264FD50000000000000000073653287
:1039D000310000240072C747635264FF50000000AA
:1039E0000000000000736532320000240072C747F7
:1039F0006352640151000000000000000073653252
:103A0000330000240072C747635264035100000072
:103A10000000000000736532340000240072C747C4
:103A2000635264055100000000000000007365321D
:103A3000350000240072C74763526407510000003C
:103A40000000000000736532360000240072C74792
:103A500063526409510000000000000000736532E9
:103A6000370000240072C7476352640B5100000006
:103A70000000000000736532380000240072C74760
:103A80006352640D510000000000000000736532B5
:103A9000390000240072C7476352640F51000000D0
:103AA0000000000000737973000000000072C7B1CD
:103AB000685A6551340000000000000000703100B9
:103AC000000000000072C7B1685A65513400000060
:103AD0000000000000310000000000000072C7B1CB
:103AE000685A6551340000000000000000320000F8
:103AF000000000000072C7B1685A65513400000030
:103B00000000000000330000000000000072C7B198
:103B1000685A6551340000000000000000340000C5
:103B2000000000000072C7B1685A655134000000FF
:103B30000000000000780000000000000072C7B123
:103B4000685A655134000000000000000079000050
:103B5000000000000072C7B1685A655134000000CF
:103B600000000000007A0000000000000072C7B1F1
:103B7000685A655134000000000000000061000038
:103B8000000000000072C7B1685A6551340000009F
:103B90000000000000620000000000000072C7B1D9
:103BA000685A655134000000000000000063000006
:103BB000000000000072C7B1685A6551340000006F
:103BC0000000000000696E00000000040072C7B130
:103BD000683564513400000000000000006735348F
:103BE000000000000072C7B1685A6551340000003F
:103BF0000000000000673535000000000072C7B10A
:103C0000685A655134000000000000000067353636
:103C1000000000000072C7B1685A6551340000000E
:103C20000000000000673537000000000072C7B1D7
:103C3000685A655134000000000000000067353804
:103C4000000000000072C7B1685A655134000000DE
:103C50000000000000673539000000000072C7B1A5
:103C6000685A6551340000000000000000673932D6
:103C7000000000000072C7B1685A655134000000AE
:103C80000000000000673238000000000072C7B179
:103C9000685A6551340000000000000000673330AE
:103CA000000000000072C7B1685A6551340000007E
:103CB00000000000006D706F000000000072C7B1CE
:103CC000685A6551340000000000000000706F73F6
:103CD000000000000072C7B1685A6551340000004E
:103CE00000000000006F6673000000000072C7B1A2
:103CF000685A6551340000000000000000686F6DD4
:103D0000000000000072C7B1685A6551340000001D
:103D10000000000000707262000000000072C7B175
:103D2000685A65513400000000000000007077728E
:103D3000000000000072C7B1685A655134000000ED
:103D400000000000006A6F67000000000072C7B149
:103D5000685A65513400000000000000006A696480
:103D6000000000000072C7B1685A655134000000BD
:103D70000000000000756461000000000072C7B11F
:103D8000685A65513400000000000000007564624C
:103D9000000000000072C7B1685A6551340000008D
:103DA0000000000000756463000000000072C7B1ED
:103DB000685A65513400000000000000007564641A
:103DC000000000000072C7B1685A6551340000005D
:103DD00000000000005F7465000000000072C7B1C1
:103DE000685A65513400000000000000005F7472E2
:103DF000000000000072C7B1685A6551340000002D
:103E000000000000005F7473000000000072C7B182
:103E1000685A65513400000000000000005F7073B4
:103E2000000000000072C7B1685A655134000000FC
:103E300000000000005F6373000000000072C7B163
:103E4000685A65513400000000000000005F65738F
:103E5000000000000072C7B1685A655134000000CC
:103E600000000000005F7873000000000072C7B11E
:103E7000685A65513400000000000000005F66656C
:103E8000000000000072C7B1685A6551340000009C
:103E900000000000006D0000000000000072C74C30
:103EA0006B35645134000000000000000071000018
:103EB000000000000072C7476B35645134000000F9
:103EC00000000000006F0000000000000072C74208
:103ED0006B35645134000000000000000024000035
:103EE000000000000072C7516B35645134000000BF
:103EF000007B2261636B223A747275657D0A002231
:103F0000007B2272223A7B22747874223A22007B50
:103F1000723A7B7478743A2200636F6E74726F6CBD
:103F20006C65725F746573745F61737365727469D5
:103F30006F6E73282900696E7075742025640048BF
:103F40006F6D696E67206572726F72202D20256318
:103F500020617869732073657474696E6773206D6E
:103F60006973636F6E6669677572656400486F6D2B
:103F7000696E67206572726F72202D204261642025
:103F80006F72206E6F2061786973286573292073C2
:103F90007065636966696564007B226A6F67223AAF
:103FA000307D0A007B22707262223A6E756C6C7DE5
:103FB00000656E636F6465725F746573745F6173CF
:103FC00073657274696F6E732829004142434445DA
:103FD0004647484A4B4C4D4E5051525354555657F4
:103FE00058595A3233343536373839005B69645D95
:103FF000202054696E7947204944253330730A00E4
:104000005B68765D202068617264776172652076F6
:10401000657273696F6E2531362E32660A005B68F1
:10402000705D2020686172647761726520706C61D8
:1040300074666F726D253132640A005B66765D20AE
:10404000206669726D776172652076657273696F3B
:104050006E2531362E32660A005B66625D20206670
:1040600069726D77617265206275696C642531389B
:104070002E32660A00456E7465722024626F6F747A
:104080003D3120746F20656E746572207468652000
:10409000626F6F74206C6F616465722E0A000A0A89
:1040A0000A2323232054696E794720424F4F54201E
:1040B0004C4F414445522048656C70202323230A0D
:1040C0000053656E64207B626F6F743A747275651D
:1040D0007D20746F20656E74657220626F6F74202E
:1040E0006C6F6164657200456E746572202464654E
:1040F00066613D3120746F20726573657420746849
:10410000652073797374656D20746F207468652001
:10411000666163746F72792064656661756C742082
:1041200076616C7565732E0A546869732077696CC3
:104130006C206F766572777269746520616E792084
:104140006368616E67657320796F75206861766555
:10415000206D6164652E0A000A0A0A232323205475
:10416000696E794720524553544F52452044454685
:1041700041554C54532048656C70202323230A007A
:1041800053656E64207B646566613A747275657D03
:1041900020746F20726573657420746F2064656687
:1041A00061756C742073657474696E677300496E11
:1041B000766F6B652073656C66207465737420621E
:1041C0007920656E746572696E67202474657374F6
:1041D0003D4E207768657265204E206973206F6EB2
:1041E00065206F663A0A202024746573743D31207F
:1041F00020736D6F6B6520746573740A20202474BE
:104200006573743D322020686F6D696E6720746538
:10421000737420202028796F75206D757374207455
:1042200072697020686F6D696E6720737769746357
:10423000686573290A202024746573743D33202037
:104240007371756172652074657374202020286114
:1042500020736572696573206F6620737175617272
:104260006573290A202024746573743D342020610D
:104270007263207465737420202020202028736FBF
:104280006D65206C6172676520636972636C65732C
:10429000290A202024746573743D352020647765D5
:1042A0006C6C207465737420202020286D6F7665F7
:1042B00073207370616365642062792031207365B7
:1042C000636F6E64206477656C6C73290A20202408
:1042D000746573743D36202066656564686F6C6430
:1042E00020746573742028656E74657220212061C6
:1042F0006E64207E20746F20686F6C6420616E6431
:1043000020726573746172742C20726573706563BA
:10431000746976656C79290A202024746573743D6C
:104320003720204D20636F6465732074657374209B
:1043300020284D20636F64657320696E7465726D0B
:10434000696E676C65642077697468206D6F766547
:1043500073290A202024746573743D3820204A5341
:104360004F4E20746573742020202020286D6F74B8
:10437000696F6E20746573742072756E2075736931
:104380006E67204A534F4E20636F6D6D616E64738C
:10439000290A202024746573743D392020696E76C3
:1043A000657273652074696D6520746573740A2085
:1043B0002024746573743D313020726F746172799A
:1043C000206D6F74696F6E20746573740A202024E9
:1043D000746573743D313120736D616C6C206D6F49
:1043E00076657320746573740A2020247465737471
:1043F0003D313220736C6F77206D6F76657320745A
:104400006573740A202024746573743D313320630E
:104410006F6F7264696E6174652073797374656D12
:10442000206F66667365742074657374202847393D
:10443000322C204735342D473539290A0A54657303
:10444000747320617373756D6520612063656E748C
:1044500065726564205859206F726967696E2061C2
:104460006E64206174206C656173742038306D6DEA
:1044700020636C656172616E636520696E20616C9A
:104480006C20646972656374696F6E730A54657336
:10449000747320617373756D65205A206861732091
:1044A0006174206C656173742034306D6D20706FA1
:1044B0007369697469766520636C656172616E63A6
:1044C000650A54657374732073746172742077691C
:1044D00074682061204730205830205930205A30ED
:1044E000206D6F76650A486F6D696E67206973206D
:1044F00074686520657863657074696F6E2E204EF0
:104500006F20696E697469616C20706F736974697A
:104510006F6E206F7220636C656172616E636520DF
:10452000697320617373756D65640A000A0A0A2352
:1045300023232054696E79472053454C4620544527
:1045400053542048656C70202323230A004561637F
:1045500068202420636F6D6D616E642061626F76E8
:104560006520616C736F20646973706C617973206E
:1045700074686520746F6B656E20666F722065616C
:1045800063682073657474696E6720696E205B20B0
:104590005D20627261636B6574730A546F20766983
:1045A00065772073657474696E677320656E7465D2
:1045B00072206120746F6B656E3A0A0A2020243CD9
:1045C000746F6B656E3E0A0A466F72206578616D86
:1045D000706C65202479667220746F206469737032
:1045E0006C6179207468652059206D61782066655A
:1045F000656420726174650A0A546F207570646185
:1046000074652073657474696E677320656E746574
:104610007220746F6B656E20657175616C732076A6
:10462000616C75653A0A0A2020243C746F6B656ED4
:104630003E3D3C76616C75653E0A0A466F722065A8
:1046400078616D706C6520247966723D3830302059
:10465000746F20736574207468652059206D6178CB
:104660002066656564207261746520746F2038303F
:1046700030206D6D2F6D696E7574650A466F7220FE
:10468000636F6E66696775726174696F6E206465C9
:104690007461696C73207365653A20687474707313
:1046A0003A2F2F6769746875622E636F6D2F737967
:1046B0006E746865746F732F54696E79472F7769CC
:1046C0006B692F54696E79472D436F6E6669677504
:1046D000726174696F6E0A00546865736520636F58
:1046E0006D6D616E647320617265206163746976BB
:1046F0006520666F7220636F6E666967757261749C
:10470000696F6E3A0A2020247379732053686F779B
:104710002073797374656D202867656E6572616CAE
:10472000292073657474696E67730A202024312010
:10473000202053686F77206D6F746F722031207363
:10474000657474696E677320286F7220776861746E
:1047500065766572206D6F746F7220796F75207742
:10476000616E7420312C322C332C34290A20202401
:104770007820202053686F77205820617869732053
:1047800073657474696E677320286F72207768612F
:104790007465766572206178697320796F7520770A
:1047A000616E7420782C792C7A2C612C622C632910
:1047B0000A2020246D20202053686F7720616C6CC4
:1047C000206D6F746F722073657474696E67730AFD
:1047D0002020247120202053686F7720616C6C208A
:1047E000617869732073657474696E67730A202039
:1047F000246F20202053686F7720616C6C206F66D7
:10480000667365742073657474696E67730A20201B
:10481000242420202053686F7720616C6C207365FE
:104820007474696E67730A202024682020205368FE
:104830006F7720746869732068656C702073637289
:1048400065656E0A0A000A0A0A2323232054696E4A
:10485000794720434F4E46494755524154494F4EA0
:104860002048656C70202323230A000A466F7220BB
:1048700064657461696C65642054696E7947206968
:104880006E666F207365653A2068747470733A2F92
:104890002F6769746875622E636F6D2F73796E74FC
:1048A0006865746F732F54696E79472F77696B69E8
:1048B0002F0A466F7220746865206C61746573748A
:1048C000206669726D77617265207365653A20684C
:1048D000747470733A2F2F6769746875622E636FF2
:1048E0006D2F73796E746865746F732F54696E7968
:1048F000470A506C65617365206C6F6720616E7943
:104900002069737375657320617420687474703ADC
:104910002F2F7777772E73796E746865746F732E87
:10492000636F6D2F666F72756D730A4861766520CF
:1049300066756E0A000A4E6F74653A2054696E7986
:10494000472067656E657261746573206175746F69
:104950006D6174696320737461747573207265701E
:104960006F7274732062792064656661756C740A75
:10497000546869732063616E2062652064697361A5
:10498000626C656420627920656E746572696E6719
:10499000202473763D300A5365652074686520775E
:1049A000696B692062656C6F7720666F72206D6F2E
:1049B00072652064657461696C732E0A00536565C5
:1049C0002068656C70207061676520617420687470
:1049D0007470733A2F2F6769746875622E636F6DF8
:1049E0002F73796E746865746F732F54696E79478D
:1049F0002F77696B692F48656C7000546865736523
:104A000020636F6D6D616E647320617265206163F8
:104A1000746976652066726F6D2074686520636FB7
:104A20006D6D616E64206C696E653A0A205E782057
:104A30002020202020202020202020205265736567
:104A4000742028636F6E74726F6C207829202D207B
:104A5000736F6674776172652072657365740A207E
:104A6000203F202020202020202020202020204DFA
:104A7000616368696E6520706F736974696F6E2019
:104A8000616E642067636F6465206D6F64656C2080
:104A900073746174650A20202420202020202020A7
:104AA00020202020202053686F7720616E642073BF
:104AB000657420636F6E66696775726174696F6E85
:104AC0002073657474696E67730A2020212020208A
:104AD0002020202020202020202046656564686F4B
:104AE0006C64202D2073746F70206D6F74696F6E0D
:104AF00020776974686F7574206C6F73696E6720B6
:104B0000706F736974696F6E0A20207E20202020E8
:104B10002020202020202020204379636C65205312
:104B200074617274202D20726573746172742066D2
:104B3000726F6D2066656564686F6C640A2020681A
:104B40002020202020202020202020202053686F9B
:104B50007720746869732068656C70207363726570
:104B6000656E0A202024682020202020202020207C
:104B700020202053686F7720636F6E6669677572B7
:104B80006174696F6E2068656C702073637265650F
:104B90006E0A202024746573742020202020202099
:104BA00020204C6973742073656C662D7465737472
:104BB000730A202024746573743D4E202020202029
:104BC000202052756E2073656C662D746573742099
:104BD0004E0A202024686F6D653D31202020202062
:104BE000202052756E206120686F6D696E672063AA
:104BF00079636C650A202024646566613D3120205C
:104C00002020202020526573746F726520616C6CC7
:104C10002073657474696E677320746F20226661F7
:104C200063746F7279222064656661756C74730AAF
:104C3000000A0A0A2323232054696E794720486515
:104C40006C70202323230A007B7D005B25735D00AD
:104C5000223078256C7822006E756C6C0066616C71
:104C600073650074727565006E756C6C0022257337
:104C7000223A005B6A735D20206A736F6E20736551
:104C80007269616C697A65207374796C6525396421
:104C9000205B303D72656C617865642C313D7374C6
:104CA000726963745D0A005B6A765D20206A736FC7
:104CB0006E20766572626F73697479253135642070
:104CC0005B303D73696C656E742C313D666F6F743B
:104CD00065722C323D6D657373616765732C333D6E
:104CE000636F6E666967732C343D6C696E656E75B3
:104CF0006D2C353D766572626F73655D0A005B658C
:104D00006A5D2020656E61626C65206A736F6E203B
:104D10006D6F646525313364205B303D7465787454
:104D20002C313D4A534F4E5D0A004F5E495E425E54
:104D30002B5E175E075EFA5DEE5DE25DD45DBD5DE4
:104D4000AE5DA15D8B5D795D6C5D575D435D365DEC
:104D5000335D245D0F5DFA5CEB5CDB5CC95CB25CCF
:104D6000AF5C925C795C635C525C405C335C215C60
:104D7000075CEA5BE75BE45BE15BDE5BDB5BD85B2C
:104D8000D55BD25BCF5BCC5BC95BC65BC35BC05BF7
:104D9000BD5BBA5BB75BB45BB15BAE5BAB5BA85BA7
:104DA000A55BA25B9F5B9C5B995B965B935B905B57
:104DB0008D5B8A5B875B845B815B7E5B7B5B785B07
:104DC000755B725B6F5B6C5B695B665B635B605BB7
:104DD0005D5B5A5B575B545B515B335B105BF75A0F
:104DE000E15AC75AAD5A935A6F5A525A3A5A245AEC
:104DF0000A5AE659C959B7599759805967595259AA
:104E000039591B59FF58E758D558BD58A8588758E5
:104E10006358365832582E582A58265822581E5849
:104E20001A58165812580E580A5806580258E85779
:104E3000CE57BB579F578D57765758574A572D57C0
:104E40001057F956E256CB569E567756575635565A
:104E50000F56E855CC55AD5588555F555B553B55BC
:104E600023550A55F054D054B154A2549354875446
:104E70007754615442543354245415540654F75310
:104E8000E853D953CA53BB53AC539D538E537F53EE
:104E90007053615352534E534A53465342533E53F9
:104EA0003A53365332532E532A53265322531E530A
:104EB0001A53165312530E530A53FC52EA52DA5243
:104EC000AA527E524F5227521E521A521652125254
:104ED0000E520A5206520252FE51FA51F651F25146
:104EE000EE51E351D051BD51AA51975184517151A6
:104EF0005E514B51385125511251FF50E950E55048
:104F0000E150DD50D950D550D150BD50975072501E
:104F10004E5023501F50F44FC54FC14FBD4FAA4FA5
:104F2000904F754F524F2E4F2A4F323535005072E9
:104F30006F62652073776974636820636F6E66695A
:104F40006775726564206F6E204142432061786905
:104F500073004D756C7469706C652070726F62655A
:104F600020737769746368657320636F6E66696721
:104F700075726564004E6F2070726F626520737782
:104F80006974636820636F6E666967757265640033
:104F900050726F62652074726176656C206973204F
:104FA000746F6F20736D616C6C0050726F6265205E
:104FB0006379636C65206661696C656400323439BD
:104FC0000032343800486F6D696E67204572722078
:104FD0002D204D75737420636C6561722073776941
:104FE0007463686573206265666F726520686F6DB3
:104FF000696E6700486F6D696E6720457272202D7B
:1050000020486F6D696E6720696E707574206973D2
:10501000206D6973636F6E666967757265640032CF
:10502000343500486F6D696E6720457272202D20FF
:1050300054726176656C206D696E2026206D6178F2
:1050400020617265207468652073616D6500486F2A
:105050006D696E6720457272202D204C6174636803
:105060002076656C6F63697479206973207A657244
:105070006F00486F6D696E6720457272202D205356
:1050800065617263682076656C6F63697479206905
:1050900073207A65726F00486F6D696E6720457284
:1050A00072202D20426164206F72206E6F20617823
:1050B00069732073706563696669656400486F6D24
:1050C000696E67206379636C65206661696C6564ED
:1050D000003233390032333800323337003233365E
:1050E000003233350032333400536F6674206C69FC
:1050F0006D697420647572696E6720617263005314
:105100006F6674206C696D6974202D2043206D6179
:105110007800536F6674206C696D6974202D20438C
:10512000206D696E00536F6674206C696D69742020
:105130002D2042206D617800536F6674206C696D7C
:105140006974202D2042206D696E00536F667420B3
:105150006C696D6974202D2041206D617800536F5A
:105160006674206C696D6974202D2041206D696E14
:1051700000536F6674206C696D6974202D205A206D
:105180006D617800536F6674206C696D6974202DB1
:10519000205A206D696E00536F6674206C696D69CA
:1051A00074202D2059206D617800536F6674206C37
:1051B000696D6974202D2059206D696E00536F66EA
:1051C00074206C696D6974202D2058206D61780001
:1051D000536F6674206C696D6974202D2058206DA2
:1051E000696E00536F6674206C696D6974003231AA
:1051F0003900323138003231370032313600323145
:105200003500323134003231330032313200323144
:1052100031003231300032303900323038004B69E1
:105220006C6C206A6F6200436F6D6D616E642072FA
:10523000656A65637465642062792050414E494314
:10524000205B5E7820746F2072657365745D004327
:105250006F6D6D616E642072656A6563746564204C
:1052600062792053485554444F574E205B24636C59
:1052700065617220746F2072657365745D00436FA1
:105280006D6D616E642072656A6563746564206229
:105290007920414C41524D205B24636C6561722042
:1052A000746F2072657365745D004C696D6974205C
:1052B000686974205B24636C65617220746F20726E
:1052C000657365742C20246C696D3D3020746F20EB
:1052D0006F766572726964655D004D6F7665203C1E
:1052E000206D696E2074696D65004D6F7665203C98
:1052F000206D696E206C656E6774680047656E6529
:10530000726963206572726F720031393900313908
:10531000380031393700313936003139350031390B
:10532000340031393300313932003139310031390B
:1053300030003138390031383800313837003138F1
:1053400036003138350031383400313833003138E7
:1053500032005420776F726420696E76616C6964E4
:10536000005420776F7264206D697373696E6700F3
:105370005320776F726420696E76616C69640053A4
:1053800020776F7264206D697373696E67005220B5
:10539000776F726420696E76616C69640052207761
:1053A0006F7264206D697373696E67005120776F47
:1053B000726420696E76616C6964005120776F7247
:1053C00064206D697373696E67004C20776F726437
:1053D00020696E76616C6964004C20776F7264207E
:1053E0006D697373696E67004820776F7264206916
:1053F0006E76616C6964004820776F7264206D6915
:105400007373696E67004520776F726420696E76EA
:10541000616C6964004520776F7264206D697373F5
:10542000696E67004420776F726420696E76616CE4
:105430006964004420776F7264206D697373696ECC
:1054400067005020776F7264206E6F742061207641
:10545000616C696420746F6F6C206E756D6265722B
:10546000005020776F7264206E6F7420616E206927
:105470006E7465676572005020776F7264206E6588
:10548000676174697665005020776F7264207A6571
:10549000726F005020776F726420696E76616C695C
:1054A00064005020776F7264206D697373696E6752
:1054B0000041726320656E64706F696E7420697359
:1054C000207374617274696E6720706F696E740006
:1054D0004172632072616469757320617263206F29
:1054E0007574206F6620746F6C6572616E63650001
:1054F00041726320686173206D697373696E672000
:105500006F66667365742873290041726320686151
:1055100073206D697373696E67206178697328659C
:105520007329004172632073706563696669636102
:1055300074696F6E206572726F72004172632068C9
:10554000617320696D706F737369626C6520636548
:105550006E74657220706F696E740031353300535C
:1055600070696E646C65206D75737420626520745B
:1055700075726E696E6720666F7220746869732039
:10558000636F6D6D616E64005370696E646C65204D
:105590006D757374206265206F666620666F722079
:1055A0007468697320636F6D6D616E640053706918
:1055B0006E646C65207370656564206578636565ED
:1055C000646564206D6178696D756D005370696EF6
:1055D000646C652073706565642062656C6F77200C
:1055E0006D696E696D756D0050726F6772616D6D7A
:1055F000656420706F696E742073616D65206173DE
:105600002063757272656E7420706F696E740043EA
:10561000757474657220636F6D70656E7361746903
:105620006F6E2063616E6E6F7420626520656E61BF
:10563000626C65640052657175657374656420768B
:10564000656C6F6369747920657863656564732040
:105650006C696D697473004730206F722047312088
:105660006D75737420626520616374697665206668
:105670006F722047353300526F7461727920617800
:105680006573206E6F742076616C696420666F723A
:10569000207468697320636F6D6D616E6400496E7C
:1056A00076657273652074696D65206D6F64652021
:1056B0006E6F742076616C696420666F7220746806
:1056C000697320636F6D6D616E6400466565647219
:1056D000617465206E6F74207370656369666965B7
:1056E000640053656C656374656420706C616E65FD
:1056F00020696E76616C69640053656C65637465DE
:105700006420706C616E65206D697373696E6700EB
:10571000417869732074617267657420706F736972
:1057200074696F6E20696E76616C69640041786996
:10573000732074617267657420706F736974696F28
:105740006E206D697373696E6700417869732064B8
:10575000697361626C6564004178697320696E7673
:10576000616C696420666F72207468697320636F6E
:105770006D6D616E6400417869732063616E6E6F58
:10578000742062652070726573656E74004178697B
:105790007320776F7264206D697373696E67004759
:1057A000636F6465206D6F64616C2067726F7570E4
:1057B0002076696F6C6174696F6E004D20636F6451
:1057C0006520756E737570706F72746564004763E1
:1057D0006F646520636F6D6D616E6420756E7375A7
:1057E00070706F727465640047656E6572696320DE
:1057F00047636F646520696E707574206572726F9F
:1058000072003132390031323800313237003132F2
:10581000360031323500313234003132330031322A
:105820003200313231003132300031313900313122
:105830003800313137004A534F4E2076616C756520
:1058400020646F6573206E6F7420616772656520D8
:1058500077697468207661726961626C6520747919
:105860007065004A534F4E206D6178696D756D20EB
:105870006E657374696E67206465707468206578FE
:10588000636565646564004A534F4E2074787420E4
:105890006669656C64732063616E6E6F7420626507
:1058A000206E6573746564004A534F4E20737472A2
:1058B000696E6720746F6F206C6F6E67004A534F7C
:1058C0004E2068617320746F6F206D616E79207057
:1058D00061697273004A534F4E2073796E74617818
:1058E000206572726F7200496E7075742076616CFB
:1058F00075652072616E6765206572726F7200490E
:105900006E7075742065786365656473206D617869
:10591000696D756D2076616C756500496E70757482
:10592000206C657373207468616E206D696E696D9B
:10593000756D2076616C756500496E7075742065B3
:10594000786365656473206D6178206C656E67743B
:105950006800436F6D6D616E64206E6F74206163CB
:1059600063657074656400506172616D6574657221
:105970002063616E6E6F74206265207265616400E1
:10598000506172616D657465722069732072656122
:10599000642D6F6E6C7900556E737570706F7274D4
:1059A0006564206E756D626572206F72204A534F78
:1059B0004E207479706500426164206E756D626579
:1059C0007220666F726D617400496E76616C6964F5
:1059D000206F72206D616C666F726D656420636FFD
:1059E0006D6D616E6400556E7265636F676E697A86
:1059F000656420636F6D6D616E64206F7220636FEC
:105A00006E666967206E616D650047656E657269D7
:105A10006320617373657274696F6E206661696C6F
:105A2000757265004D656D6F7279206661756C7475
:105A300020646574656374656400537461636B20EE
:105A40006F766572666C6F772064657465637465E4
:105A50006400436F6E74726F6C6C65722061737357
:105A6000657274696F6E206661696C75726500435A
:105A7000616E6F6E6963616C206D616368696E65EC
:105A800020617373657274696F6E206661696C75ED
:105A9000726500506C616E6E657220617373657221
:105AA00074696F6E206661696C7572650053746508
:105AB0007070657220617373657274696F6E2066B1
:105AC00061696C75726500456E636F646572206113
:105AD0007373657274696F6E206661696C75726547
