:100000000C945C3F0C947D3F0C9477930C947D3F53
:100010000C947D3F0C947D3F0C947D3F0C947D3F70
:100020000C947D3F0C947D3F0C947D3F0C94CA8FC3
:100030000C947D3F0C947D3F0C942D880C947D3F57
:100040000C947D3F0C947D3F0C947D3F0C947D3F40
:100050000C947D3F0C947D3F0C947D3F0C947D3F30
:100060000C947D3F0C9491930C941C930C947D3FC5
:100070000C9480950C941E950C9458950C947D3F8F
:100080000C945B900C947D3F0C947D3F0C947D3FD1
:100090000C947D3F0C947D3F0C947D3F0C947D3FF0
:1000A0000C947D3F0C947D3F0C947D3F0C9436C1A5
:1000B0000C9492C00C947D3F0C947D3F0C94C287AD
:1000C0000C947D3F0C947D3F0C947D3F0C947D3FC0
:1000D0000C947D3F0C947D3F0C947D3F0C947D3FB0
:1000E0000C94BE980C947D3F0C947D3F0C947D3F06
:1000F0000C947D3F0C947D3F0C947D3F0C947D3F90
:100100000C945FC10C94BBC00C9488C10C94E4C0E7
:100110000C947D3F0C947D3F0C947D3F0C947D3F6F
:100120000C947D3F0C947D3F0C947D3F0C947D3F5F
:100130000C947D3F0C94EC870C947D3F0C947D3F98
:100140000C947D3F0C947D3F0C947D3F0C947D3F3F
:100150000C947D3F0C947D3F0C94B4980C947D3F9F
:100160000C947D3F0C947D3F0C947D3F0C947D3F1F
:100170000C947D3F0C947D3F0C947D3F0C947D3F0F
:100180000C947D3F0C947D3F0C947D3F0C947D3FFF
:100190000C947D3F0C947D3F0C947D3F0C947D3FEF
:1001A0000C940DC10C9469C00C947D3F0C947D3F60
:1001B0000C949E840C947D3F0C947D3F0C947D3F69
:1001C0000C947D3F0C947D3F0C947D3F0C947D3FBF
:1001D0000C947D3F0C947D3F0C947D3F0C947D3FAF
:1001E0000C947D3F0C947D3F3D6C4E6C5F6C0D6FAD
:1001F0000D6FD76BE5690D6F706C816C926CCE6C76
:10020000546BB46C0D6FE86B0D6FA36CF96BCC6B1A
:100210000D6F0D6F0D6F0A6C1B6C2C6C8C8F268F05
:100220002A8F2E8F328F368F3A8F3E8F428F468F96
:100230004A8F4E8F528F568F5A8F6E8F6E8F6E8F62
:100240006E8F6E8F6E8F6E8F6E8F6E8F6E8F6E8FC6
:100250006E8F6E8F6E8F6E8F6E8F6E8F6E8F6E8FB6
:100260006E8F6E8F6E8F6E8F6E8F6E8F6E8F6E8FA6
:100270006E8F6E8F6E8F6E8F6E8F6E8F6E8F6E8F96
:100280005E8F628F084AD73B3BCE016E84BCBFFDB8
:10029000C12F3D6C74319ABD56833DDA3D00C77F56
:1002A00011BED9E4BB4C3E916BAAAABE00000080EF
:1002B0003F05A84CCDB2D44EB93836A9020C50B97E
:1002C000918688083CA6AAAA2ABE000000803F07A3
:1002D000634236B79BD8A71A39685618AEBAAB55E1
:1002E0008C1D3CB7CC5763BD6DEDFD753EF61772A6
:1002F00031BF000000803F08000000BE9224491278
:100300003EABAAAA2ABECDCCCC4C3E00000080BE9B
:10031000ABAAAAAA3E00000000BF000000803F0078
:1003200000000000084178D3BB4387D1133D190E6C
:100330003CC3BD4282AD2B3E68EC8276BED98FE1D4
:10034000A93E4C80EFFFBE01C4FF7F3F00000000CC
:10035000006E616E00696E66005B257325735D201B
:10036000257320257320706F736974696F6E253152
:10037000382E336625730A005B257325735D2025AF
:1003800073202573206F66667365742532302E33B3
:100390006625730A005B257325735D202573207A1B
:1003A00065726F206261636B6F66662531392E332B
:1003B0006625730A005B257325735D202573206C09
:1003C00061746368206261636B6F66662531382EE5
:1003D000336625730A005B257325735D2025732022
:1003E0006C617463682076656C6F6369747925311C
:1003F000372E336625732F6D696E0A005B257325D2
:10040000735D202573207365617263682076656C67
:100410006F636974792531362E336625732F6D69C4
:100420006E0A005B257325735D2025732073776941
:10043000746368206D617825313764205B303D6FCF
:1004400066662C313D686F6D696E672C323D6C6954
:100450006D69742C333D6C696D69742B686F6D69BF
:100460006E675D0A005B257325735D20257320731D
:100470007769746368206D696E25313764205B305D
:100480003D6F66662C313D686F6D696E672C323D3D
:100490006C696D69742C333D6C696D69742B686F80
:1004A0006D696E675D0A005B257325735D2025739A
:1004B000207261646975732076616C7565253230D0
:1004C0002E346625730A005B257325735D20257322
:1004D000206A756E6374696F6E20646576696174F5
:1004E000696F6E2531342E3466257320286C617255
:1004F00067657220697320666173746572290A00EA
:100500005B257325735D202573206A65726B2068F7
:100510006F6D696E672531362E306625732F6D69D4
:100520006E5E33202A2031206D696C6C696F6E0A13
:10053000005B257325735D202573206A65726B202F
:100540006D6178696D756D2531352E306625732F97
:100550006D696E5E33202A2031206D696C6C696F85
:100560006E0A005B257325735D202573207472610C
:1005700076656C206D696E696D756D2531372E332A
:100580006625730A005B257325735D20257320742F
:10059000726176656C206D6178696D756D25313796
:1005A0002E336625730A005B257325735D20257342
:1005B0002076656C6F63697479206D6178696D75FB
:1005C0006D2531352E336625732F6D696E0A005BFC
:1005D000257325735D2025732066656564726174DB
:1005E00065206D6178696D756D2531352E33662511
:1005F000732F6D696E0A005B257325735D2025736B
:100600002061786973206D6F646525313864202519
:10061000730A005B6D735D20206D696E20736567E2
:100620006D656E742074696D652531332E306620DA
:10063000755365630A005B6D615D20206D696E20F6
:10064000617263207365676D656E742531382E3372
:100650006625730A005B6D6C5D20206D696E206CF1
:10066000696E65207365676D656E742531372E334D
:100670006625730A005B736C5D2020736F667420BF
:100680006C696D697420656E61626C6525313264D8
:100690000A005B63745D202063686F7264616C2084
:1006A000746F6C6572616E63652531362E33662515
:1006B000730A005B6A615D20206A756E6374696FFE
:1006C0006E20616363656C65726174696F6E253855
:1006D0002E306625730A005B6764695D2064656679
:1006E00061756C742067636F6465206469737461FD
:1006F0006E6365206D6F6465253264205B303D4715
:1007000039302C313D4739315D0A005B6770615DDE
:100710002064656661756C742067636F6465207022
:1007200061746820636F6E74726F6C253364205B34
:10073000303D4736312C313D4736312E312C323D5C
:100740004736345D0A005B67636F5D2064656661F0
:10075000756C742067636F646520636F6F726420CB
:1007600073797374656D253364205B312D362028D1
:100770004735342D473539295D0A005B67756E5D55
:100780002064656661756C742067636F64652075AD
:100790006E697473206D6F6465253564205B303D30
:1007A0004732302C313D4732315D0A005B67706C57
:1007B0005D2064656661756C742067636F64652095
:1007C000706C616E6525313064205B303D47313798
:1007D0002C313D4731382C323D4731395D0A0025F7
:1007E00063206178697320686F6D696E6720737428
:1007F0006174653A25322E30660A00256320776FD2
:10080000726B206F66667365743A2531322E3366DB
:1008100025730A002563206D616368696E65207029
:100820006F736E3A2531312E336625730A002563C6
:1008300020706F736974696F6E3A2531352E336697
:1008400025730A00546F6F6C206E756D626572209F
:1008500020202020202020202025640A00466565D5
:10086000642072617465206D6F64653A20202020D9
:10087000202025730A0044697374616E6365206DDE
:100880006F64653A2020202020202025730A005024
:10089000617468204D6F64653A202020202020205C
:1008A0002020202025730A00506C616E653A2020BC
:1008B0002020202020202020202020202025730AF6
:1008C000004D6F74696F6E206D6F64653A20202053
:1008D00020202020202025730A00436F6F72646956
:1008E0006E6174652073797374656D3A20202025DC
:1008F000730A00556E6974733A202020202020204E
:10090000202020202020202025730A00486F6D69B8
:100910006E672073746174653A20202020202020A7
:100920002025730A0046656564686F6C64207374E3
:100930006174653A20202020202025730A004D6F25
:1009400074696F6E2073746174653A2020202020D2
:1009500020202025730A004379636C65207374613D
:1009600074653A20202020202020202025730A00B2
:10097000526177206D616368696E6520737461747C
:10098000653A20202025730A004D616368696E6511
:100990002073746174653A20202020202020257364
:1009A0000A004C696E65206E756D6265723A25317C
:1009B000302E30660A004665656420726174653ABF
:1009C0002531362E336625732F6D696E0A00566504
:1009D0006C6F636974793A2531372E336625732F2E
:1009E0006D696E0A005F0A6C0A720A7B0A800A84CB
:1009F0000A880A8D0A930A990AA00AA40AB10AB7BA
:100A00000ABD0AC20AC60ACA0AD20AD90ADF0AE419
:100A10000AE80AED0AF10AF60AFB0A010B060B10B6
:100A20000B160B280B3E0B5E0B780B920BAC0BC618
:100A30000BE00BFA0B170C290C420C630C8A0C9977
:100A40000CA80CB70CB70CCD0CE30C000D200D510D
:100A50000D690D740D7F0D8B0D940D980D9C0D4936
:100A60006E697469616C697A696E67005265616468
:100A7000790053687574646F776E0053746F7000FB
:100A8000456E640052756E00486F6C640050726F62
:100A90006265004379636C6500486F6D696E67003D
:100AA0004A6F6700496E697469616C697A696E673B
:100AB000005265736574004379636C650053746F0D
:100AC0007000456E64004F66660053746172746511
:100AD0006400486F6D696E670050726F6265005305
:100AE000746F700052756E00486F6C64004F6666DC
:100AF0000053796E6300506C616E00446563656CF1
:100B000000486F6C64004E6F7420486F6D65640020
:100B1000486F6D656400473230202D20696E636830
:100B20006573206D6F646500473231202D206D693B
:100B30006C6C696D65746572206D6F646500473516
:100B400033202D206D616368696E6520636F6F725D
:100B500064696E6174652073797374656D004735DF
:100B600034202D20636F6F7264696E617465207329
:100B7000797374656D203100473535202D20636F02
:100B80006F7264696E6174652073797374656D202A
:100B90003200473536202D20636F6F7264696E61B5
:100BA00074652073797374656D2033004735372081
:100BB0002D20636F6F7264696E6174652073797341
:100BC00074656D203400473538202D20636F6F72B7
:100BD00064696E6174652073797374656D20350086
:100BE000473539202D20636F6F7264696E617465BB
:100BF0002073797374656D203600473020202D20D6
:100C00006C696E65617220747261766572736520BD
:100C1000287365656B2900473120202D206C696E93
:100C2000656172206665656400473220202D20636F
:100C30006C6F636B776973652061726320666565AD
:100C40006400473320202D20636F756E7465722019
:100C5000636C6F636B77697365206172632066658F
:100C6000656400473830202D2063616E63656C2019
:100C70006D6F74696F6E206D6F646520286E6F6E86
:100C800065206163746976652900473137202D201E
:100C9000585920706C616E6500473138202D2058FE
:100CA0005A20706C616E6500473139202D20595AE9
:100CB00020706C616E6500473631202D20657861AB
:100CC00063742073746F70206D6F646500473634F1
:100CD000202D20636F6E74696E756F7573206D6F54
:100CE000646500473930202D206162736F6C757424
:100CF000652064697374616E6365206D6F6465005F
:100D0000473931202D20696E6372656D656E74619F
:100D10006C2064697374616E6365206D6F64650037
:100D2000473934202D20756E6974732D7065722DCE
:100D30006D696E757465206D6F64652028692E6518
:100D40002E206665656472617465206D6F64652927
:100D500000473933202D20696E76657273652074E3
:100D6000696D65206D6F6465005B64697361626CB9
:100D700065645D005B7374616E646172645D005BE9
:100D8000696E686962697465645D005B726164695B
:100D900075735D0020696E00206D6D0020646567CD
:100DA00000456E64206F6620636F6D6D616E642018
:100DB00066696C650A00486F6D696E6720657272BE
:100DC0006F72202D2025632061786973207365740C
:100DD00074696E6773206D6973636F6E666967759A
:100DE000726564000A0A0A232323232054696E795A
:100DF000472048656C7020232323230A005468652C
:100E0000736520636F6D6D616E6473206172652020
:100E10006163746976652066726F6D207468652001
:100E2000636F6D6D616E64206C696E653A0A205E59
:100E300078202020202020202020202020205265E3
:100E40007365742028636F6E74726F6C207829202C
:100E50002D20736F66747761726520726573657497
:100E60000A20203F20202020202020202020202079
:100E7000204D616368696E6520706F736974696F76
:100E80006E20616E642067636F6465206D6F6465BA
:100E90006C2073746174650A202024202020202097
:100EA000202020202020202053686F7720616E644E
:100EB0002073657420636F6E66696775726174690B
:100EC0006F6E2073657474696E67730A2020212029
:100ED000202020202020202020202020466565641E
:100EE000686F6C64202D2073746F70206D6F74694F
:100EF0006F6E20776974686F7574206C6F73696E9C
:100F00006720706F736974696F6E0A20207E2020DD
:100F100020202020202020202020204379636C6581
:100F2000205374617274202D207265737461727421
:100F30002066726F6D2066656564686F6C640A2058
:100F40002068202020202020202020202020205326
:100F5000686F7720746869732068656C70207363AC
:100F60007265656E0A202024682020202020202021
:100F7000202020202053686F7720636F6E6669679A
:100F800075726174696F6E2068656C70207363722E
:100F900065656E0A2020247465737420202020204B
:100FA000202020204C6973742073656C662D746555
:100FB0007374730A202024746573743D4E202020BE
:100FC0002020202052756E2073656C662D74657329
:100FD00074204E0A202024686F6D653D312020204A
:100FE0002020202052756E206120686F6D696E6729
:100FF000206379636C650A202024646566613D3155
:1010000020202020202020526573746F726520619B
:101010006C6C2073657474696E677320746F202222
:10102000666163746F7279222064656661756C74A1
:10103000730A000A4E6F74653A2054696E7947202E
:1010400067656E657261746573206175746F6D613B
:1010500074696320737461747573207265706F7244
:1010600074732062792064656661756C740A5468D3
:1010700069732063616E2062652064697361626CCC
:10108000656420627920656E746572696E672024DC
:1010900073763D300A536565207468652077696B07
:1010A000692062656C6F7720666F72206D6F726564
:1010B0002064657461696C732E0A000A466F7220A1
:1010C00064657461696C65642054696E7947206950
:1010D0006E666F207365653A2068747470733A2F7A
:1010E0002F6769746875622E636F6D2F73796E74E4
:1010F0006865746F732F54696E79472F77696B69D0
:101100002F0A466F7220746865206C617465737471
:10111000206669726D77617265207365653A206833
:10112000747470733A2F2F6769746875622E636FD9
:101130006D2F73796E746865746F732F54696E794F
:10114000470A506C65617365206C6F6720616E792A
:101150002069737375657320617420687474703AC4
:101160002F2F7777772E73796E746865746F732E6F
:10117000636F6D2F666F72756D730A4861766520B7
:1011800066756E0A000A0A0A232323232054696E17
:10119000794720434F4E46494755524154494F4E97
:1011A0002048656C7020232323230A00546865734C
:1011B0006520636F6D6D616E64732061726520617F
:1011C000637469766520666F7220636F6E66696707
:1011D00075726174696F6E3A0A20202473797320E6
:1011E00053686F772073797374656D202867656E17
:1011F0006572616C292073657474696E67730A2067
:1012000020243120202053686F77206D6F746F7217
:1012100020312073657474696E677320286F7220A3
:101220007768617465766572206D6F746F7220796E
:101230006F752077616E7420312C322C332C342959
:101240000A2020247820202053686F7720582061BE
:101250007869732073657474696E677320286F7280
:10126000207768617465766572206178697320798A
:101270006F752077616E7420782C792C7A2C612C14
:10128000622C63290A2020246D20202053686F7768
:1012900020616C6C206D6F746F722073657474695B
:1012A0006E67730A2020247120202053686F7720F6
:1012B000616C6C20617869732073657474696E6702
:1012C000730A2020246F20202053686F7720616CE0
:1012D0006C206F66667365742073657474696E67DD
:1012E000730A2020242420202053686F7720616C0B
:1012F0006C2073657474696E67730A2020246820FB
:10130000202053686F7720746869732068656C705B
:101310002073637265656E0A0A0045616368202464
:1013200020636F6D6D616E642061626F7665206110
:101330006C736F20646973706C6179732074686575
:1013400020746F6B656E20666F7220656163682024
:1013500073657474696E6720696E205B205D20621E
:101360007261636B6574730A546F207669657720C8
:1013700073657474696E677320656E74657220613D
:1013800020746F6B656E3A0A0A2020243C746F6BE0
:10139000656E3E0A0A466F72206578616D706C65F5
:1013A000202479667220746F20646973706C61798F
:1013B000207468652059206D617820666565642019
:1013C000726174650A0A546F2075706461746520D7
:1013D00073657474696E677320656E7465722074CA
:1013E0006F6B656E20657175616C732076616C75CD
:1013F000653A0A0A2020243C746F6B656E3E3D3CC2
:1014000076616C75653E0A0A466F72206578616D7B
:10141000706C6520247966723D38303020746F20FE
:10142000736574207468652059206D617820666545
:101430006564207261746520746F20383030206DCF
:101440006D2F6D696E7574650A466F7220636F6EDD
:1014500066696775726174696F6E2064657461692D
:101460006C73207365653A2068747470733A2F2F1B
:101470006769746875622E636F6D2F73796E746817
:1014800065746F732F54696E79472F77696B692F75
:1014900054696E79472D436F6E6669677572617422
:1014A000696F6E0A000A0A0A232323232054696EF7
:1014B00079472053454C4620544553542048656C89
:1014C0007020232323230A00496E766F6B652073F7
:1014D000656C66207465737420627920656E74652E
:1014E00072696E672024746573743D4E2077686559
:1014F0007265204E206973206F6E65206F663A0A10
:10150000202024746573743D312020736D6F6B65EA
:1015100020746573740A202024746573743D32202E
:1015200020686F6D696E67207465737420202028B1
:10153000796F75206D757374207472697020686F8F
:101540006D696E67207377697463686573290A2013
:101550002024746573743D33202073717561726546
:10156000207465737420202028612073657269657A
:1015700073206F662073717561726573290A20206C
:1015800024746573743D3420206172632074657324
:101590007420202020202028736F6D65206C6172DC
:1015A000676520636972636C6573290A202024745F
:1015B0006573743D3520206477656C6C20746573A9
:1015C0007420202020286D6F76657320737061630E
:1015D00065642062792031207365636F6E642064D6
:1015E00077656C6C73290A202024746573743D360A
:1015F000202066656564686F6C6420746573742070
:1016000028656E746572202120616E64207E2074CE
:101610006F20686F6C6420616E6420726573746102
:1016200072742C20726573706563746976656C7969
:10163000290A202024746573743D3720204D2063CF
:101640006F64657320746573742020284D20636F68
:1016500064657320696E7465726D696E676C65642C
:101660002077697468206D6F766573290A202024BD
:10167000746573743D3820204A534F4E207465734F
:10168000742020202020286D6F74696F6E2074658F
:1016900073742072756E207573696E67204A534F9C
:1016A0004E20636F6D6D616E6473290A202024746F
:1016B0006573743D392020696E7665727365207498
:1016C000696D6520746573740A20202474657374D1
:1016D0003D313020726F74617279206D6F74696F63
:1016E0006E20746573740A202024746573743D3110
:1016F0003120736D616C6C206D6F7665732074653D
:1017000073740A202024746573743D313220736C25
:101710006F77206D6F76657320746573740A20206F
:1017200024746573743D313320636F6F7264696E26
:101730006174652073797374656D206F6666736577
:1017400074207465737420284739322C204735344F
:101750002D473539290A0A546573747320617373F0
:10176000756D6520612063656E74657265642058CF
:1017700059206F726967696E20616E642061742000
:101780006C656173742038306D6D20636C656172B7
:10179000616E636520696E20616C6C20646972659E
:1017A0006374696F6E730A54657374732061737325
:1017B000756D65205A20686173206174206C6561C5
:1017C00073742034306D6D20706F7369697469763D
:1017D0006520636C656172616E63650A546573743C
:1017E0007320737461727420776974682061204774
:1017F00030205830205930205A30206D6F76650ADD
:10180000486F6D696E67206973207468652065781C
:1018100063657074696F6E2E204E6F20696E6974F7
:1018200069616C20706F736974696F6E206F7220CC
:10183000636C656172616E636520697320617373A7
:10184000756D65640A000A0A0A232323232054695C
:101850006E794720524553544F52452044454641E6
:10186000554C54532048656C7020232323230A00D1
:10187000456E7465722024646566613D3120746F25
:10188000207265736574207468652073797374655C
:101890006D20746F2074686520666163746F72795F
:1018A0002064656661756C742076616C7565732E55
:1018B0000A546869732077696C6C206F766572775B
:1018C0007269746520616E79206368616E67657303
:1018D00020796F752068617665206D6164652E0AD8
:1018E000000A0A0A232323232054696E79472042E1
:1018F0004F4F54204C4F414445522048656C702056
:10190000232323230A00456E7465722024626F6FBF
:10191000743D3120746F20656E7465722074686543
:1019200020626F6F74206C6F616465722E0A005BB9
:10193000656A5D2020656E61626C65206A736F6EFA
:10194000206D6F646525313364205B303D746578AC
:10195000742C313D4A534F4E5D0A005B6A765D2020
:10196000206A736F6E20766572626F736974792571
:10197000313564205B303D73696C656E742C313D8C
:10198000666F6F7465722C323D6D65737361676548
:10199000732C333D636F6E666967732C343D6C69DD
:1019A0006E656E756D2C353D766572626F73655D23
:1019B0000A005B6A735D20206A736F6E2073657224
:1019C00069616C697A65207374796C652539642066
:1019D0005B303D72656C617865642C313D73747267
:1019E0006963745D0A005B66735D2020666F6F74C7
:1019F0006572207374796C6525313764205B303DE6
:101A00006E65772C313D6F6C645D0A00E81AEB1A45
:101A1000F11AF81AFD1A061B111B1C1B281B341B7C
:101A2000421B591B681B751B811B951BA21BB71BF7
:101A3000CB1BCE1BD11BE01BF51B0A1C191C291C40
:101A40003B1C521C6F1C8A1C8D1C901C931C961CEA
:101A5000991C9C1C9F1CA21CA51CA81CAB1CC01C78
:101A6000D81CEA1C031D191D2F1D471D5F1D711D6C
:101A70008F1DA41DB81DD51DD81DDB1DDE1DE11D4C
:101A8000E41DE71DEA1D081E241E381E4A1E5F1EA7
:101A9000771E931EA71EBB1ED61EEE1E021F171F0B
:101AA0002C1F411F6C1F911FB91FE01F06202C2007
:101AB00052207F20A420C420C720CA20CD20D020BF
:101AC000D320D620D920DC20DF20E220E520E8202A
:101AD000EB20EE20F1200B2124213A21522170210C
:101AE0008D21B121CB21E5214F4B004572726F72E0
:101AF0000045616761696E004E6F6F7000436F6DE6
:101B0000706C657465005465726D696E61746564AE
:101B1000004861726420726573657400456E6420CC
:101B20006F66206C696E6500456E64206F66206686
:101B3000696C650046696C65206E6F74206F706516
:101B40006E004D61782066696C652073697A652046
:101B50006578636565646564004E6F2073756368BE
:101B60002064657669636500427566666572206506
:101B70006D707479004275666665722066756C6C6E
:101B8000004275666665722066756C6C202D206655
:101B90006174616C00496E697469616C697A696E1F
:101BA0006700456E746572696E6720626F6F74209E
:101BB0006C6F616465720046756E6374696F6E2048
:101BC000697320737475626265640031380031395D
:101BD00000496E7465726E616C206572726F72007E
:101BE000496E7465726E616C2072616E6765206506
:101BF00072726F7200466C6F6174696E6720706FED
:101C0000696E74206572726F7200446976696465EA
:101C1000206279207A65726F00496E76616C696422
:101C2000204164647265737300526561642D6F6E48
:101C30006C79206164647265737300496E697469BC
:101C4000616C697A6174696F6E206661696C757226
:101C5000650053797374656D20616C61726D202D20
:101C6000207368757474696E6720646F776E004DB9
:101C7000656D6F7279206661756C74206F72206378
:101C80006F7272757074696F6E0032390033300094
:101C90003331003332003333003334003335003313
:101CA0003600333700333800333900556E726563C0
:101CB0006F676E697A656420636F6D6D616E640035
:101CC000457870656374656420636F6D6D616E64E3
:101CD000206C657474657200426164206E756D627B
:101CE000657220666F726D617400496E7075742044
:101CF00065786365656473206D6178206C656E67D7
:101D0000746800496E7075742076616C7565207416
:101D10006F6F20736D616C6C00496E707574207606
:101D2000616C756520746F6F206C61726765004926
:101D30006E7075742076616C75652072616E676572
:101D4000206572726F7200496E7075742076616CD6
:101D5000756520756E737570706F72746564004A76
:101D6000534F4E2073796E746178206572726F7272
:101D7000004A534F4E20696E70757420686173205D
:101D8000746F6F206D616E79207061697273004AA3
:101D9000534F4E206F757470757420746F6F206C84
:101DA0006F6E67004F7574206F662062756666659A
:101DB0007220737061636500436F6E66696720729D
:101DC000656A656374656420647572696E67206313
:101DD00079636C65003533003534003535003536B0
:101DE000003537003538003539004D6F7665206C89
:101DF000657373207468616E206D696E696D756DB1
:101E0000206C656E677468004D6F7665206C657335
:101E100073207468616E206D696E696D756D2074D4
:101E2000696D650047636F646520626C6F636B204A
:101E3000736B69707065640047636F646520696ED9
:101E4000707574206572726F720047636F646520ED
:101E50006665656472617465206572726F720047B1
:101E6000636F6465206178697320776F7264206D99
:101E7000697373696E670047636F6465206D6F6493
:101E8000616C2067726F75702076696F6C61746920
:101E90006F6E00486F6D696E67206379636C6520B3
:101EA0006661696C6564004D617820747261766565
:101EB0006C206578636565646564004D61782073A6
:101EC00070696E646C652073706565642065786305
:101ED000656564656400417263207370656369665B
:101EE00069636174696F6E206572726F7200536FFF
:101EF0006674206C696D69742065786365656465D6
:101F00006400436F6D6D616E64206E6F7420616359
:101F10006365707465640050726F62696E672063F8
:101F200079636C65206661696C6564004A6F6767F8
:101F3000696E67206379636C65206661696C6564AE
:101F4000004D616368696E6520697320616C617220
:101F50006D6564202D20436F6D6D616E64206E6F22
:101F6000742070726F636573736564004C696D698A
:101F7000742073776974636820686974202D205316
:101F8000687574646F776E206F63637572726564D1
:101F900000486F6D696E67204572726F72202D2048
:101FA000426164206F72206E6F20617869732073C4
:101FB000706563696669656400486F6D696E672066
:101FC0004572726F72202D205365617263682076AE
:101FD000656C6F63697479206973207A65726F002C
:101FE000486F6D696E67204572726F72202D204CAC
:101FF000617463682076656C6F63697479206973B6
:10200000207A65726F00486F6D696E672045727245
:102010006F72202D2054726176656C206D696E2F71
:102020006D6178206973207A65726F00486F6D6901
:102030006E67204572726F72202D204E6567617445
:10204000697665206C61746368206261636B6F669A
:102050006600486F6D696E67204572726F72202D41
:1020600020486F6D696E6720737769746368657364
:10207000206D6973636F6E6669677572656400735E
:10208000745F707265705F6C696E652829206D6F72
:1020900076652074696D6520697320696E66696E66
:1020A0006974650073745F707265705F6C696E65EA
:1020B0002829206D6F76652074696D65206973200D
:1020C0004E414E0038350038360038370038380079
:1020D00038390039300039310039320039330039AC
:1020E000340039350039360039370039380039398C
:1020F0000047656E65726963206173736572746908
:102100006F6E206661696C7572650047656E6572F9
:10211000696320657863657074696F6E207265709D
:102120006F7274004D656D6F7279206661756C74A5
:1021300020646574656374656400537461636B2027
:102140006F766572666C6F7720646574656374651D
:102150006400457874656E64656420494F2061733E
:1021600073657274696F6E206661696C7572650063
:10217000436F6E74726F6C6C6572206173736572FD
:1021800074696F6E206661696C7572650043616E7B
:102190006F6E6963616C206D616368696E65206153
:1021A0007373657274696F6E206661696C757265B0
:1021B00000506C616E6E6572206173736572746934
:1021C0006F6E206661696C7572650053746570701E
:1021D000657220617373657274696F6E20666169E0
:1021E0006C75726500456E636F6465722061737310
:1021F000657274696F6E206661696C757265007BCB
:1022000065723A7B66623A25302E32662C73743AD8
:1022100025642C6D73673A222573227D7D0A007B2D
:10222000226572223A7B226662223A25302E32667D
:102230002C227374223A25642C226D7367223A2271
:102240002573227D7D0A00496E697469616C697A23
:10225000696E6720636F6E6669677320746F2064B0
:10226000656661756C742073657474696E6773005C
:102270004C6F6164696E6720636F6E666967732077
:1022800066726F6D20454550524F4D00535953545F
:10229000454D205245414459005B73695D202073D0
:1022A000746174757320696E74657276616C253122
:1022B000342E3066206D730A005B73765D202073C8
:1022C0007461747573207265706F727420766572B4
:1022D000626F73697479253664205B303D6F666682
:1022E0002C313D66696C74657265642C323D76658F
:1022F00072626F73655D0A0071723A25640A00713B
:10230000693A25640A00716F3A25640A005B7176A8
:102310005D20207175657565207265706F7274201F
:10232000766572626F73697479253764205B303D1E
:102330006F66662C313D73696E676C652C323D7437
:102340007269706C655D0A005B6D745D20206D6F55
:10235000746F722069646C652074696D656F757443
:102360002531342E3266205365630A006D6F746F19
:10237000727320656E657267697A65640A006D6FB5
:10238000746F72732064652D656E657267697A6516
:10239000640A005B257325735D206D2573206D61D4
:1023A0007020746F206178697325313564205B304B
:1023B0003D582C313D592C323D5A2E2E2E5D0A00AF
:1023C0005B257325735D206D257320737465702004
:1023D000616E676C652532302E336625730A00F016
:1023E00024F424F8245B257325735D206D25732068
:1023F00074726176656C20706572207265766F6CA0
:102400007574696F6E2531302E346625730A005B52
:10241000257325735D206D2573206D6963726F735D
:102420007465707325313664205B312C322C342C6A
:10243000385D0A005B257325735D206D2573207060
:102440006F6C617269747925313864205B303D6E40
:102450006F726D616C2C313D726576657273655D6E
:102460000A005B257325735D206D257320706F77DF
:102470006572206D616E6167656D656E74253130C2
:1024800064205B303D72656D61696E20706F7765A9
:102490007265642C313D706F77657220646F776E62
:1024A000207768656E2069646C655D0A005B257342
:1024B00025735D206D2573206D6F746F7220706FB2
:1024C000776572206C6576656C2531332E33662016
:1024D0005B302E3030303D6D696E696D756D2C202E
:1024E000312E3030303D6D6178696D756D5D0A005B
:1024F00020696E00206D6D0020646567005B666278
:102500005D20206669726D77617265206275696C05
:10251000642531382E32660A005B66765D202066BF
:1025200069726D776172652076657273696F6E2569
:1025300031362E32660A005B68705D202068617259
:10254000647761726520706C6174666F726D25319D
:10255000352E32660A005B68765D20206861726401
:10256000776172652076657273696F6E2531362EDC
:1025700032660A005B69645D202054696E794720E9
:102580004944253330730A004E312054314D360A08
:102590004E32204731370A4E33204732310A4E3807
:1025A0002046313830300A4E392047310A4E31301A
:1025B000302047393220582D32352E313737592DBA
:1025C00033342E303732205A2D312E3030302028FF
:1025D00054454D502C2052454D4F5645204C4154AA
:1025E0004552290A4E33343320582D32352E353991
:1025F00035592D33342E3334390A4E333434205880
:102600002D32352E373031592D33342E3433360AAE
:102610004E33343520582D32352E373931592D333C
:10262000342E3532300A4E33343620582D32352E82
:10263000383634592D33342E3630310A4E33343750
:1026400020582D32352E393230592D33342E36372D
:10265000390A4E33343820582D32352E3936305918
:102660002D33342E3735340A4E33343920582D3239
:10267000352E393832592D33342E3832360A4E330E
:10268000353020582D32352E393837592D33342EE8
:102690003839350A4E33353120582D32352E3937F9
:1026A00036592D33342E3936310A4E3335322058CF
:1026B0002D32352E393438592D33352E3032330AF8
:1026C0004E33353320582D32352E393033592D3392
:1026D000352E3038320A4E33353420582D32352ECF
:1026E000383431592D33352E3133380A4E333535A0
:1026F00020582D32352E373633592D33352E31397A
:10270000300A4E33353620582D32352E363639596B
:102710002D33352E3233390A4E33353720582D328A
:10272000352E353539592D33352E3238340A4E335E
:10273000353820582D32352E343333592D33352E3C
:102740003332350A4E33353920582D32352E323951
:1027500031592D33352E3336330A4E333630205827
:102760002D32352E313334592D33352E3339370A46
:102770004E33363120582D32342E393633592D33DD
:10278000352E3432380A4E33363220582D32342E1C
:10279000373737592D33352E3435350A4E333633E6
:1027A00020582D32342E353737592D33352E3437C6
:1027B000370A4E33363420582D32342E33363759BB
:1027C0002D33352E3439360A4E33363520582D32D6
:1027D000342E313434592D33352E3531310A4E33C0
:1027E000363620582D32332E393039592D33352E87
:1027F0003532320A4E33363720582D32332E3636A4
:1028000031592D33352E3532390A4E33363820586A
:102810002D32332E343033592D33352E3533320AA1
:102820004E33363920582D32332E313333592D3330
:10283000352E3533320A4E33373020582D32322E72
:10284000383533592D33352E3532370A2F4E323540
:10285000313820473058302E333237592D33332E0C
:102860003532315A2D312E3030300A4E3235313931
:10287000204D3330004E31204732300A4E3520474C
:102880003430204731370A4E3130205431204D301A
:10289000360A284E3135204739302047302058300D
:1028A000205930205A30290A4E32302053353030EA
:1028B00030204D3033200A4E32352058302E3036FD
:1028C000342059302E333236205A300A4E343020DC
:1028D000473031204631362E300A4E3530205830C0
:1028E0002E3036342059302E3332360A4E353520CC
:1028F00058302E3036302059302E3239330A4E3689
:10290000302058302E3037372059302E3236370AA3
:102910004E36352058302E3131312059302E323557
:10292000370A4E37302058302E3134392059302E66
:102930003235320A4E37352058302E31383820594A
:10294000302E3235350A4E38302058302E3232375C
:102950002059302E3236380A4E38352058302E3233
:1029600035372059302E3237310A4E393020583021
:102970002E3333352059302E3236350A4E39352034
:1029800058302E3431322059302E3237310A4E3100
:1029900030302058302E3437342059302E323837EA
:1029A0000A4E3130352058302E3439312059302EEE
:1029B0003238390A4E3131302058302E35313720F7
:1029C00059302E3237330A4E3131352058302E35BA
:1029D00034342059302E3236330A4E3132302058BA
:1029E000302E3538302059302E3236310A4E3132C1
:1029F000352058302E3539352059302E3236330AAD
:102A00004E3133302058302E3632312059302E326C
:102A100037340A4E3133352058302E363539205967
:102A2000302E3330360A4E3134302058302E36377F
:102A3000332059302E3333350A4E31343520583057
:102A40002E3637392059302E3336310A4E31353053
:102A50002058302E3637382059302E3338390A4E28
:102A60003135352058302E3637302059302E34321B
:102A7000300A4E3136302058302E3637302059301B
:102A80002E3434360A4E3136352058302E36383012
:102A90002059302E3437340A4E3137302058302EFA
:102AA0003730342059302E3439370A4E31373520FB
:102AB00058302E3733322059302E3531350A4E31C9
:102AC00038302058302E3739342059302E353335B0
:102AD0000A4E3138352058302E3837322059302EB2
:102AE0003536370A4E3139302058302E39353020BE
:102AF00059302E3630340A4E3139352058312E3087
:102B000033312059302E3634370A4E323030205887
:102B1000312E3134392059302E3732320A4E32308C
:102B2000352058312E3330382059302E3835340A7C
:102B30004E3231302058312E3433302059302E3936
:102B400038340A4E3231352058312E34343720593A
:102B5000302E3938360A4E3232302058312E363245
:102B6000382059302E3832320A4E32323520583120
:102B70002E3733322059302E3731340A4E3233302B
:102B80002058322E3030392059302E3338310A4E09
:102B90003233352058322E3131362059302E3236EC
:102BA000360A4E3234302058322E323238205930E4
:102BB0002E3135370A4E3234352058322E323830E5
:102BC0002059302E3132330A4E3235302058322ED1
:102BD0003333322059302E3039340A4E32353520D5
:102BE00058322E3432332059302E3037300A4E329C
:102BF00036302058322E3438392059302E30363580
:102C00000A4E3236352058322E3535372059302E7F
:102C10003036360A4E3237302058322E3632372090
:102C200059302E3038340A4E3237352058322E364D
:102C300039332059302E3130390A4E32383020584D
:102C4000322E3733302059302E3133330A4E32385A
:102C5000352058322E3830352059302E3139300A4F
:102C60004E3239302058322E3832392059302E32F7
:102C700031360A4E3239352058322E383830205904
:102C8000302E3239310A4E3330302058322E383817
:102C9000342059302E3330300A4E333035205832FC
:102CA0002E3839382059302E3333320A4E333130F2
:102CB0002058322E3930352059302E3336370A4ECF
:102CC0003331352058322E3931302059302E3430BE
:102CD000370A4E3332302058322E393038205930AE
:102CE0002E3434360A4E3332352058322E393031B4
:102CF0002059302E3439350A4E3333302058322E95
:102D00003839372059302E3439350A4E333335208F
:102D100058322E3839302059302E3532340A4E335D
:102D200034302058322E3834322059302E36303458
:102D30000A4E3334352058322E3831342059302E53
:102D40003636350A4E3335302058322E3739342056
:102D500059302E3735300A4E3335352058322E371C
:102D600039312059302E3833380A4E333630205816
:102D7000322E3831392059302E3937360A4E333613
:102D8000352058322E3833372059312E3034340A1A
:102D90004E3337302058322E3836322059312E31CA
:102DA00031320A4E3337352058322E3837372059D2
:102DB000312E3134350A4E3338302058322E3931E5
:102DC000322059312E3231370A4E333835205832BD
:102DD0002E3931372059312E3232360A4E333930BE
:102DE0002058322E3935312059312E3238310A4EA1
:102DF0003339352058322E3937302059312E323977
:102E0000350A4E3430302058322E39393620593177
:102E10002E3239350A4E3430352058332E30313386
:102E20002059312E3237350A4E3431302058332E66
:102E30003032342059312E3235340A4E3431352077
:102E400058332E3037302059312E3135310A4E3437
:102E500032302058332E3037372059312E31333429
:102E60000A4E3432352058332E3132352059312E26
:102E70003033390A4E3433302058332E3133382032
:102E800059312E3031390A4E3433352058332E32F1
:102E900030352059302E3930380A4E3434302058ED
:102EA000332E3238322059302E3739370A4E3434E7
:102EB000352058332E3336312059302E3639310AE9
:102EC0004E3435302058332E3432362059302E359A
:102ED00039320A4E3435352058332E3435362059A0
:102EE000302E3534330A4E3436302058332E3437B2
:102EF000392059302E3439330A4E34363520583380
:102F00002E3439342059302E3437320A4E3437308B
:102F10002058332E3530352059302E3434360A4E71
:102F20003437352058332E3531382059302E34314E
:102F3000370A4E3438302058332E3533302059304C
:102F40002E3339310A4E3438352058332E35363445
:102F50002059302E3330300A4E3439302058332E39
:102F60003537372059302E3235330A4E3439352033
:102F700058332E3536382059302E3231320A4E35FC
:102F800030302058332E3534342059302E313736F6
:102F90000A4E3530352058332E3534312059302EF5
:102FA0003134360A4E3531302058332E3535332002
:102FB00059302E3131390A4E3531352058332E35BE
:102FC00037362059302E3130360A4E3532302058BF
:102FD000332E3539372059302E3130320A4E3532C2
:102FE000352058332E3631382059302E3130390AB9
:102FF0004E3533302058332E3633392059302E3168
:1030000032390A4E3533352058332E363530205973
:10301000302E3135390A4E3534302058332E36367D
:10302000332059302E3137380A4E35343520583355
:103030002E3637382059302E3139320A4E35353058
:103040002058332E3639392059302E3139370A4E2F
:103050003535352058332E3732332059302E31391B
:10306000360A4E3536302058332E37363420593014
:103070002E3137390A4E3536352058332E38303513
:103080002059302E3136350A4E3537302058332E00
:103090003838342059302E3135390A4E35373520FD
:1030A00058332E3934392059302E3136350A4E35C1
:1030B00038302058332E3936362059302E313735B6
:1030C0000A4E3538352058332E3937382059302EAE
:1030D0003139340A4E3539302058332E39373820BB
:1030E00059302E3232330A4E3539352058332E3985
:1030F00036302059302E3234350A4E363030205892
:10310000332E3833342059302E3331310A4E363095
:10311000352058332E3736322059302E3334350A85
:103120004E3631302058332E3732362059302E3338
:1031300038390A4E3631352058332E37303320593E
:10314000302E3435380A4E3632302058332E363849
:10315000322059302E3533300A4E3632352058332E
:103160002E3637392059302E3533340A4E36333027
:103170002058332E3632362059302E3638310A4E0A
:103180003633352058332E3536382059302E3832E4
:10319000380A4E3634302058332E343434205931E6
:1031A0002E3038300A4E3634352058332E343035F0
:1031B0002059312E3136370A4E3635302058332ECD
:1031C0003430342059312E3136370A4E36353520D9
:1031D00058332E3338372059312E3230380A4E3694
:1031E00036302058332E3338342059312E3230388F
:1031F0000A4E3636352058332E3336352059312E87
:103200003236350A4E3637302058332E3335352096
:1032100059312E3238350A4E3637352058332E3351
:1032200034382059312E3330380A4E363830205851
:10323000332E3333332059312E3335300A4E36385E
:10324000352058332E3332312059312E3339310A5B
:103250004E3639302058332E3331312059312E3407
:1032600032380A4E3639352058332E333339205907
:10327000312E3432330A4E3730302058332E343426
:10328000302059312E3430360A4E373035205833FD
:103290002E3531302059312E3430380A4E37313006
:1032A0002058332E3538352059312E3432310A4EDC
:1032B0003731352058332E3631312059312E3433C1
:1032C000390A4E3732302058332E363131205931B9
:1032D0002E3434310A4E3732352058332E363135BC
:1032E0002059312E3434310A4E3733302058332EA2
:1032F0003633362059312E3438380A4E373335209C
:1033000058332E3633342059312E3531370A4E3763
:1033100034302058332E3632322059312E35343362
:103320000A4E3734352058332E3630352059312E59
:103330003536330A4E3735302058332E3537362060
:1033400059312E3537350A4E3735352058332E351D
:1033500034342059312E3538310A4E373630205822
:10336000332E3437392059312E3539320A4E37361B
:10337000352058332E3435312059312E3539380A1D
:103380004E3737302058332E3338372059312E36C8
:1033900032360A4E3737352058332E3339302059DC
:1033A000312E3633360A4E3738302058332E3533E7
:1033B000322059312E3630320A4E373835205833C4
:1033C0002E3630312059312E3539370A4E373930C3
:1033D0002058332E3636382059312E3539380A4E9A
:1033E0003739352058332E3738322059312E36317F
:1033F000320A4E3830302058332E37393420593184
:103400002E3631380A4E3830352058332E3836387B
:103410002059312E3633360A4E3831302058332E6B
:103420003931382059312E3635350A4E383135206C
:1034300058332E3934352059312E3636370A4E3826
:1034400032302058332E3936342059312E36383523
:103450000A4E3832352058332E3936372059312E1E
:103460003638350A4E3833302058332E3937342029
:1034700059312E3639390A4E3833352058332E39E2
:1034800038342059312E3732350A4E3834302058EE
:10349000332E3938342059312E3735380A4E3834E6
:1034A000352058332E3937302059312E3739300AEC
:1034B0004E3835302058332E3934352059312E3896
:1034C00031370A4E3835352058332E3931382059A6
:1034D000312E3832360A4E3836302058332E3839AD
:1034E000312059312E3832370A4E3836352058338C
:1034F0002E3834322059312E3830390A4E38373090
:103500002058332E3739382059312E3738340A4E67
:103510003837352058332E3734362059312E373747
:10352000320A4E3838302058332E36393820593147
:103530002E3736340A4E3838352058332E36333548
:103540002059312E3736360A4E3839302058332E2E
:103550003535332059312E3738350A4E3839352034
:1035600058332E3437382059312E3832300A4E39FC
:1035700030302058332E3430392059312E383634FB
:103580000A4E3930352058332E3334352059312EF8
:103590003931380A4E3931302058332E3236342002
:1035A00059322E3032330A4E3931352058332E32CB
:1035B00034382059322E3035310A4E3932302058C5
:1035C000332E3234302059322E3038310A4E3932CF
:1035D000352058332E3331362059322E3038360AC2
:1035E0004E3933302058332E3339302059322E3172
:1035F00030340A4E3933352058332E343134205983
:10360000322E3132310A4E3934302058332E343391
:10361000312059322E3135330A4E39343520583362
:103620002E3433332059322E3138300A4E3935306A
:103630002058332E3432372059322E3230350A4E4C
:103640003935352058332E3431332059322E323229
:10365000340A4E3936302058332E3339322059321D
:103660002E3234320A4E3936352058332E33333524
:103670002059322E3234340A4E3937302058332E06
:103680003237382059322E3233360A4E3937352008
:1036900058332E3235362059322E3234320A4E39D2
:1036A00038302058332E3233392059322E323531CA
:1036B0000A4E3938352058332E3231312059322EC6
:1036C0003238300A4E3939302058332E31373420D1
:1036D00059322E3335360A4E3939352058332E318A
:1036E00035392059322E3339370A4E3130303020B7
:1036F00058332E3135302059322E3433380A4E317A
:103700003030352058332E3134302059322E343871
:10371000310A4E313031302058332E313332205976
:10372000322E3531300A4E313031352058332E317A
:1037300031382059322E3534330A4E313032302070
:1037400058332E3039392059322E3537360A4E311A
:103750003032352058332E3035312059322E363321
:10376000310A4E313033302058332E303033205927
:10377000322E3636360A4E313033352058322E3915
:1037800035372059322E3638350A4E313034302014
:1037900058322E3930372059322E3639390A4E31C7
:1037A0003034352058322E3836302059322E3731C9
:1037B000310A4E313035302058322E3831392059C7
:1037C000322E3732370A4E313035352058322E37C7
:1037D00036382059322E3734350A4E3130363020C3
:1037E00058322E3731362059322E3735370A4E317E
:1037F0003036352058322E3637352059322E37356F
:10380000370A4E313037302058322E35373920596B
:10381000322E3733310A4E313037352058322E357B
:1038200037302059322E3732330A4E31303830207B
:1038300058322E3535392059322E3732300A4E3132
:103840003038352058322E3533302059322E37302B
:10385000310A4E313039302058322E35303120592E
:10386000322E3639330A4E313039352058322E3423
:1038700037312059322E3638330A4E31313030202C
:1038800058322E3434332059322E3636380A4E31DF
:103890003130352058322E3339362059322E3633D6
:1038A000340A4E313131302058322E3335342059DC
:1038B000322E3539310A4E313131352058322E33DE
:1038C00035322059322E3539310A4E3131323020DD
:1038D00058322E3332352059322E3534330A4E3198
:1038E0003132352058322E3331352059322E35328F
:1038F000310A4E313133302058322E33303720598F
:10390000322E3439380A4E313133352058322E3286
:1039100039362059322E3436340A4E313134302083
:1039200058322E3239332059322E3432370A4E3142
:103930003134352058322E3239352059322E333633
:10394000360A4E313135302058322E33323120593B
:10395000322E3330330A4E313135352058322E3342
:1039600035382059322E3234370A4E313136302034
:1039700058322E3431392059322E3230330A4E31FA
:103980003136352058322E3431392059322E3137E4
:10399000390A4E313137302058322E3430352059E3
:1039A000322E3135380A4E313137352058322E33E8
:1039B00036322059322E3132330A4E3131383020EE
:1039C00058322E3335342059322E3130340A4E31AC
:1039D0003138352058322E3335342059322E303993
:1039E000310A4E313139302058322E333830205997
:1039F000322E3036350A4E313139352058322E3498
:103A000031302059322E3035310A4E3132303020AB
:103A100058322E3431302059322E3034370A4E315C
:103A20003230352058322E3430352059322E303253
:103A3000380A4E313231302058322E343038205945
:103A4000322E3031300A4E313231352058322E3458
:103A500031362059312E3939350A4E313232302043
:103A600058322E3433332059312E3938320A4E3100
:103A70003232352058322E3433382059312E3936EF
:103A8000330A4E313233302058322E3434372059F5
:103A9000312E3934380A4E313233352058322E34F3
:103AA00036312059312E3933380A4E3132343020F4
:103AB00058322E3438302059312E3933310A4E31B4
:103AC0003234352058322E3437382059312E383997
:103AD000390A4E313235302058322E343837205999
:103AE000312E3837350A4E313235352058322E35A1
:103AF00030342059312E3835340A4E3132363020A8
:103B000058322E3532372059312E3834380A4E315A
:103B10003236352058322E3534392059312E38344A
:103B2000390A4E313237302058322E353737205946
:103B3000312E3836310A4E313237352058322E3652
:103B400030342059312E3836360A4E313238302052
:103B500058322E3633312059312E3835340A4E3111
:103B60003238352058322E3634302059312E383202
:103B7000370A4E313239302058322E3634302059FF
:103B8000312E3739320A4E313239352058322E36FD
:103B900032392059312E3735390A4E313330302001
:103BA00058322E3631322059312E3732370A4E31C3
:103BB0003330352058322E3537362059312E3639AC
:103BC000340A4E313331302058322E3533362059B5
:103BD000312E3636320A4E313331352058322E34BA
:103BE00037302059312E3631360A4E3133323020BB
:103BF00058322E3334352059312E3535310A4E3175
:103C00003332352058322E3330372059312E353269
:103C1000310A4E313333302058322E32363020596B
:103C2000312E3438320A4E313333352058322E3269
:103C300034332059312E3437370A4E313334302063
:103C400058322E3232382059312E3436390A4E311C
:103C50003334352058322E3232322059312E34341A
:103C6000380A4E313335302058322E32323820590E
:103C7000312E3432350A4E313335352058322E321A
:103C800035342059312E3430350A4E313336302018
:103C900058322E3236382059312E3337330A4E31CE
:103CA0003336352058322E3237392059312E3334BD
:103CB000320A4E313337302058322E3330382059C3
:103CC000312E3238370A4E313337352058322E33C1
:103CD00034302059312E3235340A4E3133383020C9
:103CE00058322E3430372059312E3230310A4E318D
:103CF0003338352058322E3434312059312E313575
:103D0000360A4E313339302058322E34353420596A
:103D1000312E3133310A4E313339352058322E3479
:103D200036302059312E3130360A4E313430302081
:103D300058322E3436342059312E3130320A4E3139
:103D40003430352058322E3437312059312E30332B
:103D5000360A4E313431302058322E34363620591E
:103D6000302E3937310A4E313431352058322E3425
:103D700035312059302E3839370A4E31343230201F
:103D800058322E3431352059302E3739310A4E31E0
:103D90003432352058322E3430332059302E3736D5
:103DA000370A4E313433302058322E3338382059C8
:103DB000302E3736350A4E313433352058322E33D3
:103DC00030362059302E3834310A4E3134343020D8
:103DD00058322E3232322059302E3931310A4E319A
:103DE0003434352058322E3131342059302E39397F
:103DF000350A4E313435302058322E303032205989
:103E0000312E3037360A4E313435352058312E397F
:103E100030352059312E3133390A4E313436302085
:103E200058312E3735342059312E3232330A4E3143
:103E30003436352058312E3633372059312E32372B
:103E4000380A4E313437302058312E353832205927
:103E5000312E3330310A4E313437352058312E353A
:103E600035382059312E3331350A4E31343830202F
:103E700058312E3436302059312E3335320A4E31F6
:103E80003438352058312E3339392059312E3336D4
:103E9000300A4E313439302058312E3333382059DE
:103EA000312E3335340A4E313439352058312E32E3
:103EB00038372059312E3332390A4E3135303020DF
:103EC00058312E3234382059312E3239340A4E319D
:103ED0003530352058312E3231372059312E323598
:103EE000340A4E313531302058312E323134205998
:103EF000312E3235320A4E313531352058312E319E
:103F000037322059312E3139350A4E313532302091
:103F100058312E3132382059312E3133390A4E3151
:103F20003532352058312E3131302059312E313152
:103F3000370A4E313533302058302E393538205934
:103F4000302E3934310A4E313533352058302E3841
:103F500039312059302E3837330A4E31353430203C
:103F600058302E3832352059302E3830380A4E31FC
:103F70003534352058302E3735352059302E3734EA
:103F8000370A4E313535302058302E3631392059E8
:103F9000302E3633330A4E313535352058302E34F5
:103FA00037372059302E3532360A4E3135363020EB
:103FB00058302E3437372059302E3532340A4E31AE
:103FC0003536352058302E3431312059302E3437A3
:103FD000360A4E313537302058302E3333312059A0
:103FE000302E3435340A4E313537352058302E32A4
:103FF00037382059302E3432370A4E313538302098
:1040000058302E3233312059302E3339370A4E3161
:104010003538352058302E3138332059302E33374B
:10402000390A4E313539302058302E313335205948
:10403000302E3336350A4E313539352058302E3052
:1040400037362059302E3334310A4E313630352050
:10405000473030204633302E300A4E313631302052
:104060004D3035200A4E3136313520473930205811
:1040700030205930205A300A4E31363135204D33F8
:10408000300A28456E64206F6620434E43205072EC
:104090006F6772616D2900284D53472A2A2A2A200A
:1040A0004D6963726F737465702054657374205B1F
:1040B00076315D202A2A2A2A290A473030204731C2
:1040C00037204732312047343020473439204738B1
:1040D00030204739300A6730783079307A300A7BBF
:1040E00022316D69223A317D0A7B22326D69223A92
:1040F000317D0A7B22336D69223A317D0A7B22347D
:104100006D69223A317D0A6730207831300A7B228E
:10411000316D69223A327D0A78300A7B22316D692D
:10412000223A347D0A7831300A7B22316D69223A95
:10413000387D0A78300A6730207931300A7B2232A4
:104140006D69223A327D0A79300A7B22326D69220A
:104150003A347D0A7931300A7B22326D69223A384D
:104160007D0A79300A6730207A31300A7B22336D3C
:1041700069223A327D0A7A300A7B22336D69223A0B
:10418000347D0A7A31300A7B22336D69223A387DD8
:104190000A7A300A6730206131300A7B22346D6937
:1041A000223A327D0A61300A7B22346D69223A3428
:1041B0007D0A6131300A7B22346D69223A387D0AEA
:1041C00061300A6D3200284D53472A2A2A2A20439B
:1041D0006F6F7264696E617465206F666673657473
:1041E000732074657374205B76315D202A2A2A2A35
:1041F000290A6730306731376732316734306734C6
:10420000396738306739300A6735340A67393278A8
:104210003079307A300A663630300A284D53472AD2
:104220002A2A2A207465737420473932206F666603
:10423000736574732A2A2A2A290A286D73675374AE
:10424000657020313A204D6F76652066726F6D2063
:10425000302C3020746F2033302C30206D6D20696D
:104260006E20706F73697469766520582064697276
:10427000656374696F6E290A286D7367537465707E
:1042800020323A205265736574206F726967696ED7
:1042900020746F20302E30207573696E6720473987
:1042A00032290A286D73675374657020333A204DA4
:1042B0006F766520746F2032302C302E2053686F5B
:1042C000756C64206D6F7665203230206D6D2069CD
:1042D0006E20706F73697469766520582064697206
:1042E000656374696F6E20616E64207374617475A8
:1042F00073207265706F72742073686F756C6420C0
:1043000073746172742066726F6D20302C30290ACC
:10431000286D73675374657020343A204D6F76654D
:1043200020746F20302E3020202053686F756C640D
:10433000206D6F7665203230206D6D20696E206EA5
:104340006567617469766520582064697265637475
:10435000696F6E20616E642073746174757320726E
:1043600065706F72742073686F756C64207374610C
:1043700072742066726F6D2032302C30290A6731DA
:104380007833300A67393278300A67317832300A48
:104390006731783079300A2473720A67393278309D
:1043A0000A673470302E350A284D53472A2A2A2AA4
:1043B000207465737420473535206F6666736574A5
:1043C000732A2A2A2A290A286D7367537465702074
:1043D000313A2053657420436F6F7264696E617463
:1043E000652073797374656D2032205B6735355DA8
:1043F00020746F206F6666736574206F6620353099
:104400002C3530290A286D73675374657020323A51
:104410002053656C6563742047353520636F6F7278
:1044200064696E6174652073797374656D290A28F7
:104430006D73675374657020333A204D6F76652035
:10444000746F20302C302E20486561642073686FB3
:10445000756C64206D6F766520646961676F6E614D
:104460006C6C7920696E202B5820616E64202B596A
:1044700020616E6420737461747573207265706F4F
:1044800072742073686F756C642073746172742029
:1044900066726F6D20302C30290A6731304C3270D3
:1044A000327835307935300A6735350A67307830FB
:1044B00079300A673470302E350A284D53472A2A3E
:1044C0002A2A207465737420473533206162736F24
:1044D0006C757465206F7665727269646573202AE5
:1044E0002A2A2A290A286D73675374657020313A85
:1044F0002052756E20612073717561726520696E3E
:10450000204735352073797374656D290A286D73DA
:10451000675374657020323A2052756E20612073A3
:10452000717561726520772F473533206F7665721C
:1045300072696465290A6730783079300A673078A3
:10454000323079300A67307832307932300A673069
:1045500078307932300A6730783079300A673470D1
:10456000302E350A6735336730783079300A673551
:1045700033673078323079300A67353367307832D4
:10458000307932300A673533673078307932300A23
:104590006735336730783079300A67307830793072
:1045A0000A673470302E350A284D53472A2A2A2AA2
:1045B00020746573742052657475726E20746F2058
:1045C000686F6D65202A2A2A2A290A286D73675385
:1045D00074657020313A2052657475726E20746F64
:1045E00020686F6D65207573696E672047323829C2
:1045F0000A286D73675374657020323A20526573D0
:10460000657420746F2047353420636F6F726420A7
:1046100073797374656D290A6732380A6735340A0D
:104620006D333000284D53472A2A2A2A20546573B7
:1046300074206163637572616379206F6620736CA7
:104640006F77206D6F766573205B76315D202A2A47
:104650002A2A290A6735350A6730783079300A679F
:104660003470302E350A673470302E350A67317851
:1046700031306632320A6735340A67307830793043
:104680000A6D333000284D53472A2A2A2A205465C0
:10469000737420766572792073686F7274206D6F01
:1046A000766573205B76315D202A2A2A2A290A67DB
:1046B00030783079300A673470302E350A673178B7
:1046C000302E3166313030300A78300A78302E3171
:1046D0000A78300A78302E310A78300A78302E3154
:1046E0000A78300A78302E310A78300A78302E3144
:1046F0000A78300A78302E310A78300A78302E3134
:104700000A78300A78302E310A78300A78302E3123
:104710000A78300A78302E310A78300A78302E3113
:104720000A78300A78302E310A78300A78302E3103
:104730000A78300A78302E310A673470302E350A04
:1047400078300A78302E30310A78300A78302E30BE
:10475000310A78300A78302E30310A78300A7830D1
:104760002E30310A78300A78302E30310A78300A0B
:1047700078302E30310A78300A78302E30310A788D
:10478000300A78302E30310A78300A78302E3031C5
:104790000A78300A78302E30310A78300A78302E94
:1047A00030310A78300A78302E30310A78300A7881
:1047B000302E30310A78300A78302E30310A6730A6
:1047C000783079300A6D3200284D53472A2A2A2A38
:1047D00020526F746172792041786973204D6F7433
:1047E000696F6E2054657374205B76315D202A2AD0
:1047F0002A2A290A67303067313767323167343007
:104800006734396738306739300A67307830793043
:104810007A306130623063300A6735350A67307844
:104820003079300A6633363030300A6730613336DB
:10483000300A623336300A633336300A61300A6236
:10484000300A63300A673161313434300A623134FE
:1048500034300A63313434300A61300A62300A631A
:10486000300A673161313434306237323063333685
:10487000300A783079307A306130623063300A67DC
:104880003178363061313434306237323063333628
:10489000300A783079307A306130623063300A67BC
:1048A00031783630793530613134343062373230F6
:1048B000633336300A783079307A30613062306371
:1048C000300A6731783630793530783235613134B5
:1048D000343062373230633336300A783079307AA8
:1048E000306130623063300A6735340A67307830BF
:1048F00079300A6D333000284D53472A2A2A2A205E
:10490000496E76657273652054696D65204D6F74CC
:10491000696F6E2054657374205B76315D202A2A9E
:104920002A2A290A673030673137673231673430D5
:104930006734396738306739300A6735350A673088
:10494000783079300A6739330A66302E30310A6799
:10495000317831300A7931300A7A31300A613130B8
:104960000A78300A79300A7A300A61300A67317879
:1049700031307931307A2D31306131300A67307819
:104980003079307A3061300A66302E310A673278F9
:104990003130792D31307A2D32306931300A67303B
:1049A000783079307A300A6733783130792D313088
:1049B0007A2D32306931300A6730783079307A3088
:1049C0000A673278323079307A2D32306931300AE4
:1049D0006730783079307A300A673378323079301E
:1049E0006931300A6730783079307A300A67327846
:1049F0003079307A2D33306931300A673378307945
:104A0000307A306931300A6730783079307A300A5C
:104A10006732783079306932302028435720333676
:104A2000302064656772656573290A673378307969
:104A300030693230202843435720333630206465B4
:104A40006772656573290A6739340A6735340A67FE
:104A500030783079300A6D3330007B226763223A38
:104A60002267303067313767323167343067343925
:104A7000673830673930227D0A7B226763223A2209
:104A8000673535227D0A7B226763223A22673078B8
:104A9000307930227D0A7B226763223A22663530E4
:104AA00030227D0A7B226763223A22284D534773C6
:104AB00071756172657329227D0A7B226763223AD0
:104AC000226730783230227D0A7B226763223A22C5
:104AD000793230227D0A7B226763223A22783022A3
:104AE0007D0A7B226763223A227930227D0A7B226B
:104AF0006763223A226731783130227D0A7B226750
:104B000063223A22793130227D0A7B226763223A7E
:104B1000227830227D0A7B226763223A2279302272
:104B20007D0A7B226763223A22284D5347636972CC
:104B3000636C657329227D0A7B226763223A2267B0
:104B400032783130792D3130693130227D0A7B2243
:104B50006763223A22673078307930227D0A7B22DF
:104B60006763223A226733783130792D31306931E9
:104B700030227D0A7B226763223A226730783079BF
:104B800030227D0A7B226763223A226732783230F4
:104B90007930693130227D0A7B226763223A2267AD
:104BA0003078307930227D0A7B226763223A22678F
:104BB000337832307930693130227D0A7B22676365
:104BC000223A22673078307930227D0A7B2267636F
:104BD000223A22673278307930693130227D0A7B7F
:104BE000226763223A226733783079306931302284
:104BF0007D0A7B226763223A22673534227D0A7B55
:104C0000226763223A22673078307930227D0A7B2E
:104C1000226763223A226D3330227D00284D5347AC
:104C20002A2A2A2A204D636F646573207465737481
:104C3000205B76315D202A2A2A2A290A6735350A1F
:104C40006730783079300A6D330A673470310A6D15
:104C5000350A673470310A6D340A673470310A6D71
:104C6000350A673470310A6D370A673470310A6D5E
:104C7000390A673470310A6D380A673470310A6D49
:104C8000390A663530300A67307832300A79323086
:104C90000A6D330A78300A6D340A79300A6D350AA4
:104CA00067317831300A6D370A7931300A6D380A48
:104CB00078300A6D390A79300A6732783130792DC7
:104CC00031306931300A6D330A6730783079300A13
:104CD0006D340A6733783130792D31306931300ADB
:104CE0006D350A6730783079300A6D370A67327867
:104CF000323079306931300A6D380A67307830796E
:104D0000300A6D390A673378323079306931300AC8
:104D10006730783079300A673278307930693130ED
:104D20000A6733783079306931300A6735340A6779
:104D300030783079300A6D333000284D53472A2AB5
:104D40002A2A2046656564686F6C64205465737414
:104D5000205B76315D202A2A2A2A290A284D5347CA
:104D60002A2A2A2A204D616E75616C6C7920656E45
:104D7000746572202120616E64207E2064757269E2
:104D80006E67206D6F76656D656E7420746F20742C
:104D9000657374202A2A2A2A290A6735350A67305A
:104DA000783079300A673470330A673030673137CA
:104DB0006732316734306734396738306739300AE1
:104DC000663630300A6730783130307637362E37F5
:104DD00036350A783079300A6735340A67307830EA
:104DE00079300A6D333000284D53472A2A2A2A2069
:104DF0004477656C6C2054657374205B76315D205C
:104E00002A2A2A2A290A6730306731376732316700
:104E100039300A6735350A6730783079300A6635B7
:104E200030300A67307831300A673470310A6730C1
:104E30007832300A673470310A67307831300A6767
:104E40003470310A67307830300A673470310A794B
:104E5000350A6735340A6730783079300A6D330A9D
:104E6000673470310A67307831307931300A6D3506
:104E70000A673470310A67307832307932300A6D1F
:104E8000340A673470310A67307833307933300A46
:104E90006D380A673470310A6730783430793430CD
:104EA0000A6D390A673470310A67307835307935E0
:104EB000300A6730783079300A6D3330002F286D32
:104EC00073672A2A2A2A204172632054657374204A
:104ED0005B76315D202A2A2A2A290A4E3120673042
:104EE000306731376732316734306734396738308B
:104EF0006739300A4E3130206730783079300A4EC9
:104F0000323020663530300A4E3330206732783107
:104F100030792D31306931302028435720323730F5
:104F20002064656772656573290A4E3430206730E6
:104F3000783079300A4E3530206733783130792D2A
:104F4000313069313020284343572039302064659F
:104F50006772656573290A4E36302067307830797C
:104F6000300A4E383020673278323079306931304B
:104F70002028435720313830206465677265657397
:104F8000290A4E3730206730783079300A4E383071
:104F900020673378323079306931302028434357E5
:104FA000203138302064656772656573290A4E398F
:104FB00030206730783079300A4E39392046313226
:104FC00030300A4E313030206732783079306932F3
:104FD000302028435720333630206465677265657A
:104FE00073290A4E31313020673278307930693296
:104FF00030202843572033363020616761696E299D
:105000000A4E313230206637303020284368616ED6
:1050100067652066656564207261746520776869DC
:105020006C6520696E204732206D6F74696F6E2049
:105030006D6F6465290A4E313330206732783079DC
:1050400030693230202843572033363020337264A1
:105050002074696D65290A4E31343020673278300A
:105060007930693230202843572033363020347469
:10507000682074696D65290A4E31353020663530F7
:10508000300A4E313630206733783079307A343018
:105090006932302028434357203336302064656717
:1050A000726565732077697468206C696E656172DA
:1050B0002074726176656C290A4E3137302067336F
:1050C000783079307A3069323020284343572033A2
:1050D000363020616761696E290A4E3138302066AA
:1050E00037303020286D73672A2A2A2A4368616E78
:1050F00067652066656564207261746520776869FC
:105100006C6520696E204733206D6F74696F6E2067
:105110006D6F64652A2A2A2A290A4E3139302067A0
:105120003378307930693230202843435720333682
:1051300030203372642074696D65290A4E32303034
:105140002067337830793069323020284343572044
:10515000333630203474682074696D65290A4E3204
:10516000313020286D73672A2A2A2A473138204592
:1051700076616C20746573742A2A2A2A290A4E32B1
:105180003230204731205833302E373037205A35CF
:10519000302E37323720463530300A4E3233302009
:1051A00047313820473032205836372E37333820B1
:1051B0005A32332E3631372052323520463235308E
:1051C0000A4E323430206738300A4E32353020678C
:1051D00030783079307A300A4E323630206D3330C4
:1051E00000284D53472A2A2A2A2053717561726577
:1051F00073204D6F74696F6E2054657374205B76F5
:10520000315D202A2A2A2A290A6730306731376718
:1052100032316734306734396738306739300A677C
:1052200030783079300A67307832302028747261F3
:10523000766572736520612032306D6D20737175F3
:1052400061726520696E205820616E642059290AB8
:105250007932300A78300A79300A6731783130662D
:1052600035303020286472617720612031306D6DD7
:105270002073717561726520696E205820616E64BB
:1052800020592061742046353030290A7931300A9E
:1052900078300A79300A67307A32302028747261A7
:1052A000766572736520612032306D6D2073717583
:1052B00061726520696E205820616E64205A290A47
:1052C0007832300A7A300A78300A673178323079A9
:1052D00032307A3230663530302028666565642099
:1052E000612032306D6D20646961676F6E616C2082
:1052F000696E20582C205920616E64205A290A7842
:105300003079307A300A7834307934307A34302059
:1053100028747261766572736520612034306D6D1A
:10532000206375626520696E20582C205920616EBB
:1053300064205A290A78343079307A300A78307902
:1053400034307A34300A7834307934307A300A782C
:105350003079307A34300A78307934307A300A78DB
:10536000343079307A34300A783079307A300A67DC
:1053700038300A6730783079300A673078310A6718
:105380003078300A6D333000284D53472A2A2A2AB4
:1053900020486F6D696E672054657374205B7631A9
:1053A0005D202A2A2A2A290A6732382E3278307953
:1053B000307A300A6D333000284D53472A2A2A2A82
:1053C00020536D6F6B652054657374205B76315D7F
:1053D000202A2A2A2A290A473030204731372047F5
:1053E0003231204734302047343920473830204785
:1053F00039300A6730783079307A300A67303020B7
:105400007833300A78300A7933300A79300A7A33BF
:10541000300A7A300A6133300A61300A473030206E
:1054200078333020793330207A3330206133300ABA
:10543000473030207830207930207A302061300AAF
:1054400047303120663330207832207932207A326A
:105450002061320A7830207930207A302061300A99
:105460006D33673470310A6D35673470310A6D34CD
:10547000673470310A6D33673470310A6D356734C3
:1054800070310A6D37673470310A6D3967347031A5
:105490000A6D38673470310A6D390A673078310A1D
:1054A000673078300A6D32005465737420232564A8
:1054B000206E6F7420666F756E640A0025972EC586
:1054C000F1955D96BE922298A00840060506090156
:1054D0000825972EC5F1955D96CA947EC5B0084003
:1054E000060540B0308000CF673322211F1B130117
:1054F000010000000000F0E0D0C010015B703166D8
:1055000072715D2070776D206672657175656E636E
:10551000792020202531352E336620487A0A005B19
:10552000703163736C5D2070776D206377207370CA
:10553000656564206C6F202531352E33662052500E
:105540004D0A005B70316373685D2070776D206376
:1055500077207370656564206869202531352E33A6
:10556000662052504D0A005B703163706C5D207094
:10557000776D206377207068617365206C6F2025DC
:1055800031352E3366205B302E2E315D0A005B7084
:10559000316370685D2070776D206377207068617B
:1055A0007365206869202531352E3366205B302EE7
:1055B0002E315D0A005B703177736C5D2070776D02
:1055C00020636377207370656564206C6F253135C7
:1055D0002E33662052504D0A005B70317773685D40
:1055E0002070776D20636377207370656564206831
:1055F000692531352E33662052504D0A005B7031DB
:1056000077706C5D2070776D2063637720706861C0
:105610007365206C6F2531352E3366205B302E2E5E
:10562000315D0A005B70317770685D2070776D20A6
:105630006363772070686173652068692531352E52
:105640003366205B302E2E315D0A005B7031706F47
:10565000665D2070776D207068617365206F666687
:105660002020202531352E3366205B302E2E315DF3
:105670000A005F63616C63756C6174655F7472616D
:1056800070657A6F69642829206661696C65642099
:10569000746F20636F6E766572676500BBB52EC54B
:1056A00063B53AB569B47EC50000400640061040B7
:1056B000B800B8BBB52EC563B53AB569B47EC500B0
:1056C00000400620060840B800B8C3B62EC5439473
:1056D0006594A9947EC5737973006662000000002A
:1056E0000702F68EE05A095BFA324801CE4373791D
:1056F00073006676000000000703FB8EE05A095B2A
:10570000FE32EC51783F737973006870000000003E
:105710000700008FE05AC65B02330000803F7379B8
:1057200073006876000000000700058FE05AD68EEF
:1057300006330000004173797300696400000000C3
:1057400004000A8F788E095BF6320000000000002A
:1057500000006E00000000000100D357E055755BAB
:10576000282B00000000000000006C696E6500003E
:105770000100D357F955755B282B0000000000008D
:10578000000076656C000000000293571256095B1A
:10579000F63200000000000000006665656400004D
:1057A0000002B357F65B095B652B000000000000A8
:1057B00000007374617400000000D8574255095B03
:1057C000F63200000000000000006D61637300000D
:1057D0000000DD575055095BF63200000000000064
:1057E00000006379637300000000E2575755095BBE
:1057F000F63200000000000000006D6F74730000BE
:105800000000E7575E55095BF6320000000000001B
:105810000000686F6C6400000000EC576555095B80
:10582000F6320000000000000000756E6974000090
:105830000000F6577355095BF632000000000000C7
:105840000000636F6F7200000000FB577F55095B1B
:10585000F63200000000000000006D6F6D6F000068
:10586000000000588B55095BF63200000000000074
:105870000000706C616E0000000005589555095BD2
:10588000F632000000000000000070617468000043
:1058900000000A58A155095BF63200000000000024
:1058A000000064697374000000000F58AD55095B77
:1058B000F632000000000000000066726D6F00000C
:1058C00000001458B955095BF632000000000000D2
:1058D0000000746F6F6C000000001958C555095B1B
:1058E000F632000000006D706F006D706F78000080
:1058F0000003E9597A56095BF632000000006D702A
:105900006F006D706F7900000003E9597A56095BEA
:10591000F632000000006D706F006D706F7A00004D
:105920000003E9597A56095BF632000000006D70F9
:105930006F006D706F6100000003E9597A56095BD2
:10594000F632000000006D706F006D706F62000035
:105950000003E9597A56095BF632000000006D70C9
:105960006F006D706F6300000003E9597A56095BA0
:10597000F63200000000706F7300706F73780000E3
:105980000003E2594A56095BF63200000000706FCE
:105990007300706F737900000003E2594A56095B87
:1059A000F63200000000706F7300706F737A0000B1
:1059B0000003E2594A56095BF63200000000706F9E
:1059C0007300706F736100000003E2594A56095B6F
:1059D000F63200000000706F7300706F7362000099
:1059E0000003E2594A56095BF63200000000706F6E
:1059F0007300706F736300000003E2594A56095B3D
:105A0000F632000000006F6673006F667378000066
:105A10000003EF59AA56095BF632000000006F66DA
:105A200073006F66737900000003EF59AA56095B93
:105A3000F632000000006F6673006F66737A000034
:105A40000003EF59AA56095BF632000000006F66AA
:105A500073006F66736100000003EF59AA56095B7B
:105A6000F632000000006F6673006F66736200001C
:105A70000003EF59AA56095BF632000000006F667A
:105A800073006F66736300000003EF59AA56095B49
:105A9000F63200000000686F6D00686F6D650000F1
:105AA0000000F1576C555557F63200000000686F42
:105AB0006D00686F6D7800000000E2596F5A095B55
:105AC000FD2A00000000686F6D00686F6D790000AE
:105AD0000000E2596F5A095BFE2A00000000686F5F
