:100000000C94AD4D0C94CE4D0C9433D30C94CE4D3A
:100010000C94CE4D0C94CE4D0C94CE4D0C94CE4DF4
:100020000C94CE4D0C94CE4D0C94CE4D0C945ED5CC
:100030000C94CE4D0C94CE4D0C942DB80C94CE4D0A
:100040000C94CE4D0C94CE4D0C94CE4D0C94CE4DC4
:100050000C94CE4D0C94CE4D0C94CE4D0C94CE4DB4
:100060000C94CE4D0C944DD30C94DCD20C94CE4D0C
:100070000C94A6CC0C9448CC0C9484CC0C94CE4D0F
:100080000C94FED30C94CE4D0C94CE4D0C94CE4DCE
:100090000C94CE4D0C94CE4D0C94CE4D0C94CE4D74
:1000A0000C94CE4D0C94CE4D0C94CE4D0C9408BFB8
:1000B0000C94ACBF0C94CE4D0C94CE4D0C941EBA47
:1000C0000C94CE4D0C94CE4D0C94CE4D0C94CE4D44
:1000D0000C94CE4D0C94CE4D0C94CE4D0C94CE4D34
:1000E0000C9444AA0C94CE4D0C94CE4D0C94CE4D51
:1000F0000C94CE4D0C94CE4D0C94CE4D0C94CE4D14
:100100000C94DFBE0C9483BF0C94B6BE0C945ABF03
:100110000C94CE4D0C94CE4D0C94CE4D0C94CE4DF3
:100120000C94CE4D0C94CE4D0C94CE4D0C94CE4DE3
:100130000C94CE4D0C9482B90C94CE4D0C94CE4DB3
:100140000C94CE4D0C94CE4D0C94CE4D0C94CE4DC3
:100150000C94CE4D0C94CE4D0C943AAA0C94CE4DEA
:100160000C94CE4D0C94CE4D0C94CE4D0C94CE4DA3
:100170000C94CE4D0C94CE4D0C94CE4D0C94CE4D93
:100180000C94CE4D0C94CE4D0C94CE4D0C94CE4D83
:100190000C94CE4D0C94CE4D0C94CE4D0C94CE4D73
:1001A0000C9431BF0C94D5BF0C94CE4D0C94CE4D15
:1001B0000C94D0B90C94CE4D0C94CE4D0C94CE4DE5
:1001C0000C94CE4D0C94CE4D0C94CE4D0C94CE4D43
:1001D0000C94CE4D0C94CE4D0C94CE4D0C94CE4D33
:1001E0000C94CE4D0C94CE4D08760F7616761D7677
:1001F0002576C67BC67BC67BC67BC67B2B76C67B3D
:10020000C67BC67BC67BC67BC67B33763A76417699
:1002100048764F76C67BC67BC67BC67BC67BC67BD5
:100220005676C67BA676C67BC67BC67BC67BC67B60
:10023000C67BC67BDF76C67BAD79C67BC67BC67BBD
:10024000C67BC67BC67BC67BC67BAD79C67BC67BC1
:10025000C67B0C77117718771F7727772E7736773D
:10026000C67B3E77C67BC67B7577C67BC67BC67B67
:10027000C67BC67BC67BC67BC67BC67BC67BC67B76
:10028000C67BC67BC67BC67B7C77C67BC67BC67BB4
:10029000C67BC67BC67BC67BC67BC67B8377BA77AD
:1002A000F17737783E78547854785B78627869785B
:1002B000707877787C7883788A78C47BC47BC47BB9
:1002C000C47BC47BC47BC47BC47BC47BC47BC47B36
:1002D000C47BC47BC47BC47BC47BC47BC47BC47B26
:1002E000C47B5B78C47BC47BC47BC47BC47BC47B82
:1002F000C47BC47BC47BC47BC47BC47BC47BC47B06
:10030000C47BC47BC47B917898789F78A678C47BA3
:10031000C47BC47BC47BC47BC47BC47BC47B547858
:10032000517B127B167B1E7BFA7AFE7A067B0A7B58
:100330002A7B3D7B457B497B4D7BA97B227B1E79BC
:100340002F794079C67BC67BB878F975C67B517921
:1003500062797379AD7945789579C67BC978C67B22
:100360008479DA78AD78C67BC67BC67BEB78FC787F
:100370000D794FBE57BE5FBE67BE6FBE77BE7FBEF4
:1003800087BE7AC1D7C0DFC0E7C0EFC0F7C0FFC0EB
:1003900007C10FC117C11FC127C12FC137C13FC13D
:1003A0005FC15FC15FC15FC15FC15FC15FC15FC14D
:1003B0005FC15FC15FC15FC15FC15FC15FC15FC13D
:1003C0005FC15FC15FC15FC15FC15FC15FC15FC12D
:1003D0005FC15FC15FC15FC15FC15FC15FC15FC11D
:1003E0005FC15FC15FC147C14FC15FC15FC15FC135
:1003F0005FC15FC15FC15FC15FC15FC15FC15FC1FD
:100400005FC15FC15FC15FC15FC15FC15FC15FC1EC
:100410005FC15FC15FC15FC15FC15FC15FC15FC1DC
:100420005FC15FC15FC15FC15FC15FC15FC15FC1CC
:100430005FC15FC15FC15FC15FC15FC15FC15FC1BC
:100440005FC15FC15FC15FC157C1084AD73B3BCEA7
:10045000016E84BCBFFDC12F3D6C74319ABD5683C3
:100460003DDA3D00C77F11BED9E4BB4C3E916BAA7B
:10047000AABE000000803F05A84CCDB2D44EB938CA
:1004800036A9020C50B9918688083CA6AAAA2ABEB1
:10049000000000803F07634236B79BD8A71A39682F
:1004A0005618AEBAAB558C1D3CB7CC5763BD6DED3D
:1004B000FD753EF6177231BF000000803F08000056
:1004C00000BE922449123EABAAAA2ABECDCCCC4C87
:1004D0003E00000080BEABAAAAAA3E00000000BFFA
:1004E000000000803F0000000000084178D3BB43BB
:1004F00087D1133D190E3CC3BD4282AD2B3E68EC43
:100500008276BED98FE1A93E4C80EFFFBE01C4FFC9
:100510007F3F0000000000000C949DAF0C94EB5C4A
:100520000C9474680C9489AB0C94C67B0C94F5CB3A
:100530000C944D7B0C9483600C94CFBD0C941F776E
:100540000C9402640C945E610C9491780C94046C8D
:100550000C94EF680C945B600C94F15C0C9431D1BA
:100560000C945F600C9422700C941ABE0C94AD79BC
:100570000C94CC650C94E9600C94FC6C0C942D6389
:100580000C9422BE0C945C6D0C943B680C94E44D6E
:100590000C949FB20C9481C50C94B5BC0C942FC5DF
:1005A0000C94DA4D0C9440790C94FD5C0C94A7C02B
:1005B0000C94565F0C94DE630C948F600C94EFC027
:1005C0000C94675D0C9448C50C94D04D0C9443B1C9
:1005D0000C94A2730C94C9620C9495AB0C9457C103
:1005E0000C941E790C940A7B0C945FBE0C942777B4
:1005F0000C947C770C942E770C9424640C943D7BA3
:100600000C94CD620C94A15F0C943FB10C94736078
:100610000C94227B0C9490680C947F600C943F683F
:100620000C9489960C944A610C942F5A0C94F7C040
:100630000C94D85C0C94195D0C9427C10C947778B9
:100640000C943E780C94F1770C94BBCE0C942B7EDA
:100650000C941BD00C94C6600C9446610C94A3605F
:100660000C94825F0C94385D0C947B600C94A1C058
:100670000C94C85D0C94875F0C948B600C94426161
:100680000C94525E0C947AC10C949FAF0C94035D51
:100690000C949E630C940D790C94E55C0C94697831
:1006A0000C943E770C9493600C9448760C94F975F6
:1006B0000C94167B0C94EC670C9436610C94457882
:1006C0000C9406BE0C9452640C94C4680C94FEBD49
:1006D0000C94ADAB0C9447C10C94567D0C94435DC7
:1006E0000C943D510C94A7600C94225D0C946073A3
:1006F0000C949F600C945FC10C94234E0C94FB5F90
:100700000C9407B10C94A97B0C94DA780C94955D49
:100710000C941D760C9426BE0C9452D00C9487BE7B
:100720000C944BB10C9477BE0C940C770C94517BC9
:100730000C9476B20C94876C0C945F690C9456768A
:100740000C94C5C00C9465AF0C942F790C94187759
:100750000C942FC10C9463AF0C9489670C946DBDFD
:100760000C944B840C941E5E0C94C47B0C9499AB3B
:100770000C941A6D0C9483770C94867D0C94FFC0B6
:100780000C9430C50C941E7B0C9485610C94B65F60
:100790000C941A700C9433680C9467AF0C944F76D9
:1007A0000C9467600C94476D0C94A85F0C943FBD4B
:1007B0000C9491AB0C944E610C94E9CD0C94187C84
:1007C0000C94C17D0C948A780C94FE7A0C94D767B3
:1007D0000C9484790C94AF5F0C9437C10C9457BE81
:1007E0000C94A6760C94344E0C9433760C94C1C0C1
:1007F0000C94457B0C948BCA0C940BBE0C9447B1A3
:100800000C947D5E0C947A7D0C9416760C94D0CA70
:100810000C94D9720C94EC620C94D4830C946661A1
:100820000C947E630C94DF760C9467BE0C94087C69
:100830000C94BE630C944FCF0C9454780C94F671C6
:100840000C9462610C940B630C94567E0C944FC113
:100850000C946F600C949F780C94067B0C946278D7
:100860000C9427690C94A1AB0C9411770C94DFC005
:100870000C9417C10C9437780C94C9780C94367783
:100880000C94517D0C943FC10C9484CB0C94F6CA0B
:100890000C94BD5F0C945B780C9473790C947C7809
:1008A0000C94A9BC0C945B630C947E5D0C9425762F
:1008B0000C94F2B00C94DC5F0C94497B0C941E8673
:1008C0000C9423B10C9457600C946A610C940876D4
:1008D0000C94905E0C9463600C9407C10C946E6150
:1008E0000C9473620C9483780C9443680C94776036
:1008F0000C94C1BC0C9425C60C9453BD0C94417649
:100900000C945D630C9497600C940E5D0C9460AC39
:100910000C942D5D0C946FBE0C944FBE0C94F4722D
:100920000C9464C50C94A5AB0C94EB780C940F76E6
:100930000C94A3AF0C9452610C9437680C94E3CBE5
:100940000C94FE7C0C947E7D0C94F75C0C94007EE1
:100950000C94CDD00C94A6780C942A7B0C948760D0
:100960000C94FA7A0C942B760C94E7C00C9402BE8B
:100970000C9443840C9470780C9475770C9478885C
:100980000C948DAB0C94A7BD0C940FC10C947CD22D
:100990000C94827D0C94CD6D0C94AA680C94BBCF02
:1009A0000C94FC780C945A610C941FC10C94326125
:1009B0000C946B600C94C1540C94FE5E0C949B6080
:1009C0000C943A610C94B8780C9456610C94AD7800
:1009D0000C94E5600C947FBE0C944E5D0C94D7C0D3
:1009E0000C943A760C94CD6C0C943E610C942E6170
:1009F0000C94A9AB0C9447840C94767D0C947A618A
:100A00000C94F95D0C9495790C94127B0C9462799A
:100A10000C941EBE0C9451790C9463CB0C94BA7751
:100A20000C949DAB0C9498785B257325735D202501
:100A30007320257320706F736974696F6E25313868
:100A40002E336625730A005B257325735D2025739D
:100A5000202573206F66667365742532302E3366E9
:100A600025730A005B257325735D202573207A6545
:100A7000726F206261636B6F66662531392E336653
:100A800025730A005B257325735D202573206C6137
:100A9000746368206261636B6F66662531382E333C
:100AA0006625730A005B257325735D202573206C12
:100AB000617463682076656C6F636974792531337E
:100AC0002E306625732F6D696E0A005B25732573C2
:100AD0005D202573207365617263682076656C6F95
:100AE000636974792531322E306625732F6D696EF6
:100AF0000A005B257325735D202573207377697465
:100B00006368206D617825313764205B303D6F6606
:100B1000662C313D686F6D696E672C323D6C696D76
:100B200069742C333D6C696D69742B686F6D696EE7
:100B3000675D0A005B257325735D2025732073773D
:100B400069746368206D696E25313764205B303DC0
:100B50006F66662C313D686F6D696E672C323D6C37
:100B6000696D69742C333D6C696D69742B686F6DA8
:100B7000696E675D0A005B257325735D2025732010
:100B80007261646975732076616C75652532302EEB
:100B9000346625730A005B257325735D2025732059
:100BA0006A756E6374696F6E2064657669617469D5
:100BB0006F6E2531342E3466257320286C61726780
:100BC000657220697320666173746572290A005B1F
:100BD000257325735D202573206A65726B20686F0D
:100BE0006D696E672531362E306625732F6D696EFF
:100BF0005E33202A2031206D696C6C696F6E0A00AB
:100C00005B257325735D202573206A65726B206DEB
:100C10006178696D756D2531352E306625732F6DC0
:100C2000696E5E33202A2031206D696C6C696F6EAD
:100C30000A005B257325735D20257320747261762D
:100C4000656C206D696E696D756D2531372E336663
:100C500025730A005B257325735D2025732074724C
:100C60006176656C206D6178696D756D2531372E03
:100C7000336625730A005B257325735D2025732079
:100C800076656C6F63697479206D6178696D756DD7
:100C90002531312E306625732F6D696E0A005B2574
:100CA0007325735D202573206665656472617465C4
:100CB000206D6178696D756D2531312E3066257333
:100CC0002F6D696E0A005B257325735D20257320E7
:100CD00061786973206D6F646525313864202573F0
:100CE0000A005B736C5D2020736F6674206C696D05
:100CF000697420656E61626C65253132640A005B3F
:100D000063745D202063686F7264616C20746F6C23
:100D10006572616E63652531372E346625730A006E
:100D20005B6A615D20206A756E6374696F6E206115
:100D30006363656C65726174696F6E25382E306609
:100D400025730A005B6764695D2064656661756C84
:100D5000742067636F64652064697374616E636592
:100D6000206D6F6465253264205B303D4739302C3F
:100D7000313D4739315D0A005B6770615D20646514
:100D80006661756C742067636F6465207061746858
:100D900020636F6E74726F6C253364205B303D4747
:100DA00036312C313D4736312E312C323D473634E9
:100DB0005D0A005B67636F5D2064656661756C74D6
:100DC0002067636F646520636F6F7264207379734B
:100DD00074656D253364205B312D3620284735340A
:100DE0002D473539295D0A005B67756E5D206465A6
:100DF0006661756C742067636F646520756E6974D5
:100E000073206D6F6465253564205B303D4732305B
:100E10002C313D4732315D0A005B67706C5D2064A8
:100E2000656661756C742067636F646520706C61C2
:100E30006E6525313064205B303D4731372C313DC4
:100E40004731382C323D4731395D0A002563207720
:100E50006F726B206F66667365743A2531322E337C
:100E60006625730A002563206D616368696E6520DD
:100E7000706F736E3A2531312E336625730A002563
:100E80006320706F736974696F6E3A2531352E3344
:100E90006625730A00546F6F6C206E756D62657203
:100EA0002020202020202020202025640A004665C4
:100EB00065642072617465206D6F64653A2020203E
:100EC00020202025730A0044697374616E636520D5
:100ED0006D6F64653A2020202020202025730A00B1
:100EE00050617468204D6F64653A202020202020D6
:100EF000202020202025730A00506C616E653A2066
:100F00002020202020202020202020202020257389
:100F10000A004D6F74696F6E206D6F64653A202012
:100F20002020202020202025730A00436F6F726448
:100F3000696E6174652073797374656D3A20202041
:100F400025730A00556E6974733A202020202020F2
:100F500020202020202020202025730A00486F6DAB
:100F6000696E672073746174653A20202020202008
:100F7000202025730A0046656564686F6C642073E1
:100F8000746174653A20202020202025730A004DCA
:100F90006F74696F6E2073746174653A202020202D
:100FA0002020202025730A004379636C6520737428
:100FB0006174653A20202020202020202025730AFB
:100FC00000526177206D616368696E65207374619A
:100FD00074653A20202025730A004D616368696EAC
:100FE000652073746174653A20202020202020251C
:100FF000730A004C696E65206E756D6265723A25E4
:1010000031302E30660A0046656564207261746571
:101010003A2531362E336625732F6D696E0A0056D8
:10102000656C6F636974793A2531372E33662573A1
:101030002F6D696E0A008D105C103C104739352009
:101040002D20756E6974732D7065722D7265766FC3
:101050006C7574696F6E206D6F646500473934205C
:101060002D20756E6974732D7065722D6D696E75A6
:101070007465206D6F64652028692E652E20666575
:10108000656472617465206D6F646529004739334A
:10109000202D20696E76657273652074696D6520F8
:1010A0006D6F646500C910A910473931202D206982
:1010B0006E6372656D656E74616C206469737461D2
:1010C0006E6365206D6F646500473930202D2061A7
:1010D00062736F6C7574652064697374616E6365A7
:1010E000206D6F6465001A110211EC104736342030
:1010F0002D20636F6E74696E756F7573206D6F64EC
:1011000065004736312E31202D20657861637420CB
:1011100073746F70206D6F646500473631202D2029
:1011200065786163742070617468206D6F64650018
:10113000541145113611473139202D20595A20704C
:101140006C616E6500473138202D20585A20706C34
:10115000616E6500473137202D20585920706C6131
:101160006E6500E011CE11B51194116D1147383044
:10117000202D2063616E63656C206D6F74696F6EE6
:10118000206D6F646520286E6F6E652061637469E1
:1011900076652900473320202D20636F756E7465B6
:1011A0007220636C6F636B77697365206172632073
:1011B0006665656400473220202D20636C6F636B89
:1011C00077697365206172632066656564004731E5
:1011D00020202D206C696E65617220666565640053
:1011E000473020202D206C696E6561722074726119
:1011F000766572736520287365656B2900A7128D6B
:1012000012731259123F1225120B12473539202D35
:1012100020636F6F7264696E617465207379737493
:10122000656D203600473538202D20636F6F72645E
:10123000696E6174652073797374656D203500473C
:101240003537202D20636F6F7264696E617465207D
:1012500073797374656D203400473536202D206313
:101260006F6F7264696E6174652073797374656DF4
:10127000203300473535202D20636F6F7264696E0F
:101280006174652073797374656D2032004735345D
:10129000202D20636F6F7264696E617465207379AD
:1012A0007374656D203100473533202D206D6163E7
:1012B00068696E6520636F6F7264696E6174652022
:1012C00073797374656D00DA12D412CD12486F6DA4
:1012D000696E6700486F6D6564004E6F7420486FDB
:1012E0006D6564000E1309130413FE12F912F01257
:1012F000456E6420486F6C6400486F6C6400446500
:1013000063656C00506C616E0053796E63004F66CC
:10131000660021131D131813486F6C640052756E1C
:101320000053746F70004B1341133B13341330138D
:101330004A6F6700486F6D696E670050726F626533
:10134000004D616368696E696E67004F6666008173
:10135000137B13751370136C1366135D1353687549
:1013600074646F776E004379636C6500456E64004A
:1013700053746F7000416C61726D005265616479E5
:1013800000496E697469616C697A696E6700E4137B
:10139000DE13D813D313CF13CB13C613C013BA1352
:1013A000B313AF13A61353687574646F776E004A56
:1013B0006F6700486F6D696E67004379636C650005
:1013C00050726F626500486F6C640052756E004524
:1013D0006E640053746F7000416C61726D005265F1
:1013E00061647900496E697469616C697A696E67D4
:1013F000000B14F513473231202D206D696C6C6998
:101400006D65746572206D6F646500473230202D04
:1014100020696E63686573206D6F64650045143ADA
:10142000142E1425145B7261646975735D005B6929
:101430006E686962697465645D005B7374616E6493
:101440006172645D005B64697361626C65645D0018
:101450005F145B1456142064656700206D6D0020D6
:10146000696E002A2A2A204E4F54494345202A2AD1
:101470002A20526573657474696E672062617564B1
:10148000207261746520746F202573005B6E657433
:101490005D206E6574776F726B206D6F64652531AA
:1014A0003764205B303D6D61737465725D0A005B6B
:1014B000626175645D2055534220626175642072DB
:1014C00061746525313564205B313D393630302C0F
:1014D000323D31393230302C333D33383430302CDA
:1014E000343D35373630302C353D313135323030C2
:1014F0002C363D3233303430305D0A005B65785D28
:101500002020656E61626C6520666C6F7720636F6A
:101510006E74726F6C25313064205B303D6F66668F
:101520002C313D584F4E2F584F46462C20323D52BD
:1015300054532F4354535D0A005B65655D2020655D
:101540006E61626C65206563686F25313864205B6D
:10155000303D6F66662C313D6F6E5D0A005B6563E2
:101560005D2020657870616E64204C4620746F2089
:1015700043524C46206F6E205458253664205B3011
:101580003D6F66662C313D6F6E5D0A00BF15BA1562
:10159000B415AE15A815A1159A1532333034303074
:1015A00000313135323030003537363030003338A5
:1015B000343030003139323030003936303000309C
:1015C0000073797300006662000000000007027675
:1015D0007D2D635B63B9351F05DD437379730000AF
:1015E0006676000000000007037A7D2D635B63BD13
:1015F00035EC51783F73797300006870000000008B
:101600000007007E7D2D632464C1350000803F7398
:1016100079730000687600000000000700827D2DCD
:1016200063567DC53500000041737973000069641D
:1016300000000000000400867DFE7C5B63B5350081
:1016400000000000000000006E000000000000012B
:10165000005760675DDE63352C000000000000006D
:1016600000006C696E65000000010057607E5DDE61
:1016700063352C00000000000000000076656C005F
:101680000000000002BD5F955D5B63B535000000A2
:10169000000000000000666565640000000002DCD8
:1016A0005FC85D5B63B5350000000000000000000E
:1016B0007374617400000000005B60D85C5B63B50C
:1016C000350000000000000000006D616373000041
:1016D0000000005F60E55C5B63B535000000000062
:1016E000000000006379637300000000006360EB9A
:1016F0005C5B63B5350000000000000000006D6F0A
:10170000747300000000006760F15C5B63B5350036
:101710000000000000000000686F6C640000000022
:10172000006B60F75C5B63B53500000000000000F3
:101730000000756E697400000000007360035D5B5B
:1017400063B535000000000000000000636F6F7299
:10175000000000000077600E5D5B63B5350000009F
:101760000000000000006D6F6D6F00000000007B46
:1017700060195D5B63B535000000000000000000EB
:10178000706C616E00000000007F60225D5B63B5DD
:101790003500000000000000000070617468000067
:1017A00000000083602D5D5B63B535000000000024
:1017B0000000000064697374000000000087603856
:1017C0005D5B63B53500000000000000000066723C
:1017D0006D6F00000000008B60435D5B63B53500FA
:1017E0000000000000000000746F6F6C000000003B
:1017F000008F604E5D5B63B535000000006D706F5B
:1018000000006D706F7800000000037A611E5E5B5F
:1018100063B535000000006D706F00006D706F796A
:1018200000000000037A611E5E5B63B535000000B6
:10183000006D706F00006D706F7A00000000037A19
:10184000611E5E5B63B535000000006D706F0000C7
:101850006D706F6100000000037A611E5E5B63B50E
:1018600035000000006D706F00006D706F62000049
:101870000000037A611E5E5B63B535000000006DF9
:10188000706F00006D706F6300000000037A611ECE
:101890005E5B63B53500000000706F730000706F11
:1018A000737800000000036E61F95D5B63B535007D
:1018B000000000706F730000706F7379000000000B
:1018C000036E61F95D5B63B53500000000706F73F6
:1018D0000000706F737A00000000036E61F95D5BB9
:1018E00063B53500000000706F730000706F7361A6
:1018F00000000000036E61F95D5B63B53500000018
:1019000000706F730000706F736200000000036E60
:1019100061F95D5B63B53500000000706F73000016
:10192000706F736300000000036E61F95D5B63B567
:1019300035000000006F667300006F66737800006A
:101940000000038561525E5B63B535000000006FE7
:10195000667300006F6673790000000003856152B2
:101960005E5B63B535000000006F667300006F6654
:10197000737A00000000038561525E5B63B5350039
:101980000000006F667300006F6673610000000066
:10199000038561525E5B63B535000000006F6673BE
:1019A00000006F66736200000000038561525E5B99
:1019B00063B535000000006F667300006F667363E7
:1019C00000000000038561525E5B63B535000000D6
:1019D00000686F6D0000686F6D6500000000006FAB
:1019E00060FD5C875FB53500000000686F6D00002A
:1019F000686F6D7800000000006E61CD625B630A65
:101A00002C00000000686F6D0000686F6D790000A9
:101A10000000006E61CD625B630B2C00000000686B
:101A20006F6D0000686F6D7A00000000006E61CD80
:101A3000625B630C2C00000000686F6D0000686F33
:101A40006D6100000000006E61CD625B630D2C00D3
:101A5000000000686F6D0000686F6D62000000009C
:101A6000006E61CD625B630E2C00000000686F6D3C
:101A70000000686F6D6300000000006E61CD625B66
:101A8000630F2C00000000707262000070726265CB
:101A900000000000002FC5CD625B63102C00000029
:101AA0000070726200007072627800000000032F04
:101AB000C52D635B63112C00000000707262000092
:101AC0007072627900000000032FC52D635B6315FF
:101AD0002C0000000070726200007072627A0000D8
:101AE0000000032FC52D635B63192C0000000070FC
:101AF000726200007072626100000000032FC52D49
:101B0000635B631D2C000000007072620000707245
:101B1000626200000000032FC52D635B63212C006F
:101B200000000070726200007072626300000000CA
:101B3000032FC52D635B63252C000000006A6F67CF
:101B400000006A6F677800000000002FC5C962A11D
:101B50005F2F2C000000006A6F6700006A6F6779D2
:101B600000000000002FC5C962A85F2F2C000000F4
:101B7000006A6F6700006A6F677A00000000002F3C
:101B8000C5C962AF5F2F2C000000006A6F670000BC
:101B90006A6F676100000000002FC5C962B65F2F41
:101BA0002C00000000707772000070777231000026
:101BB00000000026BE53BD5B63B535000000007019
:101BC0007772000070777232000000000026BE536A
:101BD000BD5B63B535000000007077720000707760
:101BE0007233000000000026BE53BD5B63B53500B4
:101BF00000000070777200007077723400000000FF
:101C00000026BE53BD5B63B5350000000000000038
:101C100000007372000000000000009DAF63AF651C
:101C2000AFB5350000000000000000007172000038
:101C300000000000003FB1F2B05B63B5350000006A
:101C40000000000000007169000000000000004377
:101C5000B107B15B63B53500000000000000000073
:101C6000716F0000000000000047B123B15B63B555
:101C70003500000000000000000065720000000058
:101C80000000002FC560AC5B63B5350000000000AC
:101C9000000000007166000000000000002FC5C9B0
:101CA00062825FB53500000000000000000072781D
:101CB0000000000000000064C5D7675B63B5350015
:101CC00000000000000000006D73670000000000CD
:101CD0000030C5C9625B63B535000000000000003C
:101CE0000000636C656172000000002FC5C154C123
:101CF00054B53500000000000000000074657374E6
:101D000000000000002FC5007EC5C0B535000000F2
:101D10000000000000006465666100000000002F04
:101D2000C52B7E7362B53500000000000000000086
:101D3000626F6F7400000000002FC5567E517DB5A4
:101D40003500000000000000000068656C700000B5
:101D50000000002FC5C17D5B63B5350000000000A9
:101D6000000000006800000000000000002FC5C156
:101D70007D5B63B535000000003100000000316D6F
:101D80006100000000030002BECD625D63025600E8
:101D9000000000310000000031736100000000030A
:101DA0000306BE2D63A9BC0A566666E63F310000F5
:101DB0000000317472000000000B040BBE2D63B5EF
:101DC000BC0E56000020423100000000316D690059
:101DD00000000003001ABECD62C1BC035600000023
:101DE00041310000000031706F0000000003001E50
:101DF000BECD627E6304560000803F3100000000CB
:101E000031706D00000000030022BECD623FBD05B1
:101E100056000000403200000000326D61000000FA
:101E200000030002BECD625D631E560000803F329B
:101E30000000000032736100000000030306BE2DA5
:101E400063A9BC26566666E63F3200000000327485
:101E500072000000000B040BBE2D63B5BC2A5600B7
:101E60000020423200000000326D690000000003D3
:101E7000001ABECD62C1BC1F5600000041320000F6
:101E8000000032706F0000000003001EBECD627EB5
:101E90006320560000803F320000000032706D0069
:101EA000000000030022BECD623FBD2156000000AD
:101EB000403300000000336D6100000000030002A9
:101EC000BECD625D633A560000803F3300000000E3
:101ED00033736100000000030306BE2D63A9BC42FA
:101EE000566666E63F33000000003374720000005F
:101EF000000B040BBE2D63B5BC46560000204233D8
:101F000000000000336D690000000003001ABECD20
:101F100062C1BC3B5600000041330000000033703A
:101F20006F0000000003001EBECD627E633C5600C1
:101F3000000000330000000033706D00000000035B
:101F40000022BECD623FBD3D56000000403400007F
:101F50000000346D6100000000030002BECD625D30
:101F600063565600000040340000000034736100E6
:101F7000000000030306BE2D63A9BC5E566666E63C
:101F80003F3400000000347472000000000B040BAA
:101F9000BE2D63B5BC625660760740340000000079
:101FA000346D690000000003001ABECD62C1BC5749
:101FB0005600000041340000000034706F00000043
:101FC0000003001EBECD627E6358560000803F3481
:101FD0000000000034706D00000000030022BECD40
:101FE000623FBD5956000000407800000000786153
:101FF0006D000000000300E9607D5E905EC62A006F
:1020000000803F780000000078766D000000000B33
:102010000032612D63EC67C72A00007A4678000021
:102020000000786672000000000B002E612D63EC4A
:1020300067CB2A00007A46780000000078746E00B2
:102040000000000B033A612D63EC67D32A00000007
:1020500000780000000078746D000000000B03366B
:10206000612D63EC67CF2A00005C4378000000001C
:10207000786A6D000000000B003E612D63FE5ED7A4
:102080002A00409C457800000000786A6800000043
:10209000000B0042612D63565FDB2A00401C46782E
:1020A00000000000786A64000000000B0446612D07
:1020B00063EC67E32A0AD7233C78000000007873BA
:1020C0006E0000000003004E61CD62A7C0EA290047
:1020D00000803F7800000000787378000000000363
:1020E000005261CD62A7C0EB29000000007800001B
:1020F0000000787376000000000B0056612D63EC41
:1021000067EB2A00803B457800000000786C760081
:102110000000000B005A612D63EC67EF2A0000C835
:10212000427800000000786C62000000000B035E43
:10213000612D63EC67F32A0000A0417800000000E5
:10214000787A62000000000B0362612D63EC67F790
:102150002A00004040790000000079616D00000015
:10216000000300E9607D5E905EFB2A0000803F79FD
:102170000000000079766D000000000B0032612D38
:1021800063EC67FC2A00007A46790000000079665B
:1021900072000000000B002E612D63EC67002B0025
:1021A000007A46790000000079746E000000000B90
:1021B000033A612D63EC67082B00000000790000F2
:1021C000000079746D000000000B0336612D63EC94
:1021D00067042B00005C437900000000796A6D0001
:1021E0000000000B003E612D63FE5E0C2B00409C46
:1021F000457900000000796A68000000000B004289
:10220000612D63565F102B00401C467900000000D2
:10221000796A64000000000B0446612D63EC6718C6
:102220002B0AD7233C790000000079736E00000070
:102230000003004E61CD62A7C0EC290000803F7909
:10224000000000007973780000000003005261CDA7
:1022500062A7C0ED2900000000790000000079733A
:1022600076000000000B0056612D63EC67202B0008
:10227000803B457900000000796C76000000000B7F
:10228000005A612D63EC67242B0000C842790000DE
:102290000000796C62000000000B035E612D63ECAE
:1022A00067282B0000A0417900000000797A6200C5
:1022B0000000000B0362612D63EC672C2B000040D3
:1022C000407A000000007A616D000000000300E920
:1022D000607D5E905E302B0000803F7A0000000041
:1022E0007A766D000000000B0032612D63EC6731DF
:1022F0002B000048447A000000007A66720000005B
:10230000000B002E612D63EC67352B000048447AEA
:10231000000000007A746E000000000B033A612D8B
:1023200063EC673D2B000000007A000000007A7427
:102330006D000000000B0336612D63EC67392B0044
:1023400000C8427A000000007A6A6D000000000BAD
:10235000003E612D63FE5E412B000048427A000082
:1023600000007A6A68000000000B0042612D63568D
:102370005F452B00007A447A000000007A6A64000E
:102380000000000B0446612D63EC674D2B0AD72338
:102390003C7A000000007A736E0000000003004EDB
:1023A00061CD62A7C0EE29000000007A00000000A5
:1023B0007A73780000000003005261CD62A7C0EF7D
:1023C000290000803F7A000000007A737600000048
:1023D000000B0056612D63EC67552B000048447AD2
:1023E000000000007A6C76000000000B005A612D9E
:1023F00063EC67592B0000C8427A000000007A6C39
:1024000062000000000B035E612D63EC675D2B0032
:1024100000A0417A000000007A7A62000000000B00
:102420000362612D63EC67612B00002041610000B5
:10243000000061616D000000000300E9607D5E90B6
:102440005E652B0000803F610000000061766D003A
:10245000000000030032612D632464662B00606A73
:102460004761000000006166720000000003002E5A
:10247000612D6324646A2B00803B476100000000EB
:1024800061746E0000000003033A612D63EC677213
:102490002B0000C843610000000061746D00000063
:1024A00000030336612D6324646E2B000080BF613E
:1024B00000000000616A6D0000000003003E612D15
:1024C00063FE5E762B0080BB466100000000616AFF
:1024D0006800000000030042612D63565F7A2B0004
:1024E00080BB466100000000616A640000000003D8
:1024F0000446612D632464822BCDCCCC3D61000069
:102500000000617261000000000B034A612D63242A
:1025100064862B0000803F610000000061736E0044
:1025200000000003004E61CD62A7C0F029000080CA
:102530003F6100000000617378000000000300525A
:1025400061CD62A7C0F12900000000610000000019
:1025500061737600000000030056612D6324648AD5
:102560002B0080BB456100000000616C760000001C
:102570000003005A612D6324648E2B00007A4461AD
:1025800000000000616C620000000003035E612D2A
:10259000632464922B0000A0406100000000617A77
:1025A0006200000000030362612D632464962B0027
:1025B000000040620000000062616D000000000346
:1025C00000E9607D5E905E9A2B00000000620000D2
:1025D000000062766D00000000030032612D63246C
:1025E000649B2B000061456200000000626672007F
:1025F00000000003002E612D6324649F2B00006106
:1026000045620000000062746E0000000003033A9F
:10261000612D63EC67A72B000080BF620000000003
:1026200062746D00000000030336612D632464A30F
:102630002B000080BF6200000000626A6D00000095
:102640000003003E612D63FE5EAB2B0000A04162E3
:1026500000000000626A6400000000030046612D73
:10266000632464B72B0AD7233C6200000000627227
:1026700061000000000B034A612D632464BB2B0042
:1026800000803F630000000063616D0000000003F4
:1026900000E9607D5E905ECF2B00000000630000CB
:1026A000000063766D00000000030032612D63249A
:1026B00064D02B0000614563000000006366720077
:1026C00000000003002E612D632464D42B00006100
:1026D00045630000000063746E0000000003033ACD
:1026E000612D63EC67DC2B000080BF6300000000FD
:1026F00063746D00000000030336612D632464D809
:102700002B000080BF6300000000636A6D000000C2
:102710000003003E612D63FE5EE02B0000A04163DC
:1027200000000000636A6400000000030046612DA1
:10273000632464EC2B0AD7233C630000000063721F
:1027400061000000000B034A612D632464F02B003C
:1027500000803F703100000070316672710000032C
:102760000089AB2D632464A2540000C8427031007C
:102770000000703163736C000003008DAB2D632487
:1027800064A65400007A4470310000007031637315
:10279000680000030091AB2D632464AA540000FA82
:1027A000447031000000703163706C0000030395C9
:1027B000AB2D632464AE540000003E703100000075
:1027C00070316370680000030399AB2D632464B219
:1027D00054CDCC4C3E7031000000703177736C00EA
:1027E0000003009DAB2D632464B65400007A44704E
:1027F00031000000703177736800000300A1AB2D39
:10280000632464BA540000FA44703100000070314F
:1028100077706C00000303A5AB2D632464BE5400E5
:1028200000003E70310000007031777068000003D6
:1028300003A9AB2D632464C254CDCC4C3E7031004F
:1028400000007031706F6600000303ADAB2D632490
:1028500064C654CDCCCC3D67353400006735347840
:102860000000000B0366612D63EC67362A00000050
:10287000006735340000673534790000000B0366CB
:10288000612D63EC673A2A000000006735340000D0
:102890006735347A0000000B0366612D63EC673EF8
:1028A0002A000000006735340000673534610000FD
:1028B000000B0366612D63EC67422A00000000678D
:1028C00035340000673534620000000B0366612D6B
:1028D00063EC67462A000000006735340000673566
:1028E00034630000000B0366612D63EC674A2A0025
:1028F0000000006735350000673535780000000BB3
:102900000366612D63EC674E2A0000DC42673535B3
:102910000000673535790000000B0366612D63EC1C
:1029200067522A0000DC4267353500006735357A8A
:102930000000000B0366612D63EC67562A0000005F
:10294000006735350000673535610000000B036610
:10295000612D63EC675A2A000000006735350000DE
:10296000673535620000000B0366612D63EC675E1E
:102970002A00000000673535000067353563000028
:10298000000B0366612D63EC67622A00000000679C
:1029900035360000673536780000000B0366612D80
:1029A00063EC67662A000000006735360000673573
:1029B00036790000000B0366612D63EC676A2A001C
:1029C00000000067353600006735367A0000000BDE
:1029D0000366612D63EC676E2A00000000673536E0
:1029E0000000673536610000000B0366612D63EC63
:1029F00067722A00000000673536000067353662CE
:102A00000000000B0366612D63EC67762A0000006E
:102A1000006735360000673536630000000B03663B
:102A2000612D63EC677A2A000000006735370000EB
:102A3000673537780000000B0366612D63EC677E15
:102A40002A0000000067353700006735377900003D
:102A5000000B0366612D63EC67822A0000000067AB
:102A6000353700006735377A0000000B0366612DAB
:102A700063EC67862A000000006735370000673581
:102A800037610000000B0366612D63EC678A2A0042
:102A90000000006735370000673537620000000B23
:102AA0000366612D63EC678E2A00000000673537EE
:102AB0000000673537630000000B0366612D63EC8F
:102AC00067922A00000000673538000067353878C3
:102AD0000000000B0366612D63EC67962A0000007E
:102AE000006735380000673538790000000B036651
:102AF000612D63EC679A2A000000006735380000FA
:102B00006735387A0000000B0366612D63EC679E21
:102B10002A00000000673538000067353861000082
:102B2000000B0366612D63EC67A22A0000000067BA
:102B300035380000673538620000000B0366612DF0
:102B400063EC67A62A00000000673538000067358F
:102B500038630000000B0366612D63EC67AA2A004E
:102B60000000006735390000673539780000000B38
:102B70000366612D63EC67AE2A00000000673539FB
:102B80000000673539790000000B0366612D63ECA6
:102B900067B22A0000000067353900006735397ACE
:102BA0000000000B0366612D63EC67B62A0000008D
:102BB000006735390000673539610000000B036696
:102BC000612D63EC67BA2A00000000673539000008
:102BD000673539620000000B0366612D63EC67BE48
:102BE0002A000000006735390000673539630000AE
:102BF000000B0366612D63EC67C22A0000000067CA
:102C00003932000067393278000000010366612D17
:102C1000635B63A72C00000000673932000067394E
:102C20003279000000010366612D635B63AB2C0009
:102C300000000067393200006739327A0000000175
:102C40000366612D635B63AF2C00000000673932BF
:102C5000000067393261000000010366612D635B8B
:102C600063B32C000000006739320000673932621C
:102C7000000000010366612D635B63B72C00000058
:102C800000673932000067393263000000010366D3
:102C9000612D635B63BB2C000000006732380000CD
:102CA0006732387800000001036A612D635B63BFFF
:102CB0002C000000006732380000673238790000CD
:102CC0000001036A612D635B63C32C000000006791
:102CD000323800006732387A00000001036A612D43
:102CE000635B63C72C000000006732380000673266
:102CF000386100000001036A612D635B63CB2C0027
:102D000000000067323800006732386200000001BE
:102D1000036A612D635B63CF2C00000000673238CB
:102D200000006732386300000001036A612D635BB5
:102D300063D32C0000000067333000006733307825
:102D400000000001036A612D635B63D72C00000063
:102D50000067333000006733307900000001036AF8
:102D6000612D635B63DB2C000000006733300000E3
:102D70006733307A00000001036A612D635B63DF13
:102D80002C00000000673330000067333061000022
:102D90000001036A612D635B63E32C0000000067A0
:102DA000333000006733306200000001036A612D98
:102DB000635B63E72C00000000673330000067337B
:102DC000306300000001036A612D635B63EB2C003C
:102DD0000000006A696400006A6964610000000024
:102DE000002FC50B630264DD35000000006A6964D2
:102DF00000006A69646200000000002FC50B6302D6
:102E000064E135000000006A696400006A69646377
:102E100000000000002FC50B630264E535000000D0
:102E2000006A696400006A69646400000000002FA1
:102E3000C50B630264E9350000000073797300007C
:102E40006A6100000000000F00A7602D63EC6704BA
:102E50002A0024F4497379730000637400000000B1
:102E6000000F04C6602D63EC67082A0AD7233C7361
:102E700079730000736C00000000000700E560CD6E
:102E8000625D630C2A0000000073797300007374A4
:102E900000000000000700C1C0CD62A1C0DF290012
:102EA00000803F73797300006D740000000000071C
:102EB00002FEBD2D636DBDFE550000004000000008
:102EC00000006D650000000000000030C5CFBDCFE0
:102ED000BDB5350000000000000000006D6400007A
:102EE000000000000030C5A7BDA7BDB5350000003B
:102EF000007379730000656A00000000000700435A
:102F000084CD627E636A350000803F737973000070
:102F10006A76000000000007004784CD62D48384F5
:102F2000390000A04073797300006A73000000004C
:102F30000007004B84CD627E6385390000803F73BB
:102F40007973000074760000000000070025C6CDEC
:102F5000627E6365570000803F737973000071766D
:102F6000000000000007004BB1CD62BE63FB5400BF
:102F70000000007379730000737600000000000702
:102F800000A3AFCD629E6308550000803F73797344
:102F900000007369000000000007009FAFEC62674B
:102FA000AF09550000FA43737973000065630000B0
:102FB00000000007003368CD62EF686B3500000049
:102FC000007379730000656500000000000700379A
:102FD00068CD625F696C3500000000737973000092
:102FE0006578000000000007003B68CD6227696D2E
:102FF000350000803F7379730000626175640000E2
:103000000004003F68CD6289676E350000A0407300
:10301000797300006E65740000000007004368CDFE
:10302000625D63CC35000000007379730000677047
:103030006C0000000007009360CD629E631A2A00B6
:10304000000000737973000067756E0000000007D0
:10305000009760CD627E631B2A0000803F73797306
:10306000000067636F0000000007009B60CD625D99
:1030700063192A0000803F73797300006770610054
:1030800000000007009F60CD629E631C2A000000C4
:10309000407379730000676469000000000700A3B3
:1030A00060CD627E631D2A00000000000000000069
:1030B0006763000000000000002FC5087C187CB585
:1030C0003500000000000000000066640000000001
:1030D00000030048C5CD627E63863900000000759C
:1030E0006461000075646130000000030064C50B7A
:1030F000630264703500000000756461000075644F
:103100006131000000030064C50B63026474350084
:103110000000007564610000756461320000000306
:103120000064C50B630264783500000000756461BB
:10313000000075646133000000030064C50B630286
:10314000647C3500000000756462000075646230C4
:10315000000000030064C50B6302648035000000BA
:103160000075646200007564623100000003006451
:10317000C50B6302648435000000007564620000C2
:1031800075646232000000030064C50B630264884A
:103190003500000000756462000075646233000051
:1031A00000030064C50B6302648C350000000075E9
:1031B0006463000075646330000000030064C50BA5
:1031C000630264903500000000756463000075645C
:1031D0006331000000030064C50B63026494350092
:1031E0000000007564630000756463320000000332
:1031F0000064C50B630264983500000000756463C9
:10320000000075646333000000030064C50B6302B3
:10321000649C3500000000756464000075646430CF
:10322000000000030064C50B630264A035000000C9
:10323000007564640000756464310000000300647C
:10324000C50B630264A435000000007564640000CF
:1032500075646432000000030064C50B630264A857
:10326000350000000075646400007564643300007C
:1032700000030064C50B630264AC35000000005F0E
:10328000746500005F746578000000000281C52D40
:10329000635B636B52000000005F746500005F7445
:1032A0006579000000000281C52D635B636F5200E9
:1032B0000000005F746500005F74657A0000000024
:1032C0000281C52D635B637352000000005F74656B
:1032D00000005F746561000000000281C52D635B22
:1032E000637752000000005F746500005F746562E0
:1032F000000000000281C52D635B637B520000006B
:10330000005F746500005F74656300000000028167
:10331000C52D635B637F52000000005F7472000084
:103320005F747278000000000281C52D635B6390BA
:1033300053000000005F747200005F747279000037
:1033400000000281C52D635B639453000000005FA1
:10335000747200005F74727A000000000281C52D53
:10336000635B639853000000005F747200005F7439
:103370007261000000000281C52D635B639C5300F5
:103380000000005F747200005F7472620000000051
:103390000281C52D635B63A053000000005F74725F
:1033A00000005F747263000000000281C52D635B42
:1033B00063A453000000005F747300005F747331F6
:1033C000000000000281C52D635B63FB520000001A
:1033D000005F707300005F707331000000000281B5
:1033E000C52D635B630B53000000005F6373000037
:1033F0005F637331000000000281C52D635B631BB6
:1034000053000000005F657300005F6573310000CA
:1034100000000281C52D635B632B53000000005F39
:10342000787300005F787331000000000281C52DC1
:10343000635B638D56000000005F666500005F6699
:103440006531000000000281C52D635B633B5300C2
:103450000000005F747300005F74733200000000AE
:103460000281C52D635B63FF52000000005F707333
:1034700000005F707332000000000281C52D635BA5
:10348000630F53000000005F637300005F637332DB
:10349000000000000281C52D635B631F5300000024
:1034A000005F657300005F657332000000000281F9
:1034B000C52D635B632F53000000005F787300002D
:1034C0005F787332000000000281C52D635B63A545
:1034D00056000000005F666500005F666532000010
:1034E00000000281C52D635B633F53000000005F55
:1034F000747300005F747333000000000281C52DF7
:10350000635B630353000000005F707300005F7033
:103510007333000000000281C52D635B6313530009
:103520000000005F637300005F63733300000000FE
:103530000281C52D635B632353000000005F657348
:1035400000005F657333000000000281C52D635BDE
:10355000633353000000005F787300005F787333BB
:10356000000000000281C52D635B63BD56000000B2
:10357000005F666500005F66653300000000028141
:10358000C52D635B634353000000005F747300004C
:103590005F747334000000000281C52D635B630714
:1035A00053000000005F707300005F707334000010
:1035B00000000281C52D635B631753000000005FAC
:1035C000637300005F637334000000000281C52D47
:1035D000635B632753000000005F657300005F6555
:1035E0007334000000000281C52D635B6337530014
:1035F0000000005F787300005F7873340000000003
:103600000281C52D635B63D556000000005F6665CF
:1036100000005F666534000000000281C52D635B19
:103620006347530000000000000000005F64616D0C
:1036300000000000002FC5FB5FFB5FB535000000F8
:103640000000000000007365303000000002002F11
:10365000C5EC62DE631455000000000000000000AD
:103660007365303100000002002FC5EC62DE631686
:1036700055000000000000000000736530320000BB
:103680000002002FC5EC62DE631855000000000048
:10369000000000007365303300000002002FC5EC0D
:1036A00062DE631A55000000000000000000736530
:1036B000303400000002002FC5EC62DE631C5500B0
:1036C00000000000000000007365303500000002BB
:1036D000002FC5EC62DE631E5500000000000000F4
:1036E00000007365303600000002002FC5EC62DE7A
:1036F00063205500000000000000000073653037B3
:1037000000000002002FC5EC62DE632255000000BD
:103710000000000000007365303800000002002F38
:10372000C5EC62DE632455000000000000000000CC
:103730007365303900000002002FC5EC62DE63269D
:1037400055000000000000000000736531300000EB
:103750000002002FC5EC62DE632855000000000067
:10376000000000007365313100000002002FC5EC3D
:1037700062DE632A5500000000000000000073654F
:10378000313200000002002FC5EC62DE632C5500D0
:1037900000000000000000007365313300000002EB
:1037A000002FC5EC62DE632E550000000000000013
:1037B00000007365313400000002002FC5EC62DEAA
:1037C00063305500000000000000000073653135D3
:1037D00000000002002FC5EC62DE633255000000DD
:1037E0000000000000007365313600000002002F69
:1037F000C5EC62DE633455000000000000000000EC
:103800007365313700000002002FC5EC62DE6336BD
:103810005500000000000000000073653138000012
:103820000002002FC5EC62DE633855000000000086
:10383000000000007365313900000002002FC5EC64
:1038400062DE633A5500000000000000000073656E
:10385000323000000002002FC5EC62DE633C5500F0
:10386000000000000000000073653231000000021B
:10387000002FC5EC62DE633E550000000000000032
:1038800000007365323200000002002FC5EC62DEDA
:1038900063405500000000000000000073653233F3
:1038A00000000002002FC5EC62DE634255000000FC
:1038B0000000000000007365323400000002002F99
:1038C000C5EC62DE6344550000000000000000000B
:1038D0007365323500000002002FC5EC62DE6346DE
:1038E0005500000000000000000073653236000043
:1038F0000002002FC5EC62DE6348550000000000A6
:10390000000000007365323700000002002FC5EC94
:1039100062DE634A5500000000000000000073658D
:10392000323800000002002FC5EC62DE634C550007
:103930000000000000000000736532390000000242
:10394000002FC5EC62DE634E550000000000000051
:1039500000007365333000000002002FC5EC62DE0A
:103960006350550000000000000000007365333113
:1039700000000002002FC5EC62DE6352550000001B
:103980000000000000007365333200000002002FC9
:10399000C5EC62DE6354550000000000000000002A
:1039A0007365333300000002002FC5EC62DE6356FE
:1039B0005500000000000000000073653334000073
:1039C0000002002FC5EC62DE6358550000000000C5
:1039D000000000007365333500000002002FC5ECC5
:1039E00062DE635A550000000000000000007365AD
:1039F000333600000002002FC5EC62DE635C550028
:103A00000000000000000000736533370000000272
:103A1000002FC5EC62DE635E550000000000000070
:103A200000007365333800000002002FC5EC62DE31
:103A3000636055000000000000000000736533392A
:103A400000000002002FC5EC62DE6362550000003A
:103A50000000000000007379730000000000002FD8
:103A6000C5CC655264B535000000000000000000C0
:103A70007031000000000000002FC5CC655264B515
:103A800035000000000000000000310000000000D0
:103A90000000002FC5CC655264B535000000000061
:103AA000000000003200000000000000002FC5CC24
:103AB000655264B5350000000000000000003300CE
:103AC000000000000000002FC5CC655264B5350031
:103AD00000000000000000003400000000000000B2
:103AE000002FC5CC655264B5350000000000000011
:103AF00000007800000000000000002FC5CC6552D7
:103B000064B53500000000000000000079000000EE
:103B100000000000002FC5CC655264B535000000E0
:103B20000000000000007A00000000000000002FEC
:103B3000C5CC655264B535000000000000000000EF
:103B40006100000000000000002FC5CC655264B584
:103B500035000000000000000000620000000000CE
:103B60000000002FC5CC655264B535000000000090
:103B7000000000006300000000000000002FC5CC22
:103B8000655264B535000000000000000000673594
:103B9000340000000000002FC5CC655264B535002C
:103BA0000000000000000000673535000000000044
:103BB000002FC5CC655264B5350000000000000040
:103BC00000006735360000000000002FC5CC6552AC
:103BD00064B53500000000000000000067353700C4
:103BE00000000000002FC5CC655264B53500000010
:103BF0000000000000006735380000000000002FC2
:103C0000C5CC655264B5350000000000000000001E
:103C10006735390000000000002FC5CC655264B53F
:103C2000350000000000000000006739320000008D
:103C30000000002FC5CC655264B5350000000000BF
:103C4000000000006732380000000000002FC5CCE3
:103C5000655264B5350000000000000000006733C5
:103C6000300000000000002FC5CC655264B535005F
:103C700000000000000000006D706F0000000000F8
:103C8000002FC5CC655264B535000000000000006F
:103C90000000706F730000000000002FC5CC65525B
:103CA00064B5350000000000000000006F6673007E
:103CB00000000000002FC5CC655264B5350000003F
:103CC000000000000000686F6D0000000000002F81
:103CD000C5CC655264B5350000000000000000004E
:103CE0007072620000000000002FC5CC655264B500
:103CF0003500000000000000000070777200000036
:103D00000000002FC5CC655264B5350000000000EE
:103D1000000000006A6F670000000000002FC5CCA3
:103D2000655264B5350000000000000000006A69BB
:103D3000640000000000002FC5CC655264B535005A
:103D40000000000000000000756461000000000039
:103D5000002FC5CC655264B535000000000000009E
:103D600000007564620000000000002FC5CC6552A1
:103D700064B53500000000000000000075646300B9
:103D800000000000002FC5CC655264B5350000006E
:103D90000000000000007564640000000000002FB7
:103DA000C5CC655264B5350000000000000000007D
:103DB0005F74650000000000002FC5CC655264B53B
:103DC000350000000000000000005F747200000079
:103DD0000000002FC5CC655264B53500000000001E
:103DE000000000005F74730000000000002FC5CCCD
:103DF000655264B5350000000000000000005F70EF
:103E0000730000000000002FC5CC655264B535007A
:103E100000000000000000005F637300000000006D
:103E2000002FC5CC655264B53500000000000000CD
:103E300000005F65730000000000002FC5CC6552D4
:103E400064B5350000000000000000005F787300DA
:103E500000000000002FC5CC655264B5350000009D
:103E60000000000000005F66650000000000002FF9
:103E7000C5CC655264B535000000000000000000AC
:103E80006D00000000000000002FC5AA685B63B54C
:103E9000350000000000000000007100000000007C
:103EA0000000002FC590685B63B53500000000007E
:103EB000000000006F00000000000000002FC5742B
:103EC000685B63B5350000000000000000002400BE
:103ED000000000000000002FC5C4685B63B535001A
:103EE000000000456E64206F6620636F6D6D616E2B
:103EF000642066696C650A00486F6D696E672065AD
:103F000072726F72202D202563206178697320738F
:103F1000657474696E6773206D6973636F6E66692B
:103F200067757265640050726F62696E67206572B2
:103F3000726F72202D202563206178697320636180
:103F40006E6E6F74206D6F766520647572696E6732
:103F50002070726F62696E67005B69645D20205437
:103F6000696E7947204944253330730A005B6876CF
:103F70005D20206861726477617265207665727376
:103F8000696F6E2531362E32660A005B68705D20DF
:103F900020686172647761726520706C6174666F0D
:103FA000726D2531352E32660A005B66765D202003
:103FB0006669726D776172652076657273696F6E7E
:103FC0002531362E32660A005B66625D2020666906
:103FD000726D77617265206275696C642531382E67
:103FE00032660A00456E7465722024626F6F743DFC
:103FF0003120746F20656E7465722074686520626C
:104000006F6F74206C6F616465722E0A000A0A0A71
:104010002323232054696E794720424F4F54204C6C
:104020004F414445522048656C70202323230A00E9
:10403000456E7465722024646566613D3120746F3D
:104040002072657365742074686520737973746574
:104050006D20746F2074686520666163746F727977
:104060002064656661756C742076616C7565732E6D
:104070000A546869732077696C6C206F7665727773
:104080007269746520616E79206368616E6765731B
:1040900020796F752068617665206D6164652E0AF0
:1040A000000A0A0A2323232054696E7947205245C7
:1040B00053544F52452044454641554C5453204893
:1040C000656C70202323230A00496E766F6B652090
:1040D00073656C66207465737420627920656E74F4
:1040E0006572696E672024746573743D4E2077682D
:1040F000657265204E206973206F6E65206F663A89
:104100000A202024746573743D312020736D6F6B19
:104110006520746573740A202024746573743D32BD
:104120002020686F6D696E6720746573742020208D
:1041300028796F75206D75737420747269702068AA
:104140006F6D696E67207377697463686573290A98
:10415000202024746573743D33202073717561725F
:10416000652074657374202020286120736572694E
:104170006573206F662073717561726573290A20FB
:104180002024746573743D3420206172632074654B
:10419000737420202020202028736F6D65206C61AF
:1041A00072676520636972636C6573290A20202435
:1041B000746573743D3520206477656C6C2074657C
:1041C000737420202020286D6F76657320737061D2
:1041D0006365642062792031207365636F6E6420AB
:1041E0006477656C6C73290A202024746573743DB0
:1041F00036202066656564686F6C6420746573742E
:104200002028656E746572202120616E64207E20F6
:10421000746F20686F6C6420616E642072657374C3
:104220006172742C20726573706563746976656C55
:1042300079290A202024746573743D3720204D208D
:10424000636F64657320746573742020284D206348
:104250006F64657320696E7465726D696E676C65F5
:10426000642077697468206D6F766573290A202051
:1042700024746573743D3820204A534F4E20746572
:1042800073742020202020286D6F74696F6E207455
:104290006573742072756E207573696E67204A535A
:1042A0004F4E20636F6D6D616E6473290A20202468
:1042B000746573743D392020696E7665727365206C
:1042C00074696D6520746573740A202024746573A5
:1042D000743D313020726F74617279206D6F746932
:1042E0006F6E20746573740A202024746573743DA6
:1042F000313120736D616C6C206D6F766573207445
:104300006573740A202024746573743D3132207300
:104310006C6F77206D6F76657320746573740A20F7
:104320002024746573743D313320636F6F72646948
:104330006E6174652073797374656D206F66667342
:104340006574207465737420284739322C204735F2
:10435000342D473539290A0A546573747320617303
:1043600073756D6520612063656E74657265642088
:104370005859206F726967696E20616E642061749C
:10438000206C656173742038306D6D20636C6561DD
:1043900072616E636520696E20616C6C2064697265
:1043A000656374696F6E730A546573747320617307
:1043B00073756D65205A20686173206174206C6587
:1043C0006173742034306D6D20706F736969746926
:1043D000766520636C656172616E63650A5465730E
:1043E000747320737461727420776974682061201B
:1043F0004730205830205930205A30206D6F766574
:104400000A486F6D696E672069732074686520655E
:104410007863657074696F6E2E204E6F20696E69C7
:104420007469616C20706F736974696F6E206F724C
:1044300020636C656172616E6365206973206173CE
:1044400073756D65640A000A0A0A232323205469E0
:104450006E79472053454C462054455354204865B7
:104460006C70202323230A004561636820242063A5
:104470006F6D6D616E642061626F766520616C7333
:104480006F20646973706C6179732074686520743F
:104490006F6B656E20666F7220656163682073655F
:1044A0007474696E6720696E205B205D20627261A2
:1044B000636B6574730A546F207669657720736542
:1044C0007474696E677320656E7465722061207400
:1044D0006F6B656E3A0A0A2020243C746F6B656E20
:1044E0003E0A0A466F72206578616D706C65202403
:1044F00079667220746F20646973706C61792074BE
:1045000068652059206D6178206665656420726158
:1045100074650A0A546F2075706461746520736550
:104520007474696E677320656E74657220746F6B46
:10453000656E20657175616C732076616C75653A86
:104540000A0A2020243C746F6B656E3E3D3C766108
:104550006C75653E0A0A466F72206578616D706CF5
:104560006520247966723D38303020746F20736581
:1045700074207468652059206D61782066656564D3
:10458000207261746520746F20383030206D6D2F7B
:104590006D696E7574650A466F7220636F6E666929
:1045A0006775726174696F6E2064657461696C739C
:1045B000207365653A2068747470733A2F2F6769A9
:1045C000746875622E636F6D2F73796E746865748D
:1045D0006F732F54696E79472F77696B692F546910
:1045E0006E79472D436F6E66696775726174696F86
:1045F0006E0A00546865736520636F6D6D616E644B
:1046000073206172652061637469766520666F72DC
:1046100020636F6E66696775726174696F6E3A0ABE
:104620002020247379732053686F77207379737413
:10463000656D202867656E6572616C2920736574ED
:1046400074696E67730A2020243120202053686F1C
:1046500077206D6F746F7220312073657474696E8A
:10466000677320286F7220776861746576657220A1
:104670006D6F746F7220796F752077616E74203161
:104680002C322C332C34290A20202478202020534B
:10469000686F772058206178697320736574746936
:1046A0006E677320286F7220776861746576657213
:1046B000206178697320796F752077616E74207836
:1046C0002C792C7A2C612C622C63290A2020246DF1
:1046D00020202053686F7720616C6C206D6F746FA1
:1046E000722073657474696E67730A2020247120C8
:1046F000202053686F7720616C6C2061786973208B
:1047000073657474696E67730A2020246F202020FB
:1047100053686F7720616C6C206F666673657420D8
:1047200073657474696E67730A2020242420202026
:1047300053686F7720616C6C2073657474696E6761
:10474000730A2020246820202053686F7720746823
:1047500069732068656C702073637265656E0A0A00
:10476000000A0A0A2323232054696E794720434F05
:104770004E46494755524154494F4E2048656C704A
:10478000202323230A000A466F722064657461693E
:104790006C65642054696E794720696E666F20737A
:1047A00065653A2068747470733A2F2F676974686E
:1047B00075622E636F6D2F73796E746865746F7395
:1047C0002F54696E79472F77696B692F0A466F728C
:1047D00020746865206C6174657374206669726DFD
:1047E00077617265207365653A2068747470733AF6
:1047F0002F2F6769746875622E636F6D2F73796EE2
:10480000746865746F732F54696E79470A506C65CC
:10481000617365206C6F6720616E792069737375B1
:10482000657320617420687474703A2F2F777777DE
:104830002E73796E746865746F732E636F6D2F6657
:104840006F72756D730A486176652066756E0A0031
:104850000A4E6F74653A2054696E79472067656E19
:10486000657261746573206175746F6D61746963DD
:1048700020737461747573207265706F7274732025
:1048800062792064656661756C740A546869732086
:1048900063616E2062652064697361626C65642087
:1048A000627920656E746572696E67202473763D47
:1048B000300A536565207468652077696B692062EA
:1048C000656C6F7720666F72206D6F72652064650E
:1048D0007461696C732E0A00546865736520636F98
:1048E0006D6D616E647320617265206163746976B9
:1048F000652066726F6D2074686520636F6D6D61F1
:104900006E64206C696E653A0A205E782020202053
:10491000202020202020202020526573657420282C
:10492000636F6E74726F6C207829202D20736F6610
:1049300074776172652072657365740A20203F2068
:104940002020202020202020202020204D6163686E
:10495000696E6520706F736974696F6E20616E6433
:104960002067636F6465206D6F64656C207374618C
:1049700074650A20202420202020202020202020B0
:1049800020202053686F7720616E64207365742047
:10499000636F6E66696775726174696F6E207365A7
:1049A0007474696E67730A20202120202020202043
:1049B0002020202020202046656564686F6C6420DC
:1049C0002D2073746F70206D6F74696F6E2077691E
:1049D00074686F7574206C6F73696E6720706F7385
:1049E0006974696F6E0A20207E20202020202020FC
:1049F0002020202020204379636C6520537461724D
:104A000074202D20726573746172742066726F6DEC
:104A10002066656564686F6C640A20206820202029
:104A20002020202020202020202053686F77207411
:104A30006869732068656C702073637265656E0ABF
:104A4000202024682020202020202020202020201A
:104A500053686F7720636F6E6669677572617469FA
:104A60006F6E2068656C702073637265656E0A20D6
:104A70002024746573742020202020202020204CC6
:104A80006973742073656C662D74657374730A2082
:104A90002024746573743D4E202020202020205255
:104AA000756E2073656C662D74657374204E0A20D4
:104AB0002024686F6D653D31202020202020205269
:104AC000756E206120686F6D696E67206379636C15
:104AD000650A202024646566613D31202020202065
:104AE0002020526573746F726520616C6C20736551
:104AF0007474696E677320746F2022666163746FCB
:104B00007279222064656661756C74730A000A0A02
:104B10000A2323232054696E79472048656C70204E
:104B20002323230A005B6A735D20206A736F6E2063
:104B300073657269616C697A65207374796C652537
:104B40003964205B303D72656C617865642C313D61
:104B50007374726963745D0A005B6A765D20206A13
:104B6000736F6E20766572626F7369747925313563
:104B700064205B303D73696C656E742C313D666FEB
:104B80006F7465722C323D6D657373616765732C4C
:104B9000333D636F6E666967732C343D6C696E6577
:104BA0006E756D2C353D766572626F73655D0A00BA
:104BB0005B656A5D2020656E61626C65206A736F5B
:104BC0006E206D6F646525313364205B303D746504
:104BD00078742C313D4A534F4E5D0A00A05C9A5CBC
:104BE000935C7C5C685C585C4B5C3F5C335C255C34
:104BF0000E5CFF5BF25BDC5BCA5BBD5BA85B945B3E
:104C0000875B845B755B605B4B5B3C5B2C5B1A5B1F
:104C1000035B005BE35ACA5AB45AA35A915A845AA6
:104C2000725A585A3B5A385A355A325A2F5A2C5AB5
:104C3000295A265A235A205A1D5A1A5A175A145AB0
:104C4000115A0E5A0B5A085A055A025AFF59FC5962
:104C5000F959F659F359F059ED59EA59E759E45918
:104C6000E159DE59DB59D859D559D259CF59CC59C8
:104C7000C959C659C359C059BD59BA59B759B45978
:104C8000B159AE59AB59A859A559A259845961597E
:104C9000485932591859FE58E458C058A3588B58EF
:104CA00075585B58375825581358FA57E457CE575C
:104CB000B6579E578C576E5759573B571657125732
:104CC0000E570A5706570257FE56FA56F656F25630
:104CD000EE56EA56E656E256DE56DA56D656D25624
:104CE000B8569E568B566F565D56465628561A56DF
:104CF000FD55E055C955B2559B5568553B551B555B
:104D0000F954D354AC54905471544C5423541F54FC
:104D1000ED53D553AA537E53485313530453F552BE
:104D2000E952D952C352A4529552865277526852D0
:104D300059524A523B522C521D520E52FF51F051C1
:104D4000E151D251C351B451B051AC51A851A45109
:104D5000A0519C519851945190518C51885184513B
:104D600080517C517851745170516C515E514C514D
:104D70003C510C51E050B150895080507C507850DB
:104D8000745070506C506850645060505C50585073
:104D900054505050455032501F500C50F94FE64F70
:104DA000D34FC04FAD4F9A4F874F744F614F4B4F0A
:104DB000474F434F3F4F3B4F374F334F1F4FF94EF6
:104DC000D44EB04E854E814E564E274E234E1F4E2A
:104DD0000C4EEB4DD64D4A6F6767696E672063795D
:104DE000636C65206661696C65640050726F626512
:104DF00020656E64706F696E7420697320737461CE
:104E00007274696E6720706F696E740050726F62A1
:104E100065206379636C65206661696C6564003246
:104E200034390032343800486F6D696E672045723E
:104E300072202D204D75737420636C656172207330
:104E400077697463686573206265666F7265206850
:104E50006F6D696E6700486F6D696E67204572728D
:104E6000202D20486F6D696E6720696E7075742003
:104E70006973206D6973636F6E66696775726564C7
:104E80000032343500486F6D696E672045727220BC
:104E90002D2054726176656C206D696E2026206D20
:104EA000617820617265207468652073616D6500AA
:104EB000486F6D696E6720457272202D204C6174B9
:104EC00063682076656C6F63697479206973207AF2
:104ED00065726F00486F6D696E6720457272202D94
:104EE000205365617263682076656C6F63697479BD
:104EF000206973207A65726F00486F6D696E672054
:104F0000457272202D20426164206F72206E6F20E6
:104F100061786973207370656369666965640048C8
:104F20006F6D696E67206379636C65206661696C7B
:104F3000656400323339003233380032333700329F
:104F40003336003233350032333400536F66742009
:104F50006C696D697420647572696E672061726333
:104F600000536F6674206C696D6974202D20432096
:104F70006D617800536F6674206C696D6974202DC3
:104F80002043206D696E00536F6674206C696D69F3
:104F900074202D2042206D617800536F6674206C60
:104FA000696D6974202D2042206D696E00536F6613
:104FB00074206C696D6974202D2041206D6178002A
:104FC000536F6674206C696D6974202D2041206DCB
:104FD000696E00536F6674206C696D6974202D20B2
:104FE0005A206D617800536F6674206C696D697426
:104FF000202D205A206D696E00536F6674206C69F5
:105000006D6974202D2059206D617800536F66748E
:10501000206C696D6974202D2059206D696E0053D4
:105020006F6674206C696D6974202D2058206D6145
:105030007800536F6674206C696D6974202D205858
:10504000206D696E00536F6674206C696D69740021
:1050500032313900323138003231370032313600E6
:1050600032313500323134003231330032313200E6
:1050700032313100323130003230390032303800D4
:105080004B696C6C206A6F6200436F6D6D616E647A
:105090002072656A65637465642062792050414EB0
:1050A0004943205B5E7820746F2072657365745D80
:1050B00000436F6D6D616E642072656A656374652F
:1050C000642062792053485554444F574E205B2446
:1050D000636C65617220746F2072657365745D0026
:1050E000436F6D6D616E642072656A65637465649B
:1050F00020627920414C41524D205B24636C6561F4
:105100007220746F2072657365745D004C696D69FF
:105110007420686974205B24636C65617220746F0D
:105120002072657365742C20246C696D3D30207489
:105130006F206F766572726964655D004D6F76658C
:10514000203C206D696E2074696D65004D6F766539
:10515000203C206D696E206C656E67746800476541
:105160006E65726963206572726F72003139390041
:1051700031393800313937003139360031393500AD
:1051800031393400313933003139320031393100AD
:105190003139300031383900313838003138370092
:1051A0003138360031383500313834003138330089
:1051B000313832005420776F726420696E76616CEA
:1051C0006964005420776F7264206D697373696E2F
:1051D00067005320776F726420696E76616C696432
:1051E000005320776F7264206D697373696E670076
:1051F0005220776F726420696E76616C6964005228
:1052000020776F7264206D697373696E6700512037
:10521000776F726420696E76616C696400512077E3
:105220006F7264206D697373696E67004C20776FCD
:10523000726420696E76616C6964004C20776F72CD
:1052400064206D697373696E67004820776F7264BC
:1052500020696E76616C6964004820776F72642003
:105260006D697373696E67004520776F726420699A
:105270006E76616C6964004520776F7264206D6999
:105280007373696E67004420776F726420696E766D
:10529000616C6964004420776F7264206D69737378
:1052A000696E67005020776F7264206E6F742061A2
:1052B0002076616C696420746F6F6C206E756D620E
:1052C0006572005020776F7264206E6F7420616E7B
:1052D00020696E7465676572005020776F72642074
:1052E0006E65676174697665005020776F7264201F
:1052F0007A65726F005020776F726420696E7661F4
:105300006C6964005020776F7264206D69737369F3
:105310006E670041726320737065636966696361DB
:1053200074696F6E206572726F72202D20656E64D5
:10533000706F696E74206973207374617274696E22
:105340006720706F696E74004172632073706563CB
:10535000696669636174696F6E206572726F72202D
:105360002D2072616469757320617263206F75749A
:10537000206F6620746F6C6572616E6365004172A8
:10538000632073706563696669636174696F6E2019
:105390006572726F72202D206D697373696E67205C
:1053A0006F66667365742873290041726320737099
:1053B0006563696669636174696F6E206572726F97
:1053C00072202D206D697373696E6720617869732F
:1053D000286573290041726320737065636966698B
:1053E000636174696F6E206572726F7200417263DF
:1053F0002073706563696669636174696F6E2065A7
:1054000072726F72202D20696D706F737369626C98
:10541000652063656E74657220706F696E7400310B
:105420003533005370696E646C65206D757374203C
:105430006265207475726E696E6720666F72207483
:1054400068697320636F6D6D616E64005370696E7F
:10545000646C65206D757374206265206F666620CC
:10546000666F72207468697320636F6D6D616E641E
:10547000005370696E646C652073706565642065A7
:1054800078636565646564206D6178696D756D002C
:105490005370696E646C6520737065656420626525
:1054A0006C6F77206D696E696D756D0050726F67F6
:1054B00072616D6D656420706F696E742073616DCB
:1054C000652061732063757272656E7420706F69F8
:1054D0006E740043757474657220636F6D70656ED1
:1054E000736174696F6E2063616E6E6F74206265A4
:1054F00020656E61626C65640052657175657374D8
:1055000065642076656C6F6369747920657863657E
:10551000656473206C696D697473004730206F7225
:10552000204731206D757374206265206163746952
:10553000766520666F722047353300526F74617252
:105540007920617865732063616E6E6F7420626587
:1055500020757365642077697468207468697320A6
:10556000636F6D6D616E6400496E76657273652060
:1055700074696D65206D6F64652063616E6E6F7414
:10558000206265207573656420776974682074688B
:10559000697320636F6D6D616E640046656564724A
:1055A000617465206E6F74207370656369666965E8
:1055B000640053656C656374656420706C616E652E
:1055C00020696E76616C69640053656C656374650F
:1055D0006420706C616E65206D697373696E67001D
:1055E000417869732074617267657420706F7369A4
:1055F00074696F6E20696E76616C696400417869C8
:10560000732074617267657420706F736974696F59
:105610006E206D697373696E6700417869732064E9
:10562000697361626C6564004178697320696E76A4
:10563000616C696420666F72207468697320636F9F
:105640006D6D616E6400417869732063616E6E6F89
:10565000742062652070726573656E7400417869AC
:105660007320776F7264206D697373696E6700478A
:10567000636F6465206D6F64616C2067726F757015
:105680002076696F6C6174696F6E004D20636F6482
:105690006520756E737570706F7274656400476312
:1056A0006F646520636F6D6D616E6420756E7375D8
:1056B00070706F727465640047656E65726963200F
:1056C00047636F646520696E707574206572726FD0
:1056D0007200313239003132380031323700313224
:1056E000360031323500313234003132330031325C
:1056F0003200313231003132300031313900313154
:105700003800313137003131360031313500313137
:10571000340031313300436F6D6D616E642063611D
:105720006E6E6F742062652074616B656E206174AB
:1057300020746869732074696D6500436F6E6669D3
:1057400067206E6F742074616B656E20647572697A
:105750006E67206379636C65004A534F4E206F7506
:105760007470757420746F6F206C6F6E67004A538D
:105770004F4E20696E7075742068617320746F6F6E
:10578000206D616E79207061697273004A534F4ECB
:105790002073796E746178206572726F7200496E41
:1057A0007075742076616C756520756E7375707098
:1057B0006F7274656400496E7075742076616C75E3
:1057C000652072616E6765206572726F7200496E46
:1057D0007075742076616C756520746F6F206C61D4
:1057E00072676500496E7075742076616C7565200E
:1057F000746F6F20736D616C6C00496E70757420EE
:1058000065786365656473206D6178206C656E678B
:10581000746800426164206E756D62657220666F07
:10582000726D6174004D616C666F726D65642063AA
:105830006F6D6D616E6400556E7265636F676E6942
:105840007A656420636F6D6D616E64206F72206392
:105850006F6E666967206E616D650047656E657283
:10586000696320617373657274696F6E2066616924
:105870006C757265004D656D6F7279206661756C2F
:105880007420646574656374656400537461636B4C
:10589000206F766572666C6F7720646574656374DB
:1058A000656400436F6E74726F6C6C657220617317
:1058B00073657274696F6E206661696C75726500DC
:1058C00043616E6F6E6963616C206D616368696EC0
:1058D0006520617373657274696F6E206661696CAF
:1058E00075726500506C616E6E65722061737365D0
:1058F0007274696F6E206661696C757265005374AD
:10590000657070657220617373657274696F6E2063
:105910006661696C75726500456E636F64657220BF
:10592000617373657274696F6E206661696C7572FC
:10593000650058494F20617373657274696F6E20FA
:105940006661696C75726500436F6E666967206198
:105950007373657274696F6E206661696C757265C8
:10596000005374617465206D616E6167656D656E6D
:105970007420617373657274696F6E206661696CFF
:10598000757265004275666665722066726565208F
:10599000617373657274696F6E206661696C75728C
:1059A0006500383700383600383500383400383371
:1059B00000383200383100383000373900373800CD
:1059C0003737003736003735003734003733003784
:1059D000320037310037300036390036380036377C
:1059E00000363600363500363400363300363200A5
:1059F000363100363000353900353800353700355E
:105A00003600353500353400353300353200353158
:105A10000035300034390034380034370034360073
:105A2000343500343400343300343200343100343F
:105A300030003339003338003337004661696C6514
:105A40006420746F2067657420706C616E6E65727F
:105A500020627566666572004261642073746174C9
:105A60007573207265706F72742073657474696EDB
:105A7000670050657273697374656E636520657243
:105A8000726F7200466C6F6174206973204E414ED4
:105A900000466C6F617420697320696E66696E6977
:105AA0007465004D6F76652074696D65206973209B
:105AB0004E414E004D6F76652074696D65206973A7
:105AC00020696E66696E6974650047656E65726906
:105AD0006320657863657074696F6E207265706F9E
