:100000000C94DB4B0C94FC4B0C94DBD30C94FC4B0E
:100010000C94FC4B0C94FC4B0C94FC4B0C94FC4B44
:100020000C94FC4B0C94FC4B0C94FC4B0C9406D69F
:100030000C94FC4B0C94FC4B0C94F2B70C94FC4BC2
:100040000C94FC4B0C94FC4B0C94FC4B0C94FC4B14
:100050000C94FC4B0C94FC4B0C94FC4B0C94FC4B04
:100060000C94FC4B0C94F5D30C9484D30C94FC4B63
:100070000C944ECD0C94F0CC0C942CCD0C94FC4BE9
:100080000C94A6D40C94FC4B0C94FC4B0C94FC4BA1
:100090000C94FC4B0C94FC4B0C94FC4B0C94FC4BC4
:1000A0000C94FC4B0C94FC4B0C94FC4B0C94A7BF95
:1000B0000C944BC00C94FC4B0C94FC4B0C94E3B98B
:1000C0000C94FC4B0C94FC4B0C94FC4B0C94FC4B94
:1000D0000C94FC4B0C94FC4B0C94FC4B0C94FC4B84
:1000E0000C9475AA0C94FC4B0C94FC4B0C94FC4B9C
:1000F0000C94FC4B0C94FC4B0C94FC4B0C94FC4B64
:100100000C947EBF0C9422C00C9455BF0C94F9BF84
:100110000C94FC4B0C94FC4B0C94FC4B0C94FC4B43
:100120000C94FC4B0C94FC4B0C94FC4B0C94FC4B33
:100130000C94FC4B0C9447B90C94FC4B0C94FC4B6A
:100140000C94FC4B0C94FC4B0C94FC4B0C94FC4B13
:100150000C94FC4B0C94FC4B0C946BAA0C94FC4B35
:100160000C94FC4B0C94FC4B0C94FC4B0C94FC4BF3
:100170000C94FC4B0C94FC4B0C94FC4B0C94FC4BE3
:100180000C94FC4B0C94FC4B0C94FC4B0C94FC4BD3
:100190000C94FC4B0C94FC4B0C94FC4B0C94FC4BC3
:1001A0000C94D0BF0C9474C00C94FC4B0C94FC4B7E
:1001B0000C9495B90C94FC4B0C94FC4B0C94FC4B9C
:1001C0000C94FC4B0C94FC4B0C94FC4B0C94FC4B93
:1001D0000C94FC4B0C94FC4B0C94FC4B0C94FC4B83
:1001E0000C94FC4B0C94FC4B6B7575757F75897585
:1001F0009475327B327B327B327B327B9A75327BD9
:10020000327B327B327B327B327B9C75A675B0753C
:10021000BA75C475327B327B327B327B327B327B68
:10022000CE75327B2476327B327B327B327B327BE3
:10023000327B327B6376327B1979327B327B327B45
:10024000327B327B327B327B327B1979327B327B61
:10025000327B907695769F76A976AB76B576C0762A
:10026000327BCB76327B327B0877327B327B327BC0
:10027000327B327B327B327B327B327B327B327B16
:10028000327B327B327B327B1277327B327B327B2A
:10029000327B327B327B327B327B327B1C77267720
:1002A0003077797783779C779C77A677B077BA7722
:1002B000C477CE77D377DD77E777307B307B307BC1
:1002C000307B307B307B307B307B307B307B307BD6
:1002D000307B307B307B307B307B307B307B307BC6
:1002E000307BA677307B307B307B307B307B307B44
:1002F000307B307B307B307B307B307B307B307BA6
:10030000307B307B307BF177FB7705780F78307B63
:10031000307B307B307B307B307B307B307B9C771D
:10032000BD7A7E7A827A8A7A667A6A7A727A767AFE
:10033000967AA97AB17AB57AB97A157B8E7A8A7863
:100340009B78AC78327B327B24785C75327BBD78CD
:10035000CE78DF7819798D770179327B3578327BE9
:10036000F07846781978327B327B327B5778687820
:100370007978EEBEF6BEFEBE06BF0EBF16BF1EBF2C
:1003800026BF19C276C17EC186C18EC196C19EC1EB
:10039000A6C1AEC1B6C1BEC1C6C1CEC1D6C1DEC145
:1003A000FEC1FEC1FEC1FEC1FEC1FEC1FEC1FEC155
:1003B000FEC1FEC1FEC1FEC1FEC1FEC1FEC1FEC145
:1003C000FEC1FEC1FEC1FEC1FEC1FEC1FEC1FEC135
:1003D000FEC1FEC1FEC1FEC1FEC1FEC1FEC1FEC125
:1003E000FEC1FEC1FEC1E6C1EEC1FEC1FEC1FEC13D
:1003F000FEC1FEC1FEC1FEC1FEC1FEC1FEC1FEC105
:10040000FEC1FEC1FEC1FEC1FEC1FEC1FEC1FEC1F4
:10041000FEC1FEC1FEC1FEC1FEC1FEC1FEC1FEC1E4
:10042000FEC1FEC1FEC1FEC1FEC1FEC1FEC1FEC1D4
:10043000FEC1FEC1FEC1FEC1FEC1FEC1FEC1FEC1C4
:10044000FEC1FEC1FEC1FEC1F6C1084AD73B3BCE8C
:10045000016E84BCBFFDC12F3D6C74319ABD5683C3
:100460003DDA3D00C77F11BED9E4BB4C3E916BAA7B
:10047000AABE000000803F05A84CCDB2D44EB938CA
:1004800036A9020C50B9918688083CA6AAAA2ABEB1
:10049000000000803F07634236B79BD8A71A39682F
:1004A0005618AEBAAB558C1D3CB7CC5763BD6DED3D
:1004B000FD753EF6177231BF000000803F08000056
:1004C00000BE922449123EABAAAA2ABECDCCCC4C87
:1004D0003E00000080BEABAAAAAA3E00000000BFFA
:1004E000000000803F0000000000084178D3BB43BB
:1004F00087D1133D190E3CC3BD4282AD2B3E68EC43
:100500008276BED98FE1A93E4C80EFFFBE01C4FFC9
:100510007F3F0000000000000C943F5B0C948BCCEC
:100520000C9463CF0C94747B0C94515B0C94656BAE
:100530000C944B680C940CC60C94D2AB0C94B17A0E
:100540000C94BEC10C94FF5E0C94727A0C94F7CF9D
:100550000C94847B0C94B9BE0C94B5760C946A7A96
:100560000C9440C10C94BEAB0C94D9D10C949C77E4
:100570000C94F95F0C945D6C0C945BB10C94D75E99
:100580000C94575B0C94C6C10C94DB5E0C94C47540
:100590000C949DCC0C94C55F0C9453620C947EC15A
:1005A0000C94124C0C9479770C94CDC60C9451BEDB
:1005B0000C9426770C9460C10C94084C0C9416BFD4
:1005C0000C94685B0C94FB5D0C94F0780C940B5FBE
:1005D0000C94EF5B0C94FE4B0C9405780C94A76183
:1005E0000C94DEAB0C94CEC10C94DEC10C94C47799
:1005F0000C94B3830C949B780C9467B10C94C3D087
:100600000C94CB610C9406680C94235E0C9419C274
:100610000C94EF5E0C94DF780C9483680C94FB5E72
:100620000C94D2670C94E55F0C94C0760C94455BF7
:100630000C94875B0C94B0770C945FB10C9475D1DB
:100640000C94E15F0C943A5F0C9490760C94EEBE9F
:100650000C9435780C94B0750C94A85B0C946F4F87
:100660000C94F75E0C94885C0C947E7A0C94155E66
:100670000C9419780C94325B0C94075F0C94DD5F3A
:100680000C9489750C94045D0C94BD780C94307BAB
:100690000C94735B0C9457630C9489580C94A97A4E
:1006A0000C944B5B0C9406BF0C94B97A0C940F5FBE
:1006B0000C948E7A0C94D3770C94AB760C949D6743
:1006C0000C94D15F0C94BDBE0C9457710C94327B8A
:1006D0000C94EE7C0C94C15B0C94595F0C94925B6F
:1006E0000C941B5F0C94B7830C94514C0C9463B125
:1006F0000C94CF5E0C9424D30C94E27C0C945E5C3E
:100700000C94CAAB0C9426BF0C94BBB20C94CB7661
:100710000C943FB10C9464C10C9424780C941EBFCB
:100720000C94F1770C9401790C942CCC0C943077C8
:100730000C9492B20C9486C10C94AEC10C94A86C2B
:100740000C94E4870C94DD770C9424760C946376F7
:100750000C940BCC0C9478CB0C94A6770C946A7CFC
:100760000C9483770C9495670C94A5BE0C94667AD0
:100770000C9412770C94F15C0C94C1BE0C94D8C507
:100780000C949EC10C9476C10C94BFAF0C94505E37
:100790000C94A1670C94967A0C946B750C94E35EA0
:1007A0000C949F760C942E6D0C9400BE0C94C6ABEA
:1007B0000C949C750C942A5E0C9419790C942B67FC
:1007C0000C94DAAB0C94E95F0C947B6F0C949967F2
:1007D0000C94A6750C94C15F0C94315E0C94AC78AB
:1007E0000C941C650C94CE780C94624C0C949A7505
:1007F0000C9474BE0C94827A0C9408770C948361E8
:100800000C94FEBE0C9457780C946EBC0C94296129
:100810000C940EBF0C94C3720C942B620C9481AF99
:100820000C9401600C9430630C94F6C10C94BA756E
:100830000C94CA5D0C94CE770C94C27D0C94A6C126
:100840000C942D7D0C94E7770C9490630C94947524
:100850000C94B7BC0C94FD5F0C947FAF0C942D628C
:100860000C94FAD00C94EB5E0C945C750C947B6C3D
:100870000C948A850C9429C60C9491CE0C94BD7C62
:100880000C94EA7C0C94E6C10C94F0C50C946F5E59
:100890000C94CE750C94F2610C9407630C9463D0A5
:1008A0000C946C7D0C94BD7A0C94E8BD0C94C27CC5
:1008B0000C9417BE0C947F750C948F620C94275C7B
:1008C0000C94CB5E0C947F610C94AF830C94EEC1BE
:1008D0000C9440670C94D35E0C9495760C9483AF83
:1008E0000C940D600C94E86B0C94DF5E0C94B9AF23
:1008F0000C9418600C94D6C10C9496C10C948A7810
:100900000C94EC670C94F35E0C94DD660C949DBE25
:100910000C9491670C94A1BE0C9433CB0C94D7C566
:100920000C94B57A0C94CB620C9446780C94135FBB
:100930000C947C5B0C949D5B0C9405730C940EB131
:100940000C94ED5F0C94725D0C94E67C0C94767ABA
:100950000C9468780C9491AC0C945D5B0C942E6CA8
:100960000C94BAAB0C94836F0C94035F0C94C2ABE1
:100970000C948A7A0C94C5BE0C949ECB0C94D6AB86
:100980000C94AABE0C94A9760C94BA770C94F6BE7B
:100990000C943A720C94FEC10C94BB680C94F05207
:1009A0000C9455720C94F55F0C94CD5F0C947C5FA5
:1009B0000C94E75E0C94F65D0C9479780C94157B9E
:1009C0000C94175F0C94D55F0C9440830C94F15FEA
:1009D0000C945D5F0C941C770C94B6C10C947575E7
:1009E0000C9420680C94D85B0C94CEAB0C940F78CC
:1009F0000C9423B10C94BD6C0C948EC10C94D95FF3
:100A00000C94C95F0C94D1960C94F27C0C94BBAFFF
:100A10000C948D770C94C15C0C94977D0C941C5EA7
:100A20000C9446C10C9400BD0C94FB775B25732598
:100A3000735D20257320257320706F736974696F4F
:100A40006E2531382E336625730A005B25732573B6
:100A50005D202573202573206F66667365742532CB
:100A6000302E336625730A005B257325735D2025C0
:100A700073207A65726F206261636B6F66662531E1
:100A8000392E336625730A005B257325735D202597
:100A900073206C61746368206261636B6F666625A6
:100AA00031382E336625730A005B257325735D206C
:100AB0002573206C617463682076656C6F6369745C
:100AC000792531332E306625732F6D696E0A005BF0
:100AD000257325735D20257320736561726368201B
:100AE00076656C6F636974792531322E30662573B3
:100AF0002F6D696E0A005B257325735D20257320B9
:100B0000737769746368206D617825313764205B81
:100B1000303D6F66662C313D686F6D696E672C32B3
:100B20003D6C696D69742C333D6C696D69742B681B
:100B30006F6D696E675D0A005B257325735D202507
:100B40007320737769746368206D696E253137642B
:100B5000205B303D6F66662C313D686F6D696E6756
:100B60002C323D6C696D69742C333D6C696D697410
:100B70002B686F6D696E675D0A005B257325735D79
:100B8000202573207261646975732076616C7565C8
:100B90002532302E346625730A005B257325735D7C
:100BA000202573206A756E6374696F6E20646576A4
:100BB000696174696F6E2531342E3466257320287F
:100BC0006C61726765722069732066617374657207
:100BD000290A005B257325735D202573206A6572E1
:100BE0006B20686F6D696E672531362E3066257310
:100BF0002F6D696E5E33202A2031206D696C6C691F
:100C00006F6E0A005B257325735D202573206A656E
:100C1000726B206D6178696D756D2531352E30668A
:100C200025732F6D696E5E33202A2031206D696C2B
:100C30006C696F6E0A005B257325735D2025732038
:100C400074726176656C206D696E696D756D2531A4
:100C5000372E336625730A005B257325735D2025C7
:100C6000732074726176656C206D6178696D756D45
:100C70002531372E336625730A005B257325735D96
:100C80002025732076656C6F63697479206D6178B7
:100C9000696D756D2531312E306625732F6D696E46
:100CA0000A005B257325735D2025732066656564E6
:100CB00072617465206D6178696D756D2531312EB5
:100CC000306625732F6D696E0A005B257325735D91
:100CD0002025732061786973206D6F646525313834
:100CE000642025730A005B6D615D20206D696E20B4
:100CF000617263207365676D656E742531382E33BC
:100D00006625730A005B736C5D2020736F66742028
:100D10006C696D697420656E61626C652531326441
:100D20000A005B63745D202063686F7264616C20ED
:100D3000746F6C6572616E63652531372E3466257C
:100D4000730A005B6A615D20206A756E6374696F67
:100D50006E20616363656C65726174696F6E2538BE
:100D60002E306625730A005B6764695D20646566E2
:100D700061756C742067636F646520646973746166
:100D80006E6365206D6F6465253264205B303D477E
:100D900039302C313D4739315D0A005B6770615D48
:100DA0002064656661756C742067636F646520708C
:100DB00061746820636F6E74726F6C253364205B9E
:100DC000303D4736312C313D4736312E312C323DC6
:100DD0004736345D0A005B67636F5D20646566615A
:100DE000756C742067636F646520636F6F72642035
:100DF00073797374656D253364205B312D3620283B
:100E00004735342D473539295D0A005B67756E5DBE
:100E10002064656661756C742067636F6465207516
:100E20006E697473206D6F6465253564205B303D99
:100E30004732302C313D4732315D0A005B67706CC0
:100E40005D2064656661756C742067636F646520FE
:100E5000706C616E6525313064205B303D47313701
:100E60002C313D4731382C323D4731395D0A002560
:100E70006320776F726B206F66667365743A2531F5
:100E8000322E336625730A002563206D616368691D
:100E90006E6520706F736E3A2531312E336625737F
:100EA0000A00256320706F736974696F6E3A25318B
:100EB000352E336625730A00546F6F6C206E756D86
:100EC0006265722020202020202020202025640A16
:100ED00000466565642072617465206D6F64653AD3
:100EE00020202020202025730A0044697374616E3D
:100EF0006365206D6F64653A202020202020202526
:100F0000730A0050617468204D6F64653A20202098
:100F1000202020202020202025730A00506C616EA4
:100F2000653A202020202020202020202020202062
:100F30002025730A004D6F74696F6E206D6F6465B4
:100F40003A20202020202020202025730A00436FF3
:100F50006F7264696E6174652073797374656D3A3C
:100F600020202025730A00556E6974733A202020D2
:100F700020202020202020202020202025730A004F
:100F8000486F6D696E672073746174653A20202024
:100F9000202020202025730A0046656564686F6C58
:100FA000642073746174653A20202020202025730A
:100FB0000A004D6F74696F6E2073746174653A2016
:100FC0002020202020202025730A004379636C65AF
:100FD0002073746174653A20202020202020202076
:100FE00025730A00526177206D616368696E652020
:100FF00073746174653A20202025730A004D616383
:1010000068696E652073746174653A202020202021
:10101000202025730A004C696E65206E756D62652F
:10102000723A2531302E30660A00466565642072BA
:101030006174653A2531362E336625732F6D696EDE
:101040000A0056656C6F636974793A2531372E331F
:101050006625732F6D696E0A00B0107F105F104710
:101060003935202D20756E6974732D7065722D725F
:1010700065766F6C7574696F6E206D6F646500477F
:101080003934202D20756E6974732D7065722D6D45
:10109000696E757465206D6F64652028692E652EF4
:1010A000206665656472617465206D6F64652900F2
:1010B000473933202D20696E766572736520746917
:1010C0006D65206D6F646500EC10CC1047393120E0
:1010D0002D20696E6372656D656E74616C20646944
:1010E0007374616E6365206D6F64650047393020ED
:1010F0002D206162736F6C7574652064697374610F
:101100006E6365206D6F6465003D1125110F1147F9
:101110003634202D20636F6E74696E756F75732081
:101120006D6F6465004736312E31202D2065786162
:1011300063742073746F70206D6F6465004736317F
:10114000202D2065786163742070617468206D6F54
:10115000646500771168115911473139202D2059E4
:101160005A20706C616E6500473138202D20585A26
:1011700020706C616E6500473137202D2058592052
:10118000706C616E65000312F111D811B7119011E6
:10119000473830202D2063616E63656C206D6F745D
:1011A000696F6E206D6F646520286E6F6E652061BB
:1011B00063746976652900473320202D20636F759D
:1011C0006E74657220636C6F636B77697365206101
:1011D0007263206665656400473220202D20636CB1
:1011E0006F636B7769736520617263206665656400
:1011F00000473120202D206C696E65617220666584
:10120000656400473020202D206C696E6561722076
:10121000747261766572736520287365656B290049
:10122000CA12B01296127C12621248122E12473560
:1012300039202D20636F6F7264696E61746520734D
:10124000797374656D203600473538202D20636F23
:101250006F7264696E6174652073797374656D2053
:101260003500473537202D20636F6F7264696E61DA
:1012700074652073797374656D20340047353620AA
:101280002D20636F6F7264696E617465207379736A
:1012900074656D203300473535202D20636F6F72E4
:1012A00064696E6174652073797374656D203200B2
:1012B000473534202D20636F6F7264696E617465E9
:1012C0002073797374656D203100473533202D20EC
:1012D0006D616368696E6520636F6F7264696E61CA
:1012E00074652073797374656D00FD12F712F01246
:1012F000486F6D696E6700486F6D6564004E6F746E
:1013000020486F6D65640031132C13271321131CC3
:10131000131313456E6420486F6C6400486F6C644F
:1013200000446563656C00506C616E0053796E63B8
:10133000004F666600441340133B13486F6C640013
:1013400052756E0053746F70006E1364135E135702
:101350001353134A6F6700486F6D696E67005072D0
:101360006F6265004D616368696E696E67004F6604
:101370006600A4139E13981393138F13891380137D
:1013800053687574646F776E004379636C650045CC
:101390006E640053746F7000416C61726D00526531
:1013A00061647900496E697469616C697A696E6714
:1013B0000007140114FB13F613F213EE13E913E301
:1013C00013DD13D613D213C91353687574646F7782
:1013D0006E004A6F6700486F6D696E6700437963FE
:1013E0006C650050726F626500486F6C64005275E6
:1013F0006E00456E640053746F7000416C61726DD5
:1014000000526561647900496E697469616C697A3A
:10141000696E67002E141814473231202D206D6933
:101420006C6C696D65746572206D6F646500473220
:1014300030202D20696E63686573206D6F646500D0
:1014400068145D14511448145B7261646975735DAE
:10145000005B696E686962697465645D005B7374E2
:10146000616E646172645D005B64697361626C6586
:10147000645D0082147E1479142064656700206D19
:101480006D0020696E002A2A2A204E4F5449434598
:10149000202A2A2A20526573657474696E67206257
:1014A000617564207261746520746F202573005B20
:1014B0006E65745D206E6574776F726B206D6F64FE
:1014C0006525313764205B303D6D61737465725DF5
:1014D0000A005B626175645D20555342206261754C
:1014E00064207261746525313564205B313D393685
:1014F00030302C323D31393230302C333D333834BA
:1015000030302C343D35373630302C353D313135A7
:101510003230302C363D3233303430305D0A005BAF
:1015200065785D2020656E61626C6520666C6F7702
:1015300020636F6E74726F6C25313064205B303DB8
:101540006F66662C313D584F4E2F584F46462C2023
:10155000323D5254532F4354535D0A005B65655D21
:101560002020656E61626C65206563686F25313887
:1015700064205B303D6F66662C313D6F6E5D0A0006
:101580005B65635D2020657870616E64204C462049
:10159000746F2043524C46206F6E20545825366499
:1015A000205B303D6F66662C313D6F6E5D0A00E258
:1015B00015DD15D715D115CB15C415BD1532333032
:1015C000343030003131353230300035373630305C
:1015D0000033383430300031393230300039363071
:1015E000300030007379730066620000000007026B
:1015F000E27CF2612B622534AE87DB4373797300A2
:101600006676000000000703E67CF2612B62293455
:10161000EC51783F73797300687000000000070098
:10162000EA7CF26157632D340000803F73797300C8
:101630006876000000000700EE7CF261C27C313465
:101640000000004173797300696400000000040029
:10165000F27C6A7C2B622134000000000000000054
:101660006E00000000000100CB5EC15B0763112C1F
:1016700000000000000000006C696E6500000100C1
:10168000CB5ED85B0763112C000000000000000057
:1016900076656C0000000002315EEF5B2B62213446
:1016A00000000000000000006665656400000002A4
:1016B000505E275C2B622134000000000000000017
:1016C0007374617400000000CF5E325B2B622134C2
:1016D00000000000000000006D6163730000000066
:1016E000D35E3F5B2B62213400000000000000004D
:1016F0006379637300000000D75E455B2B62213481
:1017000000000000000000006D6F74730000000016
:10171000DB5E4B5B2B622134000000000000000008
:10172000686F6C6400000000DF5E515B2B62213447
:101730000000000000000000756E697400000000E9
:10174000E75E5D5B2B6221340000000000000000BA
:10175000636F6F7200000000EB5E685B2B622134E8
:1017600000000000000000006D6F6D6F00000000C1
:10177000EF5E735B2B62213400000000000000006C
:10178000706C616E00000000F35E7C5B2B622134A4
:10179000000000000000000070617468000000009C
:1017A000F75E875B2B622134000000000000000020
:1017B0006469737400000000FB5E925B2B6221344D
:1017C000000000000000000066726D6F0000000065
:1017D000FF5E9D5B2B6221340000000000000000D2
:1017E000746F6F6C00000000035FA85B2B622134F4
:1017F000000000006D706F006D706F7800000003D6
:101800000D60885C2B622134000000006D706F0059
:101810006D706F79000000030D60885C2B622134CD
:10182000000000006D706F006D706F7A00000003A3
:101830000D60885C2B622134000000006D706F0029
:101840006D706F61000000030D60885C2B622134B5
:10185000000000006D706F006D706F62000000038B
:101860000D60885C2B622134000000006D706F00F9
:101870006D706F63000000030D60885C2B62213483
:1018800000000000706F7300706F73780000000339
:1018900001605E5C2B62213400000000706F7300F9
:1018A000706F73790000000301605E5C2B6221346D
:1018B00000000000706F7300706F737A0000000307
:1018C00001605E5C2B62213400000000706F7300C9
:1018D000706F73610000000301605E5C2B62213455
:1018E00000000000706F7300706F736200000003EF
:1018F00001605E5C2B62213400000000706F730099
:10190000706F73630000000301605E5C2B62213422
:10191000000000006F6673006F66737800000003BC
:101920001860C15C2B622134000000006F667300F8
:101930006F667379000000031860C15C2B6221346C
:10194000000000006F6673006F66737A000000038A
:101950001860C15C2B622134000000006F667300C8
:101960006F667361000000031860C15C2B62213454
:10197000000000006F6673006F6673620000000372
:101980001860C15C2B622134000000006F66730098
:101990006F667363000000031860C15C2B62213422
:1019A00000000000686F6D00686F6D65000000004A
:1019B000E35E575BFB5D213400000000686F6D0043
:1019C000686F6D7800000000016083612B62E62B78
:1019D00000000000686F6D00686F6D790000000006
:1019E000016083612B62E72B00000000686F6D00CF
:1019F000686F6D7A00000000016083612B62E82B44
:101A000000000000686F6D00686F6D6100000000ED
:101A1000016083612B62E92B00000000686F6D009C
:101A2000686F6D6200000000016083612B62EA2B29
:101A300000000000686F6D00686F6D6300000000BB
:101A4000016083612B62EB2B00000000707262006A
:101A50007072626500000000D7C583612B62EC2BB9
:101A60000000000070726200707262780000000373
:101A7000D7C5F2612B62ED2B00000000707262008E
:101A80007072627900000003D7C5F2612B62F12BFE
:101A900000000000707262007072627A0000000341
:101AA000D7C5F2612B62F52B000000007072620056
:101AB0007072626100000003D7C5F2612B62F92BDE
:101AC0000000000070726200707262620000000329
:101AD000D7C5F2612B62FD2B00000000707262001E
:101AE0007072626300000003D7C5F2612B62012CA3
:101AF000000000006A6F67006A6F677800000000EE
:101B0000D7C57F61155E0B2C000000006A6F67006F
:101B10006A6F677900000000D7C57F611C5E0B2CDF
:101B2000000000006A6F67006A6F677A00000000BB
:101B3000D7C57F61235E0B2C000000006A6F670031
:101B40006A6F676100000000D7C57F612A5E0B2CB9
:101B500000000000707772007077723100000000A2
:101B6000C5BE00BE2B6221340000000070777200F9
:101B70007077723200000000C5BE00BE2B622134B7
:101B80000000000070777200707772330000000070
:101B9000C5BE00BE2B6221340000000070777200C9
:101BA0007077723400000000C5BE00BE2B62213485
:101BB0000000000000000000737200000000000040
:101BC000B9AF7FAF81AF21340000000000000000FA
:101BD00071720000000000005BB10EB12B62213475
:101BE000000000000000000071690000000000001B
:101BF0005FB123B12B62213400000000000000001F
:101C0000716F00000000000063B13FB12B6221340E
:101C100000000000000000006572000000000000ED
:101C2000D7C591AC2B6221340000000000000000F9
:101C30007166000000000000D7C57F61F65D2134A9
:101C400000000000000000007278000000000000AA
:101C50000CC62B672B62213400000000000000003E
:101C60006D73670000000000D8C57F612B622134CE
:101C70000000000000000000636C6561720000005D
:101C8000D7C5F052F05221340000000000000000DF
:101C90007465737400000000D7C56C7D64C1213485
:101CA00000000000000000006465666100000000A4
:101CB000D7C5977D29612134000000000000000095
:101CC000626F6F7400000000D7C5C27DBD7C2134F7
:101CD000000000000000000068656C70000000005B
:101CE000D7C52D7D2B6221340000000000000000CC
:101CF0006800000000000000D7C52D7D2B62213454
:101D00000000000031000000316D610000000300A0
:101D1000A1BE83612D625C53000000003100000011
:101D20003173610000000303A5BEF2616EBC645311
:101D30006666E63F310000003174720000000B045B
:101D4000AABEF261B7BC6853000020423100000017
:101D5000316D690000000300B9BE836100BD5D53B1
:101D6000000000413100000031706F0000000300EE
:101D7000BDBE836153625E5300000000310000006D
:101D800031706D0000000300C1BE8361E8BD5F5388
:101D90000000004032000000326D610000000300CE
:101DA000A1BE83612D6278530000803F32000000A5
:101DB0003273610000000303A5BEF2616EBC805364
:101DC0006666E63F320000003274720000000B04C9
:101DD000AABEF261B7BC845300002042320000006A
:101DE000326D690000000300B9BE836100BD795304
:101DF000000000413200000032706F00000003005C
:101E0000BDBE836153627A530000000032000000BF
:101E100032706D0000000300C1BE8361E8BD7B53DA
:101E20000000004033000000336D6100000003003B
:101E3000A1BE83612D6294530000803F33000000F7
:101E40003373610000000303A5BEF2616EBC9C53B6
:101E50006666E63F330000003374720000000B0436
:101E6000AABEF261B7BCA0530000204233000000BC
:101E7000336D690000000300B9BE836100BD955356
:101E8000000000413300000033706F0000000300C9
:101E9000BDBE8361536296530000803F3300000053
:101EA00033706D0000000300C1BE8361E8BD97532D
:101EB0000000004034000000346D610000000300A9
:101EC000A1BE83612D62B0530000004034000000C9
:101ED0003473610000000303A5BEF2616EBCB85309
:101EE0006666E63F340000003474720000000B04A4
:101EF000AABEF261B7BCBC53607607403400000054
:101F0000346D690000000300B9BE836100BDB153A8
:101F1000000000413400000034706F000000030036
:101F2000BDBE83615362B253000000003400000064
:101F300034706D0000000300C1BE8361E8BDB3537F
:101F4000000000407800000078616D000000030090
:101F50007C5FF15C045DA22A0000803F78000000F5
:101F600078766D0000000B00C55FF2614067A72A1C
:101F700000504347780000007866720000000B00B4
:101F8000C15FF2614067A32A005043477800000018
:101F900078746E0000000B03CD5FF2614067AF2ADA
:101FA000000000007800000078746D0000000B0352
:101FB000C95FF2614067AB2A00808E437800000061
:101FC000786A6D0000000B00D15FF261725DB32A88
:101FD00000401C4678000000786A680000000B0092
:101FE000D55FF261CA5DB72A00409C4678000000C8
:101FF000786A640000000B04D95FF2614067BF2A71
:102000000AD7233C7800000078736E0000000300BC
:10201000E15F836146C1C6290000803F780000006F
:102020007873780000000300E55F836146C1C7292B
:1020300000000000780000007873760000000B00BC
:10204000E95FF2614067C72A00803B4578000000E5
:10205000786C760000000B00ED5FF2614067CB2AE0
:102060000000C84278000000786C620000000B039A
:10207000F15FF2614067CF2A000020417800000044
:10208000787A620000000B03F55FF2614067D32AA3
:10209000000040407900000079616D0000000300FD
:1020A0007C5FF15C045DD72A0000803F790000006E
:1020B00079766D0000000B00C55FF2614067DC2A95
:1020C00000504347790000007966720000000B0061
:1020D000C15FF2614067D82A005043477900000091
:1020E00079746E0000000B03CD5FF2614067E42A53
:1020F000000000007900000079746D0000000B03FF
:10210000C95FF2614067E02A0000A0437900000047
:10211000796A6D0000000B00D15FF261725DE82A00
:1021200000401C4679000000796A680000000B003E
:10213000D55FF261CA5DEC2A00409C467900000040
:10214000796A640000000B04D95FF2614067F42AE9
:102150000AD7233C7900000079736E000000030069
:10216000E15F836146C1C8290000803F790000001B
:102170007973780000000300E55F836146C1C929D7
:1021800000000000790000007973760000000B0069
:10219000E95FF2614067FC2A00803B45790000005E
:1021A000796C760000000B00ED5FF2614067002B58
:1021B0000000C84279000000796C620000000B0347
:1021C000F15FF2614067042B0000204179000000BC
:1021D000797A620000000B03F55FF2614067082B1B
:1021E000000040407A0000007A616D0000000300AA
:1021F0007C5FF15C045D0C2B0000803F7A000000E6
:102200007A766D0000000B00C55FF2614067112B0C
:10221000000016457A0000007A66720000000B008C
:10222000C15FF26140670D2B000016457A00000087
:102230007A746E0000000B03CD5FF2614067192BCA
:102240000000C8C27A0000007A746D0000000B0321
:10225000C95FF2614067152B000000007A000000A2
:102260007A6A6D0000000B00D15FF261725D1D2B78
:10227000000048437A0000007A6A680000000B0002
:10228000D55FF261CA5D212B00007A447A0000001C
:102290007A6A640000000B04D95FF2614067292B61
:1022A0000AD7233C7A0000007A736E000000030016
:1022B000E15F836146C1CA29000000007A00000086
:1022C0007A73780000000300E55F836146C1CB2983
:1022D0000000803F7A0000007A73760000000B0057
:1022E000E95FF2614067312B000016457A0000007B
:1022F0007A6C760000000B00ED5FF2614067352BD1
:102300000000C8427A0000007A6C620000000B03F3
:10231000F15FF2614067392B000020417A00000034
:102320007A7A620000000B03F55FF26140673D2B93
:10233000000040406100000061616D00000003008A
:102340007C5FF15C045D412B0000803F6100000078
:1023500061766D0000000300C55FF2615763462B94
:1023600000606A47610000006166720000000300BF
:10237000C15FF2615763422B00803B476100000060
:1023800061746E0000000303CD5FF26140674E2B65
:102390000000C8436100000061746D000000030389
:1023A000C95FF26157634A2B000080BF61000000E3
:1023B000616A6D0000000300D15FF261725D522B13
:1023C0000080BB4661000000616A680000000300F5
:1023D000D55FF261CA5D562B0080BB4661000000EC
:1023E000616A640000000304D95FF26157635E2BE9
:1023F000CDCCCC3D610000006172610000000B0398
:10240000DD5FF2615763622B0000803F61000000D6
:1024100061736E0000000300E15F836146C1CC2957
:102420000000803F6100000061737800000003003D
:10243000E55F836146C1CD29000000006100000016
:102440006173760000000300E95FF2615763662B59
:102450000080BB4561000000616C76000000030055
:10246000ED5FF26157636A2B00007A44610000005F
:10247000616C620000000303F15FF26157636E2B31
:102480000000004061000000617A62000000030368
:10249000F55FF2615763722B00000040620000009C
:1024A00062616D00000003007C5FF15C045D762BCF
:1024B000000000006200000062766D000000030072
:1024C000C55FF26157637B2B00006145620000002D
:1024D0006266720000000300C15FF2615763772BF0
:1024E000000061456200000062746E00000003039A
:1024F000CD5FF2614067832B000080BF6200000067
:1025000062746D0000000303C95FF26157637F2BA3
:10251000000080BF62000000626A6D0000000300DE
:10252000D15FF261725D872B0000A0416200000064
:10253000626A640000000300D95FF2615763932B65
:102540000AD7233C620000006272610000000B03A6
:10255000DD5FF2615763972B0000803F630000004E
:1025600063616D00000003007C5FF15C045DAB2BD8
:10257000000000006300000063766D0000000300AF
:10258000C55FF2615763B02B000061456300000036
:102590006366720000000300C15FF2615763AC2BF9
:1025A000000061456300000063746E0000000303D7
:1025B000CD5FF2614067B82B000080BF6300000070
:1025C00063746D0000000303C95FF2615763B42BAD
:1025D000000080BF63000000636A6D00000003001C
:1025E000D15FF261725DBC2B0000A041630000006E
:1025F000636A640000000300D95FF2615763C82B6F
:102600000AD7233C630000006372610000000B03E3
:10261000DD5FF2615763CC2B0000803F703100001A
:102620007031667271000300BAABF26157633852C1
:102630000000C84270310000703163736C00030009
:10264000BEABF26157633C5200007A447031000027
:102650007031637368000300C2ABF261576340528C
:102660000000FA4470310000703163706C000303A5
:10267000C6ABF261576344520000003E7031000067
:102680007031637068000303CAABF261576348524C
:10269000CDCC4C3E70310000703177736C0003007C
:1026A000CEABF26157634C5200007A4470310000A7
:1026B0007031777368000300D2ABF26157635052F8
:1026C0000000FA4470310000703177706C00030331
:1026D000D6ABF261576354520000003E70310000E7
:1026E0007031777068000303DAABF26157635852B8
:1026F000CDCC4C3E703100007031706F660003032A
:10270000DEABF26157635C52CDCCCC3D6735340013
:102710006735347800000B03F95FF2614067122AD5
:1027200000000000673534006735347900000B0382
:10273000F95FF2614067162A000000006735340037
:102740006735347A00000B03F95FF26140671A2A9B
:1027500000000000673534006735346100000B036A
:10276000F95FF26140671E2A0000000067353400FF
:102770006735346200000B03F95FF2614067222A7B
:1027800000000000673534006735346300000B0338
:10279000F95FF2614067262A0000000067353500C6
:1027A0006735357800000B03F95FF26140672A2A2C
:1027B00000000E43673535006735357900000B039F
:1027C000F95FF26140672E2A00002043673535002B
:1027D0006735357A00000B03F95FF2614067322AF2
:1027E00000000000673535006735356100000B03D8
:1027F000F95FF2614067362A000000006735350056
:102800006735356200000B03F95FF26140673A2AD1
:1028100000000000673535006735356300000B03A5
:10282000F95FF26140673E2A00000000673536001C
:102830006735367800000B03F95FF2614067422A82
:1028400000000E43673536006735367900000B030C
:10285000F95FF2614067462A0000A0416735360003
:102860006735367A00000B03F95FF26140674A2A48
:10287000000020C1673536006735366100000B0364
:10288000F95FF26140674E2A0000000067353600AC
:102890006735366200000B03F95FF2614067522A28
:1028A00000000000673536006735366300000B0313
:1028B000F95FF2614067562A000000006735370073
:1028C0006735377800000B03F95FF26140675A2AD9
:1028D00000000000673537006735377900000B03CB
:1028E000F95FF26140675E2A00000000673537003B
:1028F0006735377A00000B03F95FF2614067622A9F
:1029000000000000673537006735376100000B03B2
:10291000F95FF2614067662A000000006735370002
:102920006735376200000B03F95FF26140676A2A7E
:1029300000000000673537006735376300000B0380
:10294000F95FF26140676E2A0000000067353800C9
:102950006735387800000B03F95FF2614067722A2F
:1029600000000000673538006735387900000B0338
:10297000F95FF2614067762A000000006735380091
:102980006735387A00000B03F95FF26140677A2AF5
:1029900000000000673538006735386100000B0320
:1029A000F95FF26140677E2A000000006735380059
:1029B0006735386200000B03F95FF2614067822AD5
:1029C00000000000673538006735386300000B03EE
:1029D000F95FF2614067862A000000006735390020
:1029E0006735397800000B03F95FF26140678A2A86
:1029F00000000000673539006735397900000B03A6
:102A0000F95FF26140678E2A0000000067353900E7
:102A10006735397A00000B03F95FF2614067922A4B
:102A200000000000673539006735396100000B038D
:102A3000F95FF2614067962A0000000067353900AF
:102A40006735396200000B03F95FF26140679A2A2B
:102A500000000000673539006735396300000B035B
:102A6000F95FF26140679E2A00000000673932007A
:102A70006739327800000103F95FF2612B62822C22
:102A80000000000067393200673932790000010325
:102A9000F95FF2612B62862C00000000673932007A
:102AA0006739327A00000103F95FF2612B628A2CE8
:102AB000000000006739320067393261000001030D
:102AC000F95FF2612B628E2C000000006739320042
:102AD0006739326200000103F95FF2612B62922CC8
:102AE00000000000673932006739326300000103DB
:102AF000F95FF2612B62962C00000000673238000B
:102B00006732387800000103FD5FF2612B629A2C76
:102B10000000000067323800673238790000010396
:102B2000FD5FF2612B629E2C0000000067323800CE
:102B30006732387A00000103FD5FF2612B62A22C3C
:102B4000000000006732380067323861000001037E
:102B5000FD5FF2612B62A62C000000006732380096
:102B60006732386200000103FD5FF2612B62AA2C1C
:102B7000000000006732380067323863000001034C
:102B8000FD5FF2612B62AE2C000000006733300065
:102B90006733307800000103FD5FF2612B62B22CD5
:102BA0000000000067333000673330790000010314
:102BB000FD5FF2612B62B62C00000000673330002D
:102BC0006733307A00000103FD5FF2612B62BA2C9B
:102BD00000000000673330006733306100000103FC
:102BE000FD5FF2612B62BE2C0000000067333000F5
:102BF0006733306200000103FD5FF2612B62C22C7B
:102C000000000000673330006733306300000103C9
:102C1000FD5FF2612B62C62C000000006A6964004F
:102C20006A69646100000000D7C5CB613063493434
:102C3000000000006A6964006A69646200000000C4
:102C4000D7C5CB6130634D34000000006A69640071
:102C50006A69646300000000D7C5CB6130635134FA
:102C6000000000006A6964006A6964640000000092
:102C7000D7C5CB6130635534000000007379730011
:102C80006A61000000000F001B5FF2614067E029ED
:102C90000024F449737973006374000000000F048A
:102CA0003A5FF2614067E4290AD7233C73797300E5
:102CB000736C000000000700595F83612D62E829F2
:102CC00000000000737973007374000000000700B7
:102CD00060C1836140C1BB290000803F73797300EC
:102CE0006D740000000007029DBEF26117BE5853CC
:102CF00000000040000000006D65000000000000C2
:102D0000D8C574BE74BE213400000000000000006D
:102D10006D64000000000000D8C551BE51BE2134D2
:102D20000000000073797300656A0000000007006E
:102D3000AF8383615362D6330000803F73797300A1
:102D40006A76000000000700B38383614083F03798
:102D500000008040737973006A7300000000070070
:102D6000B78383615362F2370000803F7379730049
:102D70007476000000000700CDC683615362BF5423
:102D80000000803F73797300717600000000070037
:102D900067B18361CB6291520000000073797300C8
:102DA0007376000000000700BFAF83618F629E5200
:102DB0000000803F73797300736900000000070012
:102DC000BBAFA76183AF9F5200007A437379730052
:102DD0006563000000000700916783614B68D7338B
:102DE00000000000737973006565000000000700B3
:102DF00095678361BB68D833000000007379730066
:102E00006578000000000700996783618368D93303
:102E10000000803F737973006261756400000400F4
:102E20009D678361DD66DA330000A040737973002B
:102E30006E65740000000700A16783612D6238345D
:102E4000000000007379730067706C0000000700D9
:102E5000075F83618F62F6290000000073797300B9
:102E600067756E00000007000B5F83615362F729EE
:102E70000000803F7379730067636F0000000700F4
:102E80000F5F83612D62F5290000803F7379730025
:102E90006770610000000700135F83618F62F8298B
:102EA0000000004073797300676469000000070048
:102EB000175F83615362F9290000000000000000E1
:102EC0006763000000000000D7C5747B847B213459
:102ED00000000000000000006D61000000000B0415
:102EE0005D5FF2614067ED29CDCCCC3D0000000074
:102EF0006664000000000300F0C583615362F1378F
:102F0000000000007564610075646130000003001A
:102F10000CC6CB613063DC330000000075646100D7
:102F200075646131000003000CC6CB613063E0338F
:102F300000000000756461007564613200000300E8
:102F40000CC6CB613063E43300000000756461009F
:102F500075646133000003000CC6CB613063E83355
:102F600000000000756462007564623000000300B8
:102F70000CC6CB613063EC33000000007564620066
:102F800075646231000003000CC6CB613063F0331E
:102F90000000000075646200756462320000030086
:102FA0000CC6CB613063F43300000000756462002E
:102FB00075646233000003000CC6CB613063F833E4
:102FC0000000000075646300756463300000030056
:102FD0000CC6CB613063FC330000000075646300F5
:102FE00075646331000003000CC6CB6130630034AC
:102FF0000000000075646300756463320000030024
:103000000CC6CB61306304340000000075646300BB
:1030100075646333000003000CC6CB613063083471
:1030200000000000756464007564643000000300F3
:103030000CC6CB6130630C34000000007564640082
:1030400075646431000003000CC6CB61306310343A
:1030500000000000756464007564643200000300C1
:103060000CC6CB613063143400000000756464004A
:1030700075646433000003000CC6CB613063183400
:10308000000000005F7465005F7465780000000256
:1030900029C6F2612B620750000000005F746500D2
:1030A0005F7465790000000229C6F2612B620B5043
:1030B000000000005F7465005F74657A0000000224
:1030C00029C6F2612B620F50000000005F7465009A
:1030D0005F7465610000000229C6F2612B62135023
:1030E000000000005F7465005F746562000000020C
:1030F00029C6F2612B621750000000005F74650062
:103100005F7465630000000229C6F2612B621B50E8
:10311000000000005F7472005F74727800000002AB
:1031200029C6F2612B622C51000000005F7472000E
:103130005F7472790000000229C6F2612B6230517F
:10314000000000005F7472005F74727A0000000279
:1031500029C6F2612B623451000000005F747200D6
:103160005F7472610000000229C6F2612B6238515F
:10317000000000005F7472005F7472620000000261
:1031800029C6F2612B623C51000000005F7472009E
:103190005F7472630000000229C6F2612B62405125
:1031A000000000005F7473005F7473310000000260
:1031B00029C6F2612B629750000000005F70730017
:1031C0005F7073310000000229C6F2612B62A750C4
:1031D000000000005F6373005F6373310000000252
:1031E00029C6F2612B62B750000000005F657300D2
:1031F0005F6573310000000229C6F2612B62C7507F
:10320000000000005F7873005F78733100000002F7
:1032100029C6F2612B62E753000000005F6665007B
:103220005F6665310000000229C6F2612B62D7504B
:10323000000000005F7473005F74733200000002CE
:1032400029C6F2612B629B50000000005F70730082
:103250005F7073320000000229C6F2612B62AB502E
:10326000000000005F6373005F63733200000002C0
:1032700029C6F2612B62BB50000000005F6573003D
:103280005F6573320000000229C6F2612B62CB50E9
:10329000000000005F7873005F7873320000000266
:1032A00029C6F2612B62FF53000000005F666500D3
:1032B0005F6665320000000229C6F2612B62DB50B6
:1032C000000000005F7473005F747333000000023D
:1032D00029C6F2612B629F50000000005F707300EE
:1032E0005F7073330000000229C6F2612B62AF5099
:1032F000000000005F6373005F637333000000022F
:1033000029C6F2612B62BF50000000005F657300A8
:103310005F6573330000000229C6F2612B62CF5053
:10332000000000005F7873005F78733300000002D4
:1033300029C6F2612B621754000000005F66650029
:103340005F6665330000000229C6F2612B62DF5020
:10335000000000005F7473005F74733400000002AB
:1033600029C6F2612B62A350000000005F70730059
:103370005F7073340000000229C6F2612B62B35003
:10338000000000005F6373005F637334000000029D
:1033900029C6F2612B62C350000000005F65730014
:1033A0005F6573340000000229C6F2612B62D350BE
:1033B000000000005F7873005F7873340000000243
:1033C00029C6F2612B622F54000000005F66650081
:1033D0005F6665340000000229C6F2612B62E3508B
:1033E00000000000000000005F64616D000000004C
:1033F000D7C56F5E6F5E2134000000000000000042
:103400007365303000000200D7C5A7610763AA5278
:103410000000000000000000736530310000020071
:10342000D7C5A7610763AC52000000000000000090
:103430007365303200000200D7C5A7610763AE5242
:10344000000000000000000073653033000002003F
:10345000D7C5A7610763B05200000000000000005C
:103460007365303400000200D7C5A7610763B2520C
:10347000000000000000000073653035000002000D
:10348000D7C5A7610763B452000000000000000028
:103490007365303600000200D7C5A7610763B652D6
:1034A00000000000000000007365303700000200DB
:1034B000D7C5A7610763B8520000000000000000F4
:1034C0007365303800000200D7C5A7610763BA52A0
:1034D00000000000000000007365303900000200A9
:1034E000D7C5A7610763BC520000000000000000C0
:1034F0007365313000000200D7C5A7610763BE5273
:10350000000000000000000073653131000002007F
:10351000D7C5A7610763C05200000000000000008B
:103520007365313200000200D7C5A7610763C2523C
:10353000000000000000000073653133000002004D
:10354000D7C5A7610763C452000000000000000057
:103550007365313400000200D7C5A7610763C65206
:10356000000000000000000073653135000002001B
:10357000D7C5A7610763C852000000000000000023
:103580007365313600000200D7C5A7610763CA52D0
:1035900000000000000000007365313700000200E9
:1035A000D7C5A7610763CC520000000000000000EF
:1035B0007365313800000200D7C5A7610763CE529A
:1035C00000000000000000007365313900000200B7
:1035D000D7C5A7610763D0520000000000000000BB
:1035E0007365323000000200D7C5A7610763D2526D
:1035F000000000000000000073653231000002008E
:10360000D7C5A7610763D452000000000000000086
:103610007365323200000200D7C5A7610763D65236
:10362000000000000000000073653233000002005B
:10363000D7C5A7610763D852000000000000000052
:103640007365323400000200D7C5A7610763DA5200
:103650000000000000000000736532350000020029
:10366000D7C5A7610763DC5200000000000000001E
:103670007365323600000200D7C5A7610763DE52CA
:1036800000000000000000007365323700000200F7
:10369000D7C5A7610763E0520000000000000000EA
:1036A0007365323800000200D7C5A7610763E25294
:1036B00000000000000000007365323900000200C5
:1036C000D7C5A7610763E4520000000000000000B6
:1036D0007379730000000000D7C51C659063213426
:1036E0000000000000000000703100000000000039
:1036F000D7C51C6590632134000000000000000065
:103700003100000000000000D7C51C659063213423
:103710000000000000000000320000000000000077
:10372000D7C51C6590632134000000000000000034
:103730003300000000000000D7C51C6590632134F1
:103740000000000000000000340000000000000045
:10375000D7C51C6590632134000000000000000004
:103760007800000000000000D7C51C65906321347C
:1037700000000000000000007900000000000000D0
:10378000D7C51C65906321340000000000000000D4
:103790007A00000000000000D7C51C65906321344A
:1037A00000000000000000006100000000000000B8
:1037B000D7C51C65906321340000000000000000A4
:1037C0006200000000000000D7C51C659063213432
:1037D0000000000000000000630000000000000086
:1037E000D7C51C6590632134000000000000000074
:1037F0006735340000000000D7C51C659063213494
:1038000000000000000000006735350000000000E7
:10381000D7C51C6590632134000000000000000043
:103820006735360000000000D7C51C659063213461
:1038300000000000000000006735370000000000B5
:10384000D7C51C6590632134000000000000000013
:103850006735380000000000D7C51C65906321342F
:103860000000000000000000673539000000000083
:10387000D7C51C65906321340000000000000000E3
:103880006739320000000000D7C51C659063213401
:103890000000000000000000673238000000000057
:1038A000D7C51C65906321340000000000000000B3
:1038B0006733300000000000D7C51C6590632134D9
:1038C00000000000000000006D706F0000000000AC
:1038D000D7C51C6590632134000000000000000083
:1038E000706F730000000000D7C51C659063213421
:1038F00000000000000000006F6673000000000080
:10390000D7C51C6590632134000000000000000052
:10391000686F6D0000000000D7C51C6590632134FE
:103920000000000000000000707262000000000053
:10393000D7C51C6590632134000000000000000022
:103940007077720000000000D7C51C6590632134B9
:1039500000000000000000006A6F67000000000027
:10396000D7C51C65906321340000000000000000F2
:103970006A69640000000000D7C51C6590632134AB
:1039800000000000000000007564610000000000FD
:10399000D7C51C65906321340000000000000000C2
:1039A0007564620000000000D7C51C659063213477
:1039B00000000000000000007564630000000000CB
:1039C000D7C51C6590632134000000000000000092
:1039D0007564640000000000D7C51C659063213445
:1039E00000000000000000005F746500000000009F
:1039F000D7C51C6590632134000000000000000062
:103A00005F74720000000000D7C51C65906321340C
:103A100000000000000000005F7473000000000060
:103A2000D7C51C6590632134000000000000000031
:103A30005F70730000000000D7C51C6590632134DF
:103A400000000000000000005F6373000000000041
:103A5000D7C51C6590632134000000000000000001
:103A60005F65730000000000D7C51C6590632134BA
:103A700000000000000000005F78730000000000FC
:103A8000D7C51C65906321340000000000000000D1
:103A90005F66650000000000D7C51C659063213497
:103AA00000000000000000006D00000000000000A9
:103AB000D7C506682B62213400000000000000001A
:103AC0007100000000000000D7C5EC672B622134B4
:103AD00000000000000000006F0000000000000077
:103AE000D7C5D2672B62213400000000000000001F
:103AF0002400000000000000D7C520682B6221349C
:103B000000000000456E64206F6620636F6D6D617C
:103B10006E642066696C650A00486F6D696E672087
:103B20006572726F72202D20256320617869732081
:103B300073657474696E6773206D6973636F6E6605
:103B40006967757265640050726F62696E6720659F
:103B500072726F72202D2025632061786973206353
:103B6000616E6E6F74206D6F766520647572696E1C
:103B7000672070726F62696E67005B69645D202008
:103B800054696E7947204944253330730A005B68D5
:103B9000765D202068617264776172652076657257
:103BA00073696F6E2531362E32660A005B68705D70
:103BB0002020686172647761726520706C61746640
:103BC0006F726D2531352E32660A005B66765D2098
:103BD000206669726D776172652076657273696FB0
:103BE0006E2531362E32660A005B66625D202066E5
:103BF00069726D77617265206275696C6425313810
:103C00002E32660A00456E7465722024626F6F74EE
:103C10003D3120746F20656E746572207468652074
:103C2000626F6F74206C6F616465722E0A000A0AFD
:103C30000A2323232054696E794720424F4F542092
:103C40004C4F414445522048656C70202323230A81
:103C500000456E7465722024646566613D31207490
:103C60006F2072657365742074686520737973744E
:103C7000656D20746F2074686520666163746F726F
:103C8000792064656661756C742076616C75657306
:103C90002E0A546869732077696C6C206F766572A0
:103CA000777269746520616E79206368616E6765FB
:103CB0007320796F752068617665206D6164652E6B
:103CC0000A000A0A0A2323232054696E79472052E6
:103CD0004553544F52452044454641554C5453207A
:103CE00048656C70202323230A00496E766F6B654C
:103CF0002073656C66207465737420627920656E2C
:103D0000746572696E672024746573743D4E207704
:103D100068657265204E206973206F6E65206F663E
:103D20003A0A202024746573743D312020736D6F2E
:103D30006B6520746573740A202024746573743D68
:103D4000322020686F6D696E67207465737420205F
:103D50002028796F75206D757374207472697020D6
:103D6000686F6D696E67207377697463686573291E
:103D70000A202024746573743D33202073717561AB
:103D80007265207465737420202028612073657229
:103D9000696573206F662073717561726573290A96
:103DA000202024746573743D342020617263207474
:103DB00065737420202020202028736F6D65206C8F
:103DC0006172676520636972636C6573290A2020DC
:103DD00024746573743D3520206477656C6C2074A1
:103DE00065737420202020286D6F766573207370B2
:103DF000616365642062792031207365636F6E644E
:103E0000206477656C6C73290A20202474657374B0
:103E10003D36202066656564686F6C642074657348
:103E2000742028656E746572202120616E64207E86
:103E300020746F20686F6C6420616E6420726573FB
:103E4000746172742C207265737065637469766531
:103E50006C79290A202024746573743D3720204D25
:103E600020636F64657320746573742020284D206F
:103E7000636F64657320696E7465726D696E676CDB
:103E800065642077697468206D6F766573290A20F0
:103E90002024746573743D3820204A534F4E20749B
:103EA0006573742020202020286D6F74696F6E2048
:103EB000746573742072756E207573696E67204A1D
:103EC000534F4E20636F6D6D616E6473290A20201D
:103ED00024746573743D392020696E76657273654C
:103EE0002074696D6520746573740A2020247465DC
:103EF00073743D313020726F74617279206D6F740C
:103F0000696F6E20746573740A202024746573745D
:103F10003D313120736D616C6C206D6F766573205F
:103F2000746573740A202024746573743D313220E3
:103F3000736C6F77206D6F76657320746573740A88
:103F4000202024746573743D313320636F6F726475
:103F5000696E6174652073797374656D206F666630
:103F6000736574207465737420284739322C204798
:103F700035342D473539290A0A5465737473206125
:103F80007373756D6520612063656E746572656419
:103F9000205859206F726967696E20616E642061D4
:103FA00074206C656173742038306D6D20636C65AE
:103FB0006172616E636520696E20616C6C2064695A
:103FC00072656374696F6E730A54657374732061EC
:103FD0007373756D65205A20686173206174206C5D
:103FE000656173742034306D6D20706F736969740E
:103FF00069766520636C656172616E63650A5465FC
:1040000073747320737461727420776974682061AB
:10401000204730205830205930205A30206D6F769C
:10402000650A486F6D696E67206973207468652042
:10403000657863657074696F6E2E204E6F20696EAF
:10404000697469616C20706F736974696F6E206F39
:104050007220636C656172616E63652069732061B3
:104060007373756D65640A000A0A0A2323232054BA
:10407000696E79472053454C462054455354204897
:10408000656C70202323230A004561636820242087
:10409000636F6D6D616E642061626F766520616C27
:1040A000736F20646973706C617973207468652024
:1040B000746F6B656E20666F722065616368207334
:1040C000657474696E6720696E205B205D20627282
:1040D00061636B6574730A546F207669657720732A
:1040E000657474696E677320656E746572206120F3
:1040F000746F6B656E3A0A0A2020243C746F6B65FE
:104100006E3E0A0A466F72206578616D706C65209C
:104110002479667220746F20646973706C617920F1
:104120007468652059206D61782066656564207229
:104130006174650A0A546F20757064617465207338
:10414000657474696E677320656E74657220746F30
:104150006B656E20657175616C732076616C756539
:104160003A0A0A2020243C746F6B656E3E3D3C7613
:10417000616C75653E0A0A466F72206578616D70E4
:104180006C6520247966723D38303020746F20735E
:104190006574207468652059206D617820666565B6
:1041A00064207261746520746F20383030206D6D2A
:1041B0002F6D696E7574650A466F7220636F6E6647
:1041C000696775726174696F6E2064657461696C8A
:1041D00073207365653A2068747470733A2F2F6783
:1041E00069746875622E636F6D2F73796E7468657C
:1041F000746F732F54696E79472F77696B692F54E9
:10420000696E79472D436F6E66696775726174696F
:104210006F6E0A00546865736520636F6D6D616E23
:104220006473206172652061637469766520666FCE
:104230007220636F6E66696775726174696F6E3A3A
:104240000A2020247379732053686F772073797361
:1042500074656D202867656E6572616C29207365D1
:104260007474696E67730A202024312020205368FB
:104270006F77206D6F746F7220312073657474696D
:104280006E677320286F7220776861746576657237
:10429000206D6F746F7220796F752077616E742056
:1042A000312C322C332C34290A2020247820202051
:1042B00053686F7720582061786973207365747430
:1042C000696E677320286F72207768617465766500
:1042D00072206178697320796F752077616E742020
:1042E000782C792C7A2C612C622C63290A202024CA
:1042F0006D20202053686F7720616C6C206D6F7487
:104300006F722073657474696E67730A202024715C
:1043100020202053686F7720616C6C20617869736E
:104320002073657474696E67730A2020246F2020DF
:104330002053686F7720616C6C206F6666736574BC
:104340002073657474696E67730A2020242420200A
:104350002053686F7720616C6C2073657474696E8C
:1043600067730A2020246820202053686F77207408
:104370006869732068656C702073637265656E0A86
:104380000A000A0A0A2323232054696E794720432E
:104390004F4E46494755524154494F4E2048656C4F
:1043A00070202323230A000A466F7220646574611B
:1043B000696C65642054696E794720696E666F2068
:1043C0007365653A2068747470733A2F2F67697447
:1043D0006875622E636F6D2F73796E746865746F84
:1043E000732F54696E79472F77696B692F0A466F6F
:1043F0007220746865206C617465737420666972DC
:104400006D77617265207365653A206874747073A6
:104410003A2F2F6769746875622E636F6D2F7379F9
:104420006E746865746F732F54696E79470A506CA7
:1044300065617365206C6F6720616E7920697373A5
:1044400075657320617420687474703A2F2F7777C4
:10445000772E73796E746865746F732E636F6D2F2A
:10446000666F72756D730A486176652066756E0AAF
:10447000000A4E6F74653A2054696E79472067656B
:104480006E657261746573206175746F6D617469B6
:104490006320737461747573207265706F727473C6
:1044A0002062792064656661756C740A546869736A
:1044B0002063616E2062652064697361626C65646B
:1044C00020627920656E746572696E672024737648
:1044D0003D300A536565207468652077696B6920F3
:1044E00062656C6F7720666F72206D6F72652064F5
:1044F000657461696C732E0A005468657365206386
:104500006F6D6D616E6473206172652061637469A3
:1045100076652066726F6D2074686520636F6D6DBF
:10452000616E64206C696E653A0A205E78202020F6
:104530002020202020202020202052657365742018
:1045400028636F6E74726F6C207829202D20736F32
:104550006674776172652072657365740A20203F06
:10456000202020202020202020202020204D61639A
:1045700068696E6520706F736974696F6E20616E13
:10458000642067636F6465206D6F64656C2073746D
:104590006174650A20202420202020202020202053
:1045A0002020202053686F7720616E64207365742B
:1045B00020636F6E66696775726174696F6E2073D0
:1045C000657474696E67730A2020212020202020E2
:1045D000202020202020202046656564686F6C64C0
:1045E000202D2073746F70206D6F74696F6E20774B
:1045F0006974686F7574206C6F73696E6720706F73
:10460000736974696F6E0A20207E2020202020208C
:10461000202020202020204379636C652053746182
:104620007274202D20726573746172742066726FCB
:104630006D2066656564686F6C640A2020682020C0
:10464000202020202020202020202053686F772049
:10465000746869732068656C702073637265656E39
:104660000A20202468202020202020202020202014
:104670002053686F7720636F6E6669677572617427
:10468000696F6E2068656C702073637265656E0A71
:1046900020202474657374202020202020202020D6
:1046A0004C6973742073656C662D74657374730A3A
:1046B000202024746573743D4E202020202020206B
:1046C00052756E2073656C662D74657374204E0A86
:1046D000202024686F6D653D31202020202020207F
:1046E00052756E206120686F6D696E672063796313
:1046F0006C650A202024646566613D3120202020FD
:10470000202020526573746F726520616C6C207379
:10471000657474696E677320746F202266616374B8
:104720006F7279222064656661756C74730A000A81
:104730000A0A2323232054696E79472048656C7048
:10474000202323230A005B6A735D20206A736F6E47
:104750002073657269616C697A65207374796C6520
:10476000253964205B303D72656C617865642C315D
:104770003D7374726963745D0A005B6A765D202024
:104780006A736F6E20766572626F73697479253112
:104790003564205B303D73696C656E742C313D6609
:1047A0006F6F7465722C323D6D65737361676573ED
:1047B0002C333D636F6E666967732C343D6C696E94
:1047C000656E756D2C353D766572626F73655D0A39
:1047D000005B656A5D2020656E61626C65206A73AE
:1047E0006F6E206D6F646525313364205B303D74DE
:1047F0006578742C313D4A534F4E5D0A00DE58D81F
:1048000058D158CC58C358B858AD58A15895588766
:10481000587058615854584858345827581258FE00
:1048200057FB57F857E957D457BF57B057A0578E83
:104830005777575A573D5724570E57FD56EB56DEBC
:1048400056CC56B256AF56AC56A956A656A356A04D
:10485000569D569A569756945691568E568B568814
:1048600056855682567F567C5679567656735670C4
:10487000566D566A566756645661565E565B565874
:1048800056555652564F564C564956465643564024
:10489000563D563A563756345631562E562B5628D4
:1048A00056255622561F561C561956165613561084
:1048B00056EC55CC55B25598557E555A553D552513
:1048C000550F55F554D154BF54AD5494547E54688B
:1048D000545054385426540854F353D553B053AC61
:1048E00053A853A453A0539C539853945390538C60
:1048F000538853845380537C537853745370536C50
:10490000535253385325530953F752E052BF52AE16
:10491000528E526E5254523A522352F051C351A306
:104920005181515B5134511851F950DF50C550A09D
:104930005077505F5034500850D24F9D4F8B4F7975
:104940004F6A4F574F3E4F1C4F0A4FF84EE64ED41A
:104950004EC24EB04E9E4E8C4E7A4E684E564E44CF
:104960004E324E204E1C4E184E144E104E0C4E0819
:104970004E044E004EFC4DF84DF44DF04DEC4DE81C
:104980004DE44DE04DDC4DD84DD44DD04DBC4D9E49
:104990004D824D574D324D0D4D094D054D014DFD8B
:1049A0004CF94CF54CF14CED4CE94CE54CE14CDD4F
:1049B0004CD94CD54CC14CA54C894C6D4C514C3507
:1049C0004C194CFD4BE14BC54BA94B8D4B714B6DBD
:1049D0004B694B654B614B5D4B594B554B414B19EB
:1049E0004BF24ACC4A9F4A794A4C4A484A444A4088
:1049F0004A2D4A0C4AF7494A6F6767696E67206318
:104A000079636C65206661696C65640050726F62E1
:104A10006520656E64706F696E74206973207374AD
:104A2000617274696E6720706F696E740050726F86
:104A30006265206379636C65206661696C656400FA
:104A4000323439003234380032343700486F6D69FF
:104A50006E67204572726F72202D20486F6D696EEF
:104A600067207377697463686573206D6973636F1A
:104A70006E6669677572656400486F6D696E672060
:104A80004572726F72202D204E656761746976657C
:104A9000206C61746368206261636B6F66660048B6
:104AA0006F6D696E67204572726F72202D2054728F
:104AB0006176656C206D696E2026206D61782061BD
:104AC0007265207468652073616D6500486F6D695B
:104AD0006E67204572726F72202D204C617463687E
:104AE0002076656C6F63697479206973207A6572CA
:104AF0006F00486F6D696E67204572726F72202D6E
:104B0000205365617263682076656C6F63697479A0
:104B1000206973207A65726F00486F6D696E672037
:104B20004572726F72202D20426164206F72206E78
:104B30006F20617869732073706563696669656465
:104B400000486F6D696E67206379636C65206661EC
:104B5000696C6564003233390032333800323337E0
:104B600000323336003233350032333400323333DF
:104B700000536F6674206C696D6974206578636595
:104B800065646564202D2043206D617800536F6655
:104B900074206C696D69742065786365656465640B
:104BA000202D2043206D696E00536F6674206C6960
:104BB0006D6974206578636565646564202D2042A5
:104BC000206D617800536F6674206C696D69742084
:104BD0006578636565646564202D2042206D696E8B
:104BE00000536F6674206C696D6974206578636525
:104BF00065646564202D2041206D617800536F66E7
:104C000074206C696D69742065786365656465649A
:104C1000202D2041206D696E00536F6674206C69F1
:104C20006D6974206578636565646564202D205A1C
:104C3000206D617800536F6674206C696D69742013
:104C40006578636565646564202D205A206D696E02
:104C500000536F6674206C696D69742065786365B4
:104C600065646564202D2059206D617800536F665E
:104C700074206C696D69742065786365656465642A
:104C8000202D2059206D696E00536F6674206C6969
:104C90006D6974206578636565646564202D2058AE
:104CA000206D617800536F6674206C696D697420A3
:104CB0006578636565646564202D2058206D696E94
:104CC00000536F6674206C696D6974206578636544
:104CD0006564656400323139003231380032313771
:104CE0000032313600323135003231340032313366
:104CF000003231320032313100323130003230395D
:104D000000323038003230370032303600547261B1
:104D100070657A6F696420706C616E6E6572206672
:104D200061696C656420746F20636F6E766572676D
:104D300065004C696D6974207377697463682068D5
:104D40006974202D2053687574646F776E206F63CB
:104D5000637572726564004D616368696E65206990
:104D60007320616C61726D6564202D20436F6D6DE1
:104D7000616E64206E6F742070726F63657373650B
:104D800064004D6F7665206C657373207468616E86
:104D9000206D696E696D756D2074696D65004D6F6C
:104DA0007665206C657373207468616E206D696E22
:104DB000696D756D206C656E6774680047656E651A
:104DC0007269632054696E7947206572726F720050
:104DD000313939003139380031393700313936004D
:104DE000313935003139340031393300313932004D
:104DF000313931003139300031383900313838003B
:104E00003138370031383600313835003138340028
:104E10003138330031383200313831003138300028
:104E20005420776F726420697320696E76616C69B3
:104E300064005420776F7264206973206D69737306
:104E4000696E67005220776F726420697320696E03
:104E500076616C6964005220776F726420697320F8
:104E60006D697373696E67005120776F7264206992
:104E70007320696E76616C6964005120776F72648B
:104E8000206973206D697373696E67004C20776FBA
:104E9000726420697320696E76616C6964004C20CD
:104EA000776F7264206973206D697373696E670030
:104EB0004820776F726420697320696E76616C692F
:104EC00064004820776F7264206973206D69737382
:104ED000696E67004520776F726420697320696E80
:104EE00076616C6964004520776F72642069732075
:104EF0006D697373696E67004420776F726420690F
:104F00007320696E76616C6964004420776F726407
:104F1000206973206D697373696E67005020776F25
:104F20007264206973206E6F7420612076616C69F1
:104F30006420746F6F6C206E756D62657200502016
:104F4000776F7264206973206E6F7420616E2069C0
:104F50006E7465676572005020776F7264206973A4
:104F6000206E65676174697665005020776F7264A2
:104F7000206973207A65726F005020776F72642009
:104F8000697320696E76616C6964005020776F7276
:104F900064206973206D697373696E670041726381
:104FA0002073706563696669636174696F6E2065FB
:104FB00072726F72202D20656E64706F696E74203E
:104FC0006973207374617274696E6720706F696EA3
:104FD000740041726320737065636966696361740C
:104FE000696F6E206572726F72202D207261646924
:104FF000757320617263206F7574206F6620746F03
:105000006C6572616E6365004172632073706563E5
:10501000696669636174696F6E206572726F722070
:105020002D206D697373696E67206F666673657492
:105030002873290041726320737065636966696330
:105040006174696F6E206572726F72202D206D69B8
:105050007373696E672061786973286573290041ED
:1050600072632073706563696669636174696F6EEA
:10507000206572726F72005370696E646C65206D8A
:10508000757374206265207475726E696E67206630
:105090006F72207468697320636F6D6D616E640058
:1050A0005370696E646C65206D7573742062652041
:1050B0006F666620666F72207468697320636F6D17
:1050C0006D616E64005370696E646C652053207767
:1050D0006F726420697320696E76616C6964005335
:1050E00070696E646C65205320776F7264206973F9
:1050F000206D697373696E67005370696E646C65C7
:1051000020737065656420657863656564656420F7
:105110006D6178696D756D005370696E646C6520A2
:1051200073706565642062656C6F77206D696E6968
:105130006D756D0050726F6772616D6D6564207082
:105140006F696E742073616D652061732063757281
:1051500072656E7420706F696E7400437574746547
:105160007220636F6D70656E736174696F6E20631A
:10517000616E6E6F7420626520656E61626C65643D
:10518000005265717565737465642076656C6F6334
:105190006974792065786365656473206C696D69ED
:1051A0007473004730206F72204731206D7573741F
:1051B0002062652061637469766520666F7220479E
:1051C000353300526F7461727920617865732063A2
:1051D000616E6E6F742062652075736564207769F7
:1051E0007468207468697320636F6D6D616E64000C
:1051F000496E76657273652074696D65206D6F64A4
:10520000652063616E6E6F742062652075736564DE
:105210002077697468207468697320636F6D6D61AD
:105220006E64004665656472617465206E6F7420FB
:105230007370656369666965640053656C65637462
:10524000656420706C616E6520697320696E76619B
:105250006C69640053656C656374656420706C618F
:105260006E65206973206D697373696E670041789C
:1052700069732074617267657420706F73697469F3
:105280006F6E20697320696E76616C696400417885
:1052900069732074617267657420706F73697469D3
:1052A0006F6E206973206D697373696E6700417852
:1052B00069732069732064697361626C656400417D
:1052C00078697320697320696E76616C6964206601
:1052D0006F72207468697320636F6D6D616E640016
:1052E000417869732063616E6E6F7420626520700F
:1052F000726573656E74004178697320776F7264AC
:10530000206D697373696E670047636F6465206D14
:105310006F64616C2067726F75702076696F6C6165
:1053200074696F6E004D20636F646520756E7375D0
:1053300070706F727465640047636F646520636F9B
:105340006D6D616E6420756E737570706F727465CB
:10535000640047656E657269632047636F6465200A
:10536000696E707574206572726F72003132390027
:1053700031323800313237003132360031323500C7
:1053800031323400313233003132320031323100C7
:1053900031323000313139003131380031313700AC
:1053A00031313600313135003131340031313300A3
:1053B000436F6D6D616E642063616E6E6F74206209
:1053C000652074616B656E20617420746869732058
:1053D00074696D6500436F6E666967206E6F742037
:1053E00074616B656E20647572696E6720637963A2
:1053F0006C65004A534F4E206F757470757420743D
:105400006F6F206C6F6E67004A534F4E20696E704D
:1054100075742068617320746F6F206D616E7920E0
:105420007061697273004A534F4E2073796E7461D4
:1054300078206572726F7200496E707574207661A3
:105440006C756520756E737570706F72746564002D
:10545000496E7075742076616C75652072616E6737
:1054600065206572726F7200496E70757420766186
:105470006C756520746F6F206C6172676500496E92
:105480007075742076616C756520746F6F20736D14
:10549000616C6C00496E7075742065786365656435
:1054A00073206D6178206C656E677468004261647A
:1054B000206E756D62657220666F726D6174004D4D
:1054C000616C666F726D656420636F6D6D616E6493
:1054D00000556E7265636F676E697A656420636FED
:1054E0006D6D616E64206F7220636F6E66696720F8
:1054F0006E616D650047656E6572696320617373E7
:10550000657274696F6E206661696C757265004DB5
:10551000656D6F7279206661756C74206465746561
:105520006374656400537461636B206F76657266A3
:105530006C6F7720646574656374656400436F6E97
:1055400074726F6C6C657220617373657274696FCD
:105550006E206661696C7572650043616E6F6E697D
:1055600063616C206D616368696E6520617373654A
:105570007274696F6E206661696C75726500506C3B
:10558000616E6E657220617373657274696F6E20EF
:105590006661696C75726500537465707065722020
:1055A000617373657274696F6E206661696C757280
:1055B0006500456E636F6465722061737365727414
:1055C000696F6E206661696C75726500494F207362
:1055D00075622D73797374656D2061737365727470
:1055E000696F6E206661696C75726500436F6E66E7
:1055F0006967207375622D73797374656D206173AB
:1056000073657274696F6E206661696C757265008E
:105610003839003838003837003836003835003827
:105620003400383300383200383100383000373930
:105630000037380037370037360037350037340049
:105640003733003732003731003730003639003613
:1056500038003637003636003635003634003633FB
:10566000003632003631003630003539003538002A
:1056700035370035360035350035340035330035E3
:1056800032003531003530003439003438003437D9
:105690000034360034350034340034330034320002
:1056A00034310034300033390033380033370033BD
:1056B0003600426164207374617475732072657082
:1056C0006F72742073657474696E670050657273CD
:1056D000697374656E6365206572726F7200466CE3
:1056E0006F6174206973204E414E00466C6F617487
:1056F00020697320696E66696E697465004D6F7606
:10570000652074696D65206973204E414E004D6FB0
:1057100076652074696D6520697320696E66696EAF
:105720006974650047656E657269632065786365B5
:105730007074696F6E207265706F72740046616973
:105740006C656420746F2067657420706C616E6E88
:105750006572206275666665720053797374656D53
:1057600020616C61726D202D207368757474696E90
:105770006720646F776E00496E697469616C697A3D
:105780006174696F6E206661696C7572650052653F
:1057900061642D6F6E6C792061646472657373004F
:1057A000496E76616C69642041646472657373004C
:1057B000446976696465206279207A65726F004673
:1057C0006C6F6174696E6720706F696E74206572AA
:1057D000726F7200496E7465726E616C2072616ED8
:1057E0006765206572726F7200496E7465726E61D2
:1057F0006C206572726F7200313900313800467565
:105800006E6374696F6E206973207374756262656C
:105810006400456E746572696E6720626F6F7420F4
:105820006C6F6164657200496E697469616C697A54
:10583000696E67004275666665722066756C6C20DD
:105840002D20666174616C00427566666572206623
:10585000756C6C0042756666657220656D70747952
:10586000004E6F2073756368206465766963650018
:105870004D61782066696C652073697A652065786A
:105880006365656465640046696C65206E6F7420AD
:105890006F70656E00456E64206F662066696C658A
:1058A00000456E64206F66206C696E650048617209
:1058B00064207265736574005465726D696E6174FD
:1058C000656400436F6D706C657465004E6F6F703A
:1058D0000045616761696E004572726F72004F4BDF
:1058E000005B7031706F665D2070776D207068614D
:1058F0007365206F66662020202531352E336620A3
:105900005B302E2E315D0A005B70317770685D2050
:1059100070776D20636377207068617365206869B4
:105920002531352E3366205B302E2E315D0A005B2B
:10593000703177706C5D2070776D206363772070B5
:1059400068617365206C6F2531352E3366205B30BE
:105950002E2E315D0A005B70317773685D207077A1
:105960006D206363772073706565642068692531F5
:10597000352E30662052504D0A005B703177736CC3
:105980005D2070776D206363772073706565642098
:105990006C6F2531352E30662052504D0A005B70F9
:1059A000316370685D2070776D2063772070686167
:1059B0007365206869202531352E3366205B302ED3
:1059C0002E315D0A005B703163706C5D2070776D05
:1059D000206377207068617365206C6F20253135F6
:1059E0002E3366205B302E2E315D0A005B703163F2
:1059F00073685D2070776D206377207370656564D0
:105A0000206869202531352E30662052504D0A001D
:105A10005B703163736C5D2070776D2063772073EA
:105A200070656564206C6F202531352E30662052FC
:105A3000504D0A005B70316672715D2070776D2089
:105A40006672657175656E63792020202531352E6B
:105A5000306620487A0A0053595354454D20524528
:105A6000414459004C6F6164696E6720636F6E66D4
:105A70006967732066726F6D20454550524F4D0027
:105A8000496E697469616C697A696E6720636F6ECB
:105A90006669677320746F2053686170656F6B6F00
:105AA00032203530306D6D2070726F66696C650024
:105AB0007B226572223A7B226662223A25302E32A0
:105AC000662C227374223A25642C226D7367223A65
:105AD000222573227D7D0A007B65723A7B66623ADD
