:100000000C94A24B0C94C34B0C9444D10C94C34B52
:100010000C94C34B0C94C34B0C94C34B0C94C34B28
:100020000C94C34B0C94C34B0C94C34B0C946FD3E4
:100030000C94C34B0C94C34B0C948CB50C94C34BD5
:100040000C94C34B0C94C34B0C94C34B0C94C34BF8
:100050000C94C34B0C94C34B0C94C34B0C94C34BE8
:100060000C94C34B0C945ED10C94EDD00C94C34B08
:100070000C94B7CA0C9459CA0C9495CA0C94C34BEF
:100080000C940FD20C94C34B0C94C34B0C94C34BE5
:100090000C94C34B0C94C34B0C94C34B0C94C34BA8
:1000A0000C94C34B0C94C34B0C94C34B0C948ABC60
:1000B0000C942EBD0C94C34B0C94C34B0C947DB785
:1000C0000C94C34B0C94C34B0C94C34B0C94C34B78
:1000D0000C94C34B0C94C34B0C94C34B0C94C34B68
:1000E0000C94A8A70C94C34B0C94C34B0C94C34B17
:1000F0000C94C34B0C94C34B0C94C34B0C94C34B48
:100100000C9461BC0C9405BD0C9438BC0C94DCBC04
:100110000C94C34B0C94C34B0C94C34B0C94C34B27
:100120000C94C34B0C94C34B0C94C34B0C94C34B17
:100130000C94C34B0C94E1B60C94C34B0C94C34B7E
:100140000C94C34B0C94C34B0C94C34B0C94C34BF7
:100150000C94C34B0C94C34B0C949EA70C94C34BB0
:100160000C94C34B0C94C34B0C94C34B0C94C34BD7
:100170000C94C34B0C94C34B0C94C34B0C94C34BC7
:100180000C94C34B0C94C34B0C94C34B0C94C34BB7
:100190000C94C34B0C94C34B0C94C34B0C94C34BA7
:1001A0000C94B3BC0C9457BD0C94C34B0C94C34B30
:1001B0000C942FB70C94C34B0C94C34B0C94C34BAF
:1001C0000C94C34B0C94C34B0C94C34B0C94C34B77
:1001D0000C94C34B0C94C34B0C94C34B0C94C34B67
:1001E0000C94C34B0C94C34B087512751C75267583
:1001F0003175CF7ACF7ACF7ACF7ACF7A3775CF7AF7
:10020000CF7ACF7ACF7ACF7ACF7A397543754D7559
:1002100057756175CF7ACF7ACF7ACF7ACF7ACF7A86
:100220006B75CF7AC175CF7ACF7ACF7ACF7ACF7A02
:10023000CF7ACF7A0076CF7AB678CF7ACF7ACF7A64
:10024000CF7ACF7ACF7ACF7ACF7AB678CF7ACF7A81
:10025000CF7A2D7632763C764676487652765D7643
:10026000CF7A6876CF7ACF7AA576CF7ACF7ACF7ADF
:10027000CF7ACF7ACF7ACF7ACF7ACF7ACF7ACF7A36
:10028000CF7ACF7ACF7ACF7AAF76CF7ACF7ACF7A4A
:10029000CF7ACF7ACF7ACF7ACF7ACF7AB976C37640
:1002A000CD76167720773977397743774D7757773B
:1002B00061776B7770777A778477CD7ACD7ACD7ADC
:1002C000CD7ACD7ACD7ACD7ACD7ACD7ACD7ACD7AF6
:1002D000CD7ACD7ACD7ACD7ACD7ACD7ACD7ACD7AE6
:1002E000CD7A4377CD7ACD7ACD7ACD7ACD7ACD7A63
:1002F000CD7ACD7ACD7ACD7ACD7ACD7ACD7ACD7AC6
:10030000CD7ACD7ACD7A8E779877A277AC77CD7A81
:10031000CD7ACD7ACD7ACD7ACD7ACD7ACD7A39773C
:100320005A7A1B7A1F7A277A037A077A0F7A137A16
:10033000337A467A4E7A527A567AB27A2B7A27787C
:1003400038784978CF7ACF7AC177F974CF7A5A78EA
:100350006B787C78B6782A779E78CF7AD277CF7A06
:100360008D78E377B677CF7ACF7ACF7AF47705783E
:100370001678D1BBD9BBE1BBE9BBF1BBF9BB01BC72
:1003800009BCFCBE59BE61BE69BE71BE79BE81BEEC
:1003900089BE91BE99BEA1BEA9BEB1BEB9BEC1BE45
:1003A000E1BEE1BEE1BEE1BEE1BEE1BEE1BEE1BE55
:1003B000E1BEE1BEE1BEE1BEE1BEE1BEE1BEE1BE45
:1003C000E1BEE1BEE1BEE1BEE1BEE1BEE1BEE1BE35
:1003D000E1BEE1BEE1BEE1BEE1BEE1BEE1BEE1BE25
:1003E000E1BEE1BEE1BEC9BED1BEE1BEE1BEE1BE3D
:1003F000E1BEE1BEE1BEE1BEE1BEE1BEE1BEE1BE05
:10040000E1BEE1BEE1BEE1BEE1BEE1BEE1BEE1BEF4
:10041000E1BEE1BEE1BEE1BEE1BEE1BEE1BEE1BEE4
:10042000E1BEE1BEE1BEE1BEE1BEE1BEE1BEE1BED4
:10043000E1BEE1BEE1BEE1BEE1BEE1BEE1BEE1BEC4
:10044000E1BEE1BEE1BEE1BED9BE084AD73B3BCE2C
:10045000016E84BCBFFDC12F3D6C74319ABD5683C3
:100460003DDA3D00C77F11BED9E4BB4C3E916BAA7B
:10047000AABE000000803F05A84CCDB2D44EB938CA
:1004800036A9020C50B9918688083CA6AAAA2ABEB1
:10049000000000803F07634236B79BD8A71A39682F
:1004A0005618AEBAAB558C1D3CB7CC5763BD6DED3D
:1004B000FD753EF6177231BF000000803F08000056
:1004C00000BE922449123EABAAAA2ABECDCCCC4C87
:1004D0003E00000080BEABAAAAAA3E00000000BFFA
:1004E000000000803F0000000000084178D3BB43BB
:1004F00087D1133D190E3CC3BD4282AD2B3E68EC43
:100500008276BED98FE1A93E4C80EFFFBE01C4FFC9
:100510007F3F0000000000000C9429BE0C94F45AA8
:100520000C94CD760C9495C90C9441AE0C94217B1F
:100530000C94C4A90C94065B0C9420680C942A7744
:100540000C9412750C94CD7A0C940DA90C942CCEAD
:100550000C9405780C948D780C94815E0C94C2BB3D
:100560000C94F9BB0C94F9A80C949A5F0C94186C39
:100570000C9496AE0C94595E0C940C5B0C943977E9
:100580000C945D5E0C94B2AC0C94665F0C94617537
:100590000C94277A0C942C620C94BBC20C94B9BEB8
:1005A0000C946F670C94D94B0C9400760C948DD0FE
:1005B0000C94077C0C949EBB0C94B0C30C94CF4B52
:1005C0000C947C780C941D5B0C94C5AF0C948D5EE0
:1005D0000C94A45B0C94C54B0C946B750C9461BE8D
:1005E0000C9499BE0C9468610C946B770C94D9BBF5
:1005F0000C9454830C94137A0C948F610C9416779A
:100600000C941C750C94BD670C94A85D0C94715EE1
:100610000C9458680C947D5E0C9489670C94865FEA
:100620000C9443750C9457770C94FA5A0C943C5BD9
:100630000C9401BC0C944E7A0C942D760C94F470AE
:100640000C945A780C949AAE0C94B6770C94FA5E8B
:100650000C94567A0C94825F0C94D75E0C94EDA89F
:100660000C94935D0C945D5B0C94364F0C94795E06
:100670000C943F5C0C94DECE0C94F1A80C949A5D23
:100680000C94E75A0C9463CE0C94895E0C947E5FB4
:100690000C94E1BB0C9422BA0C94CA7C0C9456AE18
:1006A0000C94285B0C9406CA0C942D630C949E78D1
:1006B0000C943E580C94005B0C9431750C94915E34
:1006C0000C94B9760C943E670C94725F0C948F7CFA
:1006D0000C94765B0C94DB5E0C94475B0C94B85ED8
:1006E0000C94467A0C9457750C94184C0C948EAE5E
:1006F0000C94515E0C94837C0C94065C0C9405A9BC
:100700000C94F9740C9479BE0C9498770C941F7A1D
:100710000C9409BC0C943C760C9474C90C94337AF8
:100720000C945A6C0C94CF7A0C9418BB0C944D77A3
:100730000C94A5760C94E1C80C94EFC20C94B964A7
:100740000C9481870C94B1BE0C945A7C0C9459BEC5
:100750000C94D2770C9436670C94BABB0C94BAC242
:100760000C94825C0C9443BE0C94CB6C0C94ED5DA9
:100770000C9442CF0C94655E0C9432760C94F4C9C0
:100780000C9452BB0C9401A90C94AF5D0C94607254
:100790000C9407C90C94DD660C94A2BB0C948A5F80
:1007A0000C94206F0C943A670C94625F0C94117B4C
:1007B0000C94CE5D0C94527A0C9427780C94294CAE
:1007C0000C9468760C947A660C9444610C9437759A
:1007D0000C9448760C94DD820C9408BA0C9471BE8B
:1007E0000C94CA610C94ECAC0C94AA5F0C94F46267
:1007F0000C94745D0C94186F0C94097D0C9415BACC
:100800000C94B6AC0C949E5F0C94F0610C94C3767F
:100810000C946D5E0C9470770C94456C0C9425943C
:100820000C942B7A0C94CCCD0C9469BE0C945F7C08
:100830000C945D760C94077A0C94C1750C948B7CA7
:100840000C94495E0C94B6780C94856B0C94C8613A
:100850000C944D750C94CD620C94347D0C944978B5
:100860000C94E3770C947F7C0C94B4AC0C9475BB23
:100870000C9438780C9426750C9468620C94DC5BAC
:100880000C944D5E0C9420610C9450830C94FACB24
:100890000C94A2770C942E670C94A6BB0C9447BEC4
:1008A0000C94195F0C9492AE0C94555E0C945A7A89
:1008B0000C94F1BB0C947A770C94EEAC0C94B55F6D
:1008C0000C94F05C0C94E9BB0C948E770C94CB6B7D
:1008D0000C94615E0C94F2AC0C941C610C94A367B4
:1008E0000C94755E0C9416780C94C8660C94326760
:1008F0000C94ABBB0C940CC30C94A4620C94955E4A
:100900000C94315B0C94C1770C94525B0C9452762E
:100910000C9489BE0C940F7A0C9472AE0C94FCBEAD
:100920000C948E5F0C94485D0C94B27A0C94F27126
:100930000C94877C0C94125B0C94FA6B0C94F5A8C5
:100940000C94855E0C94F4770C94FDA80C9491BEE5
:100950000C94A2720C9460CD0C9411A90C94BEBBA3
:100960000C941B7A0C9420770C9408750C94D1BBD2
:100970000C94A5520C94A9BE0C94965F0C944676E8
:100980000C94D3C20C9484770C94037A0C946E5F0D
:100990000C945E5F0C94695E0C94795D0C949CC819
:1009A0000C946B780C94995E0C94765F0C94AC77F5
:1009B0000C9427850C944C830C94C9BE0C94925FC4
:1009C0000C94D7710C9439750C94026B0C94E867F5
:1009D0000C94E1BE0C948D5B0C94C1BE0C9409A9DF
:1009E0000C94C6600C94EEAF0C9481BE0C947A5FAC
:1009F0000C946A5F0C94A1BE0C946F5C0C944377CA
:100A00000C945F7D0C94AF760C94A15D0C9461778F
:100A10000C94CCCC0C94D1BE0C94D9BE0C94E3BAFB
:100A20000C9423BE5B257325735D202573202573ED
:100A300020706F736974696F6E2531382E336625A7
:100A4000730A005B257325735D20257320257320B1
:100A50006F66667365742532302E336625730A001F
:100A60005B257325735D202573207A65726F206284
:100A700061636B6F66662531392E336625730A0014
:100A80005B257325735D202573206C61746368207A
:100A90006261636B6F66662531382E336625730A93
:100AA000005B257325735D202573206C617463687A
:100AB0002076656C6F636974792531332E30662535
:100AC000732F6D696E0A005B257325735D20257396
:100AD000207365617263682076656C6F63697479F1
:100AE0002531322E306625732F6D696E0A005B2525
:100AF0007325735D20257320737769746368206D97
:100B0000617825313764205B303D6F66662C313D5E
:100B1000686F6D696E672C323D6C696D69742C333A
:100B20003D6C696D69742B686F6D696E675D0A0055
:100B30005B257325735D2025732073776974636863
:100B4000206D696E25313764205B303D6F66662C01
:100B5000313D686F6D696E672C323D6C696D6974EB
:100B60002C333D6C696D69742B686F6D696E675DC0
:100B70000A005B257325735D20257320726164690B
:100B800075732076616C75652532302E3466257359
:100B90000A005B257325735D202573206A756E63DB
:100BA00074696F6E20646576696174696F6E253152
:100BB000342E3466257320286C6172676572206953
:100BC0007320666173746572290A005B257325734F
:100BD0005D202573206A65726B20686F6D696E6792
:100BE0002531362E306625732F6D696E5E33202ACF
:100BF0002031206D696C6C696F6E0A005B2573256E
:100C0000735D202573206A65726B206D6178696D54
:100C1000756D2531352E306625732F6D696E5E3307
:100C2000202A2031206D696C6C696F6E0A005B258B
:100C30007325735D2025732074726176656C206D59
:100C4000696E696D756D2531372E336625730A001F
:100C50005B257325735D2025732074726176656C46
:100C6000206D6178696D756D2531372E336625737A
:100C70000A005B257325735D2025732076656C6FF4
:100C800063697479206D6178696D756D2531312ED8
:100C9000306625732F6D696E0A005B257325735DC1
:100CA000202573206665656472617465206D6178C6
:100CB000696D756D2531312E306625732F6D696E26
:100CC0000A005B257325735D2025732061786973A5
:100CD000206D6F6465253138642025730A005B6DD3
:100CE000615D20206D696E20617263207365676DA0
:100CF000656E742531382E336625730A005B6D6C82
:100D00005D20206D696E206C696E65207365676D6E
:100D1000656E742531372E336625730A005B736C5C
:100D20005D2020736F6674206C696D697420656E38
:100D300061626C65253132640A005B63745D20205A
:100D400063686F7264616C20746F6C6572616E634E
:100D5000652531372E346625730A005B6A615D2094
:100D6000206A756E6374696F6E20616363656C657C
:100D7000726174696F6E25382E306625730A005BC8
:100D80006764695D2064656661756C742067636F74
:100D900064652064697374616E6365206D6F64655A
:100DA000253264205B303D4739302C313D473931A5
:100DB0005D0A005B6770615D2064656661756C74D7
:100DC0002067636F6465207061746820636F6E7460
:100DD000726F6C253364205B303D4736312C313DDA
:100DE0004736312E312C323D4736345D0A005B6781
:100DF000636F5D2064656661756C742067636F6402
:100E00006520636F6F72642073797374656D253329
:100E100064205B312D3620284735342D473539295C
:100E20005D0A005B67756E5D2064656661756C7454
:100E30002067636F646520756E697473206D6F64DD
:100E400065253564205B303D4732302C313D4732DB
:100E5000315D0A005B67706C5D2064656661756C6E
:100E6000742067636F646520706C616E6525313036
:100E700064205B303D4731372C313D4731382C32CF
:100E80003D4731395D0A00256320776F726B206F13
:100E900066667365743A2531322E336625730A000F
:100EA0002563206D616368696E6520706F736E3AAB
:100EB0002531312E336625730A00256320706F7348
:100EC0006974696F6E3A2531352E336625730A00D1
:100ED000546F6F6C206E756D62657220202020202B
:100EE000202020202025640A004665656420726168
:100EF0007465206D6F64653A2020202020202573C2
:100F00000A0044697374616E6365206D6F64653AAD
:100F10002020202020202025730A005061746820A2
:100F20004D6F64653A2020202020202020202020A2
:100F300025730A00506C616E653A20202020202025
:100F400020202020202020202025730A004D6F74AF
:100F5000696F6E206D6F64653A202020202020206C
:100F6000202025730A00436F6F7264696E61746597
:100F70002073797374656D3A20202025730A00551B
:100F80006E6974733A202020202020202020202009
:100F90002020202025730A00486F6D696E6720733A
:100FA000746174653A202020202020202025730AB7
:100FB0000046656564686F6C642073746174653A9B
:100FC00020202020202025730A004D6F74696F6E49
:100FD0002073746174653A20202020202020202571
:100FE000730A004379636C652073746174653A20F9
:100FF000202020202020202025730A005261772005
:101000006D616368696E652073746174653A202050
:101010002025730A004D616368696E6520737461F1
:1010200074653A2020202020202025730A004C6976
:101030006E65206E756D6265723A2531302E3066B0
:101040000A004665656420726174653A2531362E62
:10105000336625732F6D696E0A0056656C6F636980
:1010600074793A2531372E336625732F6D696E0AF0
:1010700000C81097107710473935202D20756E69FC
:1010800074732D7065722D7265766F6C7574696FEF
:101090006E206D6F646500473934202D20756E69B0
:1010A00074732D7065722D6D696E757465206D6F2A
:1010B00064652028692E652E2066656564726174FA
:1010C00065206D6F64652900473933202D20696ED6
:1010D00076657273652074696D65206D6F64650057
:1010E0000411E410473931202D20696E6372656D5B
:1010F000656E74616C2064697374616E6365206DE4
:101100006F646500473930202D206162736F6C7504
:1011100074652064697374616E6365206D6F6465C6
:101120000055113D112711473634202D20636F6E75
:1011300074696E756F7573206D6F64650047363125
:101140002E31202D2065786163742073746F7020B8
:101150006D6F646500473631202D206578616374BA
:101160002070617468206D6F6465008F118011714B
:1011700011473139202D20595A20706C616E65005D
:10118000473138202D20585A20706C616E65004719
:101190003137202D20585920706C616E65001B126C
:1011A0000912F011CF11A811473830202D206361AA
:1011B0006E63656C206D6F74696F6E206D6F646512
:1011C00020286E6F6E65206163746976652900471B
:1011D0003320202D20636F756E74657220636C6FF1
:1011E000636B77697365206172632066656564006F
:1011F000473220202D20636C6F636B776973652005
:10120000617263206665656400473120202D206C83
:10121000696E656172206665656400473020202D27
:10122000206C696E65617220747261766572736597
:1012300020287365656B2900E212C812AE12941261
:101240007A1260124612473539202D20636F6F7273
:1012500064696E6174652073797374656D203600FE
:10126000473538202D20636F6F7264696E61746535
:101270002073797374656D203500473537202D2034
:10128000636F6F7264696E617465207379737465DE
:101290006D203400473536202D20636F6F726469EE
:1012A0006E6174652073797374656D203300473502
:1012B00035202D20636F6F7264696E6174652073D1
:1012C000797374656D203200473534202D20636FAB
:1012D0006F7264696E6174652073797374656D20D3
:1012E0003100473533202D206D616368696E6520BC
:1012F000636F6F7264696E6174652073797374656E
:101300006D0015130F130813486F6D696E67004861
:101310006F6D6564004E6F7420486F6D65640049A1
:101320001344133F13391334132B13456E642048B1
:101330006F6C6400486F6C6400446563656C0050BA
:101340006C616E0053796E63004F6666005C1358E3
:10135000135313486F6C640052756E0053746F70B2
:101360000086137C1376136F136B134A6F67004864
:101370006F6D696E670050726F6265004D616368E2
:10138000696E696E67004F666600BC13B613B013D2
:10139000AB13A713A113981353687574646F776E1A
:1013A000004379636C6500456E640053746F700090
:1013B000416C61726D00526561647900496E6974B7
:1013C00069616C697A696E67001F14191413140E31
:1013D000140A1406140114FB13F513EE13EA13E1B7
:1013E0001353687574646F776E004A6F6700486FB7
:1013F0006D696E67004379636C650050726F62655A
:1014000000486F6C640052756E00456E6400537442
:101410006F7000416C61726D0052656164790049C2
:101420006E697469616C697A696E6700461430147C
:10143000473231202D206D696C6C696D6574657261
:10144000206D6F646500473230202D20696E63681F
:101450006573206D6F6465008014751469146014E1
:101460005B7261646975735D005B696E686962696E
:101470007465645D005B7374616E646172645D00C9
:101480005B64697361626C65645D009A1496149183
:10149000142064656700206D6D0020696E002A2AA3
:1014A0002A204E4F54494345202A2A2A2052657348
:1014B000657474696E672062617564207261746519
:1014C00020746F202573005B6E65745D206E6574FB
:1014D000776F726B206D6F646525313764205B30E8
:1014E0003D6D61737465725D0A005B626175645D78
:1014F0002055534220626175642072617465253104
:101500003564205B313D393630302C323D31393253
:1015100030302C333D33383430302C343D35373691
:1015200030302C353D3131353230302C363D323390
:10153000303430305D0A005B65785D2020656E6177
:10154000626C6520666C6F7720636F6E74726F6C6F
:1015500025313064205B303D6F66662C313D584F3D
:101560004E2F584F46462C20323D5254532F435451
:10157000535D0A005B65655D2020656E61626C6588
:10158000206563686F25313864205B303D6F666687
:101590002C313D6F6E5D0A005B65635D20206578D0
:1015A00070616E64204C4620746F2043524C46207C
:1015B0006F6E205458253664205B303D6F66662C74
:1015C000313D6F6E5D0A00FA15F515EF15E915E36B
:1015D00015DC15D515323330343030003131353229
:1015E0003030003537363030003338343030003169
:1015F00039323030003936303000300073797300C2
:1016000066620000000007027F7C8F61C8612D3494
:101610008F02DB43737973006676000000000703D6
:10162000837C8F61C8613134EC51783F73797300EA
:101630006870000000000700877C8F61F462353419
:101640000000803F73797300687600000000070097
:101650008B7C8F615F7C39340000004173797300AB
:1016600069640000000004008F7C077CC861293495
:1016700000000000000000006E00000000000100FB
:10168000495E765BA462192C000000000000000097
:101690006C696E6500000100495E8D5BA462192CC7
:1016A000000000000000000076656C0000000002F1
:1016B000AF5DA45BC8612934000000000000000099
:1016C0006665656400000002CE5D8F61C861562CBE
:1016D000000000000000000073746174000000004E
:1016E0004D5EE75AC8612934000000000000000088
:1016F0006D61637300000000515EF45AC8612934C3
:101700000000000000000000637963730000000027
:10171000555EFA5AC861293400000000000000003C
:101720006D6F747300000000595E005BC86129345E
:101730000000000000000000686F6C640000000002
:101740005D5E065BC86129340000000000000000F7
:10175000756E697400000000655E125BC861293413
:101760000000000000000000636F6F7200000000C6
:10177000695E1D5BC86129340000000000000000A4
:101780006D6F6D6F000000006D5E285BC8612934CD
:101790000000000000000000706C616E000000009E
:1017A000715E315BC8612934000000000000000058
:1017B0007061746800000000755E3C5BC86129348C
:1017C0000000000000000000646973740000000065
:1017D000795E475BC861293400000000000000000A
:1017E00066726D6F000000007D5E525BC861293437
:1017F0000000000000000000746F6F6C000000002B
:10180000815E5D5BC8612934000000006D706F006F
:101810006D706F7800000003AA5F065CC861293410
:10182000000000006D706F006D706F7900000003A4
:10183000AA5F065CC8612934000000006D706F006B
:101840006D706F7A00000003AA5F065CC8612934DE
:10185000000000006D706F006D706F61000000038C
:10186000AA5F065CC8612934000000006D706F003B
:101870006D706F6200000003AA5F065CC8612934C6
:10188000000000006D706F006D706F63000000035A
:10189000AA5F065CC861293400000000706F730005
:1018A000706F7378000000039E5FDC5BC8612934B1
:1018B00000000000706F7300706F73790000000308
:1018C0009E5FDC5BC861293400000000706F73000C
:1018D000706F737A000000039E5FDC5BC86129347F
:1018E00000000000706F7300706F736100000003F0
:1018F0009E5FDC5BC861293400000000706F7300DC
:10190000706F7362000000039E5FDC5BC861293466
:1019100000000000706F7300706F736300000003BD
:101920009E5FDC5BC8612934000000006F667300B5
:101930006F66737800000003B55F3F5CC8612934AF
:10194000000000006F6673006F667379000000038B
:10195000B55F3F5CC8612934000000006F6673000A
:101960006F66737A00000003B55F3F5CC86129347D
:10197000000000006F6673006F6673610000000373
:10198000B55F3F5CC8612934000000006F667300DA
:101990006F66736200000003B55F3F5CC861293465
:1019A000000000006F6673006F6673630000000341
:1019B000B55F3F5CC861293400000000686F6D00AE
:1019C000686F6D6500000000615E0C5B795D293415
:1019D00000000000686F6D00686F6D780000000007
:1019E0009E5F2061C861EE2B00000000686F6D00F3
:1019F000686F6D79000000009E5F2061C861EF2B69
:101A000000000000686F6D00686F6D7A00000000D4
:101A10009E5F2061C861F02B00000000686F6D00C0
:101A2000686F6D61000000009E5F2061C861F12B4E
:101A300000000000686F6D00686F6D6200000000BC
:101A40009E5F2061C861F22B00000000686F6D008E
:101A5000686F6D63000000009E5F2061C861F32B1A
:101A60000000000070726200707262650000000089
:101A7000BAC22061C861F42B0000000070726200DD
:101A80007072627800000003BAC28F61C861F52BE2
:101A90000000000070726200707262790000000342
:101AA000BAC28F61C861F92B000000007072620039
:101AB0007072627A00000003BAC28F61C861FD2BA8
:101AC000000000007072620070726261000000032A
:101AD000BAC28F61C861012C000000007072620000
:101AE0007072626200000003BAC28F61C861052C87
:101AF00000000000707262007072626300000003F8
:101B0000BAC28F61C861092C000000006A6F6700CB
:101B10006A6F677800000000BAC21C61935D132CE5
:101B2000000000006A6F67006A6F677900000000BC
:101B3000BAC21C619A5D132C000000006A6F670036
:101B40006A6F677A00000000BAC21C61A15D132CA5
:101B5000000000006A6F67006A6F676100000000A4
:101B6000BAC21C61A85D132C000000000000000038
:101B70007372000000000000ECACB2ACB4AC2934CD
:101B80000000000000000000717200000000000072
:101B90008EAE41AEC8612934000000000000000094
:101BA000716900000000000092AE56AEC861293491
:101BB0000000000000000000716F00000000000045
:101BC00096AE72AEC861293400000000000000002B
:101BD0006572000000000000BAC2C4A9C8612934BF
:101BE000000000000000000071660000000000001E
:101BF000BAC21C61745D29340000000000000000BE
:101C00007278000000000000EFC2C866C861293485
:101C100000000000000000006D736700000000007D
:101C2000BBC21C61C8612934000000000000000034
:101C3000636C656172000000BAC2A552A5522934D6
:101C400000000000000000007465737400000000D4
:101C5000BAC2097D47BE2934000000000000000020
:101C60006465666100000000BAC2347DC660293434
:101C70000000000000000000626F6F7400000000B0
:101C8000BAC25F7D5A7C29340000000000000000C9
:101C900068656C7000000000BAC2CA7CC861293453
:101CA00000000000000000006800000000000000CC
:101CB000BAC2CA7CC86129340000000031000000AB
:101CC000316D610000000300A2BB2061CA61535363
:101CD00000000000310000003173610000000303C8
:101CE000A6BB8F6108BA5B536666E63F3100000011
:101CF0003174720000000B04ABBB8F6115BA5F53E7
:101D00000000A03F31000000316D690000000300B9
:101D1000BABB206122BA54530000004131000000D8
:101D200031706F0000000300BEBB2061F0615553AD
:101D3000000000003100000031706D000000030061
:101D4000C2BB2061E3BA56530000004032000000DD
:101D5000326D610000000300A2BB2061CA616F53B5
:101D60000000803F32000000327361000000030376
:101D7000A6BB8F6108BA77536666E63F3200000063
:101D80003274720000000B04ABBB8F6115BA7B5339
:101D90000000A03F32000000326D69000000030027
:101DA000BABB206122BA705300000041320000002B
:101DB00032706F0000000300BEBB2061F061715300
:101DC000000000003200000032706D0000000300CF
:101DD000C2BB2061E3BA7253000000403300000030
:101DE000336D610000000300A2BB2061CA618B5308
:101DF0000000004033000000337361000000030363
:101E0000A6BB8F6108BA93536666E63F33000000B5
:101E10003374720000000B04ABBB8F6115BA97538B
:101E20000000A03F33000000336D69000000030094
:101E3000BABB206122BA8C5300000041330000007D
:101E400033706F0000000300BEBB2061F0618D5352
:101E5000000000003300000033706D00000003003C
:101E6000C2BB2061E3BA8E53000000403400000082
:101E7000346D610000000300A2BB2061CA61A7535A
:101E80000000404034000000347361000000030390
:101E9000A6BB8F6108BAAF536666E63F3400000008
:101EA0003474720000000B04ABBB8F6115BAB353DE
:101EB0000000B44334000000346D690000000300EA
:101EC000BABB206122BAA8530000004134000000D0
:101ED00034706F0000000300BEBB2061F061A953A5
:101EE000000000003400000034706D0000000300AA
:101EF000C2BB2061E3BAAA53000000407800000092
:101F000078616D0000000300195F6F5C825CAA2A93
:101F10000000803F7800000078766D0000000B0024
:101F2000625F8F61DD66AF2A0000484478000000E0
:101F30007866720000000B005E5F8F61DD66AB2A81
:101F4000000048447800000078746E0000000B0325
:101F50006A5F8F61DD66B72A00000000780000002C
:101F600078746D0000000B03665F8F61DD66B32A35
:101F70000000164378000000786A6D0000000B0036
:101F80006E5F8F61F05CBB2A0000A041780000000A
:101F9000786A680000000B00725F8F61485DBF2A9D
:101FA0000000A04178000000786A640000000B0483
:101FB000765F8F61DD66C72ACDCC4C3D780000008E
:101FC00078736E00000003007E5F206129BECE2979
:101FD0000000803F78000000787378000000030064
:101FE000825F206129BECF29000000007800000038
:101FF0007873760000000B00865F8F61DD66CF2A64
:102000000000FA4378000000786C760000000B00B6
:102010008A5F8F61DD66D32A0000C8427800000025
:10202000786C620000000B038E5F8F61DD66D72A3B
:102030000000A04078000000787A620000000B03E6
:10204000925F8F61DD66DB2A0000803F790000002F
:1020500079616D0000000300195F6F5C825CDF2A0C
:102060000000803F7900000079766D0000000B00D1
:10207000625F8F61DD66E42A000048447900000059
:102080007966720000000B005E5F8F61DD66E02AFA
:10209000000048447900000079746E0000000B03D2
:1020A0006A5F8F61DD66EC2A0000000079000000A5
:1020B00079746D0000000B03665F8F61DD66E82AAE
:1020C0000000164379000000796A6D0000000B00E3
:1020D0006E5F8F61F05CF02A0000A0417900000083
:1020E000796A680000000B00725F8F61485DF42A16
:1020F0000000A04179000000796A640000000B0430
:10210000765F8F61DD66FC2ACDCC4C3D7900000006
:1021100079736E00000003007E5F206129BED02924
:102120000000803F79000000797378000000030010
:10213000825F206129BED1290000000079000000E3
:102140007973760000000B00865F8F61DD66042BDB
:102150000000FA4379000000796C760000000B0063
:102160008A5F8F61DD66082B0000C842790000009D
:10217000796C620000000B038E5F8F61DD660C2BB3
:102180000000A04079000000797A620000000B0393
:10219000925F8F61DD66102B0000803F7A000000A7
:1021A0007A616D0000000300195F6F5C825C142B84
:1021B0000000803F7A0000007A766D0000000B007E
:1021C000625F8F61DD66192B000048447A000000D1
:1021D0007A66720000000B005E5F8F61DD66152B72
:1021E000000048447A0000007A746E0000000B037F
:1021F0006A5F8F61DD66212B000000007A0000001D
:102200007A746D0000000B03665F8F61DD661D2B25
:10221000000096427A0000007A6A6D0000000B0010
:102220006E5F8F61F05C252B0000A0417A000000FA
:102230007A6A680000000B00725F8F61485D292B8D
:102240000000A0417A0000007A6A640000000B04DC
:10225000765F8F61DD66312BCDCC4C3D7A0000007E
:102260007A736E00000003007E5F206129BED229D0
:10227000000000007A0000007A737800000003007C
:10228000825F206129BED3290000803F7A000000D0
:102290007A73760000000B00865F8F61DD66392B54
:1022A0000000C8437A0000007A6C760000000B0042
:1022B0008A5F8F61DD663D2B0000C8427A00000016
:1022C0007A6C620000000B038E5F8F61DD66412B2C
:1022D0000000A0407A0000007A7A620000000B0340
:1022E000925F8F61DD66452B0000803F610000003A
:1022F00061616D0000000300195F6F5C825C492B17
:10230000000040406100000061766D0000000300A5
:10231000625F8F61F4624E2B000061486100000033
:1023200061667200000003005E5F8F61F4624A2BF9
:10233000000061486100000061746E00000003034A
:102340006A5F8F61DD66562B000080BF6100000070
:1023500061746D0000000303665F8F61F462522BAD
:10236000000080BF61000000616A6D000000030092
:102370006E5F8F61F05C5A2B0000B4456100000075
:10238000616A680000000300725F8F61485D5E2B28
:102390000000B44561000000616A640000000304AD
:1023A000765F8F61F462662BCDCC4C3D61000000FE
:1023B0006172610000000B037A5F8F61F4626A2B27
:1023C000D5B74B3E6100000061736E000000030052
:1023D0007E5F206129BED4290000803F610000009B
:1023E0006173780000000300825F206129BED52957
:1023F000000000006100000061737600000003002F
:10240000865F8F61F4626E2B00001644610000004D
:10241000616C7600000003008A5F8F61F462722BAA
:102420000000C84261000000616C6200000003030C
:102430008E5F8F61F462762B0000A0406100000087
:10244000617A620000000303925F8F61F4627A2B6D
:10245000000000406200000062616D0000000300A7
:10246000195F6F5C825C7E2B000000006200000040
:1024700062766D0000000300625F8F61F462832B5F
:102480000000614562000000626672000000030007
:102490005E5F8F61F4627F2B000061456200000087
:1024A00062746E00000003036A5F8F61DD668B2B30
:1024B000000080BF6200000062746D000000030332
:1024C000665F8F61F462872B000080BF62000000AE
:1024D000626A6D00000003006E5F8F61F05C8F2BFD
:1024E0000000A04162000000626A64000000030076
:1024F000765F8F61F4629B2BCDCC4C3D6200000077
:102500006272610000000B037A5F8F61F4629F2B9F
:102510000000803F6300000063616D000000030065
:10252000195F6F5C825CB32B000000006300000049
:1025300063766D0000000300625F8F61F462B82B68
:102540000000614563000000636672000000030044
:102550005E5F8F61F462B42B000061456300000090
:1025600063746E00000003036A5F8F61DD66C02B39
:10257000000080BF6300000063746D00000003036F
:10258000665F8F61F462BC2B000080BF63000000B7
:10259000636A6D00000003006E5F8F61F05CC42B06
:1025A0000000A04163000000636A640000000300B3
:1025B000765F8F61F462D02BCDCC4C3D6300000080
:1025C0006372610000000B037A5F8F61F462D42BA9
:1025D0000000803F703100007031667271000300AE
:1025E000EDA88F61F4622F520000C84270310000E4
:1025F000703163736C000300F1A88F61F462335291
:1026000000007A4470310000703163736800030089
:10261000F5A88F61F46237520000FA44703100006F
:10262000703163706C000303F9A88F61F4623B5250
:102630000000003E703100007031637068000303D9
:10264000FDA88F61F4623F52CDCC4C3E703100004A
:10265000703177736C00030001A98F61F4624352FB
:1026600000007A4470310000703177736800030015
:1026700005A98F61F46247520000FA4470310000EE
:10268000703177706C00030309A98F61F4624B52BB
:102690000000003E70310000703177706800030365
:1026A0000DA98F61F4624F52CDCC4C3E70310000C9
:1026B0007031706F6600030311A98F61F462535289
:1026C000CDCCCC3D673534006735347800000B0342
:1026D000965F8F61DD661A2A0000000067353400BE
:1026E0006735347900000B03965F8F61DD661E2A23
:1026F00000000000673534006735347A00000B03B2
:10270000965F8F61DD66222A000000006735340085
:102710006735346100000B03965F8F61DD66262A02
:1027200000000000673534006735346200000B0399
:10273000965F8F61DD662A2A00000000673534004D
:102740006735346300000B03965F8F61DD662E2AC8
:1027500000000000673535006735357800000B0351
:10276000965F8F61DD66322A00009642673535003C
:102770006735357900000B03965F8F61DD66362A79
:1027800000009642673535006735357A00000B0347
:10279000965F8F61DD663A2A0000000067353500DC
:1027A0006735356100000B03965F8F61DD663E2A59
:1027B00000000000673535006735356200000B0307
:1027C000965F8F61DD66422A0000000067353500A4
:1027D0006735356300000B03965F8F61DD66462A1F
:1027E00000000000673536006735367800000B03BF
:1027F000965F8F61DD664A2A00000000673536006B
:102800006735367900000B03965F8F61DD664E2ACF
:1028100000000000673536006735367A00000B038C
:10282000965F8F61DD66522A000000006735360032
:102830006735366100000B03965F8F61DD66562AAF
:1028400000000000673536006735366200000B0374
:10285000965F8F61DD665A2A0000000067353600FA
:102860006735366300000B03965F8F61DD665E2A75
:1028700000000000673537006735377800000B032C
:10288000965F8F61DD66622A0000000067353700C1
:102890006735377900000B03965F8F61DD66662A26
:1028A00000000000673537006735377A00000B03FA
:1028B000965F8F61DD666A2A000000006735370089
:1028C0006735376100000B03965F8F61DD666E2A06
:1028D00000000000673537006735376200000B03E2
:1028E000965F8F61DD66722A000000006735370051
:1028F0006735376300000B03965F8F61DD66762ACC
:1029000000000000673538006735387800000B0399
:10291000965F8F61DD667A2A000000006735380017
:102920006735387900000B03965F8F61DD667E2A7C
:1029300000000000673538006735387A00000B0367
:10294000965F8F61DD66822A0000000067353800DF
:102950006735386100000B03965F8F61DD66862A5C
:1029600000000000673538006735386200000B034F
:10297000965F8F61DD668A2A0000000067353800A7
:102980006735386300000B03965F8F61DD668E2A22
:1029900000000000673539006735397800000B0307
:1029A000965F8F61DD66922A00000000673539006E
:1029B0006735397900000B03965F8F61DD66962AD3
:1029C00000000000673539006735397A00000B03D5
:1029D000965F8F61DD669A2A000000006735390036
:1029E0006735396100000B03965F8F61DD669E2AB3
:1029F00000000000673539006735396200000B03BD
:102A0000965F8F61DD66A22A0000000067353900FD
:102A10006735396300000B03965F8F61DD66A62A78
:102A20000000000067393200673932780000010386
:102A3000965F8F61C8618A2C000000006739320000
:102A40006739327900000103965F8F61C8618E2C6F
:102A500000000000673932006739327A0000010354
:102A6000965F8F61C861922C0000000067393200C8
:102A70006739326100000103965F8F61C861962C4F
:102A8000000000006739320067393262000001033C
:102A9000965F8F61C8619A2C000000006739320090
:102AA0006739326300000103965F8F61C8619E2C15
:102AB00000000000673238006732387800000103F8
:102AC0009A5F8F61C861A22C000000006732380055
:102AD00067323879000001039A5F8F61C861A62CC4
:102AE00000000000673238006732387A00000103C6
:102AF0009A5F8F61C861AA2C00000000673238001D
:102B000067323861000001039A5F8F61C861AE2CA3
:102B100000000000673238006732386200000103AD
:102B20009A5F8F61C861B22C0000000067323800E4
:102B300067323863000001039A5F8F61C861B62C69
:102B40000000000067333000673330780000010375
:102B50009A5F8F61C861BA2C0000000067333000B3
:102B600067333079000001039A5F8F61C861BE2C22
:102B700000000000673330006733307A0000010343
:102B80009A5F8F61C861C22C00000000673330007B
:102B900067333061000001039A5F8F61C861C62C02
:102BA000000000006733300067333062000001032B
:102BB0009A5F8F61C861CA2C000000006733300043
:102BC00067333063000001039A5F8F61C861CE2CC8
:102BD000000000006A6964006A6964610000000026
:102BE000BAC26861CD625134000000006A696400B5
:102BF0006A69646200000000BAC26861CD6255343F
:102C0000000000006A6964006A69646300000000F3
:102C1000BAC26861CD625934000000006A6964007C
:102C20006A69646400000000BAC26861CD625D3404
:102C300000000000737973006A61000000000F005B
:102C4000995E8F61DD66E8290050C3477379730090
:102C50006374000000000F04B85E8F61DD66EC292C
:102C60000AD7233C73797300736C000000000700DF
:102C7000D75E2061CA61F0290000000073797300FB
:102C8000737400000000070043BE206123BEC32907
:102C900000000000737973006D74000000000702EB
:102CA0009EBB8F6118BB4F53000000400000000026
:102CB0006D65000000000000BBC275BB75BB293408
:102CC00000000000000000006D6400000000000033
:102CD000BBC252BB52BB29340000000073797300A1
:102CE000656A0000000007004C832061F061DE335C
:102CF0000000803F737973006A76000000000700CF
:102D000050832061DD82F837000000407379730042
:102D10006A7300000000070054832061F061FA37F5
:102D20000000803F73797300747600000000070094
:102D3000B0C32061F061B6540000803F7379730026
:102D400071760000000007009AAE20616862885228
:102D50000000000073797300737600000000070024
:102D6000F2AC20612C6295520000803F73797300B1
:102D70007369000000000700EEAC4461B6AC9652E7
:102D800000007A4373797300656300000000070058
:102D90002E672061E867DF3300000000737973005D
:102DA0006565000000000700326720615868E03365
:102DB00000000000737973006578000000000700D0
:102DC000366720612068E1330000803F737973002B
:102DD00062617564000004003A6720617A66E2333C
:102DE0000000A040737973006E6574000000070056
:102DF0003E672061CA6140340000000073797300AF
:102E000067706C0000000700855E20612C62FE295F
:102E1000000000007379730067756E000000070002
:102E2000895E2061F061FF290000803F73797300A3
:102E300067636F00000007008D5E2061CA61FD2995
:102E40000000803F73797300677061000000070025
:102E5000915E20612C62002A0000004073797300AB
:102E60006764690000000700955E2061F061012A37
:102E70000000000000000000676300000000000088
:102E8000BAC2117B217B2934000000000000000041
:102E90006D6C000000000B04DB5E8F61DD66F129C4
:102EA0000AD7A33D000000006D61000000000B0484
:102EB000FA5E8F61DD66F529CDCCCC3D00000000C7
:102EC0006664000000000300D3C22061F061F9379E
:102ED000000000007564610075646130000003004B
:102EE000EFC26861CD62E4330000000075646100E8
:102EF0007564613100000300EFC26861CD62E833A0
:102F00000000000075646100756461320000030018
:102F1000EFC26861CD62EC330000000075646100AF
:102F20007564613300000300EFC26861CD62F03365
:102F300000000000756462007564623000000300E8
:102F4000EFC26861CD62F433000000007564620076
:102F50007564623100000300EFC26861CD62F8332E
:102F600000000000756462007564623200000300B6
:102F7000EFC26861CD62FC3300000000756462003E
:102F80007564623300000300EFC26861CD620034F3
:102F90000000000075646300756463300000030086
:102FA000EFC26861CD620434000000007564630004
:102FB0007564633100000300EFC26861CD620834BC
:102FC0000000000075646300756463320000030054
:102FD000EFC26861CD620C340000000075646300CC
:102FE0007564633300000300EFC26861CD62103482
:102FF0000000000075646400756464300000030024
:10300000EFC26861CD621434000000007564640092
:103010007564643100000300EFC26861CD6218344A
:1030200000000000756464007564643200000300F1
:10303000EFC26861CD621C3400000000756464005A
:103040007564643300000300EFC26861CD62203410
:10305000000000005F7465005F7465780000000286
:103060000CC38F61C8610750000000005F746500E9
:103070005F746579000000020CC38F61C8610B505A
:10308000000000005F7465005F74657A0000000254
:103090000CC38F61C8610F50000000005F746500B1
:1030A0005F746561000000020CC38F61C86113503A
:1030B000000000005F7465005F746562000000023C
:1030C0000CC38F61C8611750000000005F74650079
:1030D0005F746563000000020CC38F61C8611B5000
:1030E000000000005F7472005F74727800000002DC
:1030F0000CC38F61C8612C51000000005F74720026
:103100005F747279000000020CC38F61C861305196
:10311000000000005F7472005F74727A00000002A9
:103120000CC38F61C8613451000000005F747200ED
:103130005F747261000000020CC38F61C861385176
:10314000000000005F7472005F7472620000000291
:103150000CC38F61C8613C51000000005F747200B5
:103160005F747263000000020CC38F61C86140513C
:10317000000000005F7473005F7473310000000290
:103180000CC38F61C8619750000000005F7073002E
:103190005F707331000000020CC38F61C861A750DB
:1031A000000000005F6373005F6373310000000282
:1031B0000CC38F61C861B750000000005F657300E9
:1031C0005F657331000000020CC38F61C861C75096
:1031D000000000005F7873005F7873310000000228
:1031E0000CC38F61C861DE53000000005F6665009C
:1031F0005F666531000000020CC38F61C861D75063
:10320000000000005F7473005F74733200000002FE
:103210000CC38F61C8619B50000000005F70730099
:103220005F707332000000020CC38F61C861AB5045
:10323000000000005F6373005F63733200000002F0
:103240000CC38F61C861BB50000000005F65730054
:103250005F657332000000020CC38F61C861CB5000
:10326000000000005F7873005F7873320000000296
:103270000CC38F61C861F653000000005F666500F3
:103280005F666532000000020CC38F61C861DB50CD
:10329000000000005F7473005F747333000000026D
:1032A0000CC38F61C8619F50000000005F70730005
:1032B0005F707333000000020CC38F61C861AF50B0
:1032C000000000005F6373005F637333000000025F
:1032D0000CC38F61C861BF50000000005F657300C0
:1032E0005F657333000000020CC38F61C861CF506B
:1032F000000000005F7873005F7873330000000205
:103300000CC38F61C8610E54000000005F66650049
:103310005F666533000000020CC38F61C861DF5037
:10332000000000005F7473005F74733400000002DB
:103330000CC38F61C861A350000000005F70730070
:103340005F707334000000020CC38F61C861B3501A
:10335000000000005F6373005F63733400000002CD
:103360000CC38F61C861C350000000005F6573002B
:103370005F657334000000020CC38F61C861D350D5
:10338000000000005F7873005F7873340000000273
:103390000CC38F61C8612654000000005F666500A1
:1033A0005F666534000000020CC38F61C861E350A2
:1033B00000000000000000005F64616D000000007C
:1033C000BAC2ED5DED5D2934000000000000000090
:1033D0007365303000000200BAC24461A462A15299
:1033E00000000000000000007365303100000200A2
:1033F000BAC24461A462A3520000000000000000B1
:103400007365303200000200BAC24461A462A55262
:10341000000000000000000073653033000002006F
:10342000BAC24461A462A75200000000000000007C
:103430007365303400000200BAC24461A462A9522C
:10344000000000000000000073653035000002003D
:10345000BAC24461A462AB52000000000000000048
:103460007365303600000200BAC24461A462AD52F6
:10347000000000000000000073653037000002000B
:10348000BAC24461A462AF52000000000000000014
:103490007365303800000200BAC24461A462B152C0
:1034A00000000000000000007365303900000200D9
:1034B000BAC24461A462B3520000000000000000E0
:1034C0007365313000000200BAC24461A462B55293
:1034D00000000000000000007365313100000200B0
:1034E000BAC24461A462B7520000000000000000AC
:1034F0007365313200000200BAC24461A462B9525D
:10350000000000000000000073653133000002007D
:10351000BAC24461A462BB52000000000000000077
:103520007365313400000200BAC24461A462BD5226
:10353000000000000000000073653135000002004B
:10354000BAC24461A462BF52000000000000000043
:103550007365313600000200BAC24461A462C152F0
:103560000000000000000000736531370000020019
:10357000BAC24461A462C35200000000000000000F
:103580007365313800000200BAC24461A462C552BA
:1035900000000000000000007365313900000200E7
:1035A000BAC24461A462C7520000000000000000DB
:1035B0007365323000000200BAC24461A462C9528D
:1035C00000000000000000007365323100000200BE
:1035D000BAC24461A462CB520000000000000000A7
:1035E0007365323200000200BAC24461A462CD5257
:1035F000000000000000000073653233000002008C
:10360000BAC24461A462CF52000000000000000072
:103610007365323400000200BAC24461A462D15220
:103620000000000000000000736532350000020059
:10363000BAC24461A462D35200000000000000003E
:103640007365323600000200BAC24461A462D552EA
:103650000000000000000000736532370000020027
:10366000BAC24461A462D75200000000000000000A
:103670007365323800000200BAC24461A462D952B4
:1036800000000000000000007365323900000200F5
:10369000BAC24461A462DB520000000000000000D6
:1036A0007379730000000000BAC2B9642D63293435
:1036B0000000000000000000703100000000000069
:1036C000BAC2B9642D632934000000000000000074
:1036D0003100000000000000BAC2B9642D63293433
:1036E00000000000000000003200000000000000A8
:1036F000BAC2B9642D632934000000000000000044
:103700003300000000000000BAC2B9642D63293400
:103710000000000000000000340000000000000075
:10372000BAC2B9642D632934000000000000000013
:103730007800000000000000BAC2B9642D6329348B
:103740000000000000000000790000000000000000
:10375000BAC2B9642D6329340000000000000000E3
:103760007A00000000000000BAC2B9642D63293459
:1037700000000000000000006100000000000000E8
:10378000BAC2B9642D6329340000000000000000B3
:103790006200000000000000BAC2B9642D63293441
:1037A00000000000000000006300000000000000B6
:1037B000BAC2B9642D632934000000000000000083
:1037C0006735340000000000BAC2B9642D632934A3
:1037D0000000000000000000673535000000000018
:1037E000BAC2B9642D632934000000000000000053
:1037F0006735360000000000BAC2B9642D63293471
:1038000000000000000000006735370000000000E5
:10381000BAC2B9642D632934000000000000000022
:103820006735380000000000BAC2B9642D6329343E
:1038300000000000000000006735390000000000B3
:10384000BAC2B9642D6329340000000000000000F2
:103850006739320000000000BAC2B9642D63293410
:103860000000000000000000673238000000000087
:10387000BAC2B9642D6329340000000000000000C2
:103880006733300000000000BAC2B9642D632934E8
:1038900000000000000000006D706F0000000000DC
:1038A000BAC2B9642D632934000000000000000092
:1038B000706F730000000000BAC2B9642D63293430
:1038C00000000000000000006F66730000000000B0
:1038D000BAC2B9642D632934000000000000000062
:1038E000686F6D0000000000BAC2B9642D6329340E
:1038F0000000000000000000707262000000000084
:10390000BAC2B9642D632934000000000000000031
:103910006A6F670000000000BAC2B9642D632934E1
:1039200000000000000000006A6964000000000060
:10393000BAC2B9642D632934000000000000000001
:103940007564610000000000BAC2B9642D632934B7
:10395000000000000000000075646200000000002C
:10396000BAC2B9642D6329340000000000000000D1
:103970007564630000000000BAC2B9642D63293485
:1039800000000000000000007564640000000000FA
:10399000BAC2B9642D6329340000000000000000A1
:1039A0005F74650000000000BAC2B9642D63293459
:1039B00000000000000000005F74720000000000C2
:1039C000BAC2B9642D632934000000000000000071
:1039D0005F74730000000000BAC2B9642D6329341B
:1039E00000000000000000005F7073000000000095
:1039F000BAC2B9642D632934000000000000000041
:103A00005F63730000000000BAC2B9642D632934FB
:103A100000000000000000005F657300000000006F
:103A2000BAC2B9642D632934000000000000000010
:103A30005F78730000000000BAC2B9642D632934B6
:103A400000000000000000005F666500000000004C
:103A5000BAC2B9642D6329340000000000000000E0
:103A60006D00000000000000BAC2A367C8612934DD
:103A700000000000000000007100000000000000D5
:103A8000BAC28967C8612934000000000000000044
:103A90006F00000000000000BAC26F67C8612934DF
:103AA00000000000000000002400000000000000F2
:103AB000BAC2BD67C861293400000000456E6420A9
:103AC0006F6620636F6D6D616E642066696C650A58
:103AD00000486F6D696E67206572726F72202D20CD
:103AE000256320617869732073657474696E6773E8
:103AF000206D6973636F6E666967757265640050E7
:103B0000726F62696E67206572726F72202D202558
:103B10006320617869732063616E6E6F74206D6FCE
:103B2000766520647572696E672070726F62696E67
:103B300067005B69645D202054696E7947204944C1
:103B4000253330730A005B68765D202068617264FB
:103B5000776172652076657273696F6E2531362ED6
:103B600032660A005B68705D20206861726477616C
:103B7000726520706C6174666F726D2531352E32FE
:103B8000660A005B66765D20206669726D776172F9
:103B9000652076657273696F6E2531362E32660A3E
:103BA000005B66625D20206669726D7761726520D8
:103BB0006275696C642531382E32660A00456E7470
:103BC00065722024626F6F743D3120746F20656EC2
:103BD0007465722074686520626F6F74206C6F6109
:103BE0006465722E0A000A0A0A2323232054696E90
:103BF000794720424F4F54204C4F41444552204872
:103C0000656C70202323230A00456E74657220249E
:103C1000646566613D3120746F2072657365742040
:103C20007468652073797374656D20746F2074688F
:103C30006520666163746F72792064656661756C76
:103C4000742076616C7565732E0A546869732077E9
:103C5000696C6C206F766572777269746520616E2D
:103C600079206368616E67657320796F752068617C
:103C70007665206D6164652E0A000A0A0A232323F3
:103C80002054696E794720524553544F5245204481
:103C9000454641554C54532048656C7020232323DE
:103CA0000A00496E766F6B652073656C66207465DB
:103CB000737420627920656E746572696E67202462
:103CC000746573743D4E207768657265204E206977
:103CD00073206F6E65206F663A0A20202474657326
:103CE000743D312020736D6F6B6520746573740AA9
:103CF000202024746573743D322020686F6D696ED6
:103D000067207465737420202028796F75206D7585
:103D10007374207472697020686F6D696E672073A8
:103D200077697463686573290A2020247465737445
:103D30003D33202073717561726520746573742042
:103D40002020286120736572696573206F66207377
:103D5000717561726573290A202024746573743D3E
:103D60003420206172632074657374202020202029
:103D70002028736F6D65206C6172676520636972BE
:103D8000636C6573290A202024746573743D3520A3
:103D9000206477656C6C2074657374202020202863
:103DA0006D6F76657320737061636564206279203E
:103DB00031207365636F6E64206477656C6C732962
:103DC0000A202024746573743D362020666565647E
:103DD000686F6C6420746573742028656E746572F6
:103DE000202120616E64207E20746F20686F6C64D7
:103DF00020616E6420726573746172742C20726528
:103E000073706563746976656C79290A202024745F
:103E10006573743D3720204D20636F646573207493
:103E20006573742020284D20636F64657320696E6C
:103E30007465726D696E676C65642077697468205B
:103E40006D6F766573290A202024746573743D387C
:103E500020204A534F4E2074657374202020202068
:103E6000286D6F74696F6E20746573742072756E3F
:103E7000207573696E67204A534F4E20636F6D6DD6
:103E8000616E6473290A202024746573743D39209F
:103E900020696E76657273652074696D652074653E
:103EA00073740A202024746573743D313020726F5E
:103EB00074617279206D6F74696F6E2074657374AC
:103EC0000A202024746573743D313120736D616C58
:103ED0006C206D6F76657320746573740A202024DE
:103EE000746573743D313220736C6F77206D6F761B
:103EF000657320746573740A202024746573743D9F
:103F0000313320636F6F7264696E617465207379F9
:103F10007374656D206F6666736574207465737461
:103F200020284739322C204735342D473539290A86
:103F30000A546573747320617373756D6520612015
:103F400063656E7465726564205859206F72696785
:103F5000696E20616E64206174206C6561737420E9
:103F600038306D6D20636C656172616E63652069C8
:103F70006E20616C6C20646972656374696F6E7326
:103F80000A546573747320617373756D65205A20CC
:103F9000686173206174206C656173742034306DC6
:103FA0006D20706F7369697469766520636C6561F3
:103FB00072616E63650A5465737473207374617201
:103FC0007420776974682061204730205830205968
:103FD00030205A30206D6F76650A486F6D696E67C4
:103FE0002069732074686520657863657074696FF3
:103FF0006E2E204E6F20696E697469616C20706F3F
:10400000736974696F6E206F7220636C6561726191
:104010006E636520697320617373756D65640A0052
:104020000A0A0A2323232054696E79472053454CFA
:104030004620544553542048656C70202323230A9E
:104040000045616368202420636F6D6D616E64209C
:1040500061626F766520616C736F20646973706C48
:104060006179732074686520746F6B656E20666F6C
:104070007220656163682073657474696E67206976
:104080006E205B205D20627261636B6574730A54FD
:104090006F20766965772073657474696E67732025
:1040A000656E746572206120746F6B656E3A0A0AE2
:1040B0002020243C746F6B656E3E0A0A466F7220A6
:1040C0006578616D706C65202479667220746F204C
:1040D000646973706C6179207468652059206D6122
:1040E00078206665656420726174650A0A546F20E1
:1040F0007570646174652073657474696E6773208C
:10410000656E74657220746F6B656E206571756184
:104110006C732076616C75653A0A0A2020243C7421
:104120006F6B656E3E3D3C76616C75653E0A0A4676
:104130006F72206578616D706C6520247966723DC0
:1041400038303020746F207365742074686520598E
:10415000206D6178206665656420726174652074E5
:104160006F20383030206D6D2F6D696E7574650A63
:10417000466F7220636F6E66696775726174696FEE
:104180006E2064657461696C73207365653A20689C
:10419000747470733A2F2F6769746875622E636F39
:1041A0006D2F73796E746865746F732F54696E79AF
:1041B000472F77696B692F54696E79472D436F6E6E
:1041C00066696775726174696F6E0A005468657319
:1041D0006520636F6D6D616E64732061726520612F
:1041E000637469766520666F7220636F6E666967B7
:1041F00075726174696F6E3A0A2020247379732096
:1042000053686F772073797374656D202867656EC6
:104210006572616C292073657474696E67730A2016
:1042200020243120202053686F77206D6F746F72C7
:1042300020312073657474696E677320286F722053
:104240007768617465766572206D6F746F7220791E
:104250006F752077616E7420312C322C332C342909
:104260000A2020247820202053686F77205820616E
:104270007869732073657474696E677320286F7230
:10428000207768617465766572206178697320793A
:104290006F752077616E7420782C792C7A2C612CC4
:1042A000622C63290A2020246D20202053686F7718
:1042B00020616C6C206D6F746F722073657474690B
:1042C0006E67730A2020247120202053686F7720A6
:1042D000616C6C20617869732073657474696E67B2
:1042E000730A2020246F20202053686F7720616C90
:1042F0006C206F66667365742073657474696E678D
:10430000730A2020242420202053686F7720616CBA
:104310006C2073657474696E67730A2020246820AA
:10432000202053686F7720746869732068656C700B
:104330002073637265656E0A0A000A0A0A23232342
:104340002054696E794720434F4E464947555241A4
:1043500054494F4E2048656C70202323230A000ADD
:10436000466F722064657461696C65642054696E7F
:10437000794720696E666F207365653A20687474AA
:1043800070733A2F2F6769746875622E636F6D2F93
:1043900073796E746865746F732F54696E79472FE3
:1043A00077696B692F0A466F7220746865206C61AB
:1043B00074657374206669726D77617265207365C8
:1043C000653A2068747470733A2F2F676974687542
:1043D000622E636F6D2F73796E746865746F732FBF
:1043E00054696E79470A506C65617365206C6F671C
:1043F00020616E792069737375657320617420681C
:104400007474703A2F2F7777772E73796E7468658E
:10441000746F732E636F6D2F666F72756D730A48BC
:104420006176652066756E0A000A4E6F74653A20E3
:1044300054696E79472067656E6572617465732093
:104440006175746F6D6174696320737461747573E1
:10445000207265706F727473206279206465666182
:10446000756C740A546869732063616E20626520FC
:1044700064697361626C656420627920656E74653D
:1044800072696E67202473763D300A536565207427
:1044900068652077696B692062656C6F7720666F4D
:1044A00072206D6F72652064657461696C732E0A89
:1044B00000546865736520636F6D6D616E64732071
:1044C000617265206163746976652066726F6D2024
:1044D00074686520636F6D6D616E64206C696E65D4
:1044E0003A0A205E78202020202020202020202032
:1044F000202052657365742028636F6E74726F6C30
:10450000207829202D20736F667477617265207280
:10451000657365740A20203F202020202020202061
:1045200020202020204D616368696E6520706F73C4
:104530006974696F6E20616E642067636F646520C3
:104540006D6F64656C2073746174650A202024208B
:1045500020202020202020202020202053686F773A
:1045600020616E642073657420636F6E6669677581
:10457000726174696F6E2073657474696E67730A13
:10458000202021202020202020202020202020202A
:1045900046656564686F6C64202D2073746F7020AD
:1045A0006D6F74696F6E20776974686F7574206CB5
:1045B0006F73696E6720706F736974696F6E0A201C
:1045C000207E20202020202020202020202020436A
:1045D00079636C65205374617274202D2072657349
:1045E000746172742066726F6D2066656564686FB1
:1045F0006C640A20206820202020202020202020F9
:1046000020202053686F7720746869732068656C78
:10461000702073637265656E0A2020246820202054
:1046200020202020202020202053686F7720636FD7
:104630006E66696775726174696F6E2068656C700B
:104640002073637265656E0A20202474657374207C
:1046500020202020202020204C6973742073656C5A
:10466000662D74657374730A202024746573743D19
:104670004E2020202020202052756E2073656C660D
:104680002D74657374204E0A202024686F6D653D7B
:10469000312020202020202052756E206120686F5C
:1046A0006D696E67206379636C650A2020246465F8
:1046B00066613D3120202020202020526573746FD8
:1046C000726520616C6C2073657474696E67732009
:1046D000746F2022666163746F727922206465664C
:1046E00061756C74730A000A0A0A23232320546933
:1046F0006E79472048656C70202323230A005B6A8B
:10470000735D20206A736F6E2073657269616C69D6
:104710007A65207374796C65253964205B303D724D
:10472000656C617865642C313D7374726963745D86
:104730000A005B6A765D20206A736F6E2076657270
:10474000626F7369747925313564205B303D73691C
:104750006C656E742C313D666F6F7465722C323DE2
:104760006D657373616765732C333D636F6E666946
:1047700067732C343D6C696E656E756D2C353D76B6
:104780006572626F73655D0A005B656A5D20206516
:104790006E61626C65206A736F6E206D6F64652553
:1047A000313364205B303D746578742C313D4A535D
:1047B0004F4E5D0A0096589058895884587B58701F
:1047C00058655859584D583F58285819580C580092
:1047D00058EC57DF57CA57B657B357B057A1578C45
:1047E0005777576857585746572F571257F556DC83
:1047F00056C656B556A356965684566A566756649C
:104800005661565E565B565856555652564F564C44
:104810005649564656435640563D563A56375634F4
:104820005631562E562B562856255622561F561CA4
:104830005619561656135610560D560A5607560454
:10484000560156FE55FB55F855F555F255EF55EC0A
:1048500055E955E655E355E055DD55DA55D755D4BC
:1048600055D155CE55CB55C855A45584556A55508C
:104870005536551255F554DD54C754AD5489547707
:104880005465544C54365420540854F053DE53C0ED
:1048900053AB538D536853645360535C5358535414
:1048A0005350534C534853445340533C5338533460
:1048B0005330532C53285324530A53F052DD52C122
:1048C00052AF52985277526652465226520C52F2CA
:1048D00051DB51A8517B515B5139511351EC50D0F0
:1048E00050B15097507D5058502F501750EC4FC03A
:1048F0004F8A4F554F434F314F224F0F4FF64ED4F3
:104900004EC24EB04E9E4E8C4E7A4E684E564E441F
:104910004E324E204E0E4EFC4DEA4DD84DD44DD069
:104920004DCC4DC84DC44DC04DBC4DB84DB44DB02F
:104930004DAC4DA84DA44DA04D9C4D984D944D901F
:104940004D8C4D884D744D564D3A4D0F4DEA4CC52A
:104950004CC14CBD4CB94CB54CB14CAD4CA94CA55F
:104960004CA14C9D4C994C954C914C8D4C794C5D87
:104970004C414C254C094CED4BD14BB54B994B7DE3
:104980004B614B454B294B254B214B1D4B194B156F
:104990004B114B0D4BF94AD14AAA4A844A574A3126
:1049A0004A044A004AFC49F849E549C449AF494A22
:1049B0006F6767696E67206379636C6520666169FC
:1049C0006C65640050726F626520656E64706F691B
:1049D0006E74206973207374617274696E672070DD
:1049E0006F696E740050726F6265206379636C65E5
:1049F000206661696C6564003234390032343800F5
:104A000032343700486F6D696E67204572726F727D
:104A1000202D20486F6D696E672073776974636815
:104A20006573206D6973636F6E666967757265641F
:104A300000486F6D696E67204572726F72202D207D
:104A40004E65676174697665206C61746368206285
:104A500061636B6F666600486F6D696E67204572B3
:104A6000726F72202D2054726176656C206D696EB4
:104A70002026206D6178206172652074686520733E
:104A8000616D6500486F6D696E67204572726F7267
:104A9000202D204C617463682076656C6F636974A7
:104AA00079206973207A65726F00486F6D696E674F
:104AB000204572726F72202D2053656172636820E9
:104AC00076656C6F63697479206973207A65726F9B
:104AD00000486F6D696E67204572726F72202D20DD
:104AE000426164206F72206E6F2061786973207359
:104AF000706563696669656400486F6D696E6720FB
:104B00006379636C65206661696C65640032333972
:104B10000032333800323337003233360032333527
:104B2000003233340032333300536F6674206C69C3
:104B30006D6974206578636565646564202D204324
:104B4000206D617800536F6674206C696D69742004
:104B50006578636565646564202D2043206D696E0A
:104B600000536F6674206C696D69742065786365A5
:104B700065646564202D2042206D617800536F6666
:104B800074206C696D69742065786365656465641B
:104B9000202D2042206D696E00536F6674206C6971
:104BA0006D6974206578636565646564202D2041B6
:104BB000206D617800536F6674206C696D69742094
:104BC0006578636565646564202D2041206D696E9C
:104BD00000536F6674206C696D6974206578636535
:104BE00065646564202D205A206D617800536F66DE
:104BF00074206C696D6974206578636565646564AB
:104C0000202D205A206D696E00536F6674206C69E8
:104C10006D6974206578636565646564202D20592D
:104C2000206D617800536F6674206C696D69742023
:104C30006578636565646564202D2059206D696E13
:104C400000536F6674206C696D69742065786365C4
:104C500065646564202D2058206D617800536F666F
:104C600074206C696D69742065786365656465643A
:104C7000202D2058206D696E00536F6674206C697A
:104C80006D697420657863656564656400323139E7
:104C900000323138003231370032313600323135AE
:104CA00000323134003231330032313200323131AE
:104CB0000032313000323039003230380032303793
:104CC000003230360054726170657A6F696420700A
:104CD0006C616E6E6572206661696C656420746FCC
:104CE00020636F6E7665726765004C696D6974202C
:104CF00073776974636820686974202D2053687520
:104D000074646F776E206F63637572726564004DB3
:104D1000616368696E6520697320616C61726D659D
:104D200064202D20436F6D6D616E64206E6F742062
:104D300070726F636573736564004D6F7665206C88
:104D4000657373207468616E206D696E696D756D31
:104D50002074696D65004D6F7665206C65737320F6
:104D60007468616E206D696E696D756D206C656E1D
:104D70006774680047656E657269632054696E796F
:104D800047206572726F720031393900313938004D
:104D90003139370031393600313935003139340095
:104DA0003139330031393200313931003139300095
:104DB0003138390031383800313837003138360071
:104DC0003138350031383400313833003138320071
:104DD00031383100313830005420776F72642069E7
:104DE0007320696E76616C6964005420776F726419
:104DF000206973206D697373696E67005220776F45
:104E0000726420697320696E76616C696400522057
:104E1000776F7264206973206D697373696E6700C0
:104E20005120776F726420697320696E76616C69B6
:104E300064005120776F7264206973206D69737309
:104E4000696E67004C20776F726420697320696E09
:104E500076616C6964004C20776F726420697320FE
:104E60006D697373696E67004820776F726420699B
:104E70007320696E76616C6964004820776F726494
:104E8000206973206D697373696E67004520776FC1
:104E9000726420697320696E76616C6964004520D4
:104EA000776F7264206973206D697373696E670030
:104EB0004420776F726420697320696E76616C6933
:104EC00064004420776F7264206973206D69737386
:104ED000696E67005020776F7264206973206E6F6F
:104EE0007420612076616C696420746F6F6C206E31
:104EF000756D626572005020776F7264206973204F
:104F00006E6F7420616E20696E7465676572005003
:104F100020776F7264206973206E656761746976AB
:104F200065005020776F7264206973207A65726F14
:104F3000005020776F726420697320696E76616C0F
:104F40006964005020776F7264206973206D697303
:104F500073696E6700417263207370656369666987
:104F6000636174696F6E206572726F72202D2065A7
:104F70006E64706F696E74206973207374617274EB
:104F8000696E6720706F696E740041726320737080
:104F90006563696669636174696F6E206572726FBB
:104FA00072202D2072616469757320617263206FB5
:104FB0007574206F6620746F6C6572616E63650036
:104FC0004172632073706563696669636174696FB8
:104FD0006E206572726F72202D206D697373696E19
:104FE00067206F66667365742873290041726320B9
:104FF00073706563696669636174696F6E20657259
:10500000726F72202D206D697373696E67206178ED
:105010006973286573290041726320737065636941
:105020006669636174696F6E206572726F72005396
:1050300070696E646C65206D757374206265207490
:1050400075726E696E6720666F722074686973206E
:10505000636F6D6D616E64005370696E646C652082
:105060006D757374206265206F666620666F7220AE
:105070007468697320636F6D6D616E64005370694D
:105080006E646C65205320776F72642069732069A9
:105090006E76616C6964005370696E646C65205350
:1050A00020776F7264206973206D697373696E670E
:1050B000005370696E646C6520737065656420656B
:1050C00078636565646564206D6178696D756D00F0
:1050D0005370696E646C65207370656564206265E9
:1050E0006C6F77206D696E696D756D0050726F67BA
:1050F00072616D6D656420706F696E742073616D8F
:10510000652061732063757272656E7420706F69BB
:105110006E740043757474657220636F6D70656E94
:10512000736174696F6E2063616E6E6F7420626567
:1051300020656E61626C656400526571756573749B
:1051400065642076656C6F63697479206578636542
:10515000656473206C696D697473004730206F72E9
:10516000204731206D757374206265206163746916
:10517000766520666F722047353300526F74617216
:105180007920617865732063616E6E6F742062654B
:10519000207573656420776974682074686973206A
:1051A000636F6D6D616E6400496E76657273652024
:1051B00074696D65206D6F64652063616E6E6F74D8
:1051C000206265207573656420776974682074684F
:1051D000697320636F6D6D616E640046656564720E
:1051E000617465206E6F74207370656369666965AC
:1051F000640053656C656374656420706C616E65F2
:1052000020697320696E76616C69640053656C6512
:105210006374656420706C616E65206973206D69CC
:105220007373696E67004178697320746172676592
:105230007420706F736974696F6E20697320696E72
:1052400076616C6964004178697320746172676586
:105250007420706F736974696F6E206973206D6953
:105260007373696E6700417869732069732064699C
:105270007361626C656400417869732069732069A9
:105280006E76616C696420666F7220746869732041
:10529000636F6D6D616E6400417869732063616E48
:1052A0006E6F742062652070726573656E74004164
:1052B00078697320776F7264206D697373696E67A4
:1052C0000047636F6465206D6F64616C2067726F67
:1052D00075702076696F6C6174696F6E004D206324
:1052E0006F646520756E737570706F72746564009D
:1052F00047636F646520636F6D6D616E6420756ECA
:10530000737570706F727465640047656E6572695D
:10531000632047636F646520696E707574206572E1
:10532000726F720031323900313238003132370059
:10533000313236003132350031323400313233000F
:105340003132320031323100313230003131390006
:1053500031313800313137003131360031313500EB
:105360003131340031313300436F6D6D616E642033
:1053700063616E6E6F742062652074616B656E2070
:10538000617420746869732074696D6500436F6E81
:10539000666967206E6F742074616B656E2064753A
:1053A00072696E67206379636C65004A534F4E20C3
:1053B0006F757470757420746F6F206C6F6E6700FA
:1053C0004A534F4E20696E70757420686173207463
:1053D0006F6F206D616E79207061697273004A533E
:1053E0004F4E2073796E746178206572726F72000F
:1053F000496E7075742076616C756520756E737575
:1054000070706F7274656400496E70757420766197
:105410006C75652072616E6765206572726F7200CF
:10542000496E7075742076616C756520746F6F209D
:105430006C6172676500496E7075742076616C7579
:105440006520746F6F20736D616C6C00496E7075B0
:10545000742065786365656473206D6178206C6580
:105460006E67746800426164206E756D62657220BB
:10547000666F726D6174004D616C666F726D65640C
:1054800020636F6D6D616E6400556E7265636F674A
:105490006E697A656420636F6D6D616E64206F72F2
:1054A00020636F6E666967206E616D650047656E8B
:1054B0006572696320617373657274696F6E2066CB
:1054C00061696C757265004D656D6F7279206661FA
:1054D000756C7420646574656374656400537461ED
:1054E000636B206F766572666C6F77206465746598
:1054F0006374656400436F6E74726F6C6C657220C8
:10550000617373657274696F6E206661696C757220
:10551000650043616E6F6E6963616C206D616368E5
:10552000696E6520617373657274696F6E20666160
:10553000696C75726500506C616E6E657220617386
:1055400073657274696F6E206661696C757265004F
:105550005374657070657220617373657274696FDE
:105560006E206661696C75726500456E636F646577
:105570007220617373657274696F6E206661696C05
:1055800075726500494F207375622D737973746568
:105590006D20617373657274696F6E206661696CEA
:1055A00075726500436F6E666967207375622D734F
:1055B000797374656D20617373657274696F6E20A1
:1055C0006661696C757265003839003838003837A3
:1055D00000383600383500383400383300383200AF
:1055E0003831003830003739003738003737003766
:1055F0003600373500373400373300373200373163
:10560000003730003639003638003637003636007D
:105610003635003634003633003632003631003647
:10562000300035390035380035370035360035352E
:105630000035340035330035320035310035300067
:10564000343900343800343700343600343500340F
:105650003400343300343200343100343000333914
:1056600000333800333700333600426164207374EE
:1056700061747573207265706F72742073657474D1
:10568000696E670050657273697374656E63652037
:105690006572726F7200466C6F6174206973204E80
:1056A000414E00466C6F617420697320696E6669B3
:1056B0006E697465004D6F76652074696D6520694B
:1056C00073204E414E004D6F76652074696D6520E4
:1056D000697320696E66696E6974650047656E65F9
:1056E00072696320657863657074696F6E20726596
:1056F000706F7274004661696C656420746F206716
:10570000657420706C616E6E657220627566666588
:10571000720053797374656D20616C61726D202D18
:10572000207368757474696E6720646F776E0049C2
:105730006E697469616C697A6174696F6E20666103
:10574000696C75726500526561642D6F6E6C7920AD
:105750006164647265737300496E76616C6964207C
:10576000416464726573730044697669646520629C
:1057700079207A65726F00466C6F6174696E67207C
:10578000706F696E74206572726F7200496E746515
:10579000726E616C2072616E6765206572726F72E5
:1057A00000496E7465726E616C206572726F720072
:1057B00031390031380046756E6374696F6E206947
:1057C00073207374756262656400456E74657269F6
:1057D0006E6720626F6F74206C6F61646572004940
:1057E0006E697469616C697A696E67004275666694
:1057F00065722066756C6C202D20666174616C008A
:105800004275666665722066756C6C0042756666E8
:10581000657220656D707479004E6F2073756368D2
:1058200020646576696365004D61782066696C6502
:105830002073697A652065786365656465640046F0
:10584000696C65206E6F74206F70656E00456E64C4
:10585000206F662066696C6500456E64206F662067
:105860006C696E65004861726420726573657400CE
:105870005465726D696E6174656400436F6D706C20
:10588000657465004E6F6F700045616761696E00F9
:105890004572726F72004F4B005B7031706F665DC6
:1058A0002070776D207068617365206F66662020B8
:1058B000202531352E3366205B302E2E315D0A00D7
:1058C0005B70317770685D2070776D20636377203F
:1058D00070686173652068692531352E3366205BF9
:1058E000302E2E315D0A005B703177706C5D207058
:1058F000776D20636377207068617365206C6F2516
:1059000031352E3366205B302E2E315D0A005B7000
:10591000317773685D2070776D20636377207370D3
:105920006565642068692531352E30662052504DFA
:105930000A005B703177736C5D2070776D20636354
:1059400077207370656564206C6F2531352E306665
:105950002052504D0A005B70316370685D20707793
:105960006D20637720706861736520686920253138
:10597000352E3366205B302E2E315D0A005B703190
:1059800063706C5D2070776D206377207068617341
:1059900065206C6F202531352E3366205B302E2E2E
:1059A000315D0A005B70316373685D2070776D2034
:1059B0006377207370656564206869202531352E12
:1059C00030662052504D0A005B703163736C5D206D
:1059D00070776D206377207370656564206C6F202D
:1059E0002531352E30662052504D0A005B703166ED
:1059F00072715D2070776D206672657175656E637A
:105A0000792020202531352E306620487A0A00532F
:105A1000595354454D205245414459004C6F6164DF
:105A2000696E6720636F6E666967732066726F6D5B
:105A300020454550524F4D00496E697469616C694B
:105A40007A696E6720636F6E6669677320746F2072
:105A500064656661756C742073657474696E6773D0
:105A6000007B226572223A7B226662223A25302E22
:105A700032662C227374223A25642C226D736722BD
:105A80003A222573227D7D0A007B65723A7B66622D
:105A90003A25302E32662C73743A25642C6D736768
:105AA0003A222573227D7D0A005B71765D2020718C
:105AB00075657565207265706F72742076657262A7
:105AC0006F73697479253764205B303D6F66662C8F
:105AD000313D73696E676C652C323D747269706C10
