:100000000C94EB450C940C460C94D4C60C940C4602
:100010000C940C460C940C460C940C460C940C4618
:100020000C940C460C940C460C940C460C941DC974
:100030000C940C460C940C460C94DDAC0C940C46C1
:100040000C940C460C940C460C940C460C940C46E8
:100050000C940C460C940C460C940C460C940C46D8
:100060000C940C460C94EEC60C9479C60C940C4679
:100070000C9485C00C9424C00C945DC00C940C4668
:100080000C94E1C70C940C460C940C460C940C4652
:100090000C940C460C940C460C940C460C940C4698
:1000A0000C940C460C940C460C940C460C9482B4A4
:1000B0000C94DEB30C940C460C940C460C94BBAE22
:1000C0000C940C460C940C460C940C460C940C4668
:1000D0000C940C460C940C460C940C460C940C4658
:1000E0000C94619F0C940C460C940C460C940C469A
:1000F0000C940C460C940C460C940C460C940C4638
:100100000C94ABB40C9407B40C94D4B40C9430B4E9
:100110000C940C460C940C460C940C460C940C4617
:100120000C940C460C940C460C940C460C940C4607
:100130000C940C460C9432AE0C940C460C940C4669
:100140000C940C460C940C460C940C460C940C46E7
:100150000C940C460C940C460C94579F0C940C4633
:100160000C940C460C940C460C940C460C940C46C7
:100170000C940C460C940C460C940C460C940C46B7
:100180000C940C460C940C460C940C460C940C46A7
:100190000C940C460C940C460C940C460C940C4697
:1001A0000C9459B40C94B5B30C940C460C940C46B6
:1001B0000C9473AE0C940C460C940C460C940C46A8
:1001C0000C940C460C940C460C940C460C940C4667
:1001D0000C940C460C940C460C940C460C940C4657
:1001E0000C940C460C940C469E70AF70C0705E73FD
:1001F0005E7338705A6E5E73D170E270F3702D7159
:10020000BB6F15715E7349705E7304715A702D7007
:100210005E735E735E736B707C708D709EB532B56D
:1002200037B53CB541B546B54BB550B555B55AB5E2
:100230005FB564B569B56EB573B585B585B585B57A
:1002400085B585B585B585B585B585B585B585B5DE
:1002500085B585B585B585B585B585B585B585B5CE
:1002600085B585B585B585B585B585B585B585B5BE
:1002700085B585B585B585B585B585B585B585B5AE
:1002800078B57DB5084AD73B3BCE016E84BCBFFD37
:10029000C12F3D6C74319ABD56833DDA3D00C77F56
:1002A00011BED9E4BB4C3E916BAAAABE00000080EF
:1002B0003F05A84CCDB2D44EB93836A9020C50B97E
:1002C000918688083CA6AAAA2ABE000000803F07A3
:1002D000634236B79BD8A71A39685618AEBAAB55E1
:1002E0008C1D3CB7CC5763BD6DEDFD753EF61772A6
:1002F00031BF000000803F08000000BE9224491278
:100300003EABAAAA2ABECDCCCC4C3E00000080BE9B
:10031000ABAAAAAA3E00000000BF000000803F0078
:1003200000000000084178D3BB4387D1133D190E6C
:100330003CC3BD4282AD2B3E68EC8276BED98FE1D4
:10034000A93E4C80EFFFBE01C4FF7F3F00000000CC
:10035000005B257325735D20257320257320706F46
:10036000736974696F6E2531382E336625730A0000
:100370005B257325735D202573202573206F6666CA
:100380007365742532302E336625730A005B25733E
:1003900025735D202573207A65726F206261636B1F
:1003A0006F66662531392E336625730A005B257327
:1003B00025735D202573206C61746368206261631E
:1003C0006B6F66662531382E336625730A005B2510
:1003D0007325735D202573206C61746368207665D6
:1003E0006C6F636974792531332E306625732F6DF8
:1003F000696E0A005B257325735D20257320736584
:10040000617263682076656C6F6369747925313237
:100410002E306625732F6D696E0A005B2573257378
:100420005D20257320737769746368206D6178257A
:10043000313764205B303D6F66662C313D686F6DEF
:10044000696E672C323D6C696D69742C333D6C6943
:100450006D69742B686F6D696E675D0A005B25734B
:1004600025735D20257320737769746368206D6937
:100470006E25313764205B303D6F66662C313D68F8
:100480006F6D696E672C323D6C696D69742C333DFC
:100490006C696D69742B686F6D696E675D0A005BCE
:1004A000257325735D20257320726164697573203F
:1004B00076616C75652532302E346625730A005BD3
:1004C000257325735D202573206A756E6374696FCB
:1004D0006E20646576696174696F6E2531342E34DF
:1004E00066257320286C61726765722069732066C7
:1004F0006173746572290A005B257325735D20257D
:1005000073206A65726B20686F6D696E672531367E
:100510002E306625732F6D696E5E33202A203120C0
:100520006D696C6C696F6E0A005B257325735D20C5
:100530002573206A65726B206D6178696D756D2514
:1005400031352E306625732F6D696E5E33202A207B
:1005500031206D696C6C696F6E0A005B25732573C1
:100560005D2025732074726176656C206D696E69FB
:100570006D756D2531372E336625730A005B257343
:1005800025735D2025732074726176656C206D6122
:1005900078696D756D2531372E336625730A005BDA
:1005A000257325735D2025732076656C6F636974F0
:1005B00079206D6178696D756D2531312E30662534
:1005C000732F6D696E0A005B257325735D2025739B
:1005D000206665656472617465206D6178696D750A
:1005E0006D2531312E306625732F6D696E0A005BE3
:1005F000257325735D2025732061786973206D6FE5
:100600006465253138642025730A005B6D615D20C7
:10061000206D696E20617263207365676D656E740D
:100620002531382E336625730A005B6D6C5D202002
:100630006D696E206C696E65207365676D656E749B
:100640002531372E336625730A005B736C5D2020DD
:10065000736F6674206C696D697420656E61626C7D
:1006600065253132640A005B63745D202063686F26
:100670007264616C20746F6C6572616E63652531A4
:10068000362E336625730A005B6A615D20206A7529
:100690006E6374696F6E20616363656C657261740B
:1006A000696F6E25382E306625730A005B676469B2
:1006B0005D2064656661756C742067636F64652096
:1006C00064697374616E6365206D6F64652532645F
:1006D000205B303D4739302C313D4739315D0A00D0
:1006E0005B6770615D2064656661756C742067632B
:1006F0006F6465207061746820636F6E74726F6CD4
:10070000253364205B303D4736312C313D4736314F
:100710002E312C323D4736345D0A005B67636F5DD6
:100720002064656661756C742067636F646520631F
:100730006F6F72642073797374656D253364205B09
:10074000312D3620284735342D473539295D0A00AB
:100750005B67756E5D2064656661756C74206763A8
:100760006F646520756E697473206D6F64652535DF
:1007700064205B303D4732302C313D4732315D0AD9
:10078000005B67706C5D2064656661756C742067E2
:10079000636F646520706C616E6525313064205B29
:1007A000303D4731372C313D4731382C323D4731D0
:1007B000395D0A00256320776F726B206F66667360
:1007C00065743A2531322E336625730A002563207D
:1007D0006D616368696E6520706F736E3A253131A3
:1007E0002E336625730A00256320706F7369746960
:1007F0006F6E3A2531352E336625730A00546F6FBC
:100800006C206E756D6265722020202020202020D3
:10081000202025640A0046656564207261746520A5
:100820006D6F64653A20202020202025730A004443
:10083000697374616E6365206D6F64653A20202072
:100840002020202025730A0050617468204D6F64B9
:10085000653A202020202020202020202025730AF7
:1008600000506C616E653A2020202020202020203E
:1008700020202020202025730A004D6F74696F6EA0
:10088000206D6F64653A2020202020202020202524
:10089000730A00436F6F7264696E617465207379C7
:1008A0007374656D3A20202025730A00556E6974B3
:1008B000733A2020202020202020202020202020CB
:1008C0002025730A00486F6D696E67207374617428
:1008D000653A202020202020202025730A0046652C
:1008E0006564686F6C642073746174653A202020BD
:1008F00020202025730A004D6F74696F6E20737479
:100900006174653A202020202020202025730A00D1
:100910004379636C652073746174653A20202020EC
:10092000202020202025730A00526177206D61630A
:1009300068696E652073746174653A2020202573A0
:100940000A004D616368696E652073746174653A6D
:100950002020202020202025730A004C696E65206D
:100960006E756D6265723A2531302E30660A00462A
:1009700065656420726174653A2531362E336625CB
:10098000732F6D696E0A0056656C6F636974793AEE
:100990002531372E336625732F6D696E0A00260ABE
:1009A000330A390A3F0A440A480A4C0A510A570ACC
:1009B0005D0A640A680A710A7E0A840A8A0A8F0A32
:1009C000930A990AA20AA60AB00AB60ABD0AC10A7F
:1009D000C60ACA0ACF0AD30AD80ADD0AE30AE80A15
:1009E000F10AFB0A010B080B1A0B300B500B6A0BB8
:1009F000840B9E0BB80BD20BEC0B090C1B0C340CAC
:100A0000550C7C0C8B0C9A0CA90CA90CBF0CD50CAA
:100A1000F20C120D2A0D5B0D7B0D860D910D9D0DB7
:100A2000A60DAA0DAE0D496E697469616C697A698B
:100A30006E6700526561647900416C61726D0053AC
:100A4000746F7000456E640052756E00486F6C6480
:100A50000050726F6265004379636C6500486F6D8A
:100A6000696E67004A6F670053687574646F776ECC
:100A700000496E697469616C697A696E67005265D4
:100A800061647900416C61726D0053746F70004550
:100A90006E64004379636C650053687574646F77A6
:100AA0006E004F6666004D616368696E696E67002F
:100AB00050726F626500486F6D696E67004A6F67BC
:100AC0000053746F700052756E00486F6C64004F75
:100AD00066660053796E6300506C616E0044656316
:100AE000656C00486F6C6400456E6420486F6C64F0
:100AF000004E6F7420486F6D656400486F6D6564CB
:100B000000486F6D696E6700473230202D20696E96
:100B100063686573206D6F646500473231202D2056
:100B20006D696C6C696D65746572206D6F646500CC
:100B3000473533202D206D616368696E6520636FD2
:100B40006F7264696E6174652073797374656D008A
:100B5000473534202D20636F6F7264696E61746550
:100B60002073797374656D203100473535202D2051
:100B7000636F6F7264696E617465207379737465F5
:100B80006D203200473536202D20636F6F72646907
:100B90006E6174652073797374656D203300473519
:100BA00037202D20636F6F7264696E6174652073E6
:100BB000797374656D203400473538202D20636FBC
:100BC0006F7264696E6174652073797374656D20EA
:100BD0003500473539202D20636F6F7264696E616F
:100BE00074652073797374656D203600473020205A
:100BF0002D206C696E656172207472617665727306
:100C00006520287365656B2900473120202D206CF5
:100C1000696E656172206665656400473220202D2B
:100C200020636C6F636B7769736520617263206604
:100C300065656400473320202D20636F756E7465F1
:100C40007220636C6F636B776973652061726320D8
:100C50006665656400473830202D2063616E6365EA
:100C60006C206D6F74696F6E206D6F646520286EE7
:100C70006F6E65206163746976652900473137209E
:100C80002D20585920706C616E6500473138202D39
:100C900020585A20706C616E6500473139202D2034
:100CA000595A20706C616E6500473631202D2065E1
:100CB000786163742073746F70206D6F6465004792
:100CC0003634202D20636F6E74696E756F757320D6
:100CD0006D6F646500473930202D206162736F6C41
:100CE0007574652064697374616E6365206D6F64EB
:100CF0006500473931202D20696E6372656D656E20
:100D000074616C2064697374616E6365206D6F64D7
:100D10006500473933202D20696E76657273652032
:100D200074696D65206D6F646500473934202D202E
:100D3000756E6974732D7065722D6D696E7574654D
:100D4000206D6F64652028692E652E2066656564B8
:100D500072617465206D6F64652900473935202DF7
:100D600020756E6974732D7065722D7265766F6C67
:100D70007574696F6E206D6F6465005B6469736183
:100D8000626C65645D005B7374616E646172645D66
:100D9000005B696E686962697465645D005B7261BD
:100DA000646975735D0020696E00206D6D002064BC
:100DB000656700737973006662000000000702E94E
:100DC00074D45AFF5AF8334881D643737973006656
:100DD00076000000000703ED74D45AFF5AFC33EC90
:100DE00051783F737973006870000000000700F1CC
:100DF00074D45A985B00340000803F7379730068A4
:100E000076000000000700F574D45AC97404340059
:100E1000000041737973006964000000000400F968
:100E2000746B74FF5AF43300000000000000006E81
:100E300000000000000100D7572256525BE82B004B
:100E4000000000000000006C696E6500000100D722
:100E5000573956525BE82B00000000000000007676
:100E6000656C000000000297575056FF5AF433009B
:100E7000000000000000006665656400000002B725
:100E800057D45AFF5A252C000000000000000073C0
:100E900074617400000000DB579355FF5AF433006F
:100EA000000000000000006D61637300000000DFBF
:100EB00057A055FF5AF43300000000000000006303
:100EC00079637300000000E357A655FF5AF433001E
:100ED000000000000000006D6F747300000000E768
:100EE00057AC55FF5AF433000000000000000068C2
:100EF0006F6C6400000000EB57B255FF5AF43300EA
:100F000000000000000000756E697400000000F32E
:100F100057BE55FF5AF43300000000000000006384
:100F20006F6F7200000000F757C955FF5AF4330085
:100F3000000000000000006D6F6D6F00000000FBFE
:100F400057D455FF5AF43300000000000000007031
:100F50006C616E00000000FF57DD55FF5AF433004E
:100F600000000000000000706174680000000003D1
:100F700058E855FF5AF433000000000000000064F8
:100F8000697374000000000758F355FF5AF43300EA
:100F90000000000000000066726D6F000000000B92
:100FA00058FE55FF5AF433000000000000000074A2
:100FB0006F6F6C000000000F580956FF5AF43300A1
:100FC0000000006D706F006D706F78000000037599
:100FD00059A856FF5AF433000000006D706F006D81
:100FE000706F79000000037559A856FF5AF433005A
:100FF0000000006D706F006D706F7A000000037567
:1010000059A856FF5AF433000000006D706F006D50
:10101000706F61000000037559A856FF5AF4330041
:101020000000006D706F006D706F6200000003754E
:1010300059A856FF5AF433000000006D706F006D20
:10104000706F63000000037559A856FF5AF433000F
:10105000000000706F7300706F7378000000036F02
:10106000598356FF5AF43300000000706F7300700C
:101070006F7379000000036F598356FF5AF43300F1
:10108000000000706F7300706F737A000000036FD0
:10109000598356FF5AF43300000000706F730070DC
:1010A0006F7361000000036F598356FF5AF43300D9
:1010B000000000706F7300706F7362000000036FB8
:1010C000598356FF5AF43300000000706F730070AC
:1010D0006F7363000000036F598356FF5AF43300A7
:1010E0000000006F6673006F667378000000037A7B
:1010F00059CD56FF5AF433000000006F6673006F3D
:10110000667379000000037A59CD56FF5AF4330014
:101110000000006F6673006F66737A000000037A48
:1011200059CD56FF5AF433000000006F6673006F0C
:10113000667361000000037A59CD56FF5AF43300FC
:101140000000006F6673006F667362000000037A30
:1011500059CD56FF5AF433000000006F6673006FDC
:10116000667363000000037A59CD56FF5AF43300CA
:10117000000000686F6D00686F6D6500000000EF93
:1011800057B8555F57F43300000000686F6D006872
:101190006F6D78000000006F59745AFF5ABC2B0025
:1011A000000000686F6D00686F6D79000000006FCF
:1011B00059745AFF5ABD2B00000000686F6D00681B
:1011C0006F6D7A000000006F59745AFF5ABE2B00F1
:1011D000000000686F6D00686F6D61000000006FB7
:1011E00059745AFF5ABF2B00000000686F6D0068E9
:1011F0006F6D62000000006F59745AFF5AC02B00D7
:10120000000000686F6D00686F6D63000000006F84
:1012100059745AFF5AC12B000000007072620070AE
:1012200072626500000000D7B9745AFF5AC22B00E1
:10123000000000707262007072627800000003D7D4
:10124000B9D45AFF5AC32B000000007072620070BC
:1012500072627900000003D7B9D45AFF5AC72B0035
:10126000000000707262007072627A00000003D7A2
:10127000B9D45AFF5ACB2B00000000707262007084
:1012800072626100000003D7B9D45AFF5ACF2B0015
:10129000000000707262007072626200000003D78A
:1012A000B9D45AFF5AD32B0000000070726200704C
:1012B00072626300000003D7B9D45AFF5AD72B00DB
:1012C0000000006A6F67006A6F677800000000D74F
:1012D000B9705A7B57E22B000000006A6F67006A02
:1012E0006F677900000000D7B9705A8257E22B006F
:1012F0000000006A6F67006A6F677A00000000D71D
:10130000B9705A8957E22B000000006A6F67006AC3
:101310006F676100000000D7B9705A9057E22B0048
:10132000000000000000007372000000000000A731
:10133000A47AA47CA4F43300000000000000007133
:10134000720000000000000AA6BDA5FF5AF4330099
:101350000000000000000071690000000000000EA5
:10136000A6D2A5FF5AF4330000000000000000716F
:101370006F00000000000012A6EEA5FF5AF4330033
:10138000000000000000006572000000000000D7AF
:10139000B96CA1FF5AF43300000000000000007196
:1013A00066000000000000D7B9705A5A57F43300A5
:1013B000000000000000007278000000000000350E
:1013C000BAB960FF5AF43300000000000000006D5D
:1013D00073670000000000EEB9705AFF5AF4330042
:1013E00000000000000000636C656172000000D71F
:1013F000B99A4D9A4DF433000000000000000074CB
:1014000065737400000000D7B9747521B5F433001A
:10141000000000000000006465666100000000D765
:10142000B997750B5AF43300000000000000006209
:101430006F6F7400000000D7B9BA75C474F433003C
:101440000000000000000068656C7000000000D71C
:10145000B93D75FF5AF43300000000000000006839
:1014600000000000000000D7B93D75FF5AF43300BA
:1014700000000031000000316D61000000030074C5
:10148000B2745A015BB14F0000000031000000311E
:101490007361000000030378B2D45AF4B0B94F6608
:1014A00066E63F3100000031747200000003047DE5
:1014B000B2D45A01B1BD4F0000A03F31000000314D
:1014C0006D6900000003009FB2745A0EB1B24F0064
:1014D0000000413100000031706F0000000300A3E4
:1014E000B2745A225BB34F0000000031000000319B
:1014F000706D0000000300A7B2745AC8B1B44F0069
:101500000000403100000031706C0000000303ABAC
:10151000B2D45AFCB1B54F0000803E320000003218
:101520006D61000000030074B2745A015BCD4F007E
:1015300000803F3200000032736100000003037836
:10154000B2D45AF4B0D54F6666E63F32000000329E
:10155000747200000003047DB2D45A01B1D94F0067
:1015600000A03F32000000326D6900000003009FC0
:10157000B2745A0EB1CE4F0000004132000000326A
:10158000706F0000000300A3B2745A225BCF4F00BB
:101590000000003200000032706D0000000300A760
:1015A000B2745AC8B1D04F0000004032000000327F
:1015B000706C0000000303ABB2D45AFCB1D14F00F1
:1015C00000803E33000000336D61000000030074B2
:1015D000B2745A015BE94F00000040330000003351
:1015E0007361000000030378B2D45AF4B0F14F667F
:1015F00066E63F3300000033747200000003047D90
:10160000B2D45A01B1F54F0000A03F3300000033BF
:101610006D6900000003009FB2745A0EB1EA4F00DA
:101620000000413300000033706F0000000300A38E
:10163000B2745A225BEB4F0000000033000000330D
:10164000706D0000000300A7B2745AC8B1EC4F00DF
:101650000000403300000033706C0000000303AB57
:10166000B2D45AFCB1ED4F0000803E34000000348B
:101670006D61000000030074B2745A015B055000F4
:101680000040403400000034736100000003037820
:10169000B2D45AF4B00D506666E63F340000003410
:1016A000747200000003047DB2D45A01B1115000DD
:1016B00000B44334000000346D6900000003009F53
:1016C000B2745A0EB10650000000413400000034DC
:1016D000706F0000000300A3B2745A225B07500031
:1016E0000000003400000034706D0000000300A70B
:1016F000B2745AC8B10850000000403400000034F1
:10170000706C0000000303ABB2D45AFCB109500066
:1017100000803E7800000078616D0000000300E961
:1017200058F8560B57902A0000803F780000007848
:10173000766D00000003003359D45AC35B952A002C
:101740000016447800000078667200000003002F45
:1017500059D45AC35B912A000016447800000078DF
:10176000746E00000003033B59D45AC35B9D2A00EA
:101770000000007800000078746D0000000303375B
:1017800059D45AC35B992A000016437800000078A8
:101790006A6D00000003003F59D45A2E57A12A0059
:1017A00000A04178000000786A6800000003004350
:1017B00059D45A2E57A52A0000A04178000000787D
:1017C0006A6400000003044759D45AC35BA92ACDB8
:1017D000CC4C3D7800000078736E00000003004F91
:1017E00059745A03B5B4290000803F78000000788E
:1017F000737800000003005359745A03B5B52900EB
:1018000000000078000000787376000000030057A5
:1018100059D45AC35BB12A0000FA4378000000781B
:101820006C7600000003005B59D45AC35BB52A00F4
:1018300000C84278000000786C6200000003035F7B
:1018400059D45AC35BB92A0000A040780000007840
:101850007A6200000003036359D45AC35BBD2A00B7
:1018600000803F7900000079616D0000000300E90D
:1018700058F8560B57C12A0000803F7900000079C4
:10188000766D00000003003359D45AC35BC62A00AA
:101890000016447900000079667200000003002FF2
:1018A00059D45AC35BC22A0000164479000000795B
:1018B000746E00000003033B59D45AC35BCE2A0068
:1018C0000000007900000079746D00000003033708
:1018D00059D45AC35BCA2A00001643790000007924
:1018E0006A6D00000003003F59D45A2E57D22A00D7
:1018F00000A04179000000796A68000000030043FD
:1019000059D45A2E57D62A0000A0417900000079F8
:101910006A6400000003044759D45AC35BDA2ACD35
:10192000CC4C3D7900000079736E00000003004F3D
:1019300059745A03B5B6290000803F790000007938
:10194000737800000003005359745A03B5B7290097
:101950000000007900000079737600000003005752
:1019600059D45AC35BE22A0000FA43790000007997
:101970006C7600000003005B59D45AC35BE62A0072
:1019800000C84279000000796C6200000003035F28
:1019900059D45AC35BEA2A0000A0407900000079BC
:1019A0007A6200000003036359D45AC35BEE2A0035
:1019B00000803F7A0000007A616D0000000300E9BA
:1019C00058F8560B57F22A0000803F7A0000007A40
:1019D000766D00000003003359D45AC35BF72A0028
:1019E0000016447A0000007A667200000003002F9F
:1019F00059D45AC35BF32A000016447A0000007AD7
:101A0000746E00000003033B59D45AC35BFF2A00E5
:101A10000000007A0000007A746D000000030337B4
:101A200059D45AC35BFB2A000096427A0000007A20
:101A30006A6D00000003003F59D45A2E57032B0053
:101A400000A0417A0000007A6A68000000030043A9
:101A500059D45A2E57072B0000A0417A0000007A73
:101A60006A6400000003044759D45AC35B0B2BCDB2
:101A7000CC4C3D7A0000007A736E00000003004FEA
:101A800059745A03B5B829000000007A0000007AA2
:101A9000737800000003005359745A03B5B9290044
:101AA00000803F7A0000007A737600000003005740
:101AB00059D45AC35B132B0000C8437A0000007A44
:101AC0006C7600000003005B59D45AC35B172B00EF
:101AD00000C8427A0000007A6C6200000003035FD5
:101AE00059D45AC35B1B2B0000A0407A0000007A37
:101AF0007A6200000003036359D45AC35B1F2B00B2
:101B000000803F6100000061616D0000000300E99A
:101B100058F8560B57232B0000404061000000612D
:101B2000766D00000003003359D45A985B282B00CF
:101B3000C028486100000061667200000003002FA9
:101B400059D45A985B242B00C028486100000061DA
:101B5000746E00000003033B59D45AC35B302B0062
:101B60000080BF6100000061746D00000003033756
:101B700059D45A985B2C2B000080BF610000006193
:101B80006A6D00000003003F59D45A2E57342B00D1
:101B900000B44561000000616A6800000003004372
:101BA00059D45A2E57382B0000B44561000000610B
:101BB0006A6400000003044759D45A985B3C2BCD5B
:101BC000CC4C3D6100000061726100000003034BDA
:101BD00059D45A985B402BD5B74B3E610000006149
:101BE000736E00000003004F59745A03B5BA290000
:101BF00000803F6100000061737800000003005323
:101C000059745A03B5BB290000000061000000614F
:101C1000737600000003005759D45A985B442B0098
:101C200000164461000000616C7600000003005B58
:101C300059D45A985B482B0000C8426100000061EB
:101C40006C6200000003035F59D45A985B4C2B0070
:101C500000A04061000000617A620000000303639D
:101C600059D45A985B502B0000004062000000627B
:101C7000616D0000000300E958F8560B57542B0023
:101C80000000006200000062766D00000003003377
:101C900059D45A985B592B000061456200000062DC
:101CA000667200000003002F59D45A985B552B0030
:101CB0000061456200000062746E00000003033B97
:101CC00059D45AC35B612B000080BF6200000062E0
:101CD000746D00000003033759D45A985B5D2B00E4
:101CE0000080BF62000000626A6D00000003003FD8
:101CF00059D45A2E57652B0000A0416200000062A3
:101D00006A6400000003004759D45A985B6D2BCDDC
:101D1000CC4C3D6200000062726100000003034B86
:101D200059D45A985B712B0000803F630000006318
:101D3000616D0000000300E958F8560B57852B0031
:101D40000000006300000063766D000000030033B4
:101D500059D45A985B8A2B000061456300000063E8
:101D6000667200000003002F59D45A985B862B003E
:101D70000061456300000063746E00000003033BD4
:101D800059D45AC35B922B000080BF6300000063EC
:101D9000746D00000003033759D45A985B8E2B00F2
:101DA0000080BF63000000636A6D00000003003F15
:101DB00059D45A2E57962B0000A0416300000063AF
:101DC0006A6400000003004759D45A985B9E2BCDEB
:101DD000CC4C3D6300000063726100000003034BC4
:101DE00059D45A985BA22B0000803F7031000070DC
:101DF0003166727100030097A0D45A985B904E0030
:101E000000C84270310000703163736C0003009BA6
:101E1000A0D45A985B944E00007A44703100007050
:101E2000316373680003009FA0D45A985B984E00FA
:101E300000FA4470310000703163706C000303A33A
:101E4000A0D45A985B9C4E0000003E703100007098
:101E500031637068000303A7A0D45A985BA04ECDED
:101E6000CC4C3E70310000703177736C000300ABD6
:101E7000A0D45A985BA44E00007A447031000070E0
:101E800031777368000300AFA0D45A985BA84E0066
:101E900000FA4470310000703177706C000303B3B6
:101EA000A0D45A985BAC4E0000003E703100007028
:101EB00031777068000303B7A0D45A985BB04ECD59
:101EC000CC4C3E703100007031706F66000303BB74
:101ED000A0D45A985BB44ECDCCCC3D673534006766
:101EE000353478000003036759D45AC35B002A00D5
:101EF000000000673534006735347900000303675C
:101F000059D45AC35B042A000000006735340067C7
:101F100035347A000003036759D45AC35B082A009A
:101F20000000006735340067353461000003036743
:101F300059D45AC35B0C2A0000000067353400678F
:101F4000353462000003036759D45AC35B102A007A
:101F50000000006735340067353463000003036711
:101F600059D45AC35B142A00000000673535006756
:101F7000353578000003036759D45AC35B182A002B
:101F800000964267353500673535790000030367F1
:101F900059D45AC35B1C2A00009642673535006746
:101FA00035357A000003036759D45AC35B202A00F1
:101FB00000000067353500673535610000030367B1
:101FC00059D45AC35B242A000000006735350067E6
:101FD000353562000003036759D45AC35B282A00D1
:101FE000000000673535006735356300000303677F
:101FF00059D45AC35B2C2A000000006735360067AD
:10200000353678000003036759D45AC35B302A0081
:102010000000006735360067353679000003036736
:1020200059D45AC35B342A00000000673536006774
:1020300035367A000003036759D45AC35B382A0047
:10204000000000673536006735366100000303671E
:1020500059D45AC35B3C2A0000000067353600673C
:10206000353662000003036759D45AC35B402A0027
:1020700000000067353600673536630000030367EC
:1020800059D45AC35B442A00000000673537006703
:10209000353778000003036759D45AC35B482A00D8
:1020A00000000067353700673537790000030367A4
:1020B00059D45AC35B4C2A000000006735370067CB
:1020C00035377A000003036759D45AC35B502A009E
:1020D000000000673537006735376100000303678C
:1020E00059D45AC35B542A00000000673537006793
:1020F000353762000003036759D45AC35B582A007E
:102100000000006735370067353763000003036759
:1021100059D45AC35B5C2A00000000673538006759
:10212000353878000003036759D45AC35B602A002E
:102130000000006735380067353879000003036711
:1021400059D45AC35B642A00000000673538006721
:1021500035387A000003036759D45AC35B682A00F4
:1021600000000067353800673538610000030367F9
:1021700059D45AC35B6C2A000000006735380067E9
:10218000353862000003036759D45AC35B702A00D4
:1021900000000067353800673538630000030367C7
:1021A00059D45AC35B742A000000006735390067B0
:1021B000353978000003036759D45AC35B782A0085
:1021C000000000673539006735397900000303677F
:1021D00059D45AC35B7C2A00000000673539006778
:1021E00035397A000003036759D45AC35B802A004B
:1021F0000000006735390067353961000003036767
:1022000059D45AC35B842A0000000067353900673F
:10221000353962000003036759D45AC35B882A002A
:102220000000006735390067353963000003036734
:1022300059D45AC35B8C2A0000000067393200670A
:10224000393278000001036759D45AFF5A592C00DB
:1022500000000067393200673932790000010367F6
:1022600059D45AFF5A5D2C000000006739320067CC
:1022700039327A000001036759D45AFF5A612C00A1
:1022800000000067393200673932610000010367DE
:1022900059D45AFF5A652C00000000673932006794
:1022A000393262000001036759D45AFF5A692C0081
:1022B00000000067393200673932630000010367AC
:1022C00059D45AFF5A6D2C0000000067323800675D
:1022D000323878000001036B59D45AFF5A712C0030
:1022E0000000006732380067323879000001036B64
:1022F00059D45AFF5A752C00000000673238006725
:1023000032387A000001036B59D45AFF5A792C00F5
:102310000000006732380067323861000001036B4B
:1023200059D45AFF5A7D2C000000006732380067EC
:10233000323862000001036B59D45AFF5A812C00D5
:102340000000006732380067323863000001036B19
:1023500059D45AFF5A852C000000006733300067BB
:10236000333078000001036B59D45AFF5A892C008E
:102370000000006733300067333079000001036BE1
:1023800059D45AFF5A8D2C00000000673330006783
:1023900033307A000001036B59D45AFF5A912C0054
:1023A0000000006733300067333061000001036BC9
:1023B00059D45AFF5A952C0000000067333000674B
:1023C000333062000001036B59D45AFF5A992C0034
:1023D0000000006733300067333063000001036B97
:1023E00059D45AFF5A9D2C000000006A6964006AA3
:1023F00069646100000000D7B9B25A765B1C3400F2
:102400000000006A6964006A69646200000000D725
:10241000B9B25A765B2034000000006A6964006A31
:1024200069646300000000D7B9B25A765B243400B7
:102430000000006A6964006A69646400000000D7F3
:10244000B9B25A765B283400000000737973006AD1
:10245000610000000007006558D45AC35BCE290014
:1024600050C347737973006374000000000704854C
:1024700058D45AC35BD2290AD7233C7379730073AB
:102480006C000000000700A558745A015BD62900B3
:102490000000007379730073740000000007001DD2
:1024A000B5745AFDB4A92900000000737973006D5A
:1024B0007400000000070270B2D45AFEB1AD4F00A4
:1024C000000040000000006D65000000000000EE0C
:1024D000B957B257B2F43300000000000000006D9D
:1024E00064000000000000EEB93EB23EB2F43300DA
:1024F00000000073797300656A0000000007005F48
:102500007B745A225BA9330000803F737973006AA1
:1025100076000000000700637B745AF17AC337002D
:10252000000040737973006A7300000000070067C1
:102530007B745A225BC5370000803F737973007447
:102540007600000000070071BA745A225B13510034
:1025500000803F7379730071760000000007001659
:10256000A6745A3A5BE64E0000000073797300735C
:1025700076000000000700ADA4745A3A5BF34E00E9
:1025800000803F737973007369000000000700A9A1
:10259000A4935A7EA4F44E00007A437379730065C5
:1025A00063000000000700DE60745A8660AA3300F2
:1025B000000000737973006565000000000700DA11
:1025C00060745A5360AB3300000000737973006588
:1025D00078000000000700D660745A2060AC330019
:1025E00000803F737973006261756400000400D25B
:1025F00060745AA15FAD330000A040737973006E20
:1026000065740000000700CE60745A015B0B340053
:102610000000007379730067706C000000070051C0
:1026200058745A3A5BE4290000000073797300671C
:10263000756E00000007005558745A225BE52900AA
:1026400000803F7379730067636F000000070059D3
:1026500058745A015BE3290000803F737973006767
:10266000706100000007005D58745A3A5BE629006B
:10267000000040737973006764690000000700611F
:1026800058745A225BE72900000000000000006730
:1026900063000000000000D7B97A738A73F4330036
:1026A000000000000000006D6C000000000304A9A1
:1026B00058D45AC35BD7290AD7A33D000000006D48
:1026C00061000000000304C958D45AC35BDB29CD64
:1026D000CCCC3D0000000066640000000003001147
:1026E000BA745A225BC4370000000075646100753B
:1026F0006461300000030035BAB25A765BAF330034
:1027000000000075646100756461310000030035EC
:10271000BAB25A765BB3330000000075646100758D
:102720006461320000030035BAB25A765BB73300F9
:1027300000000075646100756461330000030035BA
:10274000BAB25A765BBB3300000000756462007554
:102750006462300000030035BAB25A765BBF3300C2
:10276000000000756462007564623100000300358A
:10277000BAB25A765BC3330000000075646200751C
:102780006462320000030035BAB25A765BC7330088
:102790000000007564620075646233000003003558
:1027A000BAB25A765BCB33000000007564630075E3
:1027B0006463300000030035BAB25A765BCF330051
:1027C0000000007564630075646331000003003528
:1027D000BAB25A765BD333000000007564630075AB
:1027E0006463320000030035BAB25A765BD7330017
:1027F00000000075646300756463330000030035F6
:10280000BAB25A765BDB3300000000756464007571
:102810006464300000030035BAB25A765BDF3300DF
:1028200000000075646400756464310000030035C5
:10283000BAB25A765BE33300000000756464007539
:102840006464320000030035BAB25A765BE73300A5
:102850000000007564640075646433000003003593
:10286000BAB25A765BEB33000000005F7465005F1C
:102870007465780000000252BAD45AFF5A744C00B2
:102880000000005F7465005F74657900000002520B
:10289000BAD45AFF5A784C000000005F7465005F9C
:1028A00074657A0000000252BAD45AFF5A7C4C0078
:1028B0000000005F7465005F7465610000000252F3
:1028C000BAD45AFF5A804C000000005F7465005F64
:1028D0007465620000000252BAD45AFF5A844C0058
:1028E0000000005F7465005F7465630000000252C1
:1028F000BAD45AFF5A884C000000005F7472005F1F
:102900007472780000000252BAD45AFF5A8D4D00FA
:102910000000005F7472005F747279000000025260
:10292000BAD45AFF5A914D000000005F7472005FE4
:1029300074727A0000000252BAD45AFF5A954D00C0
:102940000000005F7472005F747261000000025248
:10295000BAD45AFF5A994D000000005F7472005FAC
:102960007472620000000252BAD45AFF5A9D4D00A0
:102970000000005F7472005F747263000000025216
:10298000BAD45AFF5AA14D000000005F7473005F73
:102990007473310000000252BAD45AFF5AEC4C0052
:1029A0000000005F7073005F70733100000002521E
:1029B000BAD45AFF5AFC4C000000005F6373005FFA
:1029C0006373310000000252BAD45AFF5A0C4D0012
:1029D0000000005F6573005F657331000000025204
:1029E000BAD45AFF5A1C4D000000005F7873005F94
:1029F0007873310000000252BAD45AFF5A3B50009B
:102A00000000005F6665005F6665310000000252ED
:102A1000BAD45AFF5A2C4D000000005F7473005F57
:102A20007473320000000252BAD45AFF5AF04C00BC
:102A30000000005F7073005F70733200000002528C
:102A4000BAD45AFF5A004D000000005F6373005F64
:102A50006373320000000252BAD45AFF5A104D007C
:102A60000000005F6573005F657332000000025272
:102A7000BAD45AFF5A204D000000005F7873005FFF
:102A80007873320000000252BAD45AFF5A535000F1
:102A90000000005F6665005F66653200000002525C
:102AA000BAD45AFF5A304D000000005F7473005FC3
:102AB0007473330000000252BAD45AFF5AF44C0027
:102AC0000000005F7073005F7073330000000252FB
:102AD000BAD45AFF5A044D000000005F6373005FD0
:102AE0006373330000000252BAD45AFF5A144D00E7
:102AF0000000005F6573005F6573330000000252E1
:102B0000BAD45AFF5A244D000000005F7873005F6A
:102B10007873330000000252BAD45AFF5A6B500047
:102B20000000005F6665005F6665330000000252CA
:102B3000BAD45AFF5A344D000000005F7473005F2E
:102B40007473340000000252BAD45AFF5AF84C0091
:102B50000000005F7073005F707334000000025269
:102B6000BAD45AFF5A084D000000005F6373005F3B
:102B70006373340000000252BAD45AFF5A184D0051
:102B80000000005F6573005F65733400000002524F
:102B9000BAD45AFF5A284D000000005F7873005FD6
:102BA0007873340000000252BAD45AFF5A8350009E
:102BB0000000005F6665005F666534000000025239
:102BC000BAD45AFF5A384D00000000000000005FE0
:102BD00064616D00000000D7B913581358F4330036
:102BE000000000000000007365303000000200D7D4
:102BF000B9935A525BFF4E000000000000000073C2
:102C000065303100000200D7B9935A525B014F0082
:102C1000000000000000007365303200000200D7A1
:102C2000B9935A525B034F0000000000000000738C
:102C300065303300000200D7B9935A525B054F004C
:102C4000000000000000007365303400000200D76F
:102C5000B9935A525B074F00000000000000007358
:102C600065303500000200D7B9935A525B094F0016
:102C7000000000000000007365303600000200D73D
:102C8000B9935A525B0B4F00000000000000007324
:102C900065303700000200D7B9935A525B0D4F00E0
:102CA000000000000000007365303800000200D70B
:102CB000B9935A525B0F4F000000000000000073F0
:102CC00065303900000200D7B9935A525B114F00AA
:102CD000000000000000007365313000000200D7E2
:102CE000B9935A525B134F000000000000000073BC
:102CF00065313100000200D7B9935A525B154F007D
:102D0000000000000000007365313200000200D7AF
:102D1000B9935A525B174F00000000000000007387
:102D200065313300000200D7B9935A525B194F0046
:102D3000000000000000007365313400000200D77D
:102D4000B9935A525B1B4F00000000000000007353
:102D500065313500000200D7B9935A525B1D4F0010
:102D6000000000000000007365313600000200D74B
:102D7000B9935A525B1F4F0000000000000000731F
:102D800065313700000200D7B9935A525B214F00DA
:102D9000000000000000007365313800000200D719
:102DA000B9935A525B234F000000000000000073EB
:102DB00065313900000200D7B9935A525B254F00A4
:102DC000000000000000007365323000000200D7F0
:102DD000B9935A525B274F000000000000000073B7
:102DE00065323100000200D7B9935A525B294F0077
:102DF000000000000000007365323200000200D7BE
:102E0000B9935A525B2B4F00000000000000007382
:102E100065323300000200D7B9935A525B2D4F0040
:102E2000000000000000007365323400000200D78B
:102E3000B9935A525B2F4F0000000000000000734E
:102E400065323500000200D7B9935A525B314F000A
:102E5000000000000000007365323600000200D759
:102E6000B9935A525B334F0000000000000000731A
:102E700065323700000200D7B9935A525B354F00D4
:102E8000000000000000007365323800000200D727
:102E9000B9935A525B374F000000000000000073E6
:102EA00065323900000200D7B9935A525B394F009E
:102EB000000000000000007379730000000000D7DC
:102EC000B9EA5DFC5BF43300000000000000007014
:102ED00031000000000000D7B9EA5DFC5BF433006C
:102EE000000000000000003100000000000000D7DA
:102EF000B9EA5DFC5BF43300000000000000003222
:102F000000000000000000D7B9EA5DFC5BF433006C
:102F1000000000000000003300000000000000D7A7
:102F2000B9EA5DFC5BF433000000000000000034EF
:102F300000000000000000D7B9EA5DFC5BF433003C
:102F4000000000000000007800000000000000D732
:102F5000B9EA5DFC5BF4330000000000000000797A
:102F600000000000000000D7B9EA5DFC5BF433000C
:102F7000000000000000007A00000000000000D700
:102F8000B9EA5DFC5BF43300000000000000006162
:102F900000000000000000D7B9EA5DFC5BF43300DC
:102FA000000000000000006200000000000000D7E8
:102FB000B9EA5DFC5BF43300000000000000006330
:102FC00000000000000000D7B9EA5DFC5BF43300AC
:102FD000000000000000006735340000000000D74A
:102FE000B9EA5DFC5BF433000000000000000067FC
:102FF00035350000000000D7B9EA5DFC5BF4330012
:10300000000000000000006735360000000000D717
:10301000B9EA5DFC5BF433000000000000000067CB
:1030200035370000000000D7B9EA5DFC5BF43300DF
:10303000000000000000006735380000000000D7E5
:10304000B9EA5DFC5BF4330000000000000000679B
:1030500035390000000000D7B9EA5DFC5BF43300AD
:10306000000000000000006739320000000000D7B7
:10307000B9EA5DFC5BF4330000000000000000676B
:1030800032380000000000D7B9EA5DFC5BF4330081
:10309000000000000000006733300000000000D78F
:1030A000B9EA5DFC5BF43300000000000000006D35
:1030B000706F0000000000D7B9EA5DFC5BF43300DC
:1030C00000000000000000706F730000000000D7D7
:1030D000B9EA5DFC5BF43300000000000000006F03
:1030E00066730000000000D7B9EA5DFC5BF43300B2
:1030F00000000000000000686F6D0000000000D7B5
:10310000B9EA5DFC5BF433000000000000000070D1
:1031100072620000000000D7B9EA5DFC5BF4330086
:10312000000000000000006A6F670000000000D788
:10313000B9EA5DFC5BF43300000000000000006AA7
:1031400069640000000000D7B9EA5DFC5BF433005D
:10315000000000000000007564610000000000D75E
:10316000B9EA5DFC5BF4330000000000000000756C
:1031700064620000000000D7B9EA5DFC5BF4330034
:10318000000000000000007564630000000000D72C
:10319000B9EA5DFC5BF4330000000000000000753C
:1031A00064640000000000D7B9EA5DFC5BF4330002
:1031B000000000000000005F74650000000000D700
:1031C000B9EA5DFC5BF43300000000000000005F22
:1031D00074720000000000D7B9EA5DFC5BF43300B4
:1031E000000000000000005F74730000000000D7C2
:1031F000B9EA5DFC5BF43300000000000000005FF2
:1032000070730000000000D7B9EA5DFC5BF4330086
:10321000000000000000005F63730000000000D7A2
:10322000B9EA5DFC5BF43300000000000000005FC1
:1032300065730000000000D7B9EA5DFC5BF4330061
:10324000000000000000005F78730000000000D75D
:10325000B9EA5DFC5BF43300000000000000005F91
:1032600066650000000000D7B9EA5DFC5BF433003E
:10327000000000000000006D00000000000000D70A
:10328000B94361FF5AF433000000000000000071F0
:1032900000000000000000D7B92961FF5AF4330094
:1032A000000000000000006F00000000000000D7D8
:1032B000B90F61FF5AF43300000000000000002441
:1032C00000000000000000D7B95D61FF5AF4330030
:1032D0000000005B65635D2020657870616E64208E
:1032E0004C4620746F2043524C46206F6E20545839
:1032F000253664205B303D6F66662C313D6F6E5D18
:103300000A005B65655D2020656E61626C65206505
:1033100063686F25313864205B303D6F66662C3101
:103320003D6F6E5D0A005B65785D2020656E6162B1
:103330006C6520666C6F7720636F6E74726F6C259E
:10334000313064205B303D6F66662C313D584F4E06
:103350002F584F46462C20323D5254532F4354533E
:103360005D0A005B626175645D20555342206261B5
:103370007564207261746525313564205B313D3997
:103380003630302C323D31393230302C333D333809
:103390003430302C343D35373630302C353D3131FA
:1033A000353230302C363D3233303430305D0A0027
:1033B0005B6E65745D20206E6574776F726B206D37
:1033C0006F646525313664205B303D6D61737465D3
:1033D000725D0A000B340D34123418341E34243458
:1033E0002B342A2A2A204E4F54494345202A2A2A80
:1033F00020526573657474696E672062617564201C
:103400007261746520746F20257300300039363086
:103410003000313932303000333834303000353715
:1034200036303000313135323030003233303430E4
:103430003000456E64206F6620636F6D6D616E6451
:103440002066696C650A00486F6D696E6720657259
:10345000726F72202D202563206178697320736557
:103460007474696E6773206D6973636F6E666967E4
:1034700075726564007B22707262223A7B2265223B
:103480003A2569002C2278223A25302E3366002C0A
:103490002279223A25302E3366002C227A223A25D0
:1034A000302E3366002C2261223A25302E336600FE
:1034B0002C2262223A25302E3366002C2263223AD7
:1034C00025302E3366007D7D0A0050726F62696E72
:1034D00067206572726F72202D20256320617869E4
:1034E000732063616E6E6F74206D6F7665206475F6
:1034F00072696E672070726F62696E67005B6662E8
:103500005D20206669726D77617265206275696CF5
:10351000642531382E32660A005B66765D202066AF
:1035200069726D776172652076657273696F6E2559
:1035300031362E32660A005B68705D202068617249
:10354000647761726520706C6174666F726D25318D
:10355000352E32660A005B68765D202068617264F1
:10356000776172652076657273696F6E2531362ECC
:1035700032660A005B69645D202054696E794720D9
:103580004944253330730A000A0A0A2323232054AE
:10359000696E79472048656C70202323230A005404
:1035A0006865736520636F6D6D616E647320617211
:1035B00065206163746976652066726F6D2074683A
:1035C0006520636F6D6D616E64206C696E653A0A8B
:1035D000205E782020202020202020202020202055
:1035E00052657365742028636F6E74726F6C2078F7
:1035F00029202D20736F6674776172652072657360
:1036000065740A20203F2020202020202020202018
:103610002020204D616368696E6520706F73697446
:10362000696F6E20616E642067636F6465206D6FE3
:1036300064656C2073746174650A20202420202046
:103640002020202020202020202053686F77206118
:103650006E642073657420636F6E6669677572614E
:1036600074696F6E2073657474696E67730A2020C5
:1036700021202020202020202020202020204665DE
:103680006564686F6C64202D2073746F70206D6F9B
:1036900074696F6E20776974686F7574206C6F73CE
:1036A000696E6720706F736974696F6E0A20207E7F
:1036B000202020202020202020202020204379634B
:1036C0006C65205374617274202D2072657374616F
:1036D00072742066726F6D2066656564686F6C64D5
:1036E0000A202068202020202020202020202020A8
:1036F0002053686F7720746869732068656C702048
:1037000073637265656E0A202024682020202020C3
:103710002020202020202053686F7720636F6E6662
:10372000696775726174696F6E2068656C7020736B
:10373000637265656E0A20202474657374202020EE
:103740002020202020204C6973742073656C662D26
:1037500074657374730A202024746573743D4E205D
:1037600020202020202052756E2073656C662D74F9
:10377000657374204E0A202024686F6D653D3120EA
:1037800020202020202052756E206120686F6D69F6
:103790006E67206379636C650A2020246465666126
:1037A0003D3120202020202020526573746F7265E7
:1037B00020616C6C2073657474696E677320746F1C
:1037C0002022666163746F72792220646566617578
:1037D0006C74730A000A4E6F74653A2054696E79EE
:1037E000472067656E657261746573206175746FDB
:1037F0006D61746963207374617475732072657090
:103800006F7274732062792064656661756C740AE6
:10381000546869732063616E206265206469736116
:10382000626C656420627920656E746572696E678A
:10383000202473763D300A536565207468652077CF
:10384000696B692062656C6F7720666F72206D6F9F
:1038500072652064657461696C732E0A000A466F94
:10386000722064657461696C65642054696E79477F
:1038700020696E666F207365653A20687474707392
:103880003A2F2F6769746875622E636F6D2F737995
:103890006E746865746F732F54696E79472F7769FA
:1038A0006B692F0A466F7220746865206C617465BD
:1038B0007374206669726D77617265207365653A0D
:1038C0002068747470733A2F2F6769746875622E5C
:1038D000636F6D2F73796E746865746F732F54699D
:1038E0006E79470A506C65617365206C6F67206163
:1038F0006E792069737375657320617420687474C0
:10390000703A2F2F7777772E73796E746865746F9E
:10391000732E636F6D2F666F72756D730A486176D3
:10392000652066756E0A000A0A0A2323232054695B
:103930006E794720434F4E46494755524154494FAF
:103940004E2048656C70202323230A005468657359
:103950006520636F6D6D616E6473206172652061B7
:10396000637469766520666F7220636F6E6669673F
:1039700075726174696F6E3A0A202024737973201E
:1039800053686F772073797374656D202867656E4F
:103990006572616C292073657474696E67730A209F
:1039A00020243120202053686F77206D6F746F7250
:1039B00020312073657474696E677320286F7220DC
:1039C0007768617465766572206D6F746F722079A7
:1039D0006F752077616E7420312C322C332C342992
:1039E0000A2020247820202053686F7720582061F7
:1039F0007869732073657474696E677320286F72B9
:103A000020776861746576657220617869732079C2
:103A10006F752077616E7420782C792C7A2C612C4C
:103A2000622C63290A2020246D20202053686F77A0
:103A300020616C6C206D6F746F7220736574746993
:103A40006E67730A2020247120202053686F77202E
:103A5000616C6C20617869732073657474696E673A
:103A6000730A2020246F20202053686F7720616C18
:103A70006C206F66667365742073657474696E6715
:103A8000730A2020242420202053686F7720616C43
:103A90006C2073657474696E67730A202024682033
:103AA000202053686F7720746869732068656C7094
:103AB0002073637265656E0A0A004561636820249D
:103AC00020636F6D6D616E642061626F7665206149
:103AD0006C736F20646973706C61797320746865AE
:103AE00020746F6B656E20666F722065616368205D
:103AF00073657474696E6720696E205B205D206257
:103B00007261636B6574730A546F20766965772000
:103B100073657474696E677320656E746572206175
:103B200020746F6B656E3A0A0A2020243C746F6B18
:103B3000656E3E0A0A466F72206578616D706C652D
:103B4000202479667220746F20646973706C6179C7
:103B5000207468652059206D617820666565642051
:103B6000726174650A0A546F20757064617465200F
:103B700073657474696E677320656E746572207402
:103B80006F6B656E20657175616C732076616C7505
:103B9000653A0A0A2020243C746F6B656E3E3D3CFA
:103BA00076616C75653E0A0A466F72206578616DB4
:103BB000706C6520247966723D38303020746F2037
:103BC000736574207468652059206D61782066657E
:103BD0006564207261746520746F20383030206D08
:103BE0006D2F6D696E7574650A466F7220636F6E16
:103BF00066696775726174696F6E20646574616966
:103C00006C73207365653A2068747470733A2F2F53
:103C10006769746875622E636F6D2F73796E74684F
:103C200065746F732F54696E79472F77696B692FAD
:103C300054696E79472D436F6E666967757261745A
:103C4000696F6E0A000A0A0A2323232054696E79D9
:103C5000472053454C4620544553542048656C70CA
:103C6000202323230A00496E766F6B652073656CF1
:103C700066207465737420627920656E746572695C
:103C80006E672024746573743D4E20776865726595
:103C9000204E206973206F6E65206F663A0A2020DF
:103CA00024746573743D312020736D6F6B652074CF
:103CB0006573740A202024746573743D3220206873
:103CC0006F6D696E67207465737420202028796F8A
:103CD00075206D757374207472697020686F6D69DA
:103CE0006E67207377697463686573290A202024DE
:103CF000746573743D33202073717561726520742F
:103D000065737420202028612073657269657320B3
:103D10006F662073717561726573290A202024749F
:103D20006573743D34202061726320746573742060
:103D3000202020202028736F6D65206C61726765DC
:103D400020636972636C6573290A2020247465738B
:103D5000743D3520206477656C6C20746573742025
:103D6000202020286D6F7665732073706163656411
:103D70002062792031207365636F6E6420647765FB
:103D80006C6C73290A202024746573743D362020DE
:103D900066656564686F6C6420746573742028655B
:103DA0006E746572202120616E64207E20746F2005
:103DB000686F6C6420616E642072657374617274E4
:103DC0002C20726573706563746976656C79290A55
:103DD000202024746573743D3720204D20636F6468
:103DE000657320746573742020284D20636F6465AB
:103DF0007320696E7465726D696E676C6564207797
:103E0000697468206D6F766573290A2020247465B3
:103E100073743D3820204A534F4E207465737420CC
:103E200020202020286D6F74696F6E207465737474
:103E30002072756E207573696E67204A534F4E204D
:103E4000636F6D6D616E6473290A2020247465733D
:103E5000743D392020696E76657273652074696DD2
:103E60006520746573740A202024746573743D3171
:103E70003020726F74617279206D6F74696F6E207B
:103E8000746573740A202024746573743D31312085
:103E9000736D616C6C206D6F7665732074657374DF
:103EA0000A202024746573743D313220736C6F775F
:103EB000206D6F76657320746573740A20202474F6
:103EC0006573743D313320636F6F7264696E617422
:103ED000652073797374656D206F666673657420F1
:103EE0007465737420284739322C204735342D47A8
:103EF0003539290A0A546573747320617373756DBB
:103F00006520612063656E74657265642058592070
:103F10006F726967696E20616E64206174206C65E0
:103F20006173742038306D6D20636C656172616EF1
:103F3000636520696E20616C6C20646972656374CE
:103F4000696F6E730A546573747320617373756D52
:103F500065205A20686173206174206C65617374F8
:103F60002034306D6D20706F7369697469766520D7
:103F7000636C656172616E63650A54657374732066
:103F800073746172742077697468206120473020EF
:103F90005830205930205A30206D6F76650A486FAE
:103FA0006D696E6720697320746865206578636544
:103FB0007074696F6E2E204E6F20696E697469612E
:103FC0006C20706F736974696F6E206F7220636C00
:103FD000656172616E636520697320617373756DCD
:103FE00065640A000A0A0A2323232054696E79476C
:103FF00020524553544F52452044454641554C5458
:10400000532048656C70202323230A00456E746595
:10401000722024646566613D3120746F207265737F
:104020006574207468652073797374656D20746F8E
:104030002074686520666163746F727920646566B8
:1040400061756C742076616C7565732E0A546869AD
:10405000732077696C6C206F76657277726974650E
:1040600020616E79206368616E67657320796F7572
:104070002068617665206D6164652E0A000A0A0A6F
:104080002323232054696E794720424F4F54204CFC
:104090004F414445522048656C70202323230A0079
:1040A000456E7465722024626F6F743D3120746FA9
:1040B00020656E7465722074686520626F6F74206D
:1040C0006C6F616465722E0A005B656A5D20206515
:1040D0006E61626C65206A736F6E206D6F6465251A
:1040E000313364205B303D746578742C313D4A5324
:1040F0004F4E5D0A005B6A765D20206A736F6E200A
:10410000766572626F7369747925313564205B302E
:104110003D73696C656E742C313D666F6F746572AA
:104120002C323D6D657373616765732C333D636F2E
:104130006E666967732C343D6C696E656E756D2CA7
:10414000353D766572626F73655D0A005B6A735D0B
:1041500020206A736F6E2073657269616C697A657D
:10416000207374796C65253964205B303D72656C11
:10417000617865642C313D7374726963745D0A0003
:10418000524355435B436243674370437B438643DB
:1041900092439E43AC43C343D243DF43EB43FF43CD
:1041A0000C442144354438443B444A445F447444FD
:1041B00083449344A544BC44D944F6440F45344554
:1041C000544557455A455D456045634566456945D3
:1041D0006C456F457245754578457B457E45814503
:1041E000844587458A458D45904593459645994533
:1041F0009C459F45A245A545A845AB45AE45B14563
:10420000B445B745BA45BD45C045C345C645C94592
:10421000CC45CF45D245D545D845DB45DE45E145C2
:10422000E445E745EA45ED45F045F345F645F945F2
:10423000FC45FF450246054625463F46594673461E
:104240009746B446CC46E246FC46114723473547DD
:104250004E4764477A479247AA47BC47DA47EF4739
:1042600017483C484048444848484C4850485448FF
:1042700058485C486048644868486C4870487448CE
:1042800078487C4880489A48B448C748E348F5488D
:104290000C492D493E495E497E499849B249C94970
:1042A000FC49294A494A6B4A914AB84AD44AF34AD6
:1042B0000D4B274B4C4B754B8D4BB84BE44B1A4C6D
:1042C0004F4C614C734C824C954CAE4CD04CE24CF4
:1042D000F44C064D184D2A4D3C4D4E4D604D724DDF
:1042E000844D964DA84DBA4DCC4DD04DD44DD84DA2
:1042F000DC4DE04DE44DE84DEC4DF04DF44DF84D06
:10430000FC4D004E044E084E0C4E104E144E184EEE
:104310001C4E304E4E4E6A4E954EBA4EBE4EC24E5A
:10432000C64ECA4ECE4EE24EFE4E1A4F364F524F3A
:104330006E4F8A4FA64FC24FDE4FFA4F1650325083
:1043400046506E509550BB50E15007513451475183
:1043500068514F4B004572726F7200456167616929
:104360006E004E6F6F7000436F6D706C657465000A
:104370005465726D696E6174656400486172642091
:10438000726573657400456E64206F66206C696E9B
:104390006500456E64206F662066696C650046693D
:1043A0006C65206E6F74206F70656E004D617820B3
:1043B00066696C652073697A6520657863656564F4
:1043C0006564004E6F207375636820646576696369
:1043D000650042756666657220656D70747900428D
:1043E00075666665722066756C6C004275666665FA
:1043F000722066756C6C202D20666174616C0049BA
:104400006E697469616C697A696E6700456E74657E
:1044100072696E6720626F6F74206C6F6164657281
:104420000046756E6374696F6E20697320737475CE
:104430006262656400313800313900496E7465721A
:104440006E616C206572726F7200496E7465726E77
:10445000616C2072616E6765206572726F720046D2
:104460006C6F6174696E6720706F696E742065721D
:10447000726F7200446976696465206279207A659A
:10448000726F00496E76616C696420416464726584
:10449000737300526561642D6F6E6C792061646482
:1044A0007265737300496E697469616C697A6174CD
:1044B000696F6E206661696C7572650053797374FB
:1044C000656D20616C61726D202D20736875747448
:1044D000696E6720646F776E004661696C65642061
:1044E000746F2067657420706C616E6E65722062F7
:1044F00075666665720047656E65726963206578EA
:1045000063657074696F6E207265706F727400738A
:10451000745F707265705F6C696E652829206D6FBD
:1045200076652074696D6520697320696E66696EB1
:104530006974650073745F707265705F6C696E6535
:104540002829206D6F76652074696D652069732058
:104550004E414E00333200333300333400333500E4
:104560003336003337003338003339003430003409
:104570003100343200343300343400343500343602
:10458000003437003438003439003530003531001C
:1045900035320035330035340035350035360035D9
:1045A00037003538003539003630003631003632C4
:1045B00000363300363400363500363600363700E4
:1045C000363800363900373000373100373200379F
:1045D0003300373400373500373600373700373887
:1045E00000373900383000383100383200383300B5
:1045F000383400383500383600383700383800385D
:104600003900393000494F207375622D7379737406
:10461000656D20617373657274696F6E2066616980
:104620006C75726500456E636F64657220617373AB
:10463000657274696F6E206661696C75726500538E
:1046400074657070657220617373657274696F6EE2
:10465000206661696C75726500506C616E6E657282
:1046600020617373657274696F6E206661696C7521
:1046700072650043616E6F6E6963616C206D61638A
:1046800068696E6520617373657274696F6E206608
:1046900061696C75726500436F6E74726F6C6C65E6
:1046A0007220617373657274696F6E206661696CE4
:1046B00075726500537461636B206F766572666C0A
:1046C0006F77206465746563746564004D656D6F14
:1046D0007279206661756C742064657465637465B5
:1046E000640047656E6572696320617373657274F7
:1046F000696F6E206661696C75726500556E7265D2
:10470000636F676E697A656420636F6D6D616E6457
:10471000004D616C666F726D656420636F6D6D61D5
:104720006E6400426164206E756D62657220666F12
:10473000726D617400496E7075742065786365658B
:104740006473206D6178206C656E67746800496ED3
:104750007075742076616C756520746F6F20736D51
:10476000616C6C00496E7075742076616C756520A3
:10477000746F6F206C6172676500496E707574208C
:1047800076616C75652072616E6765206572726F07
:104790007200496E7075742076616C756520756E57
:1047A000737570706F72746564004A534F4E207356
:1047B000796E746178206572726F72004A534F4E41
:1047C00020696E7075742068617320746F6F206D3E
:1047D000616E79207061697273004A534F4E206F89
:1047E000757470757420746F6F206C6F6E67004302
:1047F0006F6E666967206E6F742074616B656E20E2
:10480000647572696E67206D616368696E696E6751
:10481000206379636C6500436F6D6D616E64206326
:10482000616E6E6F742062652074616B656E2061CD
:104830007420746869732074696D650031313300C8
:10484000313134003131350031313600313137000A
:1048500031313800313139003132300031323100FC
:1048600031323200313233003132340031323500EE
:1048700031323600313237003132380031323900CE
:1048800047656E657269632047636F646520696E72
:10489000707574206572726F720047636F64652073
:1048A000636F6D6D616E6420756E737570706F727D
:1048B000746564004D20636F646520756E73757058
:1048C000706F727465640047636F6465206D6F6418
:1048D000616C2067726F75702076696F6C617469A6
:1048E0006F6E004178697320776F7264206D697311
:1048F00073696E6700417869732063616E6E6F74CF
:104900002062652070726573656E7400417869730A
:1049100020697320696E76616C696420666F72200D
:104920007468697320636F6D6D616E6400417869AE
:10493000732069732064697361626C6564004178F7
:1049400069732074617267657420706F736974692C
:104950006F6E206973206D697373696E67004178AB
:1049600069732074617267657420706F736974690C
:104970006F6E20697320696E76616C69640053659F
:104980006C656374656420706C616E65206973206A
:104990006D697373696E670053656C6563746564F4
:1049A00020706C616E6520697320696E76616C6938
:1049B00064004665656472617465206E6F7420736F
:1049C000706563696669656400496E7665727365D2
:1049D0002074696D65206D6F64652063616E6E6F14
:1049E000742062652075736564207769746820742B
:1049F00068697320636F6D6D616E6400526F7461DE
:104A0000727920617865732063616E6E6F742062C5
:104A100065207573656420776974682074686973AC
:104A200020636F6D6D616E64004730206F722047A8
:104A300031206D75737420626520616374697665D9
:104A400020666F7220473533005265717565737447
:104A500065642076656C6F63697479206578636539
:104A6000656473206C696D69747300437574746553
:104A70007220636F6D70656E736174696F6E206311
:104A8000616E6E6F7420626520656E61626C656434
:104A90000050726F6772616D6D656420706F696E32
:104AA000742073616D652061732063757272656E29
:104AB0007420706F696E74005370696E646C652049
:104AC00073706565642062656C6F77206D696E69CF
:104AD0006D756D005370696E646C652073706565EB
:104AE00064206578636565646564206D6178696DCF
:104AF000756D005370696E646C65205320776F721A
:104B000064206973206D697373696E6700537069FF
:104B10006E646C65205320776F726420697320691E
:104B20006E76616C6964005370696E646C65206DAB
:104B3000757374206265206F666620666F722074DC
:104B400068697320636F6D6D616E64005370696E88
:104B5000646C65206D757374206265207475726E67
:104B6000696E6720666F72207468697320636F6D69
:104B70006D616E640041726320737065636966697C
:104B8000636174696F6E206572726F720041726347
:104B90002073706563696669636174696F6E20650F
:104BA00072726F72202D206D697373696E67206158
:104BB0007869732865732900417263207370656397
:104BC000696669636174696F6E206572726F7220C5
:104BD0002D206D697373696E67206F6666736574E7
:104BE0002873290041726320737065636966696385
:104BF0006174696F6E206572726F72202D20726110
:104C00006469757320617263206F7574206F66200C
:104C1000746F6C6572616E636500417263207370BE
:104C20006563696669636174696F6E206572726F2E
:104C300072202D20656E64706F696E742069732018
:104C40007374617274696E6720706F696E7400505E
:104C500020776F7264206973206D697373696E6762
:104C6000005020776F726420697320696E76616CE2
:104C70006964005020776F7264206973207A6572CE
:104C80006F005020776F7264206973206E656761D2
:104C900074697665005020776F7264206973206EA6
:104CA0006F7420616E20696E7465676572005020B4
:104CB000776F7264206973206E6F74206120766153
:104CC0006C696420746F6F6C206E756D6265720024
:104CD0004420776F7264206973206D697373696E05
:104CE00067004420776F726420697320696E766173
:104CF0006C6964004520776F7264206973206D6968
:104D00007373696E67004520776F72642069732042
:104D1000696E76616C6964004820776F72642069FF
:104D200073206D697373696E67004820776F7264D2
:104D300020697320696E76616C6964004C20776F1E
:104D40007264206973206D697373696E67004C200B
:104D5000776F726420697320696E76616C69640094
:104D60005120776F7264206973206D697373696E67
:104D700067005120776F726420697320696E7661D5
:104D80006C6964005220776F7264206973206D69CA
:104D90007373696E67005220776F726420697320A5
:104DA000696E76616C6964005420776F7264206963
:104DB00073206D697373696E67005420776F726436
:104DC00020697320696E76616C6964003138300047
:104DD0003138310031383200313833003138340065
:104DE0003138350031383600313837003138380045
:104DF0003138390031393000313931003139320040
:104E00003139330031393400313935003139360028
:104E100031393700313938003139390047656E652D
:104E20007269632054696E7947206572726F7200EF
:104E30004D6F7665206C657373207468616E206DAC
:104E4000696E696D756D206C656E677468004D6F75
:104E50007665206C657373207468616E206D696E71
:104E6000696D756D2074696D65004D616368696E6B
:104E70006520697320616C61726D6564202D20432B
:104E80006F6D6D616E64206E6F742070726F6365FC
:104E900073736564004C696D69742073776974631A
:104EA0006820686974202D2053687574646F776E6C
:104EB000206F636375727265640032303500323082
:104EC0003600323037003230380032303900536F1C
:104ED0006674206C696D69742065786365656465C6
:104EE0006400536F6674206C696D69742065786323
:104EF0006565646564202D2058206D696E00536FD0
:104F00006674206C696D6974206578636565646595
:104F100064202D2058206D617800536F6674206CDA
:104F2000696D6974206578636565646564202D200A
:104F300059206D696E00536F6674206C696D6974D9
:104F4000206578636565646564202D2059206D6156
:104F50007800536F6674206C696D6974206578639E
:104F60006565646564202D205A206D696E00536F5D
:104F70006674206C696D6974206578636565646525
:104F800064202D205A206D617800536F6674206C68
:104F9000696D6974206578636565646564202D209A
:104FA00041206D696E00536F6674206C696D697481
:104FB000206578636565646564202D2041206D61FE
:104FC0007800536F6674206C696D6974206578632E
:104FD0006565646564202D2042206D696E00536F05
:104FE0006674206C696D69742065786365656465B5
:104FF00064202D2042206D617800536F6674206C10
:10500000696D6974206578636565646564202D2029
:1050100043206D696E00536F6674206C696D69740E
:10502000206578636565646564202D2043206D618B
:105030007800486F6D696E67206379636C652066E0
:1050400061696C656400486F6D696E6720457272B6
:105050006F72202D20426164206F72206E6F20617C
:105060007869732073706563696669656400486F69
:105070006D696E67204572726F72202D20536561D5
:105080007263682076656C6F636974792069732038
:105090007A65726F00486F6D696E67204572726F36
:1050A00072202D204C617463682076656C6F636993
:1050B0007479206973207A65726F00486F6D696E2C
:1050C00067204572726F72202D2054726176656C74
:1050D000206D696E2F6D6178206973207A65726F1B
:1050E00000486F6D696E67204572726F72202D20C7
:1050F0004E65676174697665206C617463682062CF
:1051000061636B6F666600486F6D696E67204572FC
:10511000726F72202D20486F6D696E6720737769FA
:105120007463686573206D6973636F6E6669677514
:105130007265640050726F6265206379636C6520EC
:105140006661696C65640050726F626520656E64AB
:10515000706F696E74206973207374617274696E04
:105160006720706F696E74004A6F6767696E6720A9
:105170006379636C65206661696C6564005B70319E
:105180006672715D2070776D206672657175656EEF
:1051900063792020202531352E306620487A0A0098
:1051A0005B703163736C5D2070776D206377207363
:1051B00070656564206C6F202531352E3066205275
:1051C000504D0A005B70316373685D2070776D200D
:1051D0006377207370656564206869202531352EFA
:1051E00030662052504D0A005B703163706C5D2058
:1051F00070776D206377207068617365206C6F2015
:105200002531352E3366205B302E2E315D0A005B52
:1052100070316370685D2070776D206377207068EF
:10522000617365206869202531352E3366205B3037
:105230002E2E315D0A005B703177736C5D207077C4
:105240006D20636377207370656564206C6F253112
:10525000352E30662052504D0A005B7031777368EE
:105260005D2070776D2063637720737065656420BF
:1052700068692531352E30662052504D0A005B702A
:105280003177706C5D2070776D2063637720706874
:10529000617365206C6F2531352E3366205B302EAF
:1052A0002E315D0A005B70317770685D2070776D1C
:1052B00020636377207068617365206869253135E4
:1052C0002E3366205B302E2E315D0A005B7031700C
:1052D0006F665D2070776D207068617365206F6602
:1052E000662020202531352E3366205B302E2E316E
:1052F0005D0A007B65723A7B66623A25302E326623
:105300002C73743A25642C6D73673A222573227DC1
:105310007D0A007B226572223A7B226662223A2550
:10532000302E32662C227374223A25642C226D733F
:1053300067223A222573227D7D0A00496E697469CD
:10534000616C697A696E6720636F6E666967732046
:10535000746F2064656661756C742073657474691C
:105360006E6773004C6F6164696E6720636F6E6671
:105370006967732066726F6D20454550524F4D002E
:1053800053595354454D205245414459005B73696C
:105390005D202073746174757320696E7465727614
:1053A000616C2531342E3066206D730A005B737694
:1053B0005D2020737461747573207265706F7274F0
:1053C00020766572626F73697479253664205B306C
:1053D0003D6F66662C313D66696C74657265642C40
:1053E000323D766572626F73655D0A0071723A25AF
:1053F000640A0071693A25640A00716F3A25640AEB
:10540000005B71765D202071756575652072657031
:105410006F727420766572626F7369747925376470
:10542000205B303D6F66662C313D73696E676C653D
:105430002C323D747269706C655D0A005B6D745D41
:1054400020206D6F746F722069646C652074696DC3
:10545000656F75742531342E3266205365630A00FA
:105460005B257325735D206D2573206D617020743D
:105470006F206178697325313564205B303D582C8D
:10548000313D592C323D5A2E2E2E5D0A005B25737C
:1054900025735D206D2573207374657020616E67C0
:1054A0006C652532302E336625730A00C555C95503
:1054B000CD555B257325735D206D25732074726156
:1054C00076656C20706572207265766F6C75746994
:1054D0006F6E2531302E346625730A005B257325E7
:1054E000735D206D2573206D6963726F73746570D1
:1054F0007325313664205B312C322C342C385D0A14
:10550000005B257325735D206D257320706F6C61C2
:105510007269747925313864205B303D6E6F726D2D
:10552000616C2C313D726576657273655D0A005B56
:10553000257325735D206D257320706F776572204C
:105540006D616E6167656D656E7425313064205BD9
:10555000303D64697361626C65642C313D616C77C8
:10556000617973206F6E2C323D696E206379636CB4
:10557000652C333D7768656E206D6F76696E675D6B
:105580000A005B257325735D206D2573206D6F7494
:105590006F7220706F776572206C6576656C25314F
:1055A000332E3366205B302E3030303D6D696E69AE
:1055B0006D756D2C20312E3030303D6D6178696D08
:1055C000756D5D0A0020696E00206D6D00206465B8
:1055D00067005B73745D202073776974636820745F
:1055E00079706525313864205B303D4E4F2C313D5C
:1055F0004E435D0A004E312054314D360A4E322062
:105600004731370A4E33204732310A4E382046316F
:105610003830300A4E392047310A4E313030204779
:10562000393220582D32352E313737592D33342E1B
:10563000303732205A2D312E303030202854454D0D
:10564000502C2052454D4F5645204C41544552292F
:105650000A4E33343320582D32352E353935592DF5
:1056600033342E3334390A4E33343420582D323506
:105670002E373031592D33342E3433360A4E3334ED
:105680003520582D32352E373931592D33342E35BA
:1056900032300A4E33343620582D32352E383634D7
:1056A000592D33342E3630310A4E33343720582DAD
:1056B00032352E393230592D33342E3637390A4EA1
:1056C00033343820582D32352E393630592D333475
:1056D0002E3735340A4E33343920582D32352E3991
:1056E0003832592D33342E3832360A4E3335302085
:1056F000582D32352E393837592D33342E38393527
:105700000A4E33353120582D32352E393736592D42
:1057100033342E3936310A4E33353220582D323556
:105720002E393438592D33352E3032330A4E333535
:105730003320582D32352E393033592D33352E3014
:1057400038320A4E33353420582D32352E38343124
:10575000592D33352E3133380A4E33353520582DF7
:1057600032352E373633592D33352E3139300A4EF6
:1057700033353620582D32352E363639592D3335BE
:105780002E3233390A4E33353720582D32352E35E7
:105790003539592D33352E3238340A4E33353820C9
:1057A000582D32352E343333592D33352E3332358F
:1057B0000A4E33353920582D32352E323931592D94
:1057C00033352E3336330A4E33363020582D3235AA
:1057D0002E313334592D33352E3339370A4E333683
:1057E0003120582D32342E393633592D33352E345D
:1057F00032380A4E33363220582D32342E3737376E
:10580000592D33352E3435350A4E33363320582D45
:1058100032342E353737592D33352E3437370A4E3B
:1058200033363420582D32342E333637592D333514
:105830002E3439360A4E33363520582D32342E3137
:105840003434592D33352E3531310A4E3336362026
:10585000582D32332E393039592D33352E353232D9
:105860000A4E33363720582D32332E363631592DE5
:1058700033352E3532390A4E33363820582D3233EF
:105880002E343033592D33352E3533320A4E3336DC
:105890003920582D32332E313333592D33352E35AF
:1058A00033320A4E33373020582D32322E383533CA
:1058B000592D33352E3532370A2F4E3235313820B7
:1058C000473058302E333237592D33332E3532315D
:1058D0005A2D312E3030300A4E32353139204D3389
:1058E00030004E31204732300A4E352047343020C8
:1058F0004731370A4E3130205431204D30360A2896
:105900004E3135204739302047302058302059302B
:10591000205A30290A4E3230205335303030204D55
:105920003033200A4E32352058302E30363420594C
:10593000302E333236205A300A4E34302047303140
:10594000204631362E300A4E35302058302E303633
:10595000342059302E3332360A4E35352058302E09
:105960003036302059302E3239330A4E36302058F6
:10597000302E3037372059302E3236370A4E3635F2
:105980002058302E3131312059302E3235370A4EE1
:1059900037302058302E3134392059302E323532BC
:1059A0000A4E37352058302E3138382059302E32B3
:1059B00035350A4E38302058302E323237205930A3
:1059C0002E3236380A4E38352058302E32353720B0
:1059D00059302E3237310A4E39302058302E333379
:1059E000352059302E3236350A4E39352058302E72
:1059F0003431322059302E3237310A4E3130302096
:105A000058302E3437342059302E3238370A4E3140
:105A100030352058302E3439312059302E32383933
:105A20000A4E3131302058302E3531372059302E42
:105A30003237330A4E3131352058302E3534342048
:105A400059302E3236330A4E3132302058302E350E
:105A500038302059302E3236310A4E313235205806
:105A6000302E3539352059302E3236330A4E313307
:105A7000302058302E3632312059302E3237340A09
:105A80004E3133352058302E3635392059302E33AB
:105A900030360A4E3134302058302E3637332059C4
:105AA000302E3333350A4E3134352058302E3637C8
:105AB000392059302E3336310A4E313530205830A6
:105AC0002E3637382059302E3338390A4E31353595
:105AD0002058302E3637302059302E3432300A4E8E
