:100000000C94244A0C94454A0C9482D30C94454A8F
:100010000C94454A0C94454A0C94454A0C94454A24
:100020000C94454A0C94454A0C94454A0C94A0D52E
:100030000C94454A0C94454A0C941EB80C94454ABD
:100040000C94454A0C94454A0C94454A0C94454AF4
:100050000C94454A0C94454A0C94454A0C94454AE4
:100060000C94454A0C949CD30C942BD30C94454A85
:100070000C9402CD0C94A4CC0C94E0CC0C94454A86
:100080000C9440D40C94454A0C94454A0C94454A2F
:100090000C94454A0C94454A0C94454A0C94454AA4
:1000A0000C94454A0C94454A0C94454A0C94FDBE68
:1000B0000C94A1BF0C94454A0C94454A0C940FBA79
:1000C0000C94454A0C94454A0C94454A0C94454A74
:1000D0000C94454A0C94454A0C94454A0C94454A64
:1000E0000C94E1A90C94454A0C94454A0C94454A59
:1000F0000C94454A0C94454A0C94454A0C94454A44
:100100000C94D4BE0C9478BF0C94ABBE0C944FBF2F
:100110000C94454A0C94454A0C94454A0C94454A23
:100120000C94454A0C94454A0C94454A0C94454A13
:100130000C94454A0C9473B90C94454A0C94454A66
:100140000C94454A0C94454A0C94454A0C94454AF3
:100150000C94454A0C94454A0C94D7A90C94454AF2
:100160000C94454A0C94454A0C94454A0C94454AD3
:100170000C94454A0C94454A0C94454A0C94454AC3
:100180000C94454A0C94454A0C94454A0C94454AB3
:100190000C94454A0C94454A0C94454A0C94454AA3
:1001A0000C9426BF0C94CABF0C94454A0C94454A43
:1001B0000C94C1B90C94454A0C94454A0C94454A98
:1001C0000C94454A0C94454A0C94454A0C94454A73
:1001D0000C94454A0C94454A0C94454A0C94454A63
:1001E0000C94454A0C94454A2B7532753975407507
:1001F0004775917A917A917A917A917A4D75917A3F
:10020000917A917A917A917A917A55755C75637544
:100210006A757175917A917A917A917A917A917AD7
:100220007875917AC375917A917A917A917A917A67
:10023000917A917AF875917A9278917A917A217679
:10024000917A917A917A917A917A4776917A917AA4
:10025000917A4A764F7656765D7664766B767376CB
:10026000917A7B76917A917AAE76917A917A917A37
:10027000917A917A917A917A917A917A917A917A26
:10028000917A917A917A917AB576917A917A917AF6
:10029000917A917A917A917A917A917ABC76EF7685
:1002A000227764776B778177817788778F779677F6
:1002B0009D77A477A977B077B777937A937A937A73
:1002C000937A937A937A937A937A937A937A937AC6
:1002D000937A937A937A937A937A937A937A937AB6
:1002E000937A8877937A937A937A937A937A937AB4
:1002F000937A937A937A937A937A937A937A937A96
:10030000937A937A937ABE77C577CC77D377937ABB
:10031000937A937A937A937A937A937A937A81778A
:10032000227AE179E579ED79C979CD79D579D979EB
:10033000F9790E7A167A1A7A1E7A787AF17927780C
:1003400032783D788C788C78E5771C758C78487895
:1003500053785E78697872777D788C78F0778C78CE
:100360007278FB77DA778C788C788C7806781178CD
:100370001C78758178819281AA81C281D081E781C0
:100380000082FC8144BE4CBE54BE5CBE64BE6CBEEA
:1003900074BE7CBE57C1C0C0C8C0D0C0D8C0E0C009
:1003A000E8C0F0C0F8C000C108C110C118C120C128
:1003B00028C140C140C140C140C140C140C140C14D
:1003C00040C140C140C140C140C140C140C140C125
:1003D00040C140C140C140C140C140C140C140C115
:1003E00040C140C140C140C140C140C140C140C105
:1003F00040C140C140C140C130C138C1084AD73BAB
:100400003BCE016E84BCBFFDC12F3D6C74319ABDE3
:1004100056833DDA3D00C77F11BED9E4BB4C3E9107
:100420006BAAAABE000000803F05A84CCDB2D44EF6
:10043000B93836A9020C50B9918688083CA6AAAAF8
:100440002ABE000000803F07634236B79BD8A71A38
:1004500039685618AEBAAB558C1D3CB7CC5763BD46
:100460006DEDFD753EF6177231BF000000803F084C
:10047000000000BE922449123EABAAAA2ABECDCCEF
:10048000CC4C3E00000080BEABAAAAAA3E000000F1
:1004900000BF000000803F0000000000084178D34A
:1004A000BB4387D1133D190E3CC3BD4282AD2B3EE9
:1004B00068EC8276BED98FE1A93E4C80EFFFBE0189
:1004C000C4FF7F3F0000000000000C9422770C94D2
:1004D000E9670C9437610C9409C90C9406BE0C941E
:1004E000C8C00C9496C00C94EABD0C9472B20C94E3
:1004F000A95E0C94C9790C94AEC00C94567C0C94F3
:10050000E0C00C9450720C94E5770C941B6F0C9423
:10051000F8670C94F55C0C9463750C944D750C9411
:1005200052610C94CA950C9492780C945E780C9459
:10053000295E0C9446AB0C94E45E0C94F3670C9427
:100540003A5C0C943B610C94C35D0C946B760C94F8
:1005500057C30C940E7A0C94CBD20C9488650C94EF
:100560005B4A0C949EAF0C9475810C94D3770C94D9
:1005700069680C9413620C94B8BC0C948C610C9454
:10058000514A0C94A0D00C945C750C94955A0C9420
:1005900078750C94935D0C942C5A0C9462600C94B6
:1005A000CC610C94A0BC0C94474A0C9449680C9400
:1005B00094720C945A6C0C94A0AF0C94917A0C9495
:1005C000217C0C94CD790C9447750C94CD6C0C94D3
:1005D0009D770C94BC760C94B6830C94C45A0C94FE
:1005E000D95C0C9427780C94C2810C94EE5C0C942A
:1005F00048850C944A7C0C9400820C94E35D0C9426
:10060000D0810C94F0770C94FB770C9435670C94A4
:1006100029680C942EAB0C94BD5E0C9457C10C94BD
:100620004AAB0C94FA6B0C9481770C94D8C00C9460
:1006300064BE0C94EFBD0C94B5760C94AF5D0C9435
:10064000DF5D0C94E4510C94A05A0C94A75D0C94BB
:10065000B44D0C94937A0C94E75C0C944C620C941B
:100660002FBD0C943E5A0C9445CE0C9467580C94B4
:10067000335D0C94DB5D0C9454BE0C94555A0C9471
:1006800032AB0C94C15E0C94E8C00C94AD5E0C943B
:1006900020C10C94BE770C9491580C94BA830C949E
:1006A00028B10C9424B10C946CBE0C9444BE0C94F0
:1006B000975D0C94C7AF0C947B760C94BE830C941E
:1006C00080D10C9440750C94CF5D0C9432780C94CE
:1006D000AB5D0C94C3750C941C780C94186C0C9442
:1006E000A35D0C9438C10C948B4A0C943EAB0C94D3
:1006F000D25B0C94CD5E0C9464770C94385A0C94B5
:10070000F1790C9447760C94E2700C942AAB0C941B
:10071000B95E0C94E6BD0C9455750C9402BE0C9415
:1007200042AC0C94EFCB0C94A4770C9417D00C949F
:10073000E5790C9473760C940ABE0C94A15E0C942B
:10074000CA660C94A7C30C949D5E0C9403C40C94CD
:10075000456C0C94F9790C9474BE0C9453780C94F9
:10076000527C0C946A750C94CE630C94D0C00C949B
:100770004A5A0C9440C10C9439610C949CC00C945E
:100780005E600C94AC610C94995E0C945C5B0C9470
:100790004ECC0C9486670C94A55E0C9451CC0C94B2
:1007A000BE5C0C9432750C94FC5A0C94036B0C9444
:1007B00067540C9491BD0C94E75D0C94267C0C94CA
:1007C000BF5D0C94325B0C94EE670C94AA810C9480
:1007D000A2AF0C949B4A0C943FBD0C9428C10C947E
:1007E0006CC40C94A8870C9420B10C94605A0C949F
:1007F000ED790C940CB10C9496770C946B770C9467
:1008000069D00C94D7600C94485E0C9472770C9469
:1008100048780C945D760C94FC810C947F5A0C946F
:10082000D5790C94E4710C9417CF0C94ABCF0C9445
:1008300092810C9489600C94F8C00C944F760C94BF
:10084000CECB0C94F0C00C94C0C00C944CBE0C9455
:1008500000C10C94B0770C948E670C947D780C9446
:10086000B2C00C9492670C942CB10C94CDAF0C9444
:100870003D780C947CBE0C94C55E0C9436AB0C9405
:10088000955B0C9471750C941A7A0C94325A0C94F2
:10089000C95E0C943AAB0C94C55B0C94CB7B0C9466
:1008A000227A0C94B4BD0C94D5C30C94DA770C94D2
:1008B000B75D0C9442AB0C94D95E0C9478830C9485
:1008C0002B750C948D5E0C94695A0C94D47C0C940A
:1008D00021760C94925C0C94915E0C949BB20C94D7
:1008E000A07C0C94136F0C94E05C0C9457BD0C949A
:1008F00072780C944A760C94E2BD0C949B5D0C9437
:1009000018C10C94AE760C94CB6B0C948A670C9443
:10091000EC610C94ACBC0C9411780C94E7810C94B1
:100920008F770C94E5B00C94B15E0C94065E0C9439
:1009300030C10C94745A0C94A9770C94BA7C0C9422
:10094000D57A0C94CC770C944E7C0C94C9710C9491
:10095000145D0C9408C10C941CD10C94856B0C9400
:10096000E57A0C9469780C94467C0C94F8B00C945D
:10097000AC510C9439750C9461CB0C94CB5D0C94F8
:10098000BB5D0C94C35C0C948A5A0C94167A0C943C
:100990009F5D0C945CBE0C94D35D0C9496670C9494
:1009A000B7770C941E7A0C94255E0C947B7C0C9487
:1009B000B35D0C944EC90C94EC660C94E1790C94E4
:1009C00056760C9478810C94EF760C9410C10C94AC
:1009D0001F5A0C9406780C94B0600C941C750C94FF
:1009E000FEBD0C94C5770C948C780C9426AB0C94BB
:1009F000B55E0C94D9790C94F8750C94D75D0C9471
:100A0000C75D0C94955E0C94445A0C94B35A0C94A4
:100A1000787A0C94C9AF0C946B610C94FE600C94C2
:100A200088770C946476416374697665206D6F6491
:100A3000656C3A0A0063616E6F6E6963616C5F6D2D
:100A4000616368696E655F746573745F6173736514
:100A50007274696F6E73282900636D5F6765745FD8
:100A6000636F6D62696E65645F7374617465282974
:100A7000206D6163732062616400636D5F676574FC
:100A80005F636F6D62696E65645F7374617465281E
:100A90002920637963732062616400636D5F676519
:100AA000745F636F6D62696E65645F7374617465B2
:100AB0002829206D6F747320626164005B257325A3
:100AC000735D20257320257320706F736974696FBF
:100AD0006E2531382E336625730A005B2573257326
:100AE0005D202573202573206F666673657425323B
:100AF000302E336625730A005B257325735D202530
:100B000073207A65726F206261636B6F6666253150
:100B1000392E336625730A005B257325735D202506
:100B200073206C61746368206261636B6F66662515
:100B300031382E336625730A005B257325735D20DB
:100B40002573206C617463682076656C6F636974CB
:100B5000792531332E306625732F6D696E0A005B5F
:100B6000257325735D20257320736561726368208A
:100B700076656C6F636974792531322E3066257322
:100B80002F6D696E0A005B257325735D2025732028
:100B9000737769746368206D617825313764205BF1
:100BA000303D6F66662C313D686F6D696E672C3223
:100BB0003D6C696D69742C333D6C696D69742B688B
:100BC0006F6D696E675D0A005B257325735D202577
:100BD0007320737769746368206D696E253137649B
:100BE000205B303D6F66662C313D686F6D696E67C6
:100BF0002C323D6C696D69742C333D6C696D697480
:100C00002B686F6D696E675D0A005B257325735DE8
:100C1000202573207261646975732076616C756537
:100C20002532302E346625730A005B257325735DEB
:100C3000202573206A756E6374696F6E2064657613
:100C4000696174696F6E2531342E346625732028EE
:100C50006C61726765722069732066617374657276
:100C6000290A005B257325735D202573206A657250
:100C70006B20686F6D696E672531362E306625737F
:100C80002F6D696E5E33202A2031206D696C6C698E
:100C90006F6E0A005B257325735D202573206A65DE
:100CA000726B206D6178696D756D2531352E3066FA
:100CB00025732F6D696E5E33202A2031206D696C9B
:100CC0006C696F6E0A005B257325735D20257320A8
:100CD00074726176656C206D696E696D756D253114
:100CE000372E336625730A005B257325735D202537
:100CF000732074726176656C206D6178696D756DB5
:100D00002531372E336625730A005B257325735D05
:100D10002025732076656C6F63697479206D617826
:100D2000696D756D2531312E306625732F6D696EB5
:100D30000A005B257325735D202573206665656455
:100D400072617465206D6178696D756D2531312E24
:100D5000306625732F6D696E0A005B257325735D00
:100D60002025732061786973206D6F6465253138A3
:100D7000642025730A005B6D615D20206D696E2023
:100D8000617263207365676D656E742531382E332B
:100D90006625730A005B736C5D2020736F66742098
:100DA0006C696D697420656E61626C6525313264B1
:100DB0000A005B63745D202063686F7264616C205D
:100DC000746F6C6572616E63652531372E346625EC
:100DD000730A005B6A615D20206A756E6374696FD7
:100DE0006E20616363656C65726174696F6E25382E
:100DF0002E306625730A005B6764695D2064656652
:100E000061756C742067636F6465206469737461D5
:100E10006E6365206D6F6465253264205B303D47ED
:100E200039302C313D4739315D0A005B6770615DB7
:100E30002064656661756C742067636F64652070FB
:100E400061746820636F6E74726F6C253364205B0D
:100E5000303D4736312C313D4736312E312C323D35
:100E60004736345D0A005B67636F5D2064656661C9
:100E7000756C742067636F646520636F6F726420A4
:100E800073797374656D253364205B312D362028AA
:100E90004735342D473539295D0A005B67756E5D2E
:100EA0002064656661756C742067636F6465207586
:100EB0006E697473206D6F6465253564205B303D09
:100EC0004732302C313D4732315D0A005B67706C30
:100ED0005D2064656661756C742067636F6465206E
:100EE000706C616E6525313064205B303D47313771
:100EF0002C313D4731382C323D4731395D0A0025D0
:100F00006320776F726B206F66667365743A253164
:100F1000322E336625730A002563206D616368698C
:100F20006E6520706F736E3A2531312E33662573EE
:100F30000A00256320706F736974696F6E3A2531FA
:100F4000352E336625730A00546F6F6C206E756DF5
:100F50006265722020202020202020202025640A85
:100F600000466565642072617465206D6F64653A42
:100F700020202020202025730A004172632044692C
:100F80007374616E6365206D6F64653A202020255F
:100F9000730A0044697374616E6365206D6F6465E4
:100FA0003A2020202020202025730A0050617468F8
:100FB000204D6F64653A2020202020202020202012
:100FC0002025730A00506C616E653A202020202095
:100FD0002020202020202020202025730A004D6F73
:100FE00074696F6E206D6F64653A20202020202088
:100FF00020202025730A00436F6F7264696E61744C
:10100000652073797374656D3A20202025730A007A
:10101000556E6974733A2020202020202020202043
:10102000202020202025730A00486F6D696E6720FC
:1010300073746174653A20202020202020202573BD
:101040000A0046656564686F6C642073746174653A
:101050003A20202020202025730A004D6F74696FEC
:101060006E2073746174653A202020202020202097
:1010700025730A004379636C652073746174653A63
:1010800020202020202020202025730A0052617774
:10109000206D616368696E652073746174653A20C0
:1010A000202025730A004D616368696E65207374A2
:1010B0006174653A2020202020202025730A004CEE
:1010C000696E65206E756D6265723A2531306C759A
:1010D0000A004665656420726174653A2531362ED2
:1010E000336625732F6D696E0A0056656C6F6369F0
:1010F00074793A2531372E336625732F6D696E0A60
:1011000000581127110711473935202D20756E69B8
:1011100074732D7065722D7265766F6C7574696F5E
:101120006E206D6F646500473934202D20756E691F
:1011300074732D7065722D6D696E757465206D6F99
:1011400064652028692E652E206665656472617469
:1011500065206D6F64652900473933202D20696E45
:1011600076657273652074696D65206D6F646500C6
:10117000A51174114739312E31202D20696E63720B
:10118000656D656E74616C2064697374616E63650E
:10119000206D6F6465202864656661756C74206DD0
:1011A0006F646529004739302E31202D206162732C
:1011B0006F6C7574652064697374616E6365206D0E
:1011C0006F646500E811C811473931202D20696E20
:1011D0006372656D656E74616C2064697374616EB1
:1011E0006365206D6F646500473930202D20616292
:1011F000736F6C7574652064697374616E636520C8
:101200006D6F646500391221120B12473634202DA0
:1012100020636F6E74696E756F7573206D6F646592
:10122000004736312E31202D20657861637420739C
:10123000746F70206D6F646500473631202D206516
:10124000786163742070617468206D6F64650073E9
:101250001264125512473139202D20595A20706CD2
:10126000616E6500473138202D20585A20706C611E
:101270006E6500473137202D20585920706C616E03
:101280006500FF12ED12D412B3128C1247383020D1
:101290002D2063616E63656C206D6F74696F6E20C5
:1012A0006D6F646520286E6F6E652061637469766A
:1012B000652900473320202D20636F756E74657299
:1012C00020636C6F636B776973652061726320665E
:1012D00065656400473220202D20636C6F636B7757
:1012E000697365206172632066656564004731201B
:1012F000202D206C696E656172206665656400470B
:101300003020202D206C696E6561722074726176C8
:101310006572736520287365656B2900C613AC136D
:10132000921378135E1344132A13473539202D2066
:10133000636F6F7264696E6174652073797374652D
:101340006D203600473538202D20636F6F72646939
:101350006E6174652073797374656D20350047354F
:1013600037202D20636F6F7264696E61746520731E
:10137000797374656D203400473536202D20636FF6
:101380006F7264696E6174652073797374656D2022
:101390003300473535202D20636F6F7264696E61AD
:1013A00074652073797374656D203200473534207D
:1013B0002D20636F6F7264696E6174652073797339
:1013C00074656D203100473533202D206D616368D1
:1013D000696E6520636F6F7264696E6174652073F6
:1013E000797374656D00F913F313EC13486F6D692D
:1013F0006E6700486F6D6564004E6F7420486F6DB6
:101400006564002D14281423141D1418140F14459A
:101410006E6420486F6C6400486F6C6400446563C0
:10142000656C00506C616E0053796E63004F6666A8
:101430000040143C143714486F6C640052756E0001
:1014400053746F70006A1460145A1453144F144A82
:101450006F6700486F6D696E670050726F6265005C
:101460004D616368696E696E67004F666600A0141F
:101470009A1494148F148B1485147C145368757407
:10148000646F776E004379636C6500456E6400534A
:10149000746F7000416C61726D0052656164790017
:1014A000496E697469616C697A696E67000315FD3C
:1014B00014F714F214EE14EA14E514DF14D914D25C
:1014C00014CE14C51453687574646F776E004A6F38
:1014D0006700486F6D696E67004379636C65005003
:1014E000726F626500486F6C640052756E00456EE5
:1014F000640053746F7000416C61726D00526561DD
:10150000647900496E697469616C697A696E670013
:101510002A151415473231202D206D696C6C696DC8
:1015200065746572206D6F646500473230202D2030
:10153000696E63686573206D6F6465006415591585
:101540004D1544155B7261646975735D005B696E6E
:10155000686962697465645D005B7374616E64617F
:1015600072645D005B64697361626C65645D007EDA
:10157000157A1575152064656700206D6D0020696A
:101580006E00657272006D7367006E0071720065A7
:101590007200737200676300737973007372006383
:1015A0006F6E6669675F746573745F61737365728C
:1015B00074696F6E73282900006C696E652C706FFA
:1015C00073782C706F73792C706F737A2C706F73C3
:1015D000612C666565642C76656C2C756E69742C5F
:1015E000636F6F722C646973742C61646D6F2C6609
:1015F000726D6F2C6D6F6D6F2C73746174002A2A7D
:101600002A204E4F54494345202A2A2A20526573E6
:10161000657474696E6720626175642072617465B7
:1016200020746F202573002A2A2A205741524E49E0
:101630004E47202A2A2A20556E737570706F727477
:1016400065642062617564207261746520737065E1
:1016500063696669656400312C322C332C342C3577
:101660002C3600782C792C7A2C612C622C63006744
:1016700035342C6735352C6735362C6735372C6774
:1016800035382C6735392C6739322C6732382C675E
:101690003330005B626175645D20555342206261A6
:1016A0007564207261746525313564205B313D3984
:1016B0003630302C323D31393230302C333D3338F6
:1016C0003430302C343D35373630302C353D3131E7
:1016D000353230302C363D3233303430305D0A0014
:1016E0005B72786D5D2073657269616C2052582061
:1016F0006D6F646525313564205B303D63686172D0
:101700005F6D6F64652C313D6C696E655F6D6F64F4
:10171000655D0A005B65785D2020656E61626C65C1
:1017200020666C6F7720636F6E74726F6C2531303A
:1017300064205B303D6F66662C313D584F4E2F580C
:101740004F46462C323D5254532F4354535D0A00AA
:101750005B65655D2020656E61626C652065636810
:101760006F25313864205B303D6F66662C313D6FEC
:101770006E5D0A005B65635D2020657870616E6454
:10178000204C4620746F2043524C46206F6E2054EC
:1017900058253664205B303D6F66662C313D6F6E98
:1017A0005D0A00D617D117CB17C517BF17B817B1E9
:1017B000173233303430300031313532303000358B
:1017C0003736303000333834303000313932303051
:1017D00000393630300030007379730066620000E3
:1017E00000001702467CFE603761E0385218DF4384
:1017F0007379730066760000000017034A7CFE6070
:101800003761E438EC51783F7379730068700000F9
:10181000000007004E7CB0603B61E8380000803F6C
:10182000737973006876000000001700527CFE6038
:10183000267CE93800000041737973006964000078
:1018400000000400567CCB7B3761DC3800000000D0
:10185000000000006E00000000000000935DB0601A
:101860006B618E3000000000000000006C696E6546
:1018700000000000935DB35A6B618E3000000000E1
:101880000000000076656C0000001002F55CC45A90
:101890003761DC3800000000000000006665656408
:1018A00000001002145DFC5A3761DC3800000000B3
:1018B000000000007374617400000000975D1F5AFF
:1018C0003761DC3800000000000000006D616373C8
:1018D000000000009B5D2C5A3761DC3800000000DE
:1018E0000000000063796373000000009F5D325ABE
:1018F0003761DC3800000000000000006D6F747379
:1019000000000000A35D385A3761DC380000000099
:1019100000000000686F6C6400000000A75D3E5A84
:101920003761DC380000000000000000756E69744B
:1019300000000000AF5D4A5A3761DC38000000004B
:1019400000000000636F6F7200000000B35D555A25
:101950003761DC3800000000000000006D6F6D6F23
:1019600000000000B75D605A3761DC3800000000FD
:1019700000000000706C616E00000000BB5D695AE1
:101980003761DC38000000000000000070617468FE
:1019900000000000BF5D745A3761DC3800000000B1
:1019A000000000006469737400000000C35D7F5A8A
:1019B0003761DC38000000000000000061646D6FDA
:1019C00000000000C75D8A5A3761DC380000000063
:1019D0000000000066726D6F00000000CB5D955A3C
:1019E0003761DC380000000000000000746F6F6C8D
:1019F00000000000CF5DA05A3761DC380000000015
:101A00006D706F006D706F7800001003D95E5C5BC5
:101A10003761DC38000000006D706F006D706F7909
:101A200000001003D95E5C5B3761DC380000000009
:101A30006D706F006D706F7A00001003D95E5C5B93
:101A40003761DC38000000006D706F006D706F61F1
:101A500000001003D95E5C5B3761DC3800000000D9
:101A60006D706F006D706F6200001003D95E5C5B7B
:101A70003761DC38000000006D706F006D706F63BF
:101A800000001003D95E5C5B3761DC3800000000A9
:101A9000706F7300706F737800001003CD5E325B5F
:101AA0003761DC3800000000706F7300706F73796D
:101AB00000001003CD5E325B3761DC3800000000AF
:101AC000706F7300706F737A00001003CD5E325B2D
:101AD0003761DC3800000000706F7300706F736155
:101AE00000001003CD5E325B3761DC38000000007F
:101AF000706F7300706F736200001003CD5E325B15
:101B00003761DC3800000000706F7300706F736322
:101B100000001003CD5E325B3761DC38000000004E
:101B20006F6673006F66737800001003E45E955B68
:101B30003761DC38000000006F6673006F667379F0
:101B400000001003E45E955B3761DC3800000000A4
:101B50006F6673006F66737A00001003E45E955B36
:101B60003761DC38000000006F6673006F667361D8
:101B700000001003E45E955B3761DC380000000074
:101B80006F6673006F66736200001003E45E955B1E
:101B90003761DC38000000006F6673006F667363A6
:101BA00000001003E45E955B3761DC380000000044
:101BB000686F6D00686F6D6500000000AB5D445A92
:101BC000C35CDC3800000000686F6D00686F6D78E2
:101BD00000001000CD5E62603761603000000000E0
:101BE000686F6D00686F6D7900001000CD5E6260F7
:101BF0003761613000000000686F6D00686F6D7ABA
:101C000000001000CD5E62603761623000000000AD
:101C1000686F6D00686F6D6100001000CD5E6260DE
:101C20003761633000000000686F6D00686F6D629F
:101C300000001000CD5E626037616430000000007B
:101C4000686F6D00686F6D6300001000CD5E6260AC
:101C5000376165300000000070726200707262656A
:101C60000000000057C3626037616630000000006A
:101C700070726200707262780000100357C3FE60D9
:101C80003761673000000000707262007072627924
:101C90000000100357C3FE6037616B300000000086
:101CA000707262007072627A0000100357C3FE60A7
:101CB00037616F3000000000707262007072626104
:101CC0000000100357C3FE6037617330000000004E
:101CD00070726200707262620000100357C3FE608F
:101CE00037617730000000007072620070726263CA
:101CF0000000100357C3FE6037617B300000000016
:101D00006A6F67006A6F67780000100057C35E60F3
:101D1000D95C7F30000000006A6F67006A6F6779E6
:101D20000000100057C35E60E05C7F3000000000E0
:101D30006A6F67006A6F677A0000100057C35E60C1
:101D4000E75C7F30000000006A6F67006A6F6761C0
:101D50000000100057C35E60EE5C7F3000000000A2
:101D60007077720070777231000000000ABE3FBDCC
:101D70003761DC38000000007077720070777232D3
:101D8000000000000ABE3FBD3761DC3800000000E3
:101D90007077720070777233000000000ABE3FBD9A
:101DA0003761DC38000000007077720070777234A1
:101DB000000000000ABE3FBD3761DC3800000000B3
:101DC00031000000316D610000000300E6BD62607B
:101DD0003B61CC580000000031000000317361000D
:101DE00000001303EABDFE60A0BCD7586666E63F5C
:101DF000310000003174720000001B04EFBDFE6072
:101E0000ACBCDB580000204231000000316D69009D
:101E100000000300FEBD6260B8BCCD580000004168
:101E20003100000031706F000000030002BE6260EC
:101E30008C61D1580000803F3100000031706D008E
:101E40000000030006BE62602FBDD25800000040B3
:101E500032000000326D610000000300E6BD6260E8
:101E60003B61EB580000803F32000000327361009C
:101E700000001303EABDFE60A0BCF6586666E63FAC
:101E8000320000003274720000001B04EFBDFE60DF
:101E9000ACBCFA580000204232000000326D6900EC
:101EA00000000300FEBD6260B8BCEC5800000041B9
:101EB0003200000032706F000000030002BE62605A
:101EC0008C61F0580000803F3200000032706D00DD
:101ED0000000030006BE62602FBDF1580000004004
:101EE00033000000336D610000000300E6BD626056
:101EF0003B610A590000803F3300000033736100EA
:101F000000001303EABDFE60A0BC15596666E63FFB
:101F1000330000003374720000001B04EFBDFE604C
:101F2000ACBC19590000204233000000336D690039
:101F300000000300FEBD6260B8BC0B590000004108
:101F40003300000033706F000000030002BE6260C7
:101F50008C610F59000000003300000033706D00E9
:101F60000000030006BE62602FBD10590000004053
:101F700034000000346D610000000300E6BD6260C3
:101F80003B612959000000403400000034736100B7
:101F900000001303EABDFE60A0BC34596666E63F4C
:101FA000340000003474720000001B04EFBDFE60BA
:101FB000ACBC38596076074034000000346D6900CD
:101FC00000000300FEBD6260B8BC2A590000004159
:101FD0003400000034706F000000030002BE626035
:101FE0008C612E590000803F3400000034706D0079
:101FF0000000030006BE62602FBD2F5900000040A4
:102000007800000078616D0000000300485EC55B49
:10201000D25BE42E0000803F7800000078766D00EF
:1020200000001B00915EFE603567E52E00007A46D9
:10203000780000007866720000001B008D5EFE6074
:102040003567ED2E00007A467800000078746E0047
:1020500000001B03995EFE603567F92E000000004A
:102060007800000078746D0000001B03955EFE6030
:102070003567F52E0000914378000000786A6D0006
:1020800000001B009D5EFE603A5CFD2E00409C45FA
:1020900078000000786A680000001B00A15EFE6006
:1020A000925C012F00401C4678000000786A6400B2
:1020B00000001B04A55EFE603567092F0AD7233C8C
:1020C0007800000078736E0000000300AD5E62606F
:1020D0009CC0022E0000803F7800000078737800DA
:1020E00000000300B15E62609CC0032E000000008F
:1020F000780000007873760000001B00B55EFE607B
:102100003567112F00803B4578000000786C760021
:1021100000001B00B95EFE603567152F0000C84245
:1021200078000000786C620000001B03BD5EFE605A
:102130003567192F0000204178000000787A62008E
:1021400000001B03C15EFE6035671D2F00000040CC
:102150007900000079616D0000000300485EC55BF6
:10216000D25B212F0000803F7900000079766D005E
:1021700000001B00915EFE603567222F00007A464A
:10218000790000007966720000001B008D5EFE6021
:1021900035672A2F00007A467900000079746E00B6
:1021A00000001B03995EFE603567362F00000000BB
:1021B0007900000079746D0000001B03955EFE60DD
:1021C0003567322F0000A04379000000796A6D0066
:1021D00000001B009D5EFE603A5C3A2F00409C456B
:1021E00079000000796A680000001B00A15EFE60B3
:1021F000925C3E2F00401C4679000000796A640022
:1022000000001B04A55EFE603567462F0AD7233CFD
:102210007900000079736E0000000300AD5E62601B
:102220009CC0042E0000803F790000007973780084
:1022300000000300B15E62609CC0052E000000003B
:10224000790000007973760000001B00B55EFE6027
:1022500035674E2F00803B4579000000796C760091
:1022600000001B00B95EFE603567522F0000C842B7
:1022700079000000796C620000001B03BD5EFE6007
:102280003567562F0000204179000000797A6200FE
:1022900000001B03C15EFE6035675A2F000000403E
:1022A0007A0000007A616D0000000300485EC55BA3
:1022B000D25B5E2F0000803F7A0000007A766D00CE
:1022C00000001B00915EFE6035675F2F00007A44BE
:1022D0007A0000007A66720000001B008D5EFE60CE
:1022E0003567672F00007A447A0000007A746E0028
:1022F00000001B03995EFE603567732F0000F0C27B
:102300007A0000007A746D0000001B03955EFE6089
:1023100035676F2F000000007A0000007A6A6D00B8
:1023200000001B009D5EFE603A5C772F0000484273
:102330007A0000007A6A680000001B00A15EFE605F
:10234000925C7B2F00007A447A0000007A6A640075
:1023500000001B04A55EFE603567832F0AD7233C6F
:102360007A0000007A736E0000000300AD5E6260C8
:102370009CC0062E000000007A0000007A737800EE
:1023800000000300B15E62609CC0072E0000803F29
:102390007A0000007A73760000001B00B55EFE60D4
:1023A00035678B2F00007A447A0000007A6C760043
:1023B00000001B00B95EFE6035678F2F0000C84229
:1023C0007A0000007A6C620000001B03BD5EFE60B4
:1023D0003567932F000020417A0000007A7A62006E
:1023E00000001B03C15EFE603567972F0000404070
:1023F0006100000061616D0000000300485EC55B84
:10240000D25B9B2F000040406100000061766D00B0
:1024100000001300915EFE6013629C2F0080CA468C
:102420006100000061667200000013008D5EFE60B6
:102430001362A42F00804A466100000061746E00A0
:1024400000001303995EFE603567B02F000080BF67
:102450006100000061746D0000001303955EFE6072
:102460001362AC2F000080BF61000000616A6D0044
:10247000000013009D5EFE603A5CB42F00349E485D
:1024800061000000616A680000001300A15EFE6048
:10249000925CB82F00349E4861000000616A6400BD
:1024A00000001304A55EFE601362C02FCDCCCC3DAE
:1024B000610000006172610000001B03A95EFE6004
:1024C0001362C42FDFC3A9406100000061736E0076
:1024D00000000300AD5E62609CC0082E0000803FDB
:1024E000610000006173780000000300B15E62606B
:1024F0009CC0092E0000000061000000617376009E
:1025000000001300B55EFE601362C82F0000FA449D
:1025100061000000616C760000001300B95EFE608F
:102520001362CC2F0000FA4461000000616C62006D
:1025300000001303BD5EFE601362D02F0000A040B8
:1025400061000000617A620000001303C15EFE605A
:102550001362D42F000000406200000062616D0031
:1025600000000300485EC55BD25BD82F000000006E
:102570006200000062766D0000001300915EFE6054
:102580001362D92F0000614562000000626672008C
:10259000000013008D5EFE601362E12F00006145B4
:1025A0006200000062746E0000001303995EFE601A
:1025B0003567ED2F000080BF6200000062746D007F
:1025C00000001303955EFE601362E92F000080BFD8
:1025D00062000000626A6D00000013009D5EFE60F4
:1025E0003A5CF12F0000A04162000000626A6400C2
:1025F00000001300A55EFE601362FD2F0AD7233C86
:10260000620000006272610000001B03A95EFE60B0
:10261000136201300000803F6300000063616D00C1
:1026200000000300485EC55BD25B1530000000006F
:102630006300000063766D0000001300915EFE6091
:10264000136216300000614563000000636672008B
:10265000000013008D5EFE6013621E3000006145B5
:102660006300000063746E0000001303995EFE6057
:1026700035672A30000080BF6300000063746D007E
:1026800000001303955EFE6013622630000080BFD9
:1026900063000000636A6D00000013009D5EFE6031
:1026A0003A5C2E300000A04163000000636A6400C1
:1026B00000001300A55EFE6013623A300AD7233C87
:1026C000630000006372610000001B03A95EFE60EE
:1026D00013623E300000803F70310000703166723E
:1026E0007100130026ABFE601362A2570000C842BF
:1026F00070310000703163736C0013002AABFE6010
:102700001362A65700007A44703100007031637381
:10271000680013002EABFE601362AA570000FA4453
:1027200070310000703163706C00130332ABFE60D7
:102730001362AE570000003E7031000070316370CC
:102740006800130336ABFE601362B257CDCC4C3E2B
:1027500070310000703177736C0013003AABFE608B
:102760001362B65700007A447031000070317773FD
:10277000680013003EABFE601362BA570000FA44D3
:1027800070310000703177706C00130342ABFE6053
:102790001362BE570000003E703100007031777048
:1027A0006800130346ABFE601362C257CDCC4C3EAB
:1027B000703100007031706F660013034AABFE6029
:1027C0001362C657CDCCCC3D6735340067353478BD
:1027D00000001B03C55EFE603567542E000000003C
:1027E000673534006735347900001B03C55EFE6031
:1027F0003567582E00000000673534006735347A9D
:1028000000001B03C55EFE6035675C2E0000000003
:10281000673534006735346100001B03C55EFE6018
:102820001362602E000000006735340067353462A3
:1028300000001B03C55EFE601362642E00000000F2
:10284000673534006735346300001B03C55EFE60E6
:102850001362682E00000000673535006735357853
:1028600000001B03C55EFE6035676C2E000011433F
:10287000673535006735357900001B03C55EFE609E
:102880003567702E00002043673535006735357A8F
:1028900000001B03C55EFE603567742E000000005B
:1028A000673535006735356100001B03C55EFE6086
:1028B0001362782E000000006735350067353562F9
:1028C00000001B03C55EFE6013627C2E000000004A
:1028D000673535006735356300001B03C55EFE6054
:1028E0001362802E000000006735360067353678A9
:1028F00000001B03C55EFE603567842E00000000EB
:10290000673536006735367900001B03C55EFE600B
:102910003567882E00000000673536006735367A47
:1029200000001B03C55EFE6035678C2E00000000B2
:10293000673536006735366100001B03C55EFE60F3
:102940001362902E0000000067353600673536624E
:1029500000001B03C55EFE601362942E00000000A1
:10296000673536006735366300001B03C55EFE60C1
:102970001362982E000000006735370067353778FE
:1029800000001B03C55EFE6035679C2E0000000042
:10299000673537006735377900001B03C55EFE6079
:1029A0003567A02E00000000673537006735377A9D
:1029B00000001B03C55EFE603567A42E000000000A
:1029C000673537006735376100001B03C55EFE6061
:1029D0001362A82E000000006735370067353762A4
:1029E00000001B03C55EFE601362AC2E00000000F9
:1029F000673537006735376300001B03C55EFE602F
:102A00001362B02E00000000673538006735387853
:102A100000001B03C55EFE603567B42E0000000099
:102A2000673538006735387900001B03C55EFE60E6
:102A30003567B82E00000000673538006735387AF2
:102A400000001B03C55EFE603567BC2E0000000061
:102A5000673538006735386100001B03C55EFE60CE
:102A60001362C02E000000006735380067353862F9
:102A700000001B03C55EFE601362C42E0000000050
:102A8000673538006735386300001B03C55EFE609C
:102A90001362C82E000000006735390067353978A9
:102AA00000001B03C55EFE603567CC2E00000000F1
:102AB000673539006735397900001B03C55EFE6054
:102AC0003567D02E00000000673539006735397A48
:102AD00000001B03C55EFE603567D42E00000000B9
:102AE000673539006735396100001B03C55EFE603C
:102AF0001362D82E0000000067353900673539624F
:102B000000001B03C55EFE601362DC2E00000000A7
:102B1000673539006735396300001B03C55EFE6009
:102B20001362E02E00000000673932006739327806
:102B300000001103C55EFE60376101310000000036
:102B4000673932006739327900001103C55EFE60D3
:102B50003761053100000000673932006739327A89
:102B600000001103C55EFE603761093100000000FE
:102B7000673932006739326100001103C55EFE60BB
:102B800037610D3100000000673932006739326269
:102B900000001103C55EFE603761113100000000C6
:102BA000673932006739326300001103C55EFE6089
:102BB000376115310000000067323800673238781D
:102BC00000001103C95EFE60376131310000000072
:102BD000673238006732387900001103C95EFE6041
:102BE0003761353100000000673238006732387ACB
:102BF00000001103C95EFE6037613931000000003A
:102C0000673238006732386100001103C95EFE6028
:102C100037613D31000000006732380067323862AA
:102C200000001103C95EFE60376141310000000001
:102C3000673238006732386300001103C95EFE60F6
:102C4000376145310000000067333000673330786A
:102C500000001103C95EFE603761493100000000C9
:102C6000673330006733307900001103C95EFE60BE
:102C700037614D3100000000673330006733307A30
:102C800000001103C95EFE60376151310000000091
:102C9000673330006733306100001103C95EFE60A6
:102CA0003761553100000000673330006733306210
:102CB00000001103C95EFE60376159310000000059
:102CC000673330006733306300001103C95EFE6074
:102CD00037615D31000000006A6964006A696461FF
:102CE0000000000057C3D760EC61FB380000000013
:102CF0006A6964006A6964620000000057C3D760B3
:102D0000EC61FF38000000006A6964006A6964636E
:102D10000000000057C3D760EC61033900000000D9
:102D20006A6964006A6964640000000057C3D76080
:102D3000EC61073900000000737973006A610000DC
:102D400000001F00E75DFE6035671C2E0024F4497B
:102D5000737973006374000000001F04065EFE6058
:102D60003567242E0AD7233C73797300736C0000F7
:102D700000000700255E62603B61282E0000000015
:102D8000737973007374000000000700AEC06260C6
:102D900096C0F72D0000803F737973006D740000BA
:102DA00000001702E2BDFE6057BDC8580000004099
:102DB000000000006D65000000000000A7C3B4BD66
:102DC000B4BDDC3800000000000000006D640000AD
:102DD00000000000A7C391BD91BDDC3800000000D9
:102DE00073797300656A000000000700B6836260B3
:102DF0008C61ED380000803F737973006A760000C3
:102E000000000700BA8362607883C53B0000404041
:102E1000737973006A73000000000700BE8362606C
:102E20008C61C63B0000803F7379730074760000AC
:102E3000000007006CC462608C613B5A0000803F58
:102E40007379730071760000000007002CB1626096
:102E5000CC61FB57000000007379730073760000AB
:102E600000000700CDAF6260AC6108580000803FF1
:102E7000737973007369000000000700C9AFB06088
:102E8000A2AF095800007A437379730065630000AC
:102E900000000700866762606968D42D00000000AA
:102EA0007379730065650000000007008A6762603F
:102EB0004968D52D00000000737973006578000023
:102EC000000007008E6762602968D62D0000803FF1
:102ED0007379730072786D0000000700926762607A
:102EE0008C61D72D0000803F737973006261756437
:102EF0000000040096676260EC66D22D0000A040DE
:102F0000000000007372000000000000C7AF9EAF19
:102F1000A0AFDC380000000000000000717200006B
:102F20000000000020B1E5B03761DC38000000008F
:102F300000000000716900000000000024B1F8B03A
:102F40003761DC380000000000000000716F0000F5
:102F50000000000028B10CB13761DC38000000002F
:102F600000000000657200000000000057C342AC82
:102F70003761DC38000000000000000071660000CE
:102F80000000000057C35E60BE5CDC38000000003B
:102F9000000000007278000000000000D5C3CA667F
:102FA0003761DC3800000000000000006D7367002E
:102FB00000000000A7C35E603761DC38000000003D
:102FC00000000000616C61726D00000057C3E451A5
:102FD000E451DC38000000000000000070616E6900
:102FE0006300000057C391589158DC38000000007E
:102FF00000000000736875746400000057C36758D0
:103000006758DC380000000000000000636C656158
:103010007200000057C3AC51AC51DC380000000016
:1030200000000000636C72000000000057C3AC5148
:10303000AC51DC380000000000000000747874001F
:103040000000000057C35E603961DC3800000000FA
:10305000000000007469640000000100D5C3B06086
:103060006B610B3900000000000000007465737490
:103070000000000057C3A07CB2C0DC380000000094
:1030800000000000646566610000000057C3BA7C60
:103090008865DC380000000000000000626F6F747B
:1030A0000000000057C3D47C217CDC380000000005
:1030B0000000000068656C700000000057C37B7C56
:1030C0003761DC38000000000000000068000000EC
:1030D0000000000057C37B7C3761DC380000000033
:1030E0007379730067706C0000000700D35D626045
:1030F000AC61382E000000007379730067756E00B4
:1031000000000700D75D62608C61392E0000803FAF
:103110007379730067636F0000000700DB5D626016
:103120003B61372E0000803F737973006770610048
:1031300000000700DF5D6260AC613A2E00000040D5
:10314000737973006764690000000700E35D6260E3
:103150008C613B2E0000000000000000676300004F
:103160000000000057C3D57AE57ADC380000000083
:10317000000000006D61000000001B04295EFE607D
:1031800035672F2ECDCCCC3D756461007564613000
:1031900000000300D5C3D760EC6198380000000040
:1031A000756461007564613100000300D5C3D760A8
:1031B000EC619C3800000000756461007564613248
:1031C00000000300D5C3D760EC61A0380000000008
:1031D000756461007564613300000300D5C3D76076
:1031E000EC61A43800000000756462007564623010
:1031F00000000300D5C3D760EC61A83800000000D0
:10320000756462007564623100000300D5C3D76045
:10321000EC61AC38000000007564620075646232D5
:1032200000000300D5C3D760EC61B0380000000097
:10323000756462007564623300000300D5C3D76013
:10324000EC61B4380000000075646300756463309D
:1032500000000300D5C3D760EC61B838000000005F
:10326000756463007564633100000300D5C3D760E3
:10327000EC61BC3800000000756463007564633263
:1032800000000300D5C3D760EC61C0380000000027
:10329000756463007564633300000300D5C3D760B1
:1032A000EC61C4380000000075646400756464302B
:1032B00000000300D5C3D760EC61C83800000000EF
:1032C000756464007564643100000300D5C3D76081
:1032D000EC61CC38000000007564640075646432F1
:1032E00000000300D5C3D760EC61D03800000000B7
:1032F000756464007564643300000300D5C3D7604F
:10330000EC61D438000000005F7465005F7465787C
:103310000000100203C4FE6037616B55000000001E
:103320005F7465005F7465790000100203C4FE607D
:1033300037616F55000000005F7465005F74657A47
:103340000000100203C4FE603761735500000000E6
:103350005F7465005F7465610000100203C4FE6065
:1033600037617755000000005F7465005F74656227
:103370000000100203C4FE6037617B5500000000AE
:103380005F7465005F7465630000100203C4FE6033
:1033900037617F55000000005F7472005F747278BF
:1033A0000000100203C4FE60376190560000000068
:1033B0005F7472005F7472790000100203C4FE60D3
:1033C00037619456000000005F7472005F74727A77
:1033D0000000100203C4FE60376198560000000030
:1033E0005F7472005F7472610000100203C4FE60BB
:1033F00037619C56000000005F7472005F74726257
:103400000000100203C4FE603761A05600000000F7
:103410005F7472005F7472630000100203C4FE6088
:103420003761A456000000005F7473005F7473314D
:103430000000100203C4FE603761FB55000000006D
:103440005F7073005F7073310000100203C4FE6090
:1034500037610B56000000005F6373005F637331D8
:103460000000100203C4FE6037611B56000000001C
:103470005F6573005F6573310000100203C4FE6076
:1034800037612B56000000005F7873005F7873315E
:103490000000100203C4FE603761635900000000A1
:1034A0005F6665005F6665310000100203C4FE6060
:1034B00037613B56000000005F7473005F74733225
:1034C0000000100203C4FE603761FF5500000000D9
:1034D0005F7073005F7073320000100203C4FE60FF
:1034E00037610F56000000005F6373005F63733243
:1034F0000000100203C4FE6037611F560000000088
:103500005F6573005F6573320000100203C4FE60E4
:1035100037612F56000000005F7873005F787332C8
:103520000000100203C4FE6037617B5900000000F8
:103530005F6665005F6665320000100203C4FE60CE
:1035400037613F56000000005F7473005F7473338F
:103550000000100203C4FE60376103560000000043
:103560005F7073005F7073330000100203C4FE606D
:1035700037611356000000005F6373005F637333AD
:103580000000100203C4FE603761235600000000F3
:103590005F6573005F6573330000100203C4FE6053
:1035A00037613356000000005F7873005F78733333
:1035B0000000100203C4FE60376193590000000050
:1035C0005F6665005F6665330000100203C4FE603D
:1035D00037614356000000005F7473005F747334FA
:1035E0000000100203C4FE603761075600000000AF
:1035F0005F7073005F7073340000100203C4FE60DC
:1036000037611756000000005F6373005F63733417
:103610000000100203C4FE6037612756000000005E
:103620005F6573005F6573340000100203C4FE60C1
:1036300037613756000000005F7873005F7873349D
:103640000000100203C4FE603761AB5900000000A7
:103650005F6665005F6665340000100203C4FE60AB
:103660003761475600000000000000005F64616D94
:103670000000000057C3335D335DDC3800000000FC
:1036800000000000736530300000020057C38960FD
:1036900052611458000000000000000073653031D2
:1036A0000000020057C389605261165800000000F4
:1036B00000000000736530320000020057C38960CB
:1036C000526118580000000000000000736530339C
:1036D0000000020057C3896052611A5800000000C0
:1036E00000000000736530340000020057C3896099
:1036F00052611C5800000000000000007365303566
:103700000000020057C3896052611E58000000008B
:1037100000000000736530360000020057C3896066
:10372000526120580000000000000000736530372F
:103730000000020057C38960526122580000000057
:1037400000000000736530380000020057C3896034
:1037500052612458000000000000000073653039F9
:103760000000020057C38960526126580000000023
:1037700000000000736531300000020057C389600B
:1037800052612858000000000000000073653131CC
:103790000000020057C3896052612A5800000000EF
:1037A00000000000736531320000020057C38960D9
:1037B00052612C5800000000000000007365313396
:1037C0000000020057C3896052612E5800000000BB
:1037D00000000000736531340000020057C38960A7
:1037E0005261305800000000000000007365313560
:1037F0000000020057C38960526132580000000087
:1038000000000000736531360000020057C3896074
:103810005261345800000000000000007365313729
:103820000000020057C38960526136580000000052
:1038300000000000736531380000020057C3896042
:1038400052613858000000000000000073653139F3
:103850000000020057C3896052613A58000000001E
:1038600000000000736532300000020057C3896019
:1038700052613C58000000000000000073653231C6
:103880000000020057C3896052613E5800000000EA
:1038900000000000736532320000020057C38960E7
:1038A0005261405800000000000000007365323390
:1038B0000000020057C389605261425800000000B6
:1038C00000000000736532340000020057C38960B5
:1038D000526144580000000000000000736532355A
:1038E0000000020057C38960526146580000000082
:1038F00000000000736532360000020057C3896083
:103900005261485800000000000000007365323723
:103910000000020057C3896052614A58000000004D
:1039200000000000736532380000020057C3896050
:1039300052614C58000000000000000073653239ED
:103940000000020057C3896052614E580000000019
:1039500000000000737973000000000057C3CE63BD
:103960004C62DC38000000000000000070310000F4
:103970000000000057C3CE634C62DC38000000003A
:1039800000000000310000000000000057C3CE63BB
:103990004C62DC3800000000000000003200000033
:1039A0000000000057C3CE634C62DC38000000000A
:1039B00000000000330000000000000057C3CE6389
:1039C0004C62DC3800000000000000003400000001
:1039D0000000000057C3CE634C62DC3800000000DA
:1039E00000000000780000000000000057C3CE6314
:1039F0004C62DC380000000000000000790000008C
:103A00000000000057C3CE634C62DC3800000000A9
:103A1000000000007A0000000000000057C3CE63E1
:103A20004C62DC3800000000000000006100000073
:103A30000000000057C3CE634C62DC380000000079
:103A400000000000620000000000000057C3CE63C9
:103A50004C62DC3800000000000000006300000041
:103A60000000000057C3CE634C62DC380000000049
:103A700000000000673534000000000057C3CE632B
:103A80004C62DC38000000000000000067353500A3
:103A90000000000057C3CE634C62DC380000000019
:103AA00000000000673536000000000057C3CE63F9
:103AB0004C62DC3800000000000000006735370071
:103AC0000000000057C3CE634C62DC3800000000E9
:103AD00000000000673538000000000057C3CE63C7
:103AE0004C62DC380000000000000000673539003F
:103AF0000000000057C3CE634C62DC3800000000B9
:103B000000000000673932000000000057C3CE6398
:103B10004C62DC3800000000000000006732380012
:103B20000000000057C3CE634C62DC380000000088
:103B300000000000673330000000000057C3CE6370
:103B40004C62DC3800000000000000006D706F0067
:103B50000000000057C3CE634C62DC380000000058
:103B600000000000706F73000000000057C3CE63B8
:103B70004C62DC3800000000000000006F6673003B
:103B80000000000057C3CE634C62DC380000000028
:103B900000000000686F6D000000000057C3CE6396
:103BA0004C62DC380000000000000000707262000F
:103BB0000000000057C3CE634C62DC3800000000F8
:103BC00000000000707772000000000057C3CE6351
:103BD0004C62DC3800000000000000006A6F6700E3
:103BE0000000000057C3CE634C62DC3800000000C8
:103BF000000000006A6964000000000057C3CE6343
:103C00004C62DC38000000000000000075646100B8
:103C10000000000057C3CE634C62DC380000000097
:103C200000000000756462000000000057C3CE630E
:103C30004C62DC3800000000000000007564630086
:103C40000000000057C3CE634C62DC380000000067
:103C500000000000756464000000000057C3CE63DC
:103C60004C62DC3800000000000000005F7465005A
:103C70000000000057C3CE634C62DC380000000037
:103C8000000000005F7472000000000057C3CE63A4
:103C90004C62DC3800000000000000005F7473001C
:103CA0000000000057C3CE634C62DC380000000007
:103CB000000000005F7073000000000057C3CE6377
:103CC0004C62DC3800000000000000005F637300FD
:103CD0000000000057C3CE634C62DC3800000000D7
:103CE000000000005F6573000000000057C3CE6352
:103CF0004C62DC3800000000000000005F787300B8
:103D00000000000057C3CE634C62DC3800000000A6
:103D1000000000005F6665000000000057C3CE632E
:103D20004C62DC3800000000000000006D00000064
:103D30000000000057C3F3673761DC380000000063
:103D400000000000710000000000000057C3EE6793
:103D50003761DC3800000000000000006F00000048
:103D60000000000057C3E9673761DC38000000003D
:103D700000000000240000000000000057C3F867A6
:103D80003761DC3800000000636F6E74726F6C6C1A
:103D900065725F746573745F617373657274696F64
:103DA0006E73282900486F6D696E67206572726FA7
:103DB00072202D20256320617869732073657474E7
:103DC000696E6773206D6973636F6E66696775727C
:103DD000656400486F6D696E67206572726F72204E
:103DE0002D20426164206F72206E6F2061786973AC
:103DF0002865732920737065636966696564007B53
:103E0000226A6F67223A307D0A0050726F62696ED3
:103E100067206572726F72202D202563206178699A
:103E2000732063616E6E6F74206D6F7665206475AC
:103E300072696E672070726F62696E670050726F90
:103E400062696E67206572726F72202D20696E76CE
:103E5000616C69642070726F626520646573746957
:103E60006E6174696F6E00656E636F6465725F7416
:103E70006573745F617373657274696F6E732829FB
:103E80000041424344454647484A4B4C4D4E5051F1
:103E900052535455565758595A32333435363738A9
:103EA00039005B69645D202054696E79472049447C
:103EB000253330730A005B68765D20206861726488
:103EC000776172652076657273696F6E2531362E63
:103ED00032660A005B68705D2020686172647761F9
:103EE000726520706C6174666F726D253132640A80
:103EF000005B66765D20206669726D776172652071
:103F000076657273696F6E2531362E32660A005BF4
:103F100066625D20206669726D77617265206275E8
:103F2000696C642531382E32660A00456E746572FC
:103F30002024626F6F743D3120746F20656E74654C
:103F4000722074686520626F6F74206C6F616465A5
:103F5000722E0A000A0A0A2323232054696E794725
:103F600020424F4F54204C4F414445522048656CED
:103F700070202323230A00456E7465722024646533
:103F800066613D3120746F207265736574207468BA
:103F9000652073797374656D20746F207468652073
:103FA000666163746F72792064656661756C7420F4
:103FB00076616C7565732E0A546869732077696C35
:103FC0006C206F766572777269746520616E7920F6
:103FD0006368616E67657320796F752068617665C7
:103FE000206D6164652E0A000A0A0A2323232054E7
:103FF000696E794720524553544F524520444546F7
:1040000041554C54532048656C70202323230A00EB
:10401000496E766F6B652073656C6620746573748A
:1040200020627920656E746572696E6720247465FC
:1040300073743D4E207768657265204E2069732049
:104040006F6E65206F663A0A202024746573743D94
:10405000312020736D6F6B6520746573740A2020A6
:1040600024746573743D322020686F6D696E67201B
:104070007465737420202028796F75206D757374B2
:10408000207472697020686F6D696E67207377693C
:104090007463686573290A202024746573743D3342
:1040A00020207371756172652074657374202020FF
:1040B000286120736572696573206F66207371755E
:1040C00061726573290A202024746573743D34205D
:1040D00020617263207465737420202020202028C2
:1040E000736F6D65206C6172676520636972636CC4
:1040F0006573290A202024746573743D352020647B
:1041000077656C6C207465737420202020286D6F97
:104110007665732073706163656420627920312055
:104120007365636F6E64206477656C6C73290A2015
:104130002024746573743D36202066656564686F5D
:104140006C6420746573742028656E746572202118
:1041500020616E64207E20746F20686F6C64206123
:104160006E6420726573746172742C207265737052
:104170006563746976656C79290A202024746573F7
:10418000743D3720204D20636F6465732074657320
:10419000742020284D20636F64657320696E7465F8
:1041A000726D696E676C65642077697468206D6FE5
:1041B000766573290A202024746573743D382020A5
:1041C0004A534F4E20746573742020202020286DA0
:1041D0006F74696F6E20746573742072756E2075CC
:1041E00073696E67204A534F4E20636F6D6D616E29
:1041F0006473290A202024746573743D3920206972
:104200006E76657273652074696D6520746573746C
:104210000A202024746573743D313020726F7461FC
:104220007279206D6F74696F6E20746573740A20E3
:104230002024746573743D313120736D616C6C2082
:104240006D6F76657320746573740A20202474651D
:1042500073743D313220736C6F77206D6F766573A8
:1042600020746573740A202024746573743D31339F
:1042700020636F6F7264696E617465207379737403
:10428000656D206F6666736574207465737420288D
:104290004739322C204735342D473539290A0A54FD
:1042A0006573747320617373756D65206120636538
:1042B0006E7465726564205859206F726967696E03
:1042C00020616E64206174206C65617374203830E5
:1042D0006D6D20636C656172616E636520696E202F
:1042E000616C6C20646972656374696F6E730A54E3
:1042F0006573747320617373756D65205A206861EE
:1043000073206174206C656173742034306D6D208E
:10431000706F7369697469766520636C6561726139
:104320006E63650A546573747320737461727420CC
:104330007769746820612047302058302059302038
:104340005A30206D6F76650A486F6D696E67206917
:10435000732074686520657863657074696F6E2E6C
:10436000204E6F20696E697469616C20706F73698B
:1043700074696F6E206F7220636C656172616E6329
:104380006520697320617373756D65640A000A0A9C
:104390000A2323232054696E79472053454C462035
:1043A000544553542048656C70202323230A00454C
:1043B000616368202420636F6D6D616E64206162AB
:1043C0006F766520616C736F20646973706C6179BE
:1043D000732074686520746F6B656E20666F722041
:1043E000656163682073657474696E6720696E2007
:1043F0005B205D20627261636B6574730A546F2089
:10440000766965772073657474696E677320656E6D
:10441000746572206120746F6B656E3A0A0A202001
:10442000243C746F6B656E3E0A0A466F7220657895
:10443000616D706C65202479667220746F206469E8
:1044400073706C6179207468652059206D617820E3
:104450006665656420726174650A0A546F20757020
:10446000646174652073657474696E677320656E2A
:1044700074657220746F6B656E20657175616C7305
:104480002076616C75653A0A0A2020243C746F6BB3
:10449000656E3E3D3C76616C75653E0A0A466F72FC
:1044A000206578616D706C6520247966723D3830C6
:1044B0003020746F20736574207468652059206DF6
:1044C00061782066656564207261746520746F2070
:1044D000383030206D6D2F6D696E7574650A466FCA
:1044E0007220636F6E66696775726174696F6E20A2
:1044F00064657461696C73207365653A20687474CF
:1045000070733A2F2F6769746875622E636F6D2F11
:1045100073796E746865746F732F54696E79472F61
:1045200077696B692F54696E79472D436F6E6669A1
:104530006775726174696F6E0A00546865736520EF
:10454000636F6D6D616E6473206172652061637469
:1045500069766520666F7220636F6E666967757233
:104560006174696F6E3A0A2020247379732053684E
:104570006F772073797374656D202867656E657237
:10458000616C292073657474696E67730A20202436
:104590003120202053686F77206D6F746F72203147
:1045A0002073657474696E677320286F7220776852
:1045B000617465766572206D6F746F7220796F75A6
:1045C0002077616E7420312C322C332C34290A2050
:1045D00020247820202053686F7720582061786944
:1045E000732073657474696E677320286F72207707
:1045F00068617465766572206178697320796F757A
:104600002077616E7420782C792C7A2C612C622CA6
:1046100063290A2020246D20202053686F772061B1
:104620006C6C206D6F746F722073657474696E6743
:10463000730A2020247120202053686F7720616C3A
:104640006C20617869732073657474696E67730A8E
:104650002020246F20202053686F7720616C6C200D
:104660006F66667365742073657474696E67730A28
:104670002020242420202053686F7720616C6C2038
:1046800073657474696E67730A2020246820202083
:1046900053686F7720746869732068656C70207345
:1046A000637265656E0A0A000A0A0A2323232054EE
:1046B000696E794720434F4E464947555241544908
:1046C0004F4E2048656C70202323230A000A466F52
:1046D000722064657461696C65642054696E794701
:1046E00020696E666F207365653A20687474707314
:1046F0003A2F2F6769746875622E636F6D2F737917
:104700006E746865746F732F54696E79472F77697B
:104710006B692F0A466F7220746865206C6174653E
:104720007374206669726D77617265207365653A8E
:104730002068747470733A2F2F6769746875622EDD
:10474000636F6D2F73796E746865746F732F54691E
:104750006E79470A506C65617365206C6F672061E4
:104760006E79206973737565732061742068747441
:10477000703A2F2F7777772E73796E746865746F20
:10478000732E636F6D2F666F72756D730A48617655
:10479000652066756E0A000A4E6F74653A2054698A
:1047A0006E79472067656E65726174657320617507
:1047B000746F6D61746963207374617475732072B2
:1047C00065706F7274732062792064656661756CC0
:1047D000740A546869732063616E2062652064699D
:1047E0007361626C656420627920656E74657269BC
:1047F0006E67202473763D300A53656520746865C2
:104800002077696B692062656C6F7720666F722014
:104810006D6F72652064657461696C732E0A005453
:104820006865736520636F6D6D616E64732061727E
:1048300065206163746976652066726F6D207468A7
:104840006520636F6D6D616E64206C696E653A0AF8
:10485000205E7820202020202020202020202020C2
:1048600052657365742028636F6E74726F6C207864
:1048700029202D20736F66747761726520726573CD
:1048800065740A20203F2020202020202020202086
:104890002020204D616368696E6520706F736974B4
:1048A000696F6E20616E642067636F6465206D6F51
:1048B00064656C2073746174650A202024202020B4
:1048C0002020202020202020202053686F77206186
:1048D0006E642073657420636F6E666967757261BC
:1048E00074696F6E2073657474696E67730A202033
:1048F000212020202020202020202020202046654C
:104900006564686F6C64202D2073746F70206D6F08
:1049100074696F6E20776974686F7574206C6F733B
:10492000696E6720706F736974696F6E0A20207EEC
:1049300020202020202020202020202020437963B8
:104940006C65205374617274202D207265737461DC
:1049500072742066726F6D2066656564686F6C6442
:104960000A20206820202020202020202020202015
:104970002053686F7720746869732068656C7020B5
:1049800073637265656E0A20202468202020202031
:104990002020202020202053686F7720636F6E66D0
:1049A000696775726174696F6E2068656C702073D9
:1049B000637265656E0A202024746573742020205C
:1049C0002020202020204C6973742073656C662D94
:1049D00074657374730A202024746573743D4E20CB
:1049E00020202020202052756E2073656C662D7467
:1049F000657374204E0A202024686F6D653D312058
:104A000020202020202052756E206120686F6D6963
:104A10006E67206379636C650A2020246465666193
:104A20003D3120202020202020526573746F726554
:104A300020616C6C2073657474696E677320746F89
:104A40002022666163746F727922206465666175E5
:104A50006C74730A000A0A0A2323232054696E79AE
:104A6000472048656C70202323230A005B25735D73
:104A7000002225732200223078256C782200256CD4
:104A8000750066616C73650074727565006E756C97
:104A90006C00222573223A0025733A0022007B2203
:104AA00072223A7B22747874223A22007B723A7B1B
:104AB0007478743A22005B6A735D20206A736F6EAB
:104AC0002073657269616C697A65207374796C65AD
:104AD000253964205B303D72656C617865642C31EA
:104AE0003D7374726963745D0A005B6A765D2020B1
:104AF0006A736F6E20766572626F7369747925319F
:104B00003564205B303D73696C656E742C313D6695
:104B10006F6F7465722C323D6D6573736167657379
:104B20002C333D636F6E666967732C343D6C696E20
:104B3000656E756D2C353D766572626F73655D0AC5
:104B4000005B656A5D2020656E61626C65206A733A
:104B50006F6E206D6F646525313364205B303D746A
:104B60006578742C313D4A534F4E5D0A00675C6195
:104B70005C5A5C435C2F5C1F5C125C065CFA5BEC6D
:104B80005BD55BC65BB95BA35B915B845B6F5B5B77
:104B90005B4E5B4B5B3C5B275B125B035BF35AE159
:104BA0005ACA5AC75AAA5A915A7B5A6A5A585A4BE1
:104BB0005A395A1F5A025AFF59FC59F959F659F3F2
:104BC00059F059ED59EA59E759E459E159DE59DBF1
:104BD00059D859D559D259CF59CC59C959C659C3A1
:104BE00059C059BD59BA59B759B459B159AE59AB51
:104BF00059A859A559A2599F599C59995996599301
:104C00005990598D598A598759845981597E597BB0
:104C1000597859755972596F596C5969594B5928B6
:104C2000590F59F958DF58C558AB5887586A585228
:104C3000583C582258FE57E157CF57AF5798577FE7
:104C4000576A57515733571757FF56ED56D556C029
:104C5000569F569B56975693568F568B568756831C
:104C6000567F567B56775673566F566B566756630C
:104C70005649562F561C560056EE55D755B955ABCA
:104C8000558E5571555A5543552C55F954CC54AC45
:104C9000548A5464543D5421540254DD53B453B0E7
:104CA000537E5366533B530F53D952A452955286A9
:104CB000527A526A5254523552265217520852F9B9
:104CC00051EA51DB51CC51BD51AE519F51905181B0
:104CD00051725163515451455141513D51395135F2
:104CE0005131512D512951255121511D5119511524
:104CF0005111510D51095105510151FD50EF50DD38
:104D000050CD509D50715042501A5011500D5009C5
:104D10005005500150FD4FF94FF54FF14FED4FE960
:104D20004FE54FE14FD64FC34FB04F9D4F8A4F775E
:104D30004F644F514F3E4F2B4F184F054FF24EDCF3
:104D40004ED84ED44ED04ECC4EC84EC44EB04E8AE5
:104D50004E654E414E164E124EE74DB84DB44DB015
:104D60004D9D4D7C4D674D4A6F6767696E67206347
:104D700079636C65206661696C65640050726F626E
:104D80006520656E64706F696E742069732073743A
:104D9000617274696E6720706F696E740050726F13
:104DA0006265206379636C65206661696C65640087
:104DB0003234390032343800486F6D696E672045EF
:104DC0007272202D204D75737420636C65617220A2
:104DD0007377697463686573206265666F726520B6
:104DE000686F6D696E6700486F6D696E6720457208
:104DF00072202D20486F6D696E6720696E70757422
:104E0000206973206D6973636F6E6669677572657B
:104E1000640032343500486F6D696E6720457272E8
:104E2000202D2054726176656C206D696E202620DD
:104E30006D617820617265207468652073616D65AD
:104E400000486F6D696E6720457272202D204C619D
:104E50007463682076656C6F636974792069732068
:104E60007A65726F00486F6D696E672045727220B7
:104E70002D205365617263682076656C6F63697479
:104E800079206973207A65726F00486F6D696E676B
:104E900020457272202D20426164206F72206E6F57
:104EA0002061786973207370656369666965640061
:104EB000486F6D696E67206379636C652066616910
:104EC0006C656400323339003233380032333700D6
:104ED000323336003233350032333400536F667468
:104EE000206C696D697420647572696E67206172E7
:104EF0006300536F6674206C696D6974202D2043C4
:104F0000206D617800536F6674206C696D69742040
:104F10002D2043206D696E00536F6674206C696D9F
:104F20006974202D2042206D617800536F667420D3
:104F30006C696D6974202D2042206D696E00536F7D
:104F40006674206C696D6974202D2041206D617834
:104F500000536F6674206C696D6974202D204120A8
:104F60006D696E00536F6674206C696D6974202DD5
:104F7000205A206D617800536F6674206C696D69EA
:104F800074202D205A206D696E00536F6674206C5A
:104F9000696D6974202D2059206D617800536F660A
:104FA00074206C696D6974202D2059206D696E0024
:104FB000536F6674206C696D6974202D2058206DC4
:104FC000617800536F6674206C696D6974202D20C0
:104FD00058206D696E00536F6674206C696D69743A
:104FE0000032313900323138003231370032313657
:104FF0000032313500323134003231330032313257
:105000000032313100323130003230390032303844
:10501000004B696C6C206A6F6200436F6D6D616E4E
:10502000642072656A65637465642062792050410A
:105030004E4943205B5E7820746F207265736574FF
:105040005D00436F6D6D616E642072656A656374A7
:1050500065642062792053485554444F574E205B75
:1050600024636C65617220746F2072657365745D72
:1050700000436F6D6D616E642072656A656374656F
:105080006420627920414C41524D205B24636C6561
:10509000617220746F2072657365745D004C696D78
:1050A000697420686974205B24636C656172207484
:1050B0006F2072657365742C20246C696D3D3020FF
:1050C000746F206F766572726964655D004D6F76EE
:1050D00065203C206D696E2074696D65004D6F76AA
:1050E00065203C206D696E206C656E6774680047B2
:1050F000656E65726963206572726F72003139394D
:10510000003139380031393700313936003139351D
:10511000003139340031393300313932003139311D
:105120000031393000313839003138380031383702
:1051300000313836003138350031383400313833F9
:1051400000313832005420776F726420696E7661C6
:105150006C6964005420776F7264206D69737369A1
:105160006E67005320776F726420696E76616C6998
:1051700064005320776F7264206D697373696E6782
:10518000005220776F726420696E76616C696400EA
:105190005220776F7264206D697373696E67005176
:1051A00020776F726420696E76616C6964005120AB
:1051B000776F7264206D697373696E67004C207736
:1051C0006F726420696E76616C6964004C20776F41
:1051D0007264206D697373696E67004820776F721F
:1051E0006420696E76616C6964004820776F726430
:1051F000206D697373696E67004520776F72642054
:10520000696E76616C6964004520776F7264206D09
:10521000697373696E67004420776F726420696EEA
:1052200076616C6964004420776F7264206D6973E5
:1052300073696E67005020776F7264206E6F742000
:10524000612076616C696420746F6F6C206E756D7F
:10525000626572005020776F7264206E6F742061F7
:105260006E20696E7465676572005020776F726496
:10527000206E65676174697665005020776F72648F
:10528000207A65726F005020776F726420696E76A5
:10529000616C6964005020776F7264206D6973736C
:1052A000696E670041726320737065636966696344
:1052B0006174696F6E206572726F72202D20656E49
:1052C00064706F696E74206973207374617274699D
:1052D0006E6720706F696E74004172632073706531
:1052E00063696669636174696F6E206572726F725B
:1052F000202D2072616469757320617263206F755F
:1053000074206F6620746F6C6572616E6365004116
:1053100072632073706563696669636174696F6E37
:10532000206572726F72202D206D697373696E67CC
:10533000206F666673657428732900417263207359
:10534000706563696669636174696F6E2065727206
:105350006F72202D206D697373696E6720617869A3
:1053600073286573290041726320737065636966F1
:1053700069636174696F6E206572726F7200417249
:10538000632073706563696669636174696F6E2019
:105390006572726F72202D20696D706F7373696210
:1053A0006C652063656E74657220706F696E740041
:1053B000313533005370696E646C65206D7573749C
:1053C000206265207475726E696E6720666F722048
:1053D0007468697320636F6D6D616E6400537069EA
:1053E0006E646C65206D757374206265206F6666EF
:1053F00020666F72207468697320636F6D6D616ED3
:1054000064005370696E646C652073706565642018
:105410006578636565646564206D6178696D756D37
:10542000005370696E646C652073706565642062FA
:10543000656C6F77206D696E696D756D0050726F68
:105440006772616D6D656420706F696E7420736141
:105450006D652061732063757272656E7420706F64
:10546000696E740043757474657220636F6D706546
:105470006E736174696F6E2063616E6E6F7420620B
:105480006520656E61626C65640052657175657357
:105490007465642076656C6F6369747920657863E0
:1054A00065656473206C696D697473004730206FA3
:1054B00072204731206D75737420626520616374BA
:1054C00069766520666F722047353300526F7461CC
:1054D000727920617865732063616E6E6F742062EB
:1054E00065207573656420776974682074686973D2
:1054F00020636F6D6D616E6400496E7665727365D1
:105500002074696D65206D6F64652063616E6E6FD8
:1055100074206265207573656420776974682074EF
:1055200068697320636F6D6D616E640046656564C4
:1055300072617465206E6F7420737065636966694B
:1055400065640053656C656374656420706C616E9E
:105550006520696E76616C69640053656C6563747F
:10556000656420706C616E65206D697373696E6728
:1055700000417869732074617267657420706F737D
:105580006974696F6E20696E76616C696400417838
:1055900069732074617267657420706F73697469D0
:1055A0006F6E206D697373696E670041786973204F
:1055B00064697361626C6564004178697320696E27
:1055C00076616C696420666F722074686973206309
:1055D0006F6D6D616E6400417869732063616E6EFA
:1055E0006F742062652070726573656E7400417817
:1055F000697320776F7264206D697373696E6700D9
:1056000047636F6465206D6F64616C2067726F75AE
:10561000702076696F6C6174696F6E004D20636FE6
:10562000646520756E737570706F72746564004781
:10563000636F646520636F6D6D616E6420756E735A
:105640007570706F727465640047656E657269632A
:105650002047636F646520696E707574206572728F
:105660006F72003132390031323800313237003157
:1056700032360031323500313234003132330031CC
:1056800032320031323100313230003131390031C3
:105690003138003131370031313600313135004A8F
:1056A000534F4E20747874206669656C6473206370
:1056B000616E6E6F74206265206E65737465640040
:1056C0004A534F4E20737472696E6720746F6F2057
:1056D0006C6F6E67004A534F4E2068617320746F81
:1056E0006F206D616E79207061697273004A534F4B
:1056F0004E2073796E746178206572726F72004902
:105700006E7075742076616C75652072616E676568
:10571000206572726F7200496E70757420657863CF
:1057200065656473206D6178696D756D2076616C57
:10573000756500496E707574206C657373207468AC
:10574000616E206D696E696D756D2076616C756531
:1057500000496E7075742065786365656473206DAB
:105760006178206C656E67746800436F6D6D616E63
:1057700064206E6F742061636365707465640050AB
:105780006172616D657465722063616E6E6F742005
:105790006265207265616400506172616D65746557
:1057A0007220697320726561642D6F6E6C7900558B
:1057B0006E737570706F72746564206E756D62655E
:1057C00072206F72204A534F4E20747970650042E8
:1057D0006164206E756D62657220666F726D6174B2
:1057E00000496E76616C6964206F72206D616C6631
:1057F0006F726D656420636F6D6D616E6400556ED0
:105800007265636F676E697A656420636F6D6D6141
:105810006E64206F7220636F6E666967206E616DC3
:10582000650047656E6572696320617373657274A4
:10583000696F6E206661696C757265004D656D6F8C
:105840007279206661756C74206465746563746533
:105850006400537461636B206F766572666C6F775A
:1058600020646574656374656400436F6E74726F61
:105870006C6C657220617373657274696F6E2066FB
:1058800061696C7572650043616E6F6E6963616C0E
:10589000206D616368696E652061737365727469F8
:1058A0006F6E206661696C75726500506C616E6E1A
:1058B000657220617373657274696F6E20666169C9
:1058C0006C757265005374657070657220617373D6
:1058D000657274696F6E206661696C7572650045EA
:1058E0006E636F64657220617373657274696F6E45
:1058F000206661696C7572650058494F2061737349
:10590000657274696F6E206661696C7572650043BB
:105910006F6E66696720617373657274696F6E205C
:105920006661696C757265005374617465206D61A0
:105930006E6167656D656E742061737365727469FD
:105940006F6E206661696C7572650042756666658A
:1059500072206672656520617373657274696F6E1B
:10596000206661696C75726500383700383600381A
:1059700035003834003833003832003831003830E0
:1059800000373900373800373700373600373500F1
:1059900037340037330037320037310037300036C4
:1059A00039003638003637003636003635003634A2
:1059B00000363300363200363100363000353900DB
:1059C000353800353700353600353500353400358B
:1059D0003300353200353100353000343900343889
:1059E00000343700343600343500343400343300AA
:1059F000343200343100343000333900333800336E
:105A000037004661696C656420746F206765742097
:105A1000706C616E6E6572206275666665720042BA
:105A2000616420737461747573207265706F727431
:105A30002073657474696E6700506572736973745E
:105A4000656E6365206572726F7200466C6F61747B
:105A5000206973204E414E00466C6F61742069735B
:105A600020696E66696E697465004D6F7665207495
:105A7000696D65206973204E414E004D6F7665203B
:105A800074696D6520697320696E66696E697465F5
:105A90000047656E65726963206578636570746937
:105AA0006F6E207265706F7274004661696C656418
:105AB00020746F2067657420706C616E6E65722053
:105AC00062756666657200323700496E6974696195
:105AD0006C697A6174696F6E206661696C75726554
